{
  "fileName": "Authentication.sol",
  "contractName": "Authentication",
  "source": "pragma experimental ABIEncoderV2;\npragma solidity >0.4.99 <0.6.0;\n\ncontract Authentication {\n    struct account {\n        uint256 id;\n        address owner;\n        string userName;\n        string email;\n        string phoneNumber;\n        string password;\n        string logoLink;\n        string country;\n        bool labo;\n        bool blocked;\n    }\n\n    struct signupRequest {\n        address owner;\n        uint256 id;\n        string date;\n        string name;\n        string email;\n        string phoneNumber;\n        string responsableName;\n        string country;\n        string logoLink;\n        bool pending;\n        bool approved;\n    }\n\n    mapping(uint256 => account) public accounts;\n    mapping(address => bool) public adminAccounts;\n    mapping(uint256 => signupRequest) private signupRequestsId;\n    mapping(address => signupRequest) private signupRequestsAddress;\n\n    // State variables\n    uint256 accountsCounter;\n    uint256 signupRequestCounter;\n\n    function initContract() public {\n        adminAccounts[msg.sender] = true;\n    }\n\n    function signupAsClient(\n        address _address,\n        string memory _userName,\n        string memory _email,\n        string memory phoneNumber,\n        string memory _phAddress\n    ) public {\n        // store account\n        accountsCounter++;\n        accounts[accountsCounter] = account(\n            accountsCounter,\n            _address,\n            _userName,\n            _email,\n            phoneNumber,\n            _phAddress,\n            \"\",\n            \"\",\n            false,\n            false\n        );\n    }\n\n    function signupAsLabo(\n        address _address,\n        string memory requestDate,\n        string memory laboName,\n        string memory phoneNumber,\n        string memory _email,\n        string memory responsableName,\n        string memory country,\n        string memory logoLink\n    ) public {\n        signupRequestCounter++;\n        signupRequestsId[signupRequestCounter] = signupRequest(\n            _address,\n            signupRequestCounter,\n            requestDate,\n            laboName,\n            phoneNumber,\n            _email,\n            responsableName,\n            country,\n            logoLink,\n            true,\n            false\n        );\n        signupRequestsAddress[_address] = signupRequest(\n            _address,\n            signupRequestCounter,\n            requestDate,\n            laboName,\n            phoneNumber,\n            _email,\n            responsableName,\n            country,\n            logoLink,\n            true,\n            false\n        );\n    }\n\n    function approveRequest(uint256 id) public {\n        require(adminAccounts[msg.sender], \"You are not admin\");\n        signupRequest memory request = signupRequestsId[id];\n        signupRequestsId[id] = signupRequest(\n            request.owner,\n            request.id,\n            request.date,\n            request.name,\n            request.phoneNumber,\n            request.email,\n            request.responsableName,\n            request.country,\n            request.logoLink,\n            false,\n            true\n        );\n        signupRequestsAddress[request.owner] = signupRequest(\n            request.owner,\n            request.id,\n            request.date,\n            request.name,\n            request.phoneNumber,\n            request.email,\n            request.responsableName,\n            request.country,\n            request.logoLink,\n            false,\n            true\n        );\n        accountsCounter++;\n        accounts[accountsCounter] = account(\n            accountsCounter,\n            request.owner,\n            request.name,\n            request.email,\n            request.phoneNumber,\n            request.responsableName,\n            request.logoLink,\n            request.country,\n            true,\n            false\n        );\n    }\n\n    function refuseRequest(uint256 id) public {\n        require(adminAccounts[msg.sender], \"You are not admin\");\n        signupRequest memory request = signupRequestsId[id];\n        signupRequestsId[id] = signupRequest(\n            request.owner,\n            request.id,\n            request.date,\n            request.name,\n            request.phoneNumber,\n            request.email,\n            request.responsableName,\n            request.country,\n            request.logoLink,\n            false,\n            false\n        );\n        signupRequestsAddress[request.owner] = signupRequest(\n            request.owner,\n            request.id,\n            request.date,\n            request.name,\n            request.phoneNumber,\n            request.email,\n            request.responsableName,\n            request.country,\n            request.logoLink,\n            false,\n            false\n        );\n    }\n\n    function blockUser(uint256 clientId) public {\n        require(adminAccounts[msg.sender], \"You are not admin\");\n        accounts[clientId].blocked = true;\n    }\n\n    function unblockUser(uint256 clientId) public {\n        require(adminAccounts[msg.sender], \"You are not admin\");\n        accounts[clientId].blocked = false;\n    }\n\n    function checkRequest(address _address)\n        public\n        view\n        returns (string memory)\n    {\n        signupRequest memory request = signupRequestsAddress[_address];\n        if (request.owner == address(0)) {\n            return \"null\";\n        }\n        if (request.pending) {\n            return \"pending\";\n        } else {\n            if (request.approved) {\n                return \"approved\";\n            } else {\n                return \"refused\";\n            }\n        }\n    }\n\n    function getSignupRequestCounter() public view returns (uint256) {\n        require(adminAccounts[msg.sender], \"You are not admin\");\n        return signupRequestCounter;\n    }\n\n    function getSignupRequest(uint256 requestId)\n        public\n        view\n        returns (signupRequest memory)\n    {\n        require(adminAccounts[msg.sender], \"You are not admin\");\n        return signupRequestsId[requestId];\n    }\n\n    function getSignupRequestPending() public view returns (uint256[] memory) {\n        require(adminAccounts[msg.sender], \"You are not admin\");\n        if (signupRequestCounter == 0) {\n            return new uint256[](0);\n        }\n        uint256[] memory pendingRequests = new uint256[](signupRequestCounter);\n        uint256 numberOfPendingRequests = 0;\n        for (uint256 i = 1; i <= signupRequestCounter; i++) {\n            if (signupRequestsId[i].approved == false) {\n                pendingRequests[numberOfPendingRequests] = signupRequestsId[i]\n                    .id;\n                numberOfPendingRequests++;\n            }\n        }\n        uint256[] memory finalPendingRequests = new uint256[](\n            numberOfPendingRequests\n        );\n        for (uint256 i = 0; i < numberOfPendingRequests; i++) {\n            finalPendingRequests[i] = pendingRequests[i];\n        }\n        return finalPendingRequests;\n    }\n\n    function editUserInfo(\n        uint256 _id,\n        string memory _userName,\n        string memory _email,\n        string memory phoneNumber,\n        string memory _password,\n        string memory logoLink\n    ) public {\n        account memory userAccount = accounts[_id];\n        //  require(userAccount.owner == msg.sender, \"This is not your acccount\");\n        accounts[_id] = account(\n            _id,\n            userAccount.owner,\n            _userName,\n            _email,\n            phoneNumber,\n            _password,\n            logoLink,\n            userAccount.country,\n            userAccount.labo,\n            false\n        );\n    }\n\n    function getAccountById(uint256 _id) public view returns (account memory) {\n        return (accounts[_id]);\n    }\n\n    function getAccountByAddress(address _address)\n        public\n        view\n        returns (account memory)\n    {\n        for (uint256 i = 1; i <= accountsCounter; i++) {\n            if (accounts[i].owner == _address) {\n                return (accounts[i]);\n            }\n        }\n        return accounts[0];\n    }\n\n    function getAccountsIds() public view returns (uint256[] memory) {\n        if (accountsCounter == 0) {\n            return new uint256[](0);\n        }\n        uint256[] memory accountIds = new uint256[](accountsCounter);\n        uint256 numberOfAccounts = 0;\n        // iterate over accounts\n        for (uint256 i = 1; i <= accountsCounter; i++) {\n            accountIds[numberOfAccounts] = accounts[i].id;\n            numberOfAccounts++;\n        }\n        return accountIds;\n    }\n}\n",
  "sourcePath": "contracts/Authentication.sol",
  "abi": [
    {
      "constant": true,
      "inputs": [
        {
          "internalType": "uint256",
          "name": "",
          "type": "uint256"
        }
      ],
      "name": "accounts",
      "outputs": [
        {
          "internalType": "uint256",
          "name": "id",
          "type": "uint256"
        },
        {
          "internalType": "address",
          "name": "owner",
          "type": "address"
        },
        {
          "internalType": "string",
          "name": "userName",
          "type": "string"
        },
        {
          "internalType": "string",
          "name": "email",
          "type": "string"
        },
        {
          "internalType": "string",
          "name": "phoneNumber",
          "type": "string"
        },
        {
          "internalType": "string",
          "name": "password",
          "type": "string"
        },
        {
          "internalType": "string",
          "name": "logoLink",
          "type": "string"
        },
        {
          "internalType": "string",
          "name": "country",
          "type": "string"
        },
        {
          "internalType": "bool",
          "name": "labo",
          "type": "bool"
        },
        {
          "internalType": "bool",
          "name": "blocked",
          "type": "bool"
        }
      ],
      "payable": false,
      "stateMutability": "view",
      "type": "function"
    },
    {
      "constant": true,
      "inputs": [
        {
          "internalType": "address",
          "name": "",
          "type": "address"
        }
      ],
      "name": "adminAccounts",
      "outputs": [
        {
          "internalType": "bool",
          "name": "",
          "type": "bool"
        }
      ],
      "payable": false,
      "stateMutability": "view",
      "type": "function"
    },
    {
      "constant": false,
      "inputs": [
        {
          "internalType": "uint256",
          "name": "id",
          "type": "uint256"
        }
      ],
      "name": "approveRequest",
      "outputs": [],
      "payable": false,
      "stateMutability": "nonpayable",
      "type": "function"
    },
    {
      "constant": false,
      "inputs": [
        {
          "internalType": "uint256",
          "name": "clientId",
          "type": "uint256"
        }
      ],
      "name": "blockUser",
      "outputs": [],
      "payable": false,
      "stateMutability": "nonpayable",
      "type": "function"
    },
    {
      "constant": true,
      "inputs": [
        {
          "internalType": "address",
          "name": "_address",
          "type": "address"
        }
      ],
      "name": "checkRequest",
      "outputs": [
        {
          "internalType": "string",
          "name": "",
          "type": "string"
        }
      ],
      "payable": false,
      "stateMutability": "view",
      "type": "function"
    },
    {
      "constant": false,
      "inputs": [
        {
          "internalType": "uint256",
          "name": "_id",
          "type": "uint256"
        },
        {
          "internalType": "string",
          "name": "_userName",
          "type": "string"
        },
        {
          "internalType": "string",
          "name": "_email",
          "type": "string"
        },
        {
          "internalType": "string",
          "name": "phoneNumber",
          "type": "string"
        },
        {
          "internalType": "string",
          "name": "_password",
          "type": "string"
        },
        {
          "internalType": "string",
          "name": "logoLink",
          "type": "string"
        }
      ],
      "name": "editUserInfo",
      "outputs": [],
      "payable": false,
      "stateMutability": "nonpayable",
      "type": "function"
    },
    {
      "constant": true,
      "inputs": [
        {
          "internalType": "address",
          "name": "_address",
          "type": "address"
        }
      ],
      "name": "getAccountByAddress",
      "outputs": [
        {
          "components": [
            {
              "internalType": "uint256",
              "name": "id",
              "type": "uint256"
            },
            {
              "internalType": "address",
              "name": "owner",
              "type": "address"
            },
            {
              "internalType": "string",
              "name": "userName",
              "type": "string"
            },
            {
              "internalType": "string",
              "name": "email",
              "type": "string"
            },
            {
              "internalType": "string",
              "name": "phoneNumber",
              "type": "string"
            },
            {
              "internalType": "string",
              "name": "password",
              "type": "string"
            },
            {
              "internalType": "string",
              "name": "logoLink",
              "type": "string"
            },
            {
              "internalType": "string",
              "name": "country",
              "type": "string"
            },
            {
              "internalType": "bool",
              "name": "labo",
              "type": "bool"
            },
            {
              "internalType": "bool",
              "name": "blocked",
              "type": "bool"
            }
          ],
          "internalType": "struct Authentication.account",
          "name": "",
          "type": "tuple"
        }
      ],
      "payable": false,
      "stateMutability": "view",
      "type": "function"
    },
    {
      "constant": true,
      "inputs": [
        {
          "internalType": "uint256",
          "name": "_id",
          "type": "uint256"
        }
      ],
      "name": "getAccountById",
      "outputs": [
        {
          "components": [
            {
              "internalType": "uint256",
              "name": "id",
              "type": "uint256"
            },
            {
              "internalType": "address",
              "name": "owner",
              "type": "address"
            },
            {
              "internalType": "string",
              "name": "userName",
              "type": "string"
            },
            {
              "internalType": "string",
              "name": "email",
              "type": "string"
            },
            {
              "internalType": "string",
              "name": "phoneNumber",
              "type": "string"
            },
            {
              "internalType": "string",
              "name": "password",
              "type": "string"
            },
            {
              "internalType": "string",
              "name": "logoLink",
              "type": "string"
            },
            {
              "internalType": "string",
              "name": "country",
              "type": "string"
            },
            {
              "internalType": "bool",
              "name": "labo",
              "type": "bool"
            },
            {
              "internalType": "bool",
              "name": "blocked",
              "type": "bool"
            }
          ],
          "internalType": "struct Authentication.account",
          "name": "",
          "type": "tuple"
        }
      ],
      "payable": false,
      "stateMutability": "view",
      "type": "function"
    },
    {
      "constant": true,
      "inputs": [],
      "name": "getAccountsIds",
      "outputs": [
        {
          "internalType": "uint256[]",
          "name": "",
          "type": "uint256[]"
        }
      ],
      "payable": false,
      "stateMutability": "view",
      "type": "function"
    },
    {
      "constant": true,
      "inputs": [
        {
          "internalType": "uint256",
          "name": "requestId",
          "type": "uint256"
        }
      ],
      "name": "getSignupRequest",
      "outputs": [
        {
          "components": [
            {
              "internalType": "address",
              "name": "owner",
              "type": "address"
            },
            {
              "internalType": "uint256",
              "name": "id",
              "type": "uint256"
            },
            {
              "internalType": "string",
              "name": "date",
              "type": "string"
            },
            {
              "internalType": "string",
              "name": "name",
              "type": "string"
            },
            {
              "internalType": "string",
              "name": "email",
              "type": "string"
            },
            {
              "internalType": "string",
              "name": "phoneNumber",
              "type": "string"
            },
            {
              "internalType": "string",
              "name": "responsableName",
              "type": "string"
            },
            {
              "internalType": "string",
              "name": "country",
              "type": "string"
            },
            {
              "internalType": "string",
              "name": "logoLink",
              "type": "string"
            },
            {
              "internalType": "bool",
              "name": "pending",
              "type": "bool"
            },
            {
              "internalType": "bool",
              "name": "approved",
              "type": "bool"
            }
          ],
          "internalType": "struct Authentication.signupRequest",
          "name": "",
          "type": "tuple"
        }
      ],
      "payable": false,
      "stateMutability": "view",
      "type": "function"
    },
    {
      "constant": true,
      "inputs": [],
      "name": "getSignupRequestCounter",
      "outputs": [
        {
          "internalType": "uint256",
          "name": "",
          "type": "uint256"
        }
      ],
      "payable": false,
      "stateMutability": "view",
      "type": "function"
    },
    {
      "constant": true,
      "inputs": [],
      "name": "getSignupRequestPending",
      "outputs": [
        {
          "internalType": "uint256[]",
          "name": "",
          "type": "uint256[]"
        }
      ],
      "payable": false,
      "stateMutability": "view",
      "type": "function"
    },
    {
      "constant": false,
      "inputs": [],
      "name": "initContract",
      "outputs": [],
      "payable": false,
      "stateMutability": "nonpayable",
      "type": "function"
    },
    {
      "constant": false,
      "inputs": [
        {
          "internalType": "uint256",
          "name": "id",
          "type": "uint256"
        }
      ],
      "name": "refuseRequest",
      "outputs": [],
      "payable": false,
      "stateMutability": "nonpayable",
      "type": "function"
    },
    {
      "constant": false,
      "inputs": [
        {
          "internalType": "address",
          "name": "_address",
          "type": "address"
        },
        {
          "internalType": "string",
          "name": "_userName",
          "type": "string"
        },
        {
          "internalType": "string",
          "name": "_email",
          "type": "string"
        },
        {
          "internalType": "string",
          "name": "phoneNumber",
          "type": "string"
        },
        {
          "internalType": "string",
          "name": "_phAddress",
          "type": "string"
        }
      ],
      "name": "signupAsClient",
      "outputs": [],
      "payable": false,
      "stateMutability": "nonpayable",
      "type": "function"
    },
    {
      "constant": false,
      "inputs": [
        {
          "internalType": "address",
          "name": "_address",
          "type": "address"
        },
        {
          "internalType": "string",
          "name": "requestDate",
          "type": "string"
        },
        {
          "internalType": "string",
          "name": "laboName",
          "type": "string"
        },
        {
          "internalType": "string",
          "name": "phoneNumber",
          "type": "string"
        },
        {
          "internalType": "string",
          "name": "_email",
          "type": "string"
        },
        {
          "internalType": "string",
          "name": "responsableName",
          "type": "string"
        },
        {
          "internalType": "string",
          "name": "country",
          "type": "string"
        },
        {
          "internalType": "string",
          "name": "logoLink",
          "type": "string"
        }
      ],
      "name": "signupAsLabo",
      "outputs": [],
      "payable": false,
      "stateMutability": "nonpayable",
      "type": "function"
    },
    {
      "constant": false,
      "inputs": [
        {
          "internalType": "uint256",
          "name": "clientId",
          "type": "uint256"
        }
      ],
      "name": "unblockUser",
      "outputs": [],
      "payable": false,
      "stateMutability": "nonpayable",
      "type": "function"
    }
  ],
  "bytecode": "0x608060405234801561001057600080fd5b5061567e80620000216000396000f3fe608060405234801561001057600080fd5b506004361061010b5760003560e01c8063b8e85fec116100a2578063d7d1bbdb11610071578063d7d1bbdb14610290578063da2d3d69146102ac578063f2a40db8146102dc578063f855b36614610315578063facbf03e146103455761010b565b8063b8e85fec14610208578063bb9445ef14610238578063bdd35f3e14610254578063cd5d5cbf146102725761010b565b80638203f5fe116100de5780638203f5fe146101a85780638cb35072146101b25780639664dea3146101ce578063b3dc09e0146101ec5761010b565b806305aca1411461011057806344b32832146101405780637b9a3619146101705780637cbf72291461018c575b600080fd5b61012a60048036036101259190810190614e09565b610361565b6040516101379190615383565b60405180910390f35b61015a60048036036101559190810190614e09565b6107f0565b60405161016791906153a5565b60405180910390f35b61018a60048036036101859190810190614e32565b610dae565b005b6101a660048036036101a19190810190614e09565b611405565b005b6101b0611df6565b005b6101cc60048036036101c79190810190614e09565b611e4f565b005b6101d6611f0c565b6040516101e39190615304565b60405180910390f35b61020660048036036102019190810190614caf565b612124565b005b610222600480360361021d9190810190614baf565b61252c565b60405161022f9190615383565b60405180910390f35b610252600480360361024d9190810190614bd8565b612ecb565b005b61025c6130be565b60405161026991906153c7565b60405180910390f35b61027a613154565b6040516102879190615304565b60405180910390f35b6102aa60048036036102a59190810190614e09565b613231565b005b6102c660048036036102c19190810190614baf565b613e0d565b6040516102d39190615326565b60405180910390f35b6102f660048036036102f19190810190614e09565b613e2d565b60405161030c9a999897969594939291906153e2565b60405180910390f35b61032f600480360361032a9190810190614baf565b61424b565b60405161033c9190615341565b60405180910390f35b61035f600480360361035a9190810190614e09565b6148ee565b005b6103696149ab565b60008083815260200190815260200160002060405180610140016040529081600082015481526020016001820160009054906101000a900473ffffffffffffffffffffffffffffffffffffffff1673ffffffffffffffffffffffffffffffffffffffff1673ffffffffffffffffffffffffffffffffffffffff168152602001600282018054600181600116156101000203166002900480601f0160208091040260200160405190810160405280929190818152602001828054600181600116156101000203166002900480156104805780601f1061045557610100808354040283529160200191610480565b820191906000526020600020905b81548152906001019060200180831161046357829003601f168201915b50505050508152602001600382018054600181600116156101000203166002900480601f0160208091040260200160405190810160405280929190818152602001828054600181600116156101000203166002900480156105225780601f106104f757610100808354040283529160200191610522565b820191906000526020600020905b81548152906001019060200180831161050557829003601f168201915b50505050508152602001600482018054600181600116156101000203166002900480601f0160208091040260200160405190810160405280929190818152602001828054600181600116156101000203166002900480156105c45780601f10610599576101008083540402835291602001916105c4565b820191906000526020600020905b8154815290600101906020018083116105a757829003601f168201915b50505050508152602001600582018054600181600116156101000203166002900480601f0160208091040260200160405190810160405280929190818152602001828054600181600116156101000203166002900480156106665780601f1061063b57610100808354040283529160200191610666565b820191906000526020600020905b81548152906001019060200180831161064957829003601f168201915b50505050508152602001600682018054600181600116156101000203166002900480601f0160208091040260200160405190810160405280929190818152602001828054600181600116156101000203166002900480156107085780601f106106dd57610100808354040283529160200191610708565b820191906000526020600020905b8154815290600101906020018083116106eb57829003601f168201915b50505050508152602001600782018054600181600116156101000203166002900480601f0160208091040260200160405190810160405280929190818152602001828054600181600116156101000203166002900480156107aa5780601f1061077f576101008083540402835291602001916107aa565b820191906000526020600020905b81548152906001019060200180831161078d57829003601f168201915b505050505081526020016008820160009054906101000a900460ff161515151581526020016008820160019054906101000a900460ff1615151515815250509050919050565b6107f8614a18565b600160003373ffffffffffffffffffffffffffffffffffffffff1673ffffffffffffffffffffffffffffffffffffffff16815260200190815260200160002060009054906101000a900460ff16610884576040517f08c379a000000000000000000000000000000000000000000000000000000000815260040161087b90615363565b60405180910390fd5b60026000838152602001908152602001600020604051806101600160405290816000820160009054906101000a900473ffffffffffffffffffffffffffffffffffffffff1673ffffffffffffffffffffffffffffffffffffffff1673ffffffffffffffffffffffffffffffffffffffff16815260200160018201548152602001600282018054600181600116156101000203166002900480601f01602080910402602001604051908101604052809291908181526020018280546001816001161561010002031660029004801561099c5780601f106109715761010080835404028352916020019161099c565b820191906000526020600020905b81548152906001019060200180831161097f57829003601f168201915b50505050508152602001600382018054600181600116156101000203166002900480601f016020809104026020016040519081016040528092919081815260200182805460018160011615610100020316600290048015610a3e5780601f10610a1357610100808354040283529160200191610a3e565b820191906000526020600020905b815481529060010190602001808311610a2157829003601f168201915b50505050508152602001600482018054600181600116156101000203166002900480601f016020809104026020016040519081016040528092919081815260200182805460018160011615610100020316600290048015610ae05780601f10610ab557610100808354040283529160200191610ae0565b820191906000526020600020905b815481529060010190602001808311610ac357829003601f168201915b50505050508152602001600582018054600181600116156101000203166002900480601f016020809104026020016040519081016040528092919081815260200182805460018160011615610100020316600290048015610b825780601f10610b5757610100808354040283529160200191610b82565b820191906000526020600020905b815481529060010190602001808311610b6557829003601f168201915b50505050508152602001600682018054600181600116156101000203166002900480601f016020809104026020016040519081016040528092919081815260200182805460018160011615610100020316600290048015610c245780601f10610bf957610100808354040283529160200191610c24565b820191906000526020600020905b815481529060010190602001808311610c0757829003601f168201915b50505050508152602001600782018054600181600116156101000203166002900480601f016020809104026020016040519081016040528092919081815260200182805460018160011615610100020316600290048015610cc65780601f10610c9b57610100808354040283529160200191610cc6565b820191906000526020600020905b815481529060010190602001808311610ca957829003601f168201915b50505050508152602001600882018054600181600116156101000203166002900480601f016020809104026020016040519081016040528092919081815260200182805460018160011615610100020316600290048015610d685780601f10610d3d57610100808354040283529160200191610d68565b820191906000526020600020905b815481529060010190602001808311610d4b57829003601f168201915b505050505081526020016009820160009054906101000a900460ff161515151581526020016009820160019054906101000a900460ff1615151515815250509050919050565b610db66149ab565b60008088815260200190815260200160002060405180610140016040529081600082015481526020016001820160009054906101000a900473ffffffffffffffffffffffffffffffffffffffff1673ffffffffffffffffffffffffffffffffffffffff1673ffffffffffffffffffffffffffffffffffffffff168152602001600282018054600181600116156101000203166002900480601f016020809104026020016040519081016040528092919081815260200182805460018160011615610100020316600290048015610ecd5780601f10610ea257610100808354040283529160200191610ecd565b820191906000526020600020905b815481529060010190602001808311610eb057829003601f168201915b50505050508152602001600382018054600181600116156101000203166002900480601f016020809104026020016040519081016040528092919081815260200182805460018160011615610100020316600290048015610f6f5780601f10610f4457610100808354040283529160200191610f6f565b820191906000526020600020905b815481529060010190602001808311610f5257829003601f168201915b50505050508152602001600482018054600181600116156101000203166002900480601f0160208091040260200160405190810160405280929190818152602001828054600181600116156101000203166002900480156110115780601f10610fe657610100808354040283529160200191611011565b820191906000526020600020905b815481529060010190602001808311610ff457829003601f168201915b50505050508152602001600582018054600181600116156101000203166002900480601f0160208091040260200160405190810160405280929190818152602001828054600181600116156101000203166002900480156110b35780601f10611088576101008083540402835291602001916110b3565b820191906000526020600020905b81548152906001019060200180831161109657829003601f168201915b50505050508152602001600682018054600181600116156101000203166002900480601f0160208091040260200160405190810160405280929190818152602001828054600181600116156101000203166002900480156111555780601f1061112a57610100808354040283529160200191611155565b820191906000526020600020905b81548152906001019060200180831161113857829003601f168201915b50505050508152602001600782018054600181600116156101000203166002900480601f0160208091040260200160405190810160405280929190818152602001828054600181600116156101000203166002900480156111f75780601f106111cc576101008083540402835291602001916111f7565b820191906000526020600020905b8154815290600101906020018083116111da57829003601f168201915b505050505081526020016008820160009054906101000a900460ff161515151581526020016008820160019054906101000a900460ff1615151515815250509050604051806101400160405280888152602001826020015173ffffffffffffffffffffffffffffffffffffffff1681526020018781526020018681526020018581526020018481526020018381526020018260e00151815260200182610100015115158152602001600015158152506000808981526020019081526020016000206000820151816000015560208201518160010160006101000a81548173ffffffffffffffffffffffffffffffffffffffff021916908373ffffffffffffffffffffffffffffffffffffffff1602179055506040820151816002019080519060200190611325929190614a8c565b506060820151816003019080519060200190611342929190614a8c565b50608082015181600401908051906020019061135f929190614a8c565b5060a082015181600501908051906020019061137c929190614a8c565b5060c0820151816006019080519060200190611399929190614a8c565b5060e08201518160070190805190602001906113b6929190614a8c565b506101008201518160080160006101000a81548160ff0219169083151502179055506101208201518160080160016101000a81548160ff02191690831515021790555090505050505050505050565b600160003373ffffffffffffffffffffffffffffffffffffffff1673ffffffffffffffffffffffffffffffffffffffff16815260200190815260200160002060009054906101000a900460ff16611491576040517f08c379a000000000000000000000000000000000000000000000000000000000815260040161148890615363565b60405180910390fd5b611499614a18565b60026000838152602001908152602001600020604051806101600160405290816000820160009054906101000a900473ffffffffffffffffffffffffffffffffffffffff1673ffffffffffffffffffffffffffffffffffffffff1673ffffffffffffffffffffffffffffffffffffffff16815260200160018201548152602001600282018054600181600116156101000203166002900480601f0160208091040260200160405190810160405280929190818152602001828054600181600116156101000203166002900480156115b15780601f10611586576101008083540402835291602001916115b1565b820191906000526020600020905b81548152906001019060200180831161159457829003601f168201915b50505050508152602001600382018054600181600116156101000203166002900480601f0160208091040260200160405190810160405280929190818152602001828054600181600116156101000203166002900480156116535780601f1061162857610100808354040283529160200191611653565b820191906000526020600020905b81548152906001019060200180831161163657829003601f168201915b50505050508152602001600482018054600181600116156101000203166002900480601f0160208091040260200160405190810160405280929190818152602001828054600181600116156101000203166002900480156116f55780601f106116ca576101008083540402835291602001916116f5565b820191906000526020600020905b8154815290600101906020018083116116d857829003601f168201915b50505050508152602001600582018054600181600116156101000203166002900480601f0160208091040260200160405190810160405280929190818152602001828054600181600116156101000203166002900480156117975780601f1061176c57610100808354040283529160200191611797565b820191906000526020600020905b81548152906001019060200180831161177a57829003601f168201915b50505050508152602001600682018054600181600116156101000203166002900480601f0160208091040260200160405190810160405280929190818152602001828054600181600116156101000203166002900480156118395780601f1061180e57610100808354040283529160200191611839565b820191906000526020600020905b81548152906001019060200180831161181c57829003601f168201915b50505050508152602001600782018054600181600116156101000203166002900480601f0160208091040260200160405190810160405280929190818152602001828054600181600116156101000203166002900480156118db5780601f106118b0576101008083540402835291602001916118db565b820191906000526020600020905b8154815290600101906020018083116118be57829003601f168201915b50505050508152602001600882018054600181600116156101000203166002900480601f01602080910402602001604051908101604052809291908181526020018280546001816001161561010002031660029004801561197d5780601f106119525761010080835404028352916020019161197d565b820191906000526020600020905b81548152906001019060200180831161196057829003601f168201915b505050505081526020016009820160009054906101000a900460ff161515151581526020016009820160019054906101000a900460ff1615151515815250509050604051806101600160405280826000015173ffffffffffffffffffffffffffffffffffffffff1681526020018260200151815260200182604001518152602001826060015181526020018260a001518152602001826080015181526020018260c0015181526020018260e0015181526020018261010001518152602001600015158152602001600015158152506002600084815260200190815260200160002060008201518160000160006101000a81548173ffffffffffffffffffffffffffffffffffffffff021916908373ffffffffffffffffffffffffffffffffffffffff160217905550602082015181600101556040820151816002019080519060200190611acb929190614a8c565b506060820151816003019080519060200190611ae8929190614a8c565b506080820151816004019080519060200190611b05929190614a8c565b5060a0820151816005019080519060200190611b22929190614a8c565b5060c0820151816006019080519060200190611b3f929190614a8c565b5060e0820151816007019080519060200190611b5c929190614a8c565b50610100820151816008019080519060200190611b7a929190614a8c565b506101208201518160090160006101000a81548160ff0219169083151502179055506101408201518160090160016101000a81548160ff021916908315150217905550905050604051806101600160405280826000015173ffffffffffffffffffffffffffffffffffffffff1681526020018260200151815260200182604001518152602001826060015181526020018260a001518152602001826080015181526020018260c0015181526020018260e00151815260200182610100015181526020016000151581526020016000151581525060036000836000015173ffffffffffffffffffffffffffffffffffffffff1673ffffffffffffffffffffffffffffffffffffffff16815260200190815260200160002060008201518160000160006101000a81548173ffffffffffffffffffffffffffffffffffffffff021916908373ffffffffffffffffffffffffffffffffffffffff160217905550602082015181600101556040820151816002019080519060200190611cfd929190614a8c565b506060820151816003019080519060200190611d1a929190614a8c565b506080820151816004019080519060200190611d37929190614a8c565b5060a0820151816005019080519060200190611d54929190614a8c565b5060c0820151816006019080519060200190611d71929190614a8c565b5060e0820151816007019080519060200190611d8e929190614a8c565b50610100820151816008019080519060200190611dac929190614a8c565b506101208201518160090160006101000a81548160ff0219169083151502179055506101408201518160090160016101000a81548160ff0219169083151502179055509050505050565b60018060003373ffffffffffffffffffffffffffffffffffffffff1673ffffffffffffffffffffffffffffffffffffffff16815260200190815260200160002060006101000a81548160ff021916908315150217905550565b600160003373ffffffffffffffffffffffffffffffffffffffff1673ffffffffffffffffffffffffffffffffffffffff16815260200190815260200160002060009054906101000a900460ff16611edb576040517f08c379a0000000000000000000000000000000000000000000000000000000008152600401611ed290615363565b60405180910390fd5b600160008083815260200190815260200160002060080160016101000a81548160ff02191690831515021790555050565b6060600160003373ffffffffffffffffffffffffffffffffffffffff1673ffffffffffffffffffffffffffffffffffffffff16815260200190815260200160002060009054906101000a900460ff16611f9a576040517f08c379a0000000000000000000000000000000000000000000000000000000008152600401611f9190615363565b60405180910390fd5b60006005541415611fdd576000604051908082528060200260200182016040528015611fd55781602001602082028038833980820191505090505b509050612121565b60606005546040519080825280602002602001820160405280156120105781602001602082028038833980820191505090505b50905060008090506000600190505b600554811161209d57600015156002600083815260200190815260200160002060090160019054906101000a900460ff161515141561209057600260008281526020019081526020016000206001015483838151811061207b57fe5b60200260200101818152505081806001019250505b808060010191505061201f565b506060816040519080825280602002602001820160405280156120cf5781602001602082028038833980820191505090505b50905060008090505b82811015612119578381815181106120ec57fe5b602002602001015182828151811061210057fe5b60200260200101818152505080806001019150506120d8565b508093505050505b90565b6005600081548092919060010191905055506040518061016001604052808973ffffffffffffffffffffffffffffffffffffffff16815260200160055481526020018881526020018781526020018681526020018581526020018481526020018381526020018281526020016001151581526020016000151581525060026000600554815260200190815260200160002060008201518160000160006101000a81548173ffffffffffffffffffffffffffffffffffffffff021916908373ffffffffffffffffffffffffffffffffffffffff160217905550602082015181600101556040820151816002019080519060200190612222929190614a8c565b50606082015181600301908051906020019061223f929190614a8c565b50608082015181600401908051906020019061225c929190614a8c565b5060a0820151816005019080519060200190612279929190614a8c565b5060c0820151816006019080519060200190612296929190614a8c565b5060e08201518160070190805190602001906122b3929190614a8c565b506101008201518160080190805190602001906122d1929190614a8c565b506101208201518160090160006101000a81548160ff0219169083151502179055506101408201518160090160016101000a81548160ff0219169083151502179055509050506040518061016001604052808973ffffffffffffffffffffffffffffffffffffffff168152602001600554815260200188815260200187815260200186815260200185815260200184815260200183815260200182815260200160011515815260200160001515815250600360008a73ffffffffffffffffffffffffffffffffffffffff1673ffffffffffffffffffffffffffffffffffffffff16815260200190815260200160002060008201518160000160006101000a81548173ffffffffffffffffffffffffffffffffffffffff021916908373ffffffffffffffffffffffffffffffffffffffff16021790555060208201518160010155604082015181600201908051906020019061242d929190614a8c565b50606082015181600301908051906020019061244a929190614a8c565b506080820151816004019080519060200190612467929190614a8c565b5060a0820151816005019080519060200190612484929190614a8c565b5060c08201518160060190805190602001906124a1929190614a8c565b5060e08201518160070190805190602001906124be929190614a8c565b506101008201518160080190805190602001906124dc929190614a8c565b506101208201518160090160006101000a81548160ff0219169083151502179055506101408201518160090160016101000a81548160ff0219169083151502179055509050505050505050505050565b6125346149ab565b6000600190505b6004548111612a42578273ffffffffffffffffffffffffffffffffffffffff1660008083815260200190815260200160002060010160009054906101000a900473ffffffffffffffffffffffffffffffffffffffff1673ffffffffffffffffffffffffffffffffffffffff161415612a355760008082815260200190815260200160002060405180610140016040529081600082015481526020016001820160009054906101000a900473ffffffffffffffffffffffffffffffffffffffff1673ffffffffffffffffffffffffffffffffffffffff1673ffffffffffffffffffffffffffffffffffffffff168152602001600282018054600181600116156101000203166002900480601f0160208091040260200160405190810160405280929190818152602001828054600181600116156101000203166002900480156126c45780601f10612699576101008083540402835291602001916126c4565b820191906000526020600020905b8154815290600101906020018083116126a757829003601f168201915b50505050508152602001600382018054600181600116156101000203166002900480601f0160208091040260200160405190810160405280929190818152602001828054600181600116156101000203166002900480156127665780601f1061273b57610100808354040283529160200191612766565b820191906000526020600020905b81548152906001019060200180831161274957829003601f168201915b50505050508152602001600482018054600181600116156101000203166002900480601f0160208091040260200160405190810160405280929190818152602001828054600181600116156101000203166002900480156128085780601f106127dd57610100808354040283529160200191612808565b820191906000526020600020905b8154815290600101906020018083116127eb57829003601f168201915b50505050508152602001600582018054600181600116156101000203166002900480601f0160208091040260200160405190810160405280929190818152602001828054600181600116156101000203166002900480156128aa5780601f1061287f576101008083540402835291602001916128aa565b820191906000526020600020905b81548152906001019060200180831161288d57829003601f168201915b50505050508152602001600682018054600181600116156101000203166002900480601f01602080910402602001604051908101604052809291908181526020018280546001816001161561010002031660029004801561294c5780601f106129215761010080835404028352916020019161294c565b820191906000526020600020905b81548152906001019060200180831161292f57829003601f168201915b50505050508152602001600782018054600181600116156101000203166002900480601f0160208091040260200160405190810160405280929190818152602001828054600181600116156101000203166002900480156129ee5780601f106129c3576101008083540402835291602001916129ee565b820191906000526020600020905b8154815290600101906020018083116129d157829003601f168201915b505050505081526020016008820160009054906101000a900460ff161515151581526020016008820160019054906101000a900460ff161515151581525050915050612ec6565b808060010191505061253b565b5060008080815260200190815260200160002060405180610140016040529081600082015481526020016001820160009054906101000a900473ffffffffffffffffffffffffffffffffffffffff1673ffffffffffffffffffffffffffffffffffffffff1673ffffffffffffffffffffffffffffffffffffffff168152602001600282018054600181600116156101000203166002900480601f016020809104026020016040519081016040528092919081815260200182805460018160011615610100020316600290048015612b5a5780601f10612b2f57610100808354040283529160200191612b5a565b820191906000526020600020905b815481529060010190602001808311612b3d57829003601f168201915b50505050508152602001600382018054600181600116156101000203166002900480601f016020809104026020016040519081016040528092919081815260200182805460018160011615610100020316600290048015612bfc5780601f10612bd157610100808354040283529160200191612bfc565b820191906000526020600020905b815481529060010190602001808311612bdf57829003601f168201915b50505050508152602001600482018054600181600116156101000203166002900480601f016020809104026020016040519081016040528092919081815260200182805460018160011615610100020316600290048015612c9e5780601f10612c7357610100808354040283529160200191612c9e565b820191906000526020600020905b815481529060010190602001808311612c8157829003601f168201915b50505050508152602001600582018054600181600116156101000203166002900480601f016020809104026020016040519081016040528092919081815260200182805460018160011615610100020316600290048015612d405780601f10612d1557610100808354040283529160200191612d40565b820191906000526020600020905b815481529060010190602001808311612d2357829003601f168201915b50505050508152602001600682018054600181600116156101000203166002900480601f016020809104026020016040519081016040528092919081815260200182805460018160011615610100020316600290048015612de25780601f10612db757610100808354040283529160200191612de2565b820191906000526020600020905b815481529060010190602001808311612dc557829003601f168201915b50505050508152602001600782018054600181600116156101000203166002900480601f016020809104026020016040519081016040528092919081815260200182805460018160011615610100020316600290048015612e845780601f10612e5957610100808354040283529160200191612e84565b820191906000526020600020905b815481529060010190602001808311612e6757829003601f168201915b505050505081526020016008820160009054906101000a900460ff161515151581526020016008820160019054906101000a900460ff16151515158152505090505b919050565b60046000815480929190600101919050555060405180610140016040528060045481526020018673ffffffffffffffffffffffffffffffffffffffff1681526020018581526020018481526020018381526020018281526020016040518060200160405280600081525081526020016040518060200160405280600081525081526020016000151581526020016000151581525060008060045481526020019081526020016000206000820151816000015560208201518160010160006101000a81548173ffffffffffffffffffffffffffffffffffffffff021916908373ffffffffffffffffffffffffffffffffffffffff1602179055506040820151816002019080519060200190612fe0929190614a8c565b506060820151816003019080519060200190612ffd929190614a8c565b50608082015181600401908051906020019061301a929190614a8c565b5060a0820151816005019080519060200190613037929190614a8c565b5060c0820151816006019080519060200190613054929190614a8c565b5060e0820151816007019080519060200190613071929190614a8c565b506101008201518160080160006101000a81548160ff0219169083151502179055506101208201518160080160016101000a81548160ff0219169083151502179055509050505050505050565b6000600160003373ffffffffffffffffffffffffffffffffffffffff1673ffffffffffffffffffffffffffffffffffffffff16815260200190815260200160002060009054906101000a900460ff1661314c576040517f08c379a000000000000000000000000000000000000000000000000000000000815260040161314390615363565b60405180910390fd5b600554905090565b6060600060045414156131995760006040519080825280602002602001820160405280156131915781602001602082028038833980820191505090505b50905061322e565b60606004546040519080825280602002602001820160405280156131cc5781602001602082028038833980820191505090505b50905060008090506000600190505b6004548111613227576000808281526020019081526020016000206000015483838151811061320657fe5b602002602001018181525050818060010192505080806001019150506131db565b5081925050505b90565b600160003373ffffffffffffffffffffffffffffffffffffffff1673ffffffffffffffffffffffffffffffffffffffff16815260200190815260200160002060009054906101000a900460ff166132bd576040517f08c379a00000000000000000000000000000000000000000000000000000000081526004016132b490615363565b60405180910390fd5b6132c5614a18565b60026000838152602001908152602001600020604051806101600160405290816000820160009054906101000a900473ffffffffffffffffffffffffffffffffffffffff1673ffffffffffffffffffffffffffffffffffffffff1673ffffffffffffffffffffffffffffffffffffffff16815260200160018201548152602001600282018054600181600116156101000203166002900480601f0160208091040260200160405190810160405280929190818152602001828054600181600116156101000203166002900480156133dd5780601f106133b2576101008083540402835291602001916133dd565b820191906000526020600020905b8154815290600101906020018083116133c057829003601f168201915b50505050508152602001600382018054600181600116156101000203166002900480601f01602080910402602001604051908101604052809291908181526020018280546001816001161561010002031660029004801561347f5780601f106134545761010080835404028352916020019161347f565b820191906000526020600020905b81548152906001019060200180831161346257829003601f168201915b50505050508152602001600482018054600181600116156101000203166002900480601f0160208091040260200160405190810160405280929190818152602001828054600181600116156101000203166002900480156135215780601f106134f657610100808354040283529160200191613521565b820191906000526020600020905b81548152906001019060200180831161350457829003601f168201915b50505050508152602001600582018054600181600116156101000203166002900480601f0160208091040260200160405190810160405280929190818152602001828054600181600116156101000203166002900480156135c35780601f10613598576101008083540402835291602001916135c3565b820191906000526020600020905b8154815290600101906020018083116135a657829003601f168201915b50505050508152602001600682018054600181600116156101000203166002900480601f0160208091040260200160405190810160405280929190818152602001828054600181600116156101000203166002900480156136655780601f1061363a57610100808354040283529160200191613665565b820191906000526020600020905b81548152906001019060200180831161364857829003601f168201915b50505050508152602001600782018054600181600116156101000203166002900480601f0160208091040260200160405190810160405280929190818152602001828054600181600116156101000203166002900480156137075780601f106136dc57610100808354040283529160200191613707565b820191906000526020600020905b8154815290600101906020018083116136ea57829003601f168201915b50505050508152602001600882018054600181600116156101000203166002900480601f0160208091040260200160405190810160405280929190818152602001828054600181600116156101000203166002900480156137a95780601f1061377e576101008083540402835291602001916137a9565b820191906000526020600020905b81548152906001019060200180831161378c57829003601f168201915b505050505081526020016009820160009054906101000a900460ff161515151581526020016009820160019054906101000a900460ff1615151515815250509050604051806101600160405280826000015173ffffffffffffffffffffffffffffffffffffffff1681526020018260200151815260200182604001518152602001826060015181526020018260a001518152602001826080015181526020018260c0015181526020018260e0015181526020018261010001518152602001600015158152602001600115158152506002600084815260200190815260200160002060008201518160000160006101000a81548173ffffffffffffffffffffffffffffffffffffffff021916908373ffffffffffffffffffffffffffffffffffffffff1602179055506020820151816001015560408201518160020190805190602001906138f7929190614a8c565b506060820151816003019080519060200190613914929190614a8c565b506080820151816004019080519060200190613931929190614a8c565b5060a082015181600501908051906020019061394e929190614a8c565b5060c082015181600601908051906020019061396b929190614a8c565b5060e0820151816007019080519060200190613988929190614a8c565b506101008201518160080190805190602001906139a6929190614a8c565b506101208201518160090160006101000a81548160ff0219169083151502179055506101408201518160090160016101000a81548160ff021916908315150217905550905050604051806101600160405280826000015173ffffffffffffffffffffffffffffffffffffffff1681526020018260200151815260200182604001518152602001826060015181526020018260a001518152602001826080015181526020018260c0015181526020018260e00151815260200182610100015181526020016000151581526020016001151581525060036000836000015173ffffffffffffffffffffffffffffffffffffffff1673ffffffffffffffffffffffffffffffffffffffff16815260200190815260200160002060008201518160000160006101000a81548173ffffffffffffffffffffffffffffffffffffffff021916908373ffffffffffffffffffffffffffffffffffffffff160217905550602082015181600101556040820151816002019080519060200190613b29929190614a8c565b506060820151816003019080519060200190613b46929190614a8c565b506080820151816004019080519060200190613b63929190614a8c565b5060a0820151816005019080519060200190613b80929190614a8c565b5060c0820151816006019080519060200190613b9d929190614a8c565b5060e0820151816007019080519060200190613bba929190614a8c565b50610100820151816008019080519060200190613bd8929190614a8c565b506101208201518160090160006101000a81548160ff0219169083151502179055506101408201518160090160016101000a81548160ff0219169083151502179055509050506004600081548092919060010191905055506040518061014001604052806004548152602001826000015173ffffffffffffffffffffffffffffffffffffffff16815260200182606001518152602001826080015181526020018260a0015181526020018260c00151815260200182610100015181526020018260e0015181526020016001151581526020016000151581525060008060045481526020019081526020016000206000820151816000015560208201518160010160006101000a81548173ffffffffffffffffffffffffffffffffffffffff021916908373ffffffffffffffffffffffffffffffffffffffff1602179055506040820151816002019080519060200190613d32929190614a8c565b506060820151816003019080519060200190613d4f929190614a8c565b506080820151816004019080519060200190613d6c929190614a8c565b5060a0820151816005019080519060200190613d89929190614a8c565b5060c0820151816006019080519060200190613da6929190614a8c565b5060e0820151816007019080519060200190613dc3929190614a8c565b506101008201518160080160006101000a81548160ff0219169083151502179055506101208201518160080160016101000a81548160ff0219169083151502179055509050505050565b60016020528060005260406000206000915054906101000a900460ff1681565b60006020528060005260406000206000915090508060000154908060010160009054906101000a900473ffffffffffffffffffffffffffffffffffffffff1690806002018054600181600116156101000203166002900480601f016020809104026020016040519081016040528092919081815260200182805460018160011615610100020316600290048015613f055780601f10613eda57610100808354040283529160200191613f05565b820191906000526020600020905b815481529060010190602001808311613ee857829003601f168201915b505050505090806003018054600181600116156101000203166002900480601f016020809104026020016040519081016040528092919081815260200182805460018160011615610100020316600290048015613fa35780601f10613f7857610100808354040283529160200191613fa3565b820191906000526020600020905b815481529060010190602001808311613f8657829003601f168201915b505050505090806004018054600181600116156101000203166002900480601f0160208091040260200160405190810160405280929190818152602001828054600181600116156101000203166002900480156140415780601f1061401657610100808354040283529160200191614041565b820191906000526020600020905b81548152906001019060200180831161402457829003601f168201915b505050505090806005018054600181600116156101000203166002900480601f0160208091040260200160405190810160405280929190818152602001828054600181600116156101000203166002900480156140df5780601f106140b4576101008083540402835291602001916140df565b820191906000526020600020905b8154815290600101906020018083116140c257829003601f168201915b505050505090806006018054600181600116156101000203166002900480601f01602080910402602001604051908101604052809291908181526020018280546001816001161561010002031660029004801561417d5780601f106141525761010080835404028352916020019161417d565b820191906000526020600020905b81548152906001019060200180831161416057829003601f168201915b505050505090806007018054600181600116156101000203166002900480601f01602080910402602001604051908101604052809291908181526020018280546001816001161561010002031660029004801561421b5780601f106141f05761010080835404028352916020019161421b565b820191906000526020600020905b8154815290600101906020018083116141fe57829003601f168201915b5050505050908060080160009054906101000a900460ff16908060080160019054906101000a900460ff1690508a565b6060614255614a18565b600360008473ffffffffffffffffffffffffffffffffffffffff1673ffffffffffffffffffffffffffffffffffffffff168152602001908152602001600020604051806101600160405290816000820160009054906101000a900473ffffffffffffffffffffffffffffffffffffffff1673ffffffffffffffffffffffffffffffffffffffff1673ffffffffffffffffffffffffffffffffffffffff16815260200160018201548152602001600282018054600181600116156101000203166002900480601f0160208091040260200160405190810160405280929190818152602001828054600181600116156101000203166002900480156143995780601f1061436e57610100808354040283529160200191614399565b820191906000526020600020905b81548152906001019060200180831161437c57829003601f168201915b50505050508152602001600382018054600181600116156101000203166002900480601f01602080910402602001604051908101604052809291908181526020018280546001816001161561010002031660029004801561443b5780601f106144105761010080835404028352916020019161443b565b820191906000526020600020905b81548152906001019060200180831161441e57829003601f168201915b50505050508152602001600482018054600181600116156101000203166002900480601f0160208091040260200160405190810160405280929190818152602001828054600181600116156101000203166002900480156144dd5780601f106144b2576101008083540402835291602001916144dd565b820191906000526020600020905b8154815290600101906020018083116144c057829003601f168201915b50505050508152602001600582018054600181600116156101000203166002900480601f01602080910402602001604051908101604052809291908181526020018280546001816001161561010002031660029004801561457f5780601f106145545761010080835404028352916020019161457f565b820191906000526020600020905b81548152906001019060200180831161456257829003601f168201915b50505050508152602001600682018054600181600116156101000203166002900480601f0160208091040260200160405190810160405280929190818152602001828054600181600116156101000203166002900480156146215780601f106145f657610100808354040283529160200191614621565b820191906000526020600020905b81548152906001019060200180831161460457829003601f168201915b50505050508152602001600782018054600181600116156101000203166002900480601f0160208091040260200160405190810160405280929190818152602001828054600181600116156101000203166002900480156146c35780601f10614698576101008083540402835291602001916146c3565b820191906000526020600020905b8154815290600101906020018083116146a657829003601f168201915b50505050508152602001600882018054600181600116156101000203166002900480601f0160208091040260200160405190810160405280929190818152602001828054600181600116156101000203166002900480156147655780601f1061473a57610100808354040283529160200191614765565b820191906000526020600020905b81548152906001019060200180831161474857829003601f168201915b505050505081526020016009820160009054906101000a900460ff161515151581526020016009820160019054906101000a900460ff1615151515815250509050600073ffffffffffffffffffffffffffffffffffffffff16816000015173ffffffffffffffffffffffffffffffffffffffff16141561481d576040518060400160405280600481526020017f6e756c6c000000000000000000000000000000000000000000000000000000008152509150506148e9565b80610120015115614866576040518060400160405280600781526020017f70656e64696e67000000000000000000000000000000000000000000000000008152509150506148e9565b806101400151156148af576040518060400160405280600881526020017f617070726f7665640000000000000000000000000000000000000000000000008152509150506148e9565b6040518060400160405280600781526020017f72656675736564000000000000000000000000000000000000000000000000008152509150505b919050565b600160003373ffffffffffffffffffffffffffffffffffffffff1673ffffffffffffffffffffffffffffffffffffffff16815260200190815260200160002060009054906101000a900460ff1661497a576040517f08c379a000000000000000000000000000000000000000000000000000000000815260040161497190615363565b60405180910390fd5b600080600083815260200190815260200160002060080160016101000a81548160ff02191690831515021790555050565b60405180610140016040528060008152602001600073ffffffffffffffffffffffffffffffffffffffff1681526020016060815260200160608152602001606081526020016060815260200160608152602001606081526020016000151581526020016000151581525090565b604051806101600160405280600073ffffffffffffffffffffffffffffffffffffffff16815260200160008152602001606081526020016060815260200160608152602001606081526020016060815260200160608152602001606081526020016000151581526020016000151581525090565b828054600181600116156101000203166002900490600052602060002090601f016020900481019282601f10614acd57805160ff1916838001178555614afb565b82800160010185558215614afb579182015b82811115614afa578251825591602001919060010190614adf565b5b509050614b089190614b0c565b5090565b614b2e91905b80821115614b2a576000816000905550600101614b12565b5090565b90565b600081359050614b408161560d565b92915050565b600082601f830112614b5757600080fd5b8135614b6a614b65826154d5565b6154a8565b91508082526020830160208301858383011115614b8657600080fd5b614b918382846155ba565b50505092915050565b600081359050614ba981615624565b92915050565b600060208284031215614bc157600080fd5b6000614bcf84828501614b31565b91505092915050565b600080600080600060a08688031215614bf057600080fd5b6000614bfe88828901614b31565b955050602086013567ffffffffffffffff811115614c1b57600080fd5b614c2788828901614b46565b945050604086013567ffffffffffffffff811115614c4457600080fd5b614c5088828901614b46565b935050606086013567ffffffffffffffff811115614c6d57600080fd5b614c7988828901614b46565b925050608086013567ffffffffffffffff811115614c9657600080fd5b614ca288828901614b46565b9150509295509295909350565b600080600080600080600080610100898b031215614ccc57600080fd5b6000614cda8b828c01614b31565b985050602089013567ffffffffffffffff811115614cf757600080fd5b614d038b828c01614b46565b975050604089013567ffffffffffffffff811115614d2057600080fd5b614d2c8b828c01614b46565b965050606089013567ffffffffffffffff811115614d4957600080fd5b614d558b828c01614b46565b955050608089013567ffffffffffffffff811115614d7257600080fd5b614d7e8b828c01614b46565b94505060a089013567ffffffffffffffff811115614d9b57600080fd5b614da78b828c01614b46565b93505060c089013567ffffffffffffffff811115614dc457600080fd5b614dd08b828c01614b46565b92505060e089013567ffffffffffffffff811115614ded57600080fd5b614df98b828c01614b46565b9150509295985092959890939650565b600060208284031215614e1b57600080fd5b6000614e2984828501614b9a565b91505092915050565b60008060008060008060c08789031215614e4b57600080fd5b6000614e5989828a01614b9a565b965050602087013567ffffffffffffffff811115614e7657600080fd5b614e8289828a01614b46565b955050604087013567ffffffffffffffff811115614e9f57600080fd5b614eab89828a01614b46565b945050606087013567ffffffffffffffff811115614ec857600080fd5b614ed489828a01614b46565b935050608087013567ffffffffffffffff811115614ef157600080fd5b614efd89828a01614b46565b92505060a087013567ffffffffffffffff811115614f1a57600080fd5b614f2689828a01614b46565b9150509295509295509295565b6000614f3f83836152e6565b60208301905092915050565b614f5481615572565b82525050565b614f6381615572565b82525050565b6000614f7482615511565b614f7e818561553f565b9350614f8983615501565b8060005b83811015614fba578151614fa18882614f33565b9750614fac83615532565b925050600181019050614f8d565b5085935050505092915050565b614fd081615584565b82525050565b614fdf81615584565b82525050565b6000614ff082615527565b614ffa8185615561565b935061500a8185602086016155c9565b615013816155fc565b840191505092915050565b60006150298261551c565b6150338185615550565b93506150438185602086016155c9565b61504c816155fc565b840191505092915050565b60006150628261551c565b61506c8185615561565b935061507c8185602086016155c9565b615085816155fc565b840191505092915050565b600061509d601183615561565b91507f596f7520617265206e6f742061646d696e0000000000000000000000000000006000830152602082019050919050565b6000610140830160008301516150e960008601826152e6565b5060208301516150fc6020860182614f4b565b5060408301518482036040860152615114828261501e565b9150506060830151848203606086015261512e828261501e565b91505060808301518482036080860152615148828261501e565b91505060a083015184820360a0860152615162828261501e565b91505060c083015184820360c086015261517c828261501e565b91505060e083015184820360e0860152615196828261501e565b9150506101008301516151ad610100860182614fc7565b506101208301516151c2610120860182614fc7565b508091505092915050565b6000610160830160008301516151e66000860182614f4b565b5060208301516151f960208601826152e6565b5060408301518482036040860152615211828261501e565b9150506060830151848203606086015261522b828261501e565b91505060808301518482036080860152615245828261501e565b91505060a083015184820360a086015261525f828261501e565b91505060c083015184820360c0860152615279828261501e565b91505060e083015184820360e0860152615293828261501e565b9150506101008301518482036101008601526152af828261501e565b9150506101208301516152c6610120860182614fc7565b506101408301516152db610140860182614fc7565b508091505092915050565b6152ef816155b0565b82525050565b6152fe816155b0565b82525050565b6000602082019050818103600083015261531e8184614f69565b905092915050565b600060208201905061533b6000830184614fd6565b92915050565b6000602082019050818103600083015261535b8184614fe5565b905092915050565b6000602082019050818103600083015261537c81615090565b9050919050565b6000602082019050818103600083015261539d81846150d0565b905092915050565b600060208201905081810360008301526153bf81846151cd565b905092915050565b60006020820190506153dc60008301846152f5565b92915050565b6000610140820190506153f8600083018d6152f5565b615405602083018c614f5a565b8181036040830152615417818b615057565b9050818103606083015261542b818a615057565b9050818103608083015261543f8189615057565b905081810360a08301526154538188615057565b905081810360c08301526154678187615057565b905081810360e083015261547b8186615057565b905061548b610100830185614fd6565b615499610120830184614fd6565b9b9a5050505050505050505050565b6000604051905081810181811067ffffffffffffffff821117156154cb57600080fd5b8060405250919050565b600067ffffffffffffffff8211156154ec57600080fd5b601f19601f8301169050602081019050919050565b6000819050602082019050919050565b600081519050919050565b600081519050919050565b600081519050919050565b6000602082019050919050565b600082825260208201905092915050565b600082825260208201905092915050565b600082825260208201905092915050565b600061557d82615590565b9050919050565b60008115159050919050565b600073ffffffffffffffffffffffffffffffffffffffff82169050919050565b6000819050919050565b82818337600083830152505050565b60005b838110156155e75780820151818401526020810190506155cc565b838111156155f6576000848401525b50505050565b6000601f19601f8301169050919050565b61561681615572565b811461562157600080fd5b50565b61562d816155b0565b811461563857600080fd5b5056fea365627a7a723158203790e5dc11cc265b416fee44ed8fccfc9a200bba1370e9dd79d4b663eb48d3ea6c6578706572696d656e74616cf564736f6c63430005110040",
  "compiler": {
    "name": "solc",
    "version": "0.5.17+commit.d19bba13.Emscripten.clang",
    "optimizer": {
      "enabled": false,
      "runs": 200
    },
    "evmVersion": "petersburg"
  }
}