{
  "fileName": "Authentication.sol",
  "contractName": "Authentication",
  "source": "pragma experimental ABIEncoderV2;\npragma solidity >0.4.99 <0.6.0;\n\ncontract Authentication {\n    struct account {\n        uint256 id;\n        address owner;\n        string userName;\n        string email;\n        string phoneNumber;\n        string password;\n        string logoLink;\n        bool labo;\n    }\n\n    struct signupRequest {\n        address owner;\n        uint256 id;\n        string date;\n        string name;\n        string email;\n        string phoneNumber;\n        string password;\n        string logoLink;\n        bool pending;\n        bool approved;\n    }\n\n    mapping(uint256 => account) public accounts;\n    mapping(address => bool) public adminAccounts;\n    mapping(uint256 => signupRequest) private signupRequestsId;\n    mapping(address => signupRequest) private signupRequestsAddress;\n\n    // State variables\n    uint256 accountsCounter;\n    uint256 signupRequestCounter;\n\n    function initContract() public {\n        adminAccounts[msg.sender] = true;\n    }\n\n    function signupAsClient(\n        address _address,\n        string memory _userName,\n        string memory _email,\n        string memory phoneNumber,\n        string memory _phAddress\n    ) public {\n        // store account\n        accountsCounter++;\n        accounts[accountsCounter] = account(\n            accountsCounter,\n            _address,\n            _userName,\n            _email,\n            phoneNumber,\n            _phAddress,\n            \"\",\n            false\n        );\n    }\n\n    function signupAsLabo(\n        address _address,\n        string memory requestDate,\n        string memory laboName,\n        string memory phoneNumber,\n        string memory _email,\n        string memory _password,\n        string memory logoLink\n    ) public {\n        signupRequestCounter++;\n        signupRequestsId[signupRequestCounter] = signupRequest(\n            _address,\n            signupRequestCounter,\n            requestDate,\n            laboName,\n            phoneNumber,\n            _email,\n            _password,\n            logoLink,\n            true,\n            false\n        );\n        signupRequestsAddress[_address] = signupRequest(\n            _address,\n            signupRequestCounter,\n            requestDate,\n            laboName,\n            phoneNumber,\n            _email,\n            _password,\n            logoLink,\n            true,\n            false\n        );\n    }\n\n    function approveRequest(uint256 id) public {\n        require(adminAccounts[msg.sender], \"You are not admin\");\n        signupRequest memory request = signupRequestsId[id];\n        signupRequestsId[id] = signupRequest(\n            request.owner,\n            request.id,\n            request.date,\n            request.name,\n            request.phoneNumber,\n            request.email,\n            request.password,\n            request.logoLink,\n            false,\n            true\n        );\n        signupRequestsAddress[request.owner] = signupRequest(\n            request.owner,\n            request.id,\n            request.date,\n            request.name,\n            request.phoneNumber,\n            request.email,\n            request.password,\n            request.logoLink,\n            false,\n            true\n        );\n        accountsCounter++;\n        accounts[accountsCounter] = account(\n            accountsCounter,\n            request.owner,\n            request.name,\n            request.email,\n            request.phoneNumber,\n            request.password,\n            request.logoLink,\n            true\n        );\n    }\n\n    function refuseRequest(uint256 id) public {\n        require(adminAccounts[msg.sender], \"You are not admin\");\n        signupRequest memory request = signupRequestsId[id];\n        signupRequestsId[id] = signupRequest(\n            request.owner,\n            request.id,\n            request.date,\n            request.name,\n            request.phoneNumber,\n            request.email,\n            request.password,\n            request.logoLink,\n            false,\n            false\n        );\n        signupRequestsAddress[request.owner] = signupRequest(\n            request.owner,\n            request.id,\n            request.date,\n            request.name,\n            request.phoneNumber,\n            request.email,\n            request.password,\n            request.logoLink,\n            false,\n            false\n        );\n    }\n\n    function checkRequest(address _address)\n        public\n        view\n        returns (string memory)\n    {\n        signupRequest memory request = signupRequestsAddress[_address];\n        if (request.owner == address(0)) {\n            return \"null\";\n        }\n        if (request.pending) {\n            return \"pending\";\n        } else {\n            if (request.approved) {\n                return \"approved\";\n            } else {\n                return \"refused\";\n            }\n        }\n    }\n\n    function getSignupRequestCounter() public view returns (uint256) {\n        require(adminAccounts[msg.sender], \"You are not admin\");\n        return signupRequestCounter;\n    }\n\n    function getSignupRequest(uint256 requestId)\n        public\n        view\n        returns (signupRequest memory)\n    {\n        require(adminAccounts[msg.sender], \"You are not admin\");\n        return signupRequestsId[requestId];\n    }\n\n    function getSignupRequestPending() public view returns (uint256[] memory) {\n        require(adminAccounts[msg.sender], \"You are not admin\");\n        if (signupRequestCounter == 0) {\n            return new uint256[](0);\n        }\n        uint256[] memory pendingRequests = new uint256[](signupRequestCounter);\n        uint256 numberOfPendingRequests = 0;\n        for (uint256 i = 1; i <= signupRequestCounter; i++) {\n            if (signupRequestsId[i].approved == false) {\n                pendingRequests[numberOfPendingRequests] = signupRequestsId[i]\n                    .id;\n                numberOfPendingRequests++;\n            }\n        }\n        uint256[] memory finalPendingRequests = new uint256[](\n            numberOfPendingRequests\n        );\n        for (uint256 i = 0; i < numberOfPendingRequests; i++) {\n            finalPendingRequests[i] = pendingRequests[i];\n        }\n        return finalPendingRequests;\n    }\n\n    function editUserInfo(\n        uint256 _id,\n        string memory _userName,\n        string memory _email,\n        string memory phoneNumber,\n        string memory _password,\n        string memory logoLink\n    ) public {\n        account memory userAccount = accounts[_id];\n        //  require(userAccount.owner == msg.sender, \"This is not your acccount\");\n        accounts[_id] = account(\n            _id,\n            userAccount.owner,\n            _userName,\n            _email,\n            phoneNumber,\n            _password,\n            logoLink,\n            userAccount.labo\n        );\n    }\n\n    function getAccountById(uint256 _id) public view returns (account memory) {\n        return (accounts[_id]);\n    }\n\n    function getAccountByAddress(address _address)\n        public\n        view\n        returns (account memory)\n    {\n        for (uint256 i = 1; i <= accountsCounter; i++) {\n            if (accounts[i].owner == _address) {\n                return (accounts[i]);\n            }\n        }\n        return accounts[0];\n    }\n\n    function getAccountsIds() public view returns (uint256[] memory) {\n        if (accountsCounter == 0) {\n            return new uint256[](0);\n        }\n        uint256[] memory accountIds = new uint256[](accountsCounter);\n        uint256 numberOfAccounts = 0;\n        // iterate over accounts\n        for (uint256 i = 1; i <= accountsCounter; i++) {\n            accountIds[numberOfAccounts] = accounts[i].id;\n            numberOfAccounts++;\n        }\n        return accountIds;\n    }\n}\n",
  "sourcePath": "contracts/Authentication.sol",
  "abi": [
    {
      "constant": true,
      "inputs": [
        {
          "internalType": "uint256",
          "name": "",
          "type": "uint256"
        }
      ],
      "name": "accounts",
      "outputs": [
        {
          "internalType": "uint256",
          "name": "id",
          "type": "uint256"
        },
        {
          "internalType": "address",
          "name": "owner",
          "type": "address"
        },
        {
          "internalType": "string",
          "name": "userName",
          "type": "string"
        },
        {
          "internalType": "string",
          "name": "email",
          "type": "string"
        },
        {
          "internalType": "string",
          "name": "phoneNumber",
          "type": "string"
        },
        {
          "internalType": "string",
          "name": "password",
          "type": "string"
        },
        {
          "internalType": "string",
          "name": "logoLink",
          "type": "string"
        },
        {
          "internalType": "bool",
          "name": "labo",
          "type": "bool"
        }
      ],
      "payable": false,
      "stateMutability": "view",
      "type": "function"
    },
    {
      "constant": true,
      "inputs": [
        {
          "internalType": "address",
          "name": "",
          "type": "address"
        }
      ],
      "name": "adminAccounts",
      "outputs": [
        {
          "internalType": "bool",
          "name": "",
          "type": "bool"
        }
      ],
      "payable": false,
      "stateMutability": "view",
      "type": "function"
    },
    {
      "constant": false,
      "inputs": [
        {
          "internalType": "uint256",
          "name": "id",
          "type": "uint256"
        }
      ],
      "name": "approveRequest",
      "outputs": [],
      "payable": false,
      "stateMutability": "nonpayable",
      "type": "function"
    },
    {
      "constant": true,
      "inputs": [
        {
          "internalType": "address",
          "name": "_address",
          "type": "address"
        }
      ],
      "name": "checkRequest",
      "outputs": [
        {
          "internalType": "string",
          "name": "",
          "type": "string"
        }
      ],
      "payable": false,
      "stateMutability": "view",
      "type": "function"
    },
    {
      "constant": false,
      "inputs": [
        {
          "internalType": "uint256",
          "name": "_id",
          "type": "uint256"
        },
        {
          "internalType": "string",
          "name": "_userName",
          "type": "string"
        },
        {
          "internalType": "string",
          "name": "_email",
          "type": "string"
        },
        {
          "internalType": "string",
          "name": "phoneNumber",
          "type": "string"
        },
        {
          "internalType": "string",
          "name": "_password",
          "type": "string"
        },
        {
          "internalType": "string",
          "name": "logoLink",
          "type": "string"
        }
      ],
      "name": "editUserInfo",
      "outputs": [],
      "payable": false,
      "stateMutability": "nonpayable",
      "type": "function"
    },
    {
      "constant": true,
      "inputs": [
        {
          "internalType": "address",
          "name": "_address",
          "type": "address"
        }
      ],
      "name": "getAccountByAddress",
      "outputs": [
        {
          "components": [
            {
              "internalType": "uint256",
              "name": "id",
              "type": "uint256"
            },
            {
              "internalType": "address",
              "name": "owner",
              "type": "address"
            },
            {
              "internalType": "string",
              "name": "userName",
              "type": "string"
            },
            {
              "internalType": "string",
              "name": "email",
              "type": "string"
            },
            {
              "internalType": "string",
              "name": "phoneNumber",
              "type": "string"
            },
            {
              "internalType": "string",
              "name": "password",
              "type": "string"
            },
            {
              "internalType": "string",
              "name": "logoLink",
              "type": "string"
            },
            {
              "internalType": "bool",
              "name": "labo",
              "type": "bool"
            }
          ],
          "internalType": "struct Authentication.account",
          "name": "",
          "type": "tuple"
        }
      ],
      "payable": false,
      "stateMutability": "view",
      "type": "function"
    },
    {
      "constant": true,
      "inputs": [
        {
          "internalType": "uint256",
          "name": "_id",
          "type": "uint256"
        }
      ],
      "name": "getAccountById",
      "outputs": [
        {
          "components": [
            {
              "internalType": "uint256",
              "name": "id",
              "type": "uint256"
            },
            {
              "internalType": "address",
              "name": "owner",
              "type": "address"
            },
            {
              "internalType": "string",
              "name": "userName",
              "type": "string"
            },
            {
              "internalType": "string",
              "name": "email",
              "type": "string"
            },
            {
              "internalType": "string",
              "name": "phoneNumber",
              "type": "string"
            },
            {
              "internalType": "string",
              "name": "password",
              "type": "string"
            },
            {
              "internalType": "string",
              "name": "logoLink",
              "type": "string"
            },
            {
              "internalType": "bool",
              "name": "labo",
              "type": "bool"
            }
          ],
          "internalType": "struct Authentication.account",
          "name": "",
          "type": "tuple"
        }
      ],
      "payable": false,
      "stateMutability": "view",
      "type": "function"
    },
    {
      "constant": true,
      "inputs": [],
      "name": "getAccountsIds",
      "outputs": [
        {
          "internalType": "uint256[]",
          "name": "",
          "type": "uint256[]"
        }
      ],
      "payable": false,
      "stateMutability": "view",
      "type": "function"
    },
    {
      "constant": true,
      "inputs": [
        {
          "internalType": "uint256",
          "name": "requestId",
          "type": "uint256"
        }
      ],
      "name": "getSignupRequest",
      "outputs": [
        {
          "components": [
            {
              "internalType": "address",
              "name": "owner",
              "type": "address"
            },
            {
              "internalType": "uint256",
              "name": "id",
              "type": "uint256"
            },
            {
              "internalType": "string",
              "name": "date",
              "type": "string"
            },
            {
              "internalType": "string",
              "name": "name",
              "type": "string"
            },
            {
              "internalType": "string",
              "name": "email",
              "type": "string"
            },
            {
              "internalType": "string",
              "name": "phoneNumber",
              "type": "string"
            },
            {
              "internalType": "string",
              "name": "password",
              "type": "string"
            },
            {
              "internalType": "string",
              "name": "logoLink",
              "type": "string"
            },
            {
              "internalType": "bool",
              "name": "pending",
              "type": "bool"
            },
            {
              "internalType": "bool",
              "name": "approved",
              "type": "bool"
            }
          ],
          "internalType": "struct Authentication.signupRequest",
          "name": "",
          "type": "tuple"
        }
      ],
      "payable": false,
      "stateMutability": "view",
      "type": "function"
    },
    {
      "constant": true,
      "inputs": [],
      "name": "getSignupRequestCounter",
      "outputs": [
        {
          "internalType": "uint256",
          "name": "",
          "type": "uint256"
        }
      ],
      "payable": false,
      "stateMutability": "view",
      "type": "function"
    },
    {
      "constant": true,
      "inputs": [],
      "name": "getSignupRequestPending",
      "outputs": [
        {
          "internalType": "uint256[]",
          "name": "",
          "type": "uint256[]"
        }
      ],
      "payable": false,
      "stateMutability": "view",
      "type": "function"
    },
    {
      "constant": false,
      "inputs": [],
      "name": "initContract",
      "outputs": [],
      "payable": false,
      "stateMutability": "nonpayable",
      "type": "function"
    },
    {
      "constant": false,
      "inputs": [
        {
          "internalType": "uint256",
          "name": "id",
          "type": "uint256"
        }
      ],
      "name": "refuseRequest",
      "outputs": [],
      "payable": false,
      "stateMutability": "nonpayable",
      "type": "function"
    },
    {
      "constant": false,
      "inputs": [
        {
          "internalType": "address",
          "name": "_address",
          "type": "address"
        },
        {
          "internalType": "string",
          "name": "_userName",
          "type": "string"
        },
        {
          "internalType": "string",
          "name": "_email",
          "type": "string"
        },
        {
          "internalType": "string",
          "name": "phoneNumber",
          "type": "string"
        },
        {
          "internalType": "string",
          "name": "_phAddress",
          "type": "string"
        }
      ],
      "name": "signupAsClient",
      "outputs": [],
      "payable": false,
      "stateMutability": "nonpayable",
      "type": "function"
    },
    {
      "constant": false,
      "inputs": [
        {
          "internalType": "address",
          "name": "_address",
          "type": "address"
        },
        {
          "internalType": "string",
          "name": "requestDate",
          "type": "string"
        },
        {
          "internalType": "string",
          "name": "laboName",
          "type": "string"
        },
        {
          "internalType": "string",
          "name": "phoneNumber",
          "type": "string"
        },
        {
          "internalType": "string",
          "name": "_email",
          "type": "string"
        },
        {
          "internalType": "string",
          "name": "_password",
          "type": "string"
        },
        {
          "internalType": "string",
          "name": "logoLink",
          "type": "string"
        }
      ],
      "name": "signupAsLabo",
      "outputs": [],
      "payable": false,
      "stateMutability": "nonpayable",
      "type": "function"
    }
  ],
  "bytecode": "0x608060405234801561001057600080fd5b50614be2806100206000396000f3fe608060405234801561001057600080fd5b50600436106100f55760003560e01c8063bb9445ef11610097578063da2d3d6911610066578063da2d3d691461025e578063f2a40db81461028e578063f855b366146102c5578063fc9826ac146102f5576100f5565b8063bb9445ef146101ea578063bdd35f3e14610206578063cd5d5cbf14610224578063d7d1bbdb14610242576100f5565b80637cbf7229116100d35780637cbf7229146101765780638203f5fe146101925780639664dea31461019c578063b8e85fec146101ba576100f5565b806305aca141146100fa57806344b328321461012a5780637b9a36191461015a575b600080fd5b610114600480360361010f91908101906143df565b610311565b604051610121919061490c565b60405180910390f35b610144600480360361013f91908101906143df565b6106e3565b604051610151919061492e565b60405180910390f35b610174600480360361016f9190810190614408565b610bff565b005b610190600480360361018b91908101906143df565b611146565b005b61019a611a43565b005b6101a4611a9c565b6040516101b1919061488d565b60405180910390f35b6101d460048036036101cf91908101906141b1565b611cb4565b6040516101e1919061490c565b60405180910390f35b61020460048036036101ff91908101906141da565b6124d9565b005b61020e61266f565b60405161021b9190614950565b60405180910390f35b61022c612705565b604051610239919061488d565b60405180910390f35b61025c600480360361025791908101906143df565b6127e2565b005b610278600480360361027391908101906141b1565b613277565b60405161028591906148af565b60405180910390f35b6102a860048036036102a391908101906143df565b613297565b6040516102bc98979695949392919061496b565b60405180910390f35b6102df60048036036102da91908101906141b1565b613604565b6040516102ec91906148ca565b60405180910390f35b61030f600480360361030a91908101906142b1565b613c05565b005b610319613fc4565b60008083815260200190815260200160002060405180610100016040529081600082015481526020016001820160009054906101000a900473ffffffffffffffffffffffffffffffffffffffff1673ffffffffffffffffffffffffffffffffffffffff1673ffffffffffffffffffffffffffffffffffffffff168152602001600282018054600181600116156101000203166002900480601f0160208091040260200160405190810160405280929190818152602001828054600181600116156101000203166002900480156104305780601f1061040557610100808354040283529160200191610430565b820191906000526020600020905b81548152906001019060200180831161041357829003601f168201915b50505050508152602001600382018054600181600116156101000203166002900480601f0160208091040260200160405190810160405280929190818152602001828054600181600116156101000203166002900480156104d25780601f106104a7576101008083540402835291602001916104d2565b820191906000526020600020905b8154815290600101906020018083116104b557829003601f168201915b50505050508152602001600482018054600181600116156101000203166002900480601f0160208091040260200160405190810160405280929190818152602001828054600181600116156101000203166002900480156105745780601f1061054957610100808354040283529160200191610574565b820191906000526020600020905b81548152906001019060200180831161055757829003601f168201915b50505050508152602001600582018054600181600116156101000203166002900480601f0160208091040260200160405190810160405280929190818152602001828054600181600116156101000203166002900480156106165780601f106105eb57610100808354040283529160200191610616565b820191906000526020600020905b8154815290600101906020018083116105f957829003601f168201915b50505050508152602001600682018054600181600116156101000203166002900480601f0160208091040260200160405190810160405280929190818152602001828054600181600116156101000203166002900480156106b85780601f1061068d576101008083540402835291602001916106b8565b820191906000526020600020905b81548152906001019060200180831161069b57829003601f168201915b505050505081526020016007820160009054906101000a900460ff1615151515815250509050919050565b6106eb614021565b600160003373ffffffffffffffffffffffffffffffffffffffff1673ffffffffffffffffffffffffffffffffffffffff16815260200190815260200160002060009054906101000a900460ff16610777576040517f08c379a000000000000000000000000000000000000000000000000000000000815260040161076e906148ec565b60405180910390fd5b60026000838152602001908152602001600020604051806101400160405290816000820160009054906101000a900473ffffffffffffffffffffffffffffffffffffffff1673ffffffffffffffffffffffffffffffffffffffff1673ffffffffffffffffffffffffffffffffffffffff16815260200160018201548152602001600282018054600181600116156101000203166002900480601f01602080910402602001604051908101604052809291908181526020018280546001816001161561010002031660029004801561088f5780601f106108645761010080835404028352916020019161088f565b820191906000526020600020905b81548152906001019060200180831161087257829003601f168201915b50505050508152602001600382018054600181600116156101000203166002900480601f0160208091040260200160405190810160405280929190818152602001828054600181600116156101000203166002900480156109315780601f1061090657610100808354040283529160200191610931565b820191906000526020600020905b81548152906001019060200180831161091457829003601f168201915b50505050508152602001600482018054600181600116156101000203166002900480601f0160208091040260200160405190810160405280929190818152602001828054600181600116156101000203166002900480156109d35780601f106109a8576101008083540402835291602001916109d3565b820191906000526020600020905b8154815290600101906020018083116109b657829003601f168201915b50505050508152602001600582018054600181600116156101000203166002900480601f016020809104026020016040519081016040528092919081815260200182805460018160011615610100020316600290048015610a755780601f10610a4a57610100808354040283529160200191610a75565b820191906000526020600020905b815481529060010190602001808311610a5857829003601f168201915b50505050508152602001600682018054600181600116156101000203166002900480601f016020809104026020016040519081016040528092919081815260200182805460018160011615610100020316600290048015610b175780601f10610aec57610100808354040283529160200191610b17565b820191906000526020600020905b815481529060010190602001808311610afa57829003601f168201915b50505050508152602001600782018054600181600116156101000203166002900480601f016020809104026020016040519081016040528092919081815260200182805460018160011615610100020316600290048015610bb95780601f10610b8e57610100808354040283529160200191610bb9565b820191906000526020600020905b815481529060010190602001808311610b9c57829003601f168201915b505050505081526020016008820160009054906101000a900460ff161515151581526020016008820160019054906101000a900460ff1615151515815250509050919050565b610c07613fc4565b60008088815260200190815260200160002060405180610100016040529081600082015481526020016001820160009054906101000a900473ffffffffffffffffffffffffffffffffffffffff1673ffffffffffffffffffffffffffffffffffffffff1673ffffffffffffffffffffffffffffffffffffffff168152602001600282018054600181600116156101000203166002900480601f016020809104026020016040519081016040528092919081815260200182805460018160011615610100020316600290048015610d1e5780601f10610cf357610100808354040283529160200191610d1e565b820191906000526020600020905b815481529060010190602001808311610d0157829003601f168201915b50505050508152602001600382018054600181600116156101000203166002900480601f016020809104026020016040519081016040528092919081815260200182805460018160011615610100020316600290048015610dc05780601f10610d9557610100808354040283529160200191610dc0565b820191906000526020600020905b815481529060010190602001808311610da357829003601f168201915b50505050508152602001600482018054600181600116156101000203166002900480601f016020809104026020016040519081016040528092919081815260200182805460018160011615610100020316600290048015610e625780601f10610e3757610100808354040283529160200191610e62565b820191906000526020600020905b815481529060010190602001808311610e4557829003601f168201915b50505050508152602001600582018054600181600116156101000203166002900480601f016020809104026020016040519081016040528092919081815260200182805460018160011615610100020316600290048015610f045780601f10610ed957610100808354040283529160200191610f04565b820191906000526020600020905b815481529060010190602001808311610ee757829003601f168201915b50505050508152602001600682018054600181600116156101000203166002900480601f016020809104026020016040519081016040528092919081815260200182805460018160011615610100020316600290048015610fa65780601f10610f7b57610100808354040283529160200191610fa6565b820191906000526020600020905b815481529060010190602001808311610f8957829003601f168201915b505050505081526020016007820160009054906101000a900460ff1615151515815250509050604051806101000160405280888152602001826020015173ffffffffffffffffffffffffffffffffffffffff1681526020018781526020018681526020018581526020018481526020018381526020018260e0015115158152506000808981526020019081526020016000206000820151816000015560208201518160010160006101000a81548173ffffffffffffffffffffffffffffffffffffffff021916908373ffffffffffffffffffffffffffffffffffffffff16021790555060408201518160020190805190602001906110a592919061408e565b5060608201518160030190805190602001906110c292919061408e565b5060808201518160040190805190602001906110df92919061408e565b5060a08201518160050190805190602001906110fc92919061408e565b5060c082015181600601908051906020019061111992919061408e565b5060e08201518160070160006101000a81548160ff02191690831515021790555090505050505050505050565b600160003373ffffffffffffffffffffffffffffffffffffffff1673ffffffffffffffffffffffffffffffffffffffff16815260200190815260200160002060009054906101000a900460ff166111d2576040517f08c379a00000000000000000000000000000000000000000000000000000000081526004016111c9906148ec565b60405180910390fd5b6111da614021565b60026000838152602001908152602001600020604051806101400160405290816000820160009054906101000a900473ffffffffffffffffffffffffffffffffffffffff1673ffffffffffffffffffffffffffffffffffffffff1673ffffffffffffffffffffffffffffffffffffffff16815260200160018201548152602001600282018054600181600116156101000203166002900480601f0160208091040260200160405190810160405280929190818152602001828054600181600116156101000203166002900480156112f25780601f106112c7576101008083540402835291602001916112f2565b820191906000526020600020905b8154815290600101906020018083116112d557829003601f168201915b50505050508152602001600382018054600181600116156101000203166002900480601f0160208091040260200160405190810160405280929190818152602001828054600181600116156101000203166002900480156113945780601f1061136957610100808354040283529160200191611394565b820191906000526020600020905b81548152906001019060200180831161137757829003601f168201915b50505050508152602001600482018054600181600116156101000203166002900480601f0160208091040260200160405190810160405280929190818152602001828054600181600116156101000203166002900480156114365780601f1061140b57610100808354040283529160200191611436565b820191906000526020600020905b81548152906001019060200180831161141957829003601f168201915b50505050508152602001600582018054600181600116156101000203166002900480601f0160208091040260200160405190810160405280929190818152602001828054600181600116156101000203166002900480156114d85780601f106114ad576101008083540402835291602001916114d8565b820191906000526020600020905b8154815290600101906020018083116114bb57829003601f168201915b50505050508152602001600682018054600181600116156101000203166002900480601f01602080910402602001604051908101604052809291908181526020018280546001816001161561010002031660029004801561157a5780601f1061154f5761010080835404028352916020019161157a565b820191906000526020600020905b81548152906001019060200180831161155d57829003601f168201915b50505050508152602001600782018054600181600116156101000203166002900480601f01602080910402602001604051908101604052809291908181526020018280546001816001161561010002031660029004801561161c5780601f106115f15761010080835404028352916020019161161c565b820191906000526020600020905b8154815290600101906020018083116115ff57829003601f168201915b505050505081526020016008820160009054906101000a900460ff161515151581526020016008820160019054906101000a900460ff1615151515815250509050604051806101400160405280826000015173ffffffffffffffffffffffffffffffffffffffff1681526020018260200151815260200182604001518152602001826060015181526020018260a001518152602001826080015181526020018260c0015181526020018260e001518152602001600015158152602001600015158152506002600084815260200190815260200160002060008201518160000160006101000a81548173ffffffffffffffffffffffffffffffffffffffff021916908373ffffffffffffffffffffffffffffffffffffffff16021790555060208201518160010155604082015181600201908051906020019061175f92919061408e565b50606082015181600301908051906020019061177c92919061408e565b50608082015181600401908051906020019061179992919061408e565b5060a08201518160050190805190602001906117b692919061408e565b5060c08201518160060190805190602001906117d392919061408e565b5060e08201518160070190805190602001906117f092919061408e565b506101008201518160080160006101000a81548160ff0219169083151502179055506101208201518160080160016101000a81548160ff021916908315150217905550905050604051806101400160405280826000015173ffffffffffffffffffffffffffffffffffffffff1681526020018260200151815260200182604001518152602001826060015181526020018260a001518152602001826080015181526020018260c0015181526020018260e0015181526020016000151581526020016000151581525060036000836000015173ffffffffffffffffffffffffffffffffffffffff1673ffffffffffffffffffffffffffffffffffffffff16815260200190815260200160002060008201518160000160006101000a81548173ffffffffffffffffffffffffffffffffffffffff021916908373ffffffffffffffffffffffffffffffffffffffff16021790555060208201518160010155604082015181600201908051906020019061196892919061408e565b50606082015181600301908051906020019061198592919061408e565b5060808201518160040190805190602001906119a292919061408e565b5060a08201518160050190805190602001906119bf92919061408e565b5060c08201518160060190805190602001906119dc92919061408e565b5060e08201518160070190805190602001906119f992919061408e565b506101008201518160080160006101000a81548160ff0219169083151502179055506101208201518160080160016101000a81548160ff0219169083151502179055509050505050565b60018060003373ffffffffffffffffffffffffffffffffffffffff1673ffffffffffffffffffffffffffffffffffffffff16815260200190815260200160002060006101000a81548160ff021916908315150217905550565b6060600160003373ffffffffffffffffffffffffffffffffffffffff1673ffffffffffffffffffffffffffffffffffffffff16815260200190815260200160002060009054906101000a900460ff16611b2a576040517f08c379a0000000000000000000000000000000000000000000000000000000008152600401611b21906148ec565b60405180910390fd5b60006005541415611b6d576000604051908082528060200260200182016040528015611b655781602001602082028038833980820191505090505b509050611cb1565b6060600554604051908082528060200260200182016040528015611ba05781602001602082028038833980820191505090505b50905060008090506000600190505b6005548111611c2d57600015156002600083815260200190815260200160002060080160019054906101000a900460ff1615151415611c20576002600082815260200190815260200160002060010154838381518110611c0b57fe5b60200260200101818152505081806001019250505b8080600101915050611baf565b50606081604051908082528060200260200182016040528015611c5f5781602001602082028038833980820191505090505b50905060008090505b82811015611ca957838181518110611c7c57fe5b6020026020010151828281518110611c9057fe5b6020026020010181815250508080600101915050611c68565b508093505050505b90565b611cbc613fc4565b6000600190505b600454811161210d578273ffffffffffffffffffffffffffffffffffffffff1660008083815260200190815260200160002060010160009054906101000a900473ffffffffffffffffffffffffffffffffffffffff1673ffffffffffffffffffffffffffffffffffffffff1614156121005760008082815260200190815260200160002060405180610100016040529081600082015481526020016001820160009054906101000a900473ffffffffffffffffffffffffffffffffffffffff1673ffffffffffffffffffffffffffffffffffffffff1673ffffffffffffffffffffffffffffffffffffffff168152602001600282018054600181600116156101000203166002900480601f016020809104026020016040519081016040528092919081815260200182805460018160011615610100020316600290048015611e4c5780601f10611e2157610100808354040283529160200191611e4c565b820191906000526020600020905b815481529060010190602001808311611e2f57829003601f168201915b50505050508152602001600382018054600181600116156101000203166002900480601f016020809104026020016040519081016040528092919081815260200182805460018160011615610100020316600290048015611eee5780601f10611ec357610100808354040283529160200191611eee565b820191906000526020600020905b815481529060010190602001808311611ed157829003601f168201915b50505050508152602001600482018054600181600116156101000203166002900480601f016020809104026020016040519081016040528092919081815260200182805460018160011615610100020316600290048015611f905780601f10611f6557610100808354040283529160200191611f90565b820191906000526020600020905b815481529060010190602001808311611f7357829003601f168201915b50505050508152602001600582018054600181600116156101000203166002900480601f0160208091040260200160405190810160405280929190818152602001828054600181600116156101000203166002900480156120325780601f1061200757610100808354040283529160200191612032565b820191906000526020600020905b81548152906001019060200180831161201557829003601f168201915b50505050508152602001600682018054600181600116156101000203166002900480601f0160208091040260200160405190810160405280929190818152602001828054600181600116156101000203166002900480156120d45780601f106120a9576101008083540402835291602001916120d4565b820191906000526020600020905b8154815290600101906020018083116120b757829003601f168201915b505050505081526020016007820160009054906101000a900460ff1615151515815250509150506124d4565b8080600101915050611cc3565b5060008080815260200190815260200160002060405180610100016040529081600082015481526020016001820160009054906101000a900473ffffffffffffffffffffffffffffffffffffffff1673ffffffffffffffffffffffffffffffffffffffff1673ffffffffffffffffffffffffffffffffffffffff168152602001600282018054600181600116156101000203166002900480601f0160208091040260200160405190810160405280929190818152602001828054600181600116156101000203166002900480156122255780601f106121fa57610100808354040283529160200191612225565b820191906000526020600020905b81548152906001019060200180831161220857829003601f168201915b50505050508152602001600382018054600181600116156101000203166002900480601f0160208091040260200160405190810160405280929190818152602001828054600181600116156101000203166002900480156122c75780601f1061229c576101008083540402835291602001916122c7565b820191906000526020600020905b8154815290600101906020018083116122aa57829003601f168201915b50505050508152602001600482018054600181600116156101000203166002900480601f0160208091040260200160405190810160405280929190818152602001828054600181600116156101000203166002900480156123695780601f1061233e57610100808354040283529160200191612369565b820191906000526020600020905b81548152906001019060200180831161234c57829003601f168201915b50505050508152602001600582018054600181600116156101000203166002900480601f01602080910402602001604051908101604052809291908181526020018280546001816001161561010002031660029004801561240b5780601f106123e05761010080835404028352916020019161240b565b820191906000526020600020905b8154815290600101906020018083116123ee57829003601f168201915b50505050508152602001600682018054600181600116156101000203166002900480601f0160208091040260200160405190810160405280929190818152602001828054600181600116156101000203166002900480156124ad5780601f10612482576101008083540402835291602001916124ad565b820191906000526020600020905b81548152906001019060200180831161249057829003601f168201915b505050505081526020016007820160009054906101000a900460ff16151515158152505090505b919050565b60046000815480929190600101919050555060405180610100016040528060045481526020018673ffffffffffffffffffffffffffffffffffffffff1681526020018581526020018481526020018381526020018281526020016040518060200160405280600081525081526020016000151581525060008060045481526020019081526020016000206000820151816000015560208201518160010160006101000a81548173ffffffffffffffffffffffffffffffffffffffff021916908373ffffffffffffffffffffffffffffffffffffffff16021790555060408201518160020190805190602001906125d092919061408e565b5060608201518160030190805190602001906125ed92919061408e565b50608082015181600401908051906020019061260a92919061408e565b5060a082015181600501908051906020019061262792919061408e565b5060c082015181600601908051906020019061264492919061408e565b5060e08201518160070160006101000a81548160ff0219169083151502179055509050505050505050565b6000600160003373ffffffffffffffffffffffffffffffffffffffff1673ffffffffffffffffffffffffffffffffffffffff16815260200190815260200160002060009054906101000a900460ff166126fd576040517f08c379a00000000000000000000000000000000000000000000000000000000081526004016126f4906148ec565b60405180910390fd5b600554905090565b60606000600454141561274a5760006040519080825280602002602001820160405280156127425781602001602082028038833980820191505090505b5090506127df565b606060045460405190808252806020026020018201604052801561277d5781602001602082028038833980820191505090505b50905060008090506000600190505b60045481116127d857600080828152602001908152602001600020600001548383815181106127b757fe5b6020026020010181815250508180600101925050808060010191505061278c565b5081925050505b90565b600160003373ffffffffffffffffffffffffffffffffffffffff1673ffffffffffffffffffffffffffffffffffffffff16815260200190815260200160002060009054906101000a900460ff1661286e576040517f08c379a0000000000000000000000000000000000000000000000000000000008152600401612865906148ec565b60405180910390fd5b612876614021565b60026000838152602001908152602001600020604051806101400160405290816000820160009054906101000a900473ffffffffffffffffffffffffffffffffffffffff1673ffffffffffffffffffffffffffffffffffffffff1673ffffffffffffffffffffffffffffffffffffffff16815260200160018201548152602001600282018054600181600116156101000203166002900480601f01602080910402602001604051908101604052809291908181526020018280546001816001161561010002031660029004801561298e5780601f106129635761010080835404028352916020019161298e565b820191906000526020600020905b81548152906001019060200180831161297157829003601f168201915b50505050508152602001600382018054600181600116156101000203166002900480601f016020809104026020016040519081016040528092919081815260200182805460018160011615610100020316600290048015612a305780601f10612a0557610100808354040283529160200191612a30565b820191906000526020600020905b815481529060010190602001808311612a1357829003601f168201915b50505050508152602001600482018054600181600116156101000203166002900480601f016020809104026020016040519081016040528092919081815260200182805460018160011615610100020316600290048015612ad25780601f10612aa757610100808354040283529160200191612ad2565b820191906000526020600020905b815481529060010190602001808311612ab557829003601f168201915b50505050508152602001600582018054600181600116156101000203166002900480601f016020809104026020016040519081016040528092919081815260200182805460018160011615610100020316600290048015612b745780601f10612b4957610100808354040283529160200191612b74565b820191906000526020600020905b815481529060010190602001808311612b5757829003601f168201915b50505050508152602001600682018054600181600116156101000203166002900480601f016020809104026020016040519081016040528092919081815260200182805460018160011615610100020316600290048015612c165780601f10612beb57610100808354040283529160200191612c16565b820191906000526020600020905b815481529060010190602001808311612bf957829003601f168201915b50505050508152602001600782018054600181600116156101000203166002900480601f016020809104026020016040519081016040528092919081815260200182805460018160011615610100020316600290048015612cb85780601f10612c8d57610100808354040283529160200191612cb8565b820191906000526020600020905b815481529060010190602001808311612c9b57829003601f168201915b505050505081526020016008820160009054906101000a900460ff161515151581526020016008820160019054906101000a900460ff1615151515815250509050604051806101400160405280826000015173ffffffffffffffffffffffffffffffffffffffff1681526020018260200151815260200182604001518152602001826060015181526020018260a001518152602001826080015181526020018260c0015181526020018260e001518152602001600015158152602001600115158152506002600084815260200190815260200160002060008201518160000160006101000a81548173ffffffffffffffffffffffffffffffffffffffff021916908373ffffffffffffffffffffffffffffffffffffffff160217905550602082015181600101556040820151816002019080519060200190612dfb92919061408e565b506060820151816003019080519060200190612e1892919061408e565b506080820151816004019080519060200190612e3592919061408e565b5060a0820151816005019080519060200190612e5292919061408e565b5060c0820151816006019080519060200190612e6f92919061408e565b5060e0820151816007019080519060200190612e8c92919061408e565b506101008201518160080160006101000a81548160ff0219169083151502179055506101208201518160080160016101000a81548160ff021916908315150217905550905050604051806101400160405280826000015173ffffffffffffffffffffffffffffffffffffffff1681526020018260200151815260200182604001518152602001826060015181526020018260a001518152602001826080015181526020018260c0015181526020018260e0015181526020016000151581526020016001151581525060036000836000015173ffffffffffffffffffffffffffffffffffffffff1673ffffffffffffffffffffffffffffffffffffffff16815260200190815260200160002060008201518160000160006101000a81548173ffffffffffffffffffffffffffffffffffffffff021916908373ffffffffffffffffffffffffffffffffffffffff16021790555060208201518160010155604082015181600201908051906020019061300492919061408e565b50606082015181600301908051906020019061302192919061408e565b50608082015181600401908051906020019061303e92919061408e565b5060a082015181600501908051906020019061305b92919061408e565b5060c082015181600601908051906020019061307892919061408e565b5060e082015181600701908051906020019061309592919061408e565b506101008201518160080160006101000a81548160ff0219169083151502179055506101208201518160080160016101000a81548160ff0219169083151502179055509050506004600081548092919060010191905055506040518061010001604052806004548152602001826000015173ffffffffffffffffffffffffffffffffffffffff16815260200182606001518152602001826080015181526020018260a0015181526020018260c0015181526020018260e0015181526020016001151581525060008060045481526020019081526020016000206000820151816000015560208201518160010160006101000a81548173ffffffffffffffffffffffffffffffffffffffff021916908373ffffffffffffffffffffffffffffffffffffffff16021790555060408201518160020190805190602001906131db92919061408e565b5060608201518160030190805190602001906131f892919061408e565b50608082015181600401908051906020019061321592919061408e565b5060a082015181600501908051906020019061323292919061408e565b5060c082015181600601908051906020019061324f92919061408e565b5060e08201518160070160006101000a81548160ff0219169083151502179055509050505050565b60016020528060005260406000206000915054906101000a900460ff1681565b60006020528060005260406000206000915090508060000154908060010160009054906101000a900473ffffffffffffffffffffffffffffffffffffffff1690806002018054600181600116156101000203166002900480601f01602080910402602001604051908101604052809291908181526020018280546001816001161561010002031660029004801561336f5780601f106133445761010080835404028352916020019161336f565b820191906000526020600020905b81548152906001019060200180831161335257829003601f168201915b505050505090806003018054600181600116156101000203166002900480601f01602080910402602001604051908101604052809291908181526020018280546001816001161561010002031660029004801561340d5780601f106133e25761010080835404028352916020019161340d565b820191906000526020600020905b8154815290600101906020018083116133f057829003601f168201915b505050505090806004018054600181600116156101000203166002900480601f0160208091040260200160405190810160405280929190818152602001828054600181600116156101000203166002900480156134ab5780601f10613480576101008083540402835291602001916134ab565b820191906000526020600020905b81548152906001019060200180831161348e57829003601f168201915b505050505090806005018054600181600116156101000203166002900480601f0160208091040260200160405190810160405280929190818152602001828054600181600116156101000203166002900480156135495780601f1061351e57610100808354040283529160200191613549565b820191906000526020600020905b81548152906001019060200180831161352c57829003601f168201915b505050505090806006018054600181600116156101000203166002900480601f0160208091040260200160405190810160405280929190818152602001828054600181600116156101000203166002900480156135e75780601f106135bc576101008083540402835291602001916135e7565b820191906000526020600020905b8154815290600101906020018083116135ca57829003601f168201915b5050505050908060070160009054906101000a900460ff16905088565b606061360e614021565b600360008473ffffffffffffffffffffffffffffffffffffffff1673ffffffffffffffffffffffffffffffffffffffff168152602001908152602001600020604051806101400160405290816000820160009054906101000a900473ffffffffffffffffffffffffffffffffffffffff1673ffffffffffffffffffffffffffffffffffffffff1673ffffffffffffffffffffffffffffffffffffffff16815260200160018201548152602001600282018054600181600116156101000203166002900480601f0160208091040260200160405190810160405280929190818152602001828054600181600116156101000203166002900480156137525780601f1061372757610100808354040283529160200191613752565b820191906000526020600020905b81548152906001019060200180831161373557829003601f168201915b50505050508152602001600382018054600181600116156101000203166002900480601f0160208091040260200160405190810160405280929190818152602001828054600181600116156101000203166002900480156137f45780601f106137c9576101008083540402835291602001916137f4565b820191906000526020600020905b8154815290600101906020018083116137d757829003601f168201915b50505050508152602001600482018054600181600116156101000203166002900480601f0160208091040260200160405190810160405280929190818152602001828054600181600116156101000203166002900480156138965780601f1061386b57610100808354040283529160200191613896565b820191906000526020600020905b81548152906001019060200180831161387957829003601f168201915b50505050508152602001600582018054600181600116156101000203166002900480601f0160208091040260200160405190810160405280929190818152602001828054600181600116156101000203166002900480156139385780601f1061390d57610100808354040283529160200191613938565b820191906000526020600020905b81548152906001019060200180831161391b57829003601f168201915b50505050508152602001600682018054600181600116156101000203166002900480601f0160208091040260200160405190810160405280929190818152602001828054600181600116156101000203166002900480156139da5780601f106139af576101008083540402835291602001916139da565b820191906000526020600020905b8154815290600101906020018083116139bd57829003601f168201915b50505050508152602001600782018054600181600116156101000203166002900480601f016020809104026020016040519081016040528092919081815260200182805460018160011615610100020316600290048015613a7c5780601f10613a5157610100808354040283529160200191613a7c565b820191906000526020600020905b815481529060010190602001808311613a5f57829003601f168201915b505050505081526020016008820160009054906101000a900460ff161515151581526020016008820160019054906101000a900460ff1615151515815250509050600073ffffffffffffffffffffffffffffffffffffffff16816000015173ffffffffffffffffffffffffffffffffffffffff161415613b34576040518060400160405280600481526020017f6e756c6c00000000000000000000000000000000000000000000000000000000815250915050613c00565b80610100015115613b7d576040518060400160405280600781526020017f70656e64696e6700000000000000000000000000000000000000000000000000815250915050613c00565b80610120015115613bc6576040518060400160405280600881526020017f617070726f766564000000000000000000000000000000000000000000000000815250915050613c00565b6040518060400160405280600781526020017f72656675736564000000000000000000000000000000000000000000000000008152509150505b919050565b6005600081548092919060010191905055506040518061014001604052808873ffffffffffffffffffffffffffffffffffffffff16815260200160055481526020018781526020018681526020018581526020018481526020018381526020018281526020016001151581526020016000151581525060026000600554815260200190815260200160002060008201518160000160006101000a81548173ffffffffffffffffffffffffffffffffffffffff021916908373ffffffffffffffffffffffffffffffffffffffff160217905550602082015181600101556040820151816002019080519060200190613cfd92919061408e565b506060820151816003019080519060200190613d1a92919061408e565b506080820151816004019080519060200190613d3792919061408e565b5060a0820151816005019080519060200190613d5492919061408e565b5060c0820151816006019080519060200190613d7192919061408e565b5060e0820151816007019080519060200190613d8e92919061408e565b506101008201518160080160006101000a81548160ff0219169083151502179055506101208201518160080160016101000a81548160ff0219169083151502179055509050506040518061014001604052808873ffffffffffffffffffffffffffffffffffffffff168152602001600554815260200187815260200186815260200185815260200184815260200183815260200182815260200160011515815260200160001515815250600360008973ffffffffffffffffffffffffffffffffffffffff1673ffffffffffffffffffffffffffffffffffffffff16815260200190815260200160002060008201518160000160006101000a81548173ffffffffffffffffffffffffffffffffffffffff021916908373ffffffffffffffffffffffffffffffffffffffff160217905550602082015181600101556040820151816002019080519060200190613ee492919061408e565b506060820151816003019080519060200190613f0192919061408e565b506080820151816004019080519060200190613f1e92919061408e565b5060a0820151816005019080519060200190613f3b92919061408e565b5060c0820151816006019080519060200190613f5892919061408e565b5060e0820151816007019080519060200190613f7592919061408e565b506101008201518160080160006101000a81548160ff0219169083151502179055506101208201518160080160016101000a81548160ff02191690831515021790555090505050505050505050565b60405180610100016040528060008152602001600073ffffffffffffffffffffffffffffffffffffffff16815260200160608152602001606081526020016060815260200160608152602001606081526020016000151581525090565b604051806101400160405280600073ffffffffffffffffffffffffffffffffffffffff168152602001600081526020016060815260200160608152602001606081526020016060815260200160608152602001606081526020016000151581526020016000151581525090565b828054600181600116156101000203166002900490600052602060002090601f016020900481019282601f106140cf57805160ff19168380011785556140fd565b828001600101855582156140fd579182015b828111156140fc5782518255916020019190600101906140e1565b5b50905061410a919061410e565b5090565b61413091905b8082111561412c576000816000905550600101614114565b5090565b90565b60008135905061414281614b71565b92915050565b600082601f83011261415957600080fd5b813561416c61416782614a39565b614a0c565b9150808252602083016020830185838301111561418857600080fd5b614193838284614b1e565b50505092915050565b6000813590506141ab81614b88565b92915050565b6000602082840312156141c357600080fd5b60006141d184828501614133565b91505092915050565b600080600080600060a086880312156141f257600080fd5b600061420088828901614133565b955050602086013567ffffffffffffffff81111561421d57600080fd5b61422988828901614148565b945050604086013567ffffffffffffffff81111561424657600080fd5b61425288828901614148565b935050606086013567ffffffffffffffff81111561426f57600080fd5b61427b88828901614148565b925050608086013567ffffffffffffffff81111561429857600080fd5b6142a488828901614148565b9150509295509295909350565b600080600080600080600060e0888a0312156142cc57600080fd5b60006142da8a828b01614133565b975050602088013567ffffffffffffffff8111156142f757600080fd5b6143038a828b01614148565b965050604088013567ffffffffffffffff81111561432057600080fd5b61432c8a828b01614148565b955050606088013567ffffffffffffffff81111561434957600080fd5b6143558a828b01614148565b945050608088013567ffffffffffffffff81111561437257600080fd5b61437e8a828b01614148565b93505060a088013567ffffffffffffffff81111561439b57600080fd5b6143a78a828b01614148565b92505060c088013567ffffffffffffffff8111156143c457600080fd5b6143d08a828b01614148565b91505092959891949750929550565b6000602082840312156143f157600080fd5b60006143ff8482850161419c565b91505092915050565b60008060008060008060c0878903121561442157600080fd5b600061442f89828a0161419c565b965050602087013567ffffffffffffffff81111561444c57600080fd5b61445889828a01614148565b955050604087013567ffffffffffffffff81111561447557600080fd5b61448189828a01614148565b945050606087013567ffffffffffffffff81111561449e57600080fd5b6144aa89828a01614148565b935050608087013567ffffffffffffffff8111156144c757600080fd5b6144d389828a01614148565b92505060a087013567ffffffffffffffff8111156144f057600080fd5b6144fc89828a01614148565b9150509295509295509295565b6000614515838361486f565b60208301905092915050565b61452a81614ad6565b82525050565b61453981614ad6565b82525050565b600061454a82614a75565b6145548185614aa3565b935061455f83614a65565b8060005b838110156145905781516145778882614509565b975061458283614a96565b925050600181019050614563565b5085935050505092915050565b6145a681614ae8565b82525050565b6145b581614ae8565b82525050565b60006145c682614a8b565b6145d08185614ac5565b93506145e0818560208601614b2d565b6145e981614b60565b840191505092915050565b60006145ff82614a80565b6146098185614ab4565b9350614619818560208601614b2d565b61462281614b60565b840191505092915050565b600061463882614a80565b6146428185614ac5565b9350614652818560208601614b2d565b61465b81614b60565b840191505092915050565b6000614673601183614ac5565b91507f596f7520617265206e6f742061646d696e0000000000000000000000000000006000830152602082019050919050565b6000610100830160008301516146bf600086018261486f565b5060208301516146d26020860182614521565b50604083015184820360408601526146ea82826145f4565b9150506060830151848203606086015261470482826145f4565b9150506080830151848203608086015261471e82826145f4565b91505060a083015184820360a086015261473882826145f4565b91505060c083015184820360c086015261475282826145f4565b91505060e083015161476760e086018261459d565b508091505092915050565b60006101408301600083015161478b6000860182614521565b50602083015161479e602086018261486f565b50604083015184820360408601526147b682826145f4565b915050606083015184820360608601526147d082826145f4565b915050608083015184820360808601526147ea82826145f4565b91505060a083015184820360a086015261480482826145f4565b91505060c083015184820360c086015261481e82826145f4565b91505060e083015184820360e086015261483882826145f4565b91505061010083015161484f61010086018261459d565b5061012083015161486461012086018261459d565b508091505092915050565b61487881614b14565b82525050565b61488781614b14565b82525050565b600060208201905081810360008301526148a7818461453f565b905092915050565b60006020820190506148c460008301846145ac565b92915050565b600060208201905081810360008301526148e481846145bb565b905092915050565b6000602082019050818103600083015261490581614666565b9050919050565b6000602082019050818103600083015261492681846146a6565b905092915050565b600060208201905081810360008301526149488184614772565b905092915050565b6000602082019050614965600083018461487e565b92915050565b600061010082019050614981600083018b61487e565b61498e602083018a614530565b81810360408301526149a0818961462d565b905081810360608301526149b4818861462d565b905081810360808301526149c8818761462d565b905081810360a08301526149dc818661462d565b905081810360c08301526149f0818561462d565b90506149ff60e08301846145ac565b9998505050505050505050565b6000604051905081810181811067ffffffffffffffff82111715614a2f57600080fd5b8060405250919050565b600067ffffffffffffffff821115614a5057600080fd5b601f19601f8301169050602081019050919050565b6000819050602082019050919050565b600081519050919050565b600081519050919050565b600081519050919050565b6000602082019050919050565b600082825260208201905092915050565b600082825260208201905092915050565b600082825260208201905092915050565b6000614ae182614af4565b9050919050565b60008115159050919050565b600073ffffffffffffffffffffffffffffffffffffffff82169050919050565b6000819050919050565b82818337600083830152505050565b60005b83811015614b4b578082015181840152602081019050614b30565b83811115614b5a576000848401525b50505050565b6000601f19601f8301169050919050565b614b7a81614ad6565b8114614b8557600080fd5b50565b614b9181614b14565b8114614b9c57600080fd5b5056fea365627a7a72315820b158819402c62e605e59dcc4d39b78d14c552becdc424c0ead8109bb6277bcc16c6578706572696d656e74616cf564736f6c63430005110040",
  "compiler": {
    "name": "solc",
    "version": "0.5.17+commit.d19bba13.Emscripten.clang",
    "optimizer": {
      "enabled": false,
      "runs": 200
    },
    "evmVersion": "petersburg"
  }
}