{
  "fileName": "Authentication.sol",
  "contractName": "Authentication",
  "source": "pragma experimental ABIEncoderV2;\npragma solidity >0.4.99 <0.6.0;\n\ncontract Authentication {\n    struct account {\n        uint256 id;\n        address owner;\n        string userName;\n        string email;\n        string phoneNumber;\n        string responsableName;\n        string logoLink;\n        string country;\n        bool labo;\n        bool blocked;\n    }\n\n    struct signupRequest {\n        address owner;\n        uint256 id;\n        string date;\n        string userName;\n        string email;\n        string phoneNumber;\n        string responsableName;\n        string country;\n        string logoLink;\n        bool pending;\n        bool approved;\n    }\n\n    mapping(uint256 => account) public accounts;\n    mapping(address => bool) public adminAccounts;\n    mapping(uint256 => signupRequest) private signupRequestsId;\n    mapping(address => signupRequest) private signupRequestsAddress;\n\n    // State variables\n    uint256 accountsCounter;\n    uint256 signupRequestCounter;\n\n    function initContract() public {\n        adminAccounts[msg.sender] = true;\n    }\n\n    function signupAsClient(\n        address _address,\n        string memory _userName,\n        string memory _email,\n        string memory phoneNumber,\n        string memory _phAddress\n    ) public {\n        // store account\n        accountsCounter++;\n        accounts[accountsCounter] = account(\n            accountsCounter,\n            _address,\n            _userName,\n            _email,\n            phoneNumber,\n            _phAddress,\n            \"\",\n            \"\",\n            false,\n            false\n        );\n    }\n\n    function signupAsLabo(\n        address _address,\n        string memory requestDate,\n        string memory laboName,\n        string memory phoneNumber,\n        string memory _email,\n        string memory responsableName,\n        string memory country,\n        string memory logoLink\n    ) public {\n        signupRequestCounter++;\n        signupRequestsId[signupRequestCounter] = signupRequest(\n            _address,\n            signupRequestCounter,\n            requestDate,\n            laboName,\n            phoneNumber,\n            _email,\n            responsableName,\n            country,\n            logoLink,\n            true,\n            false\n        );\n        signupRequestsAddress[_address] = signupRequest(\n            _address,\n            signupRequestCounter,\n            requestDate,\n            laboName,\n            phoneNumber,\n            _email,\n            responsableName,\n            country,\n            logoLink,\n            true,\n            false\n        );\n    }\n\n    function approveRequest(uint256 id) public {\n        require(adminAccounts[msg.sender], \"You are not admin\");\n        signupRequest memory request = signupRequestsId[id];\n        signupRequestsId[id] = signupRequest(\n            request.owner,\n            request.id,\n            request.date,\n            request.userName,\n            request.phoneNumber,\n            request.email,\n            request.responsableName,\n            request.country,\n            request.logoLink,\n            false,\n            true\n        );\n        signupRequestsAddress[request.owner] = signupRequest(\n            request.owner,\n            request.id,\n            request.date,\n            request.userName,\n            request.phoneNumber,\n            request.email,\n            request.responsableName,\n            request.country,\n            request.logoLink,\n            false,\n            true\n        );\n        accountsCounter++;\n        accounts[accountsCounter] = account(\n            accountsCounter,\n            request.owner,\n            request.userName,\n            request.email,\n            request.phoneNumber,\n            request.responsableName,\n            request.logoLink,\n            request.country,\n            true,\n            false\n        );\n    }\n\n    function refuseRequest(uint256 id) public {\n        require(adminAccounts[msg.sender], \"You are not admin\");\n        signupRequest memory request = signupRequestsId[id];\n        signupRequestsId[id] = signupRequest(\n            request.owner,\n            request.id,\n            request.date,\n            request.userName,\n            request.phoneNumber,\n            request.email,\n            request.responsableName,\n            request.country,\n            request.logoLink,\n            false,\n            false\n        );\n        signupRequestsAddress[request.owner] = signupRequest(\n            request.owner,\n            request.id,\n            request.date,\n            request.userName,\n            request.phoneNumber,\n            request.email,\n            request.responsableName,\n            request.country,\n            request.logoLink,\n            false,\n            false\n        );\n    }\n\n    function manageUserPermission(uint256 clientId, bool blockUser) public {\n        require(adminAccounts[msg.sender], \"You are not admin\");\n        account memory userAccount = accounts[clientId];\n        accounts[clientId] = account(\n            userAccount.id,\n            userAccount.owner,\n            userAccount.userName,\n            userAccount.email,\n            userAccount.phoneNumber,\n            userAccount.responsableName,\n            userAccount.logoLink,\n            userAccount.country,\n            userAccount.labo,\n            blockUser\n        );\n    }\n\n    function checkRequest(address _address)\n        public\n        view\n        returns (string memory)\n    {\n        signupRequest memory request = signupRequestsAddress[_address];\n        if (request.owner == address(0)) {\n            return \"null\";\n        }\n        if (request.pending) {\n            return \"pending\";\n        } else {\n            if (request.approved) {\n                return \"approved\";\n            } else {\n                return \"refused\";\n            }\n        }\n    }\n\n    function getSignupRequestCounter() public view returns (uint256) {\n        require(adminAccounts[msg.sender], \"You are not admin\");\n        return signupRequestCounter;\n    }\n\n    function getSignupRequest(uint256 requestId)\n        public\n        view\n        returns (signupRequest memory)\n    {\n        require(adminAccounts[msg.sender], \"You are not admin\");\n        return signupRequestsId[requestId];\n    }\n\n    function getSignupRequestPending() public view returns (uint256[] memory) {\n        require(adminAccounts[msg.sender], \"You are not admin\");\n        if (signupRequestCounter == 0) {\n            return new uint256[](0);\n        }\n        uint256[] memory pendingRequests = new uint256[](signupRequestCounter);\n        uint256 numberOfPendingRequests = 0;\n        for (uint256 i = 1; i <= signupRequestCounter; i++) {\n            if (signupRequestsId[i].approved == false) {\n                pendingRequests[numberOfPendingRequests] = signupRequestsId[i]\n                    .id;\n                numberOfPendingRequests++;\n            }\n        }\n        uint256[] memory finalPendingRequests = new uint256[](\n            numberOfPendingRequests\n        );\n        for (uint256 i = 0; i < numberOfPendingRequests; i++) {\n            finalPendingRequests[i] = pendingRequests[i];\n        }\n        return finalPendingRequests;\n    }\n\n    function editUserInfo(\n        uint256 _id,\n        string memory _userName,\n        string memory _email,\n        string memory phoneNumber,\n        string memory _password,\n        string memory logoLink\n    ) public {\n        account memory userAccount = accounts[_id];\n        //  require(userAccount.owner == msg.sender, \"This is not your acccount\");\n        accounts[_id] = account(\n            _id,\n            userAccount.owner,\n            _userName,\n            _email,\n            phoneNumber,\n            _password,\n            logoLink,\n            userAccount.country,\n            userAccount.labo,\n            false\n        );\n    }\n\n    function getAccountById(uint256 _id) public view returns (account memory) {\n        return (accounts[_id]);\n    }\n\n    function getAccountByAddress(address _address)\n        public\n        view\n        returns (account memory)\n    {\n        for (uint256 i = 1; i <= accountsCounter; i++) {\n            if (accounts[i].owner == _address) {\n                return (accounts[i]);\n            }\n        }\n        return accounts[0];\n    }\n\n    function getAccountsIds() public view returns (uint256[] memory) {\n        if (accountsCounter == 0) {\n            return new uint256[](0);\n        }\n        uint256[] memory accountIds = new uint256[](accountsCounter);\n        uint256 numberOfAccounts = 0;\n        // iterate over accounts\n        for (uint256 i = 1; i <= accountsCounter; i++) {\n            accountIds[numberOfAccounts] = accounts[i].id;\n            numberOfAccounts++;\n        }\n        return accountIds;\n    }\n}\n",
  "sourcePath": "contracts/Authentication.sol",
  "abi": [
    {
      "constant": true,
      "inputs": [
        {
          "internalType": "uint256",
          "name": "",
          "type": "uint256"
        }
      ],
      "name": "accounts",
      "outputs": [
        {
          "internalType": "uint256",
          "name": "id",
          "type": "uint256"
        },
        {
          "internalType": "address",
          "name": "owner",
          "type": "address"
        },
        {
          "internalType": "string",
          "name": "userName",
          "type": "string"
        },
        {
          "internalType": "string",
          "name": "email",
          "type": "string"
        },
        {
          "internalType": "string",
          "name": "phoneNumber",
          "type": "string"
        },
        {
          "internalType": "string",
          "name": "responsableName",
          "type": "string"
        },
        {
          "internalType": "string",
          "name": "logoLink",
          "type": "string"
        },
        {
          "internalType": "string",
          "name": "country",
          "type": "string"
        },
        {
          "internalType": "bool",
          "name": "labo",
          "type": "bool"
        },
        {
          "internalType": "bool",
          "name": "blocked",
          "type": "bool"
        }
      ],
      "payable": false,
      "stateMutability": "view",
      "type": "function"
    },
    {
      "constant": true,
      "inputs": [
        {
          "internalType": "address",
          "name": "",
          "type": "address"
        }
      ],
      "name": "adminAccounts",
      "outputs": [
        {
          "internalType": "bool",
          "name": "",
          "type": "bool"
        }
      ],
      "payable": false,
      "stateMutability": "view",
      "type": "function"
    },
    {
      "constant": false,
      "inputs": [
        {
          "internalType": "uint256",
          "name": "id",
          "type": "uint256"
        }
      ],
      "name": "approveRequest",
      "outputs": [],
      "payable": false,
      "stateMutability": "nonpayable",
      "type": "function"
    },
    {
      "constant": true,
      "inputs": [
        {
          "internalType": "address",
          "name": "_address",
          "type": "address"
        }
      ],
      "name": "checkRequest",
      "outputs": [
        {
          "internalType": "string",
          "name": "",
          "type": "string"
        }
      ],
      "payable": false,
      "stateMutability": "view",
      "type": "function"
    },
    {
      "constant": false,
      "inputs": [
        {
          "internalType": "uint256",
          "name": "_id",
          "type": "uint256"
        },
        {
          "internalType": "string",
          "name": "_userName",
          "type": "string"
        },
        {
          "internalType": "string",
          "name": "_email",
          "type": "string"
        },
        {
          "internalType": "string",
          "name": "phoneNumber",
          "type": "string"
        },
        {
          "internalType": "string",
          "name": "_password",
          "type": "string"
        },
        {
          "internalType": "string",
          "name": "logoLink",
          "type": "string"
        }
      ],
      "name": "editUserInfo",
      "outputs": [],
      "payable": false,
      "stateMutability": "nonpayable",
      "type": "function"
    },
    {
      "constant": true,
      "inputs": [
        {
          "internalType": "address",
          "name": "_address",
          "type": "address"
        }
      ],
      "name": "getAccountByAddress",
      "outputs": [
        {
          "components": [
            {
              "internalType": "uint256",
              "name": "id",
              "type": "uint256"
            },
            {
              "internalType": "address",
              "name": "owner",
              "type": "address"
            },
            {
              "internalType": "string",
              "name": "userName",
              "type": "string"
            },
            {
              "internalType": "string",
              "name": "email",
              "type": "string"
            },
            {
              "internalType": "string",
              "name": "phoneNumber",
              "type": "string"
            },
            {
              "internalType": "string",
              "name": "responsableName",
              "type": "string"
            },
            {
              "internalType": "string",
              "name": "logoLink",
              "type": "string"
            },
            {
              "internalType": "string",
              "name": "country",
              "type": "string"
            },
            {
              "internalType": "bool",
              "name": "labo",
              "type": "bool"
            },
            {
              "internalType": "bool",
              "name": "blocked",
              "type": "bool"
            }
          ],
          "internalType": "struct Authentication.account",
          "name": "",
          "type": "tuple"
        }
      ],
      "payable": false,
      "stateMutability": "view",
      "type": "function"
    },
    {
      "constant": true,
      "inputs": [
        {
          "internalType": "uint256",
          "name": "_id",
          "type": "uint256"
        }
      ],
      "name": "getAccountById",
      "outputs": [
        {
          "components": [
            {
              "internalType": "uint256",
              "name": "id",
              "type": "uint256"
            },
            {
              "internalType": "address",
              "name": "owner",
              "type": "address"
            },
            {
              "internalType": "string",
              "name": "userName",
              "type": "string"
            },
            {
              "internalType": "string",
              "name": "email",
              "type": "string"
            },
            {
              "internalType": "string",
              "name": "phoneNumber",
              "type": "string"
            },
            {
              "internalType": "string",
              "name": "responsableName",
              "type": "string"
            },
            {
              "internalType": "string",
              "name": "logoLink",
              "type": "string"
            },
            {
              "internalType": "string",
              "name": "country",
              "type": "string"
            },
            {
              "internalType": "bool",
              "name": "labo",
              "type": "bool"
            },
            {
              "internalType": "bool",
              "name": "blocked",
              "type": "bool"
            }
          ],
          "internalType": "struct Authentication.account",
          "name": "",
          "type": "tuple"
        }
      ],
      "payable": false,
      "stateMutability": "view",
      "type": "function"
    },
    {
      "constant": true,
      "inputs": [],
      "name": "getAccountsIds",
      "outputs": [
        {
          "internalType": "uint256[]",
          "name": "",
          "type": "uint256[]"
        }
      ],
      "payable": false,
      "stateMutability": "view",
      "type": "function"
    },
    {
      "constant": true,
      "inputs": [
        {
          "internalType": "uint256",
          "name": "requestId",
          "type": "uint256"
        }
      ],
      "name": "getSignupRequest",
      "outputs": [
        {
          "components": [
            {
              "internalType": "address",
              "name": "owner",
              "type": "address"
            },
            {
              "internalType": "uint256",
              "name": "id",
              "type": "uint256"
            },
            {
              "internalType": "string",
              "name": "date",
              "type": "string"
            },
            {
              "internalType": "string",
              "name": "userName",
              "type": "string"
            },
            {
              "internalType": "string",
              "name": "email",
              "type": "string"
            },
            {
              "internalType": "string",
              "name": "phoneNumber",
              "type": "string"
            },
            {
              "internalType": "string",
              "name": "responsableName",
              "type": "string"
            },
            {
              "internalType": "string",
              "name": "country",
              "type": "string"
            },
            {
              "internalType": "string",
              "name": "logoLink",
              "type": "string"
            },
            {
              "internalType": "bool",
              "name": "pending",
              "type": "bool"
            },
            {
              "internalType": "bool",
              "name": "approved",
              "type": "bool"
            }
          ],
          "internalType": "struct Authentication.signupRequest",
          "name": "",
          "type": "tuple"
        }
      ],
      "payable": false,
      "stateMutability": "view",
      "type": "function"
    },
    {
      "constant": true,
      "inputs": [],
      "name": "getSignupRequestCounter",
      "outputs": [
        {
          "internalType": "uint256",
          "name": "",
          "type": "uint256"
        }
      ],
      "payable": false,
      "stateMutability": "view",
      "type": "function"
    },
    {
      "constant": true,
      "inputs": [],
      "name": "getSignupRequestPending",
      "outputs": [
        {
          "internalType": "uint256[]",
          "name": "",
          "type": "uint256[]"
        }
      ],
      "payable": false,
      "stateMutability": "view",
      "type": "function"
    },
    {
      "constant": false,
      "inputs": [],
      "name": "initContract",
      "outputs": [],
      "payable": false,
      "stateMutability": "nonpayable",
      "type": "function"
    },
    {
      "constant": false,
      "inputs": [
        {
          "internalType": "uint256",
          "name": "clientId",
          "type": "uint256"
        },
        {
          "internalType": "bool",
          "name": "blockUser",
          "type": "bool"
        }
      ],
      "name": "manageUserPermission",
      "outputs": [],
      "payable": false,
      "stateMutability": "nonpayable",
      "type": "function"
    },
    {
      "constant": false,
      "inputs": [
        {
          "internalType": "uint256",
          "name": "id",
          "type": "uint256"
        }
      ],
      "name": "refuseRequest",
      "outputs": [],
      "payable": false,
      "stateMutability": "nonpayable",
      "type": "function"
    },
    {
      "constant": false,
      "inputs": [
        {
          "internalType": "address",
          "name": "_address",
          "type": "address"
        },
        {
          "internalType": "string",
          "name": "_userName",
          "type": "string"
        },
        {
          "internalType": "string",
          "name": "_email",
          "type": "string"
        },
        {
          "internalType": "string",
          "name": "phoneNumber",
          "type": "string"
        },
        {
          "internalType": "string",
          "name": "_phAddress",
          "type": "string"
        }
      ],
      "name": "signupAsClient",
      "outputs": [],
      "payable": false,
      "stateMutability": "nonpayable",
      "type": "function"
    },
    {
      "constant": false,
      "inputs": [
        {
          "internalType": "address",
          "name": "_address",
          "type": "address"
        },
        {
          "internalType": "string",
          "name": "requestDate",
          "type": "string"
        },
        {
          "internalType": "string",
          "name": "laboName",
          "type": "string"
        },
        {
          "internalType": "string",
          "name": "phoneNumber",
          "type": "string"
        },
        {
          "internalType": "string",
          "name": "_email",
          "type": "string"
        },
        {
          "internalType": "string",
          "name": "responsableName",
          "type": "string"
        },
        {
          "internalType": "string",
          "name": "country",
          "type": "string"
        },
        {
          "internalType": "string",
          "name": "logoLink",
          "type": "string"
        }
      ],
      "name": "signupAsLabo",
      "outputs": [],
      "payable": false,
      "stateMutability": "nonpayable",
      "type": "function"
    }
  ],
  "bytecode": "0x608060405234801561001057600080fd5b50615c3b80620000216000396000f3fe608060405234801561001057600080fd5b50600436106101005760003560e01c8063bb9445ef11610097578063da2d3d6911610066578063da2d3d6914610285578063f2a40db8146102b5578063f855b366146102ee578063feb7b7b51461031e57610100565b8063bb9445ef14610211578063bdd35f3e1461022d578063cd5d5cbf1461024b578063d7d1bbdb1461026957610100565b80638203f5fe116100d35780638203f5fe1461019d5780639664dea3146101a7578063b3dc09e0146101c5578063b8e85fec146101e157610100565b806305aca1411461010557806344b32832146101355780637b9a3619146101655780637cbf722914610181575b600080fd5b61011f600480360361011a9190810190615373565b61033a565b60405161012c9190615929565b60405180910390f35b61014f600480360361014a9190810190615373565b6107c9565b60405161015c919061594b565b60405180910390f35b61017f600480360361017a91908101906153d8565b610d87565b005b61019b60048036036101969190810190615373565b6113de565b005b6101a5611dcf565b005b6101af611e28565b6040516101bc91906158aa565b60405180910390f35b6101df60048036036101da9190810190615219565b612040565b005b6101fb60048036036101f69190810190615119565b612448565b6040516102089190615929565b60405180910390f35b61022b60048036036102269190810190615142565b612de7565b005b610235612fda565b604051610242919061596d565b60405180910390f35b610253613070565b60405161026091906158aa565b60405180910390f35b610283600480360361027e9190810190615373565b61314d565b005b61029f600480360361029a9190810190615119565b613d29565b6040516102ac91906158cc565b60405180910390f35b6102cf60048036036102ca9190810190615373565b613d49565b6040516102e59a99989796959493929190615988565b60405180910390f35b61030860048036036103039190810190615119565b614167565b60405161031591906158e7565b60405180910390f35b6103386004803603610333919081019061539c565b61480a565b005b610342614f00565b60008083815260200190815260200160002060405180610140016040529081600082015481526020016001820160009054906101000a900473ffffffffffffffffffffffffffffffffffffffff1673ffffffffffffffffffffffffffffffffffffffff1673ffffffffffffffffffffffffffffffffffffffff168152602001600282018054600181600116156101000203166002900480601f0160208091040260200160405190810160405280929190818152602001828054600181600116156101000203166002900480156104595780601f1061042e57610100808354040283529160200191610459565b820191906000526020600020905b81548152906001019060200180831161043c57829003601f168201915b50505050508152602001600382018054600181600116156101000203166002900480601f0160208091040260200160405190810160405280929190818152602001828054600181600116156101000203166002900480156104fb5780601f106104d0576101008083540402835291602001916104fb565b820191906000526020600020905b8154815290600101906020018083116104de57829003601f168201915b50505050508152602001600482018054600181600116156101000203166002900480601f01602080910402602001604051908101604052809291908181526020018280546001816001161561010002031660029004801561059d5780601f106105725761010080835404028352916020019161059d565b820191906000526020600020905b81548152906001019060200180831161058057829003601f168201915b50505050508152602001600582018054600181600116156101000203166002900480601f01602080910402602001604051908101604052809291908181526020018280546001816001161561010002031660029004801561063f5780601f106106145761010080835404028352916020019161063f565b820191906000526020600020905b81548152906001019060200180831161062257829003601f168201915b50505050508152602001600682018054600181600116156101000203166002900480601f0160208091040260200160405190810160405280929190818152602001828054600181600116156101000203166002900480156106e15780601f106106b6576101008083540402835291602001916106e1565b820191906000526020600020905b8154815290600101906020018083116106c457829003601f168201915b50505050508152602001600782018054600181600116156101000203166002900480601f0160208091040260200160405190810160405280929190818152602001828054600181600116156101000203166002900480156107835780601f1061075857610100808354040283529160200191610783565b820191906000526020600020905b81548152906001019060200180831161076657829003601f168201915b505050505081526020016008820160009054906101000a900460ff161515151581526020016008820160019054906101000a900460ff1615151515815250509050919050565b6107d1614f6d565b600160003373ffffffffffffffffffffffffffffffffffffffff1673ffffffffffffffffffffffffffffffffffffffff16815260200190815260200160002060009054906101000a900460ff1661085d576040517f08c379a000000000000000000000000000000000000000000000000000000000815260040161085490615909565b60405180910390fd5b60026000838152602001908152602001600020604051806101600160405290816000820160009054906101000a900473ffffffffffffffffffffffffffffffffffffffff1673ffffffffffffffffffffffffffffffffffffffff1673ffffffffffffffffffffffffffffffffffffffff16815260200160018201548152602001600282018054600181600116156101000203166002900480601f0160208091040260200160405190810160405280929190818152602001828054600181600116156101000203166002900480156109755780601f1061094a57610100808354040283529160200191610975565b820191906000526020600020905b81548152906001019060200180831161095857829003601f168201915b50505050508152602001600382018054600181600116156101000203166002900480601f016020809104026020016040519081016040528092919081815260200182805460018160011615610100020316600290048015610a175780601f106109ec57610100808354040283529160200191610a17565b820191906000526020600020905b8154815290600101906020018083116109fa57829003601f168201915b50505050508152602001600482018054600181600116156101000203166002900480601f016020809104026020016040519081016040528092919081815260200182805460018160011615610100020316600290048015610ab95780601f10610a8e57610100808354040283529160200191610ab9565b820191906000526020600020905b815481529060010190602001808311610a9c57829003601f168201915b50505050508152602001600582018054600181600116156101000203166002900480601f016020809104026020016040519081016040528092919081815260200182805460018160011615610100020316600290048015610b5b5780601f10610b3057610100808354040283529160200191610b5b565b820191906000526020600020905b815481529060010190602001808311610b3e57829003601f168201915b50505050508152602001600682018054600181600116156101000203166002900480601f016020809104026020016040519081016040528092919081815260200182805460018160011615610100020316600290048015610bfd5780601f10610bd257610100808354040283529160200191610bfd565b820191906000526020600020905b815481529060010190602001808311610be057829003601f168201915b50505050508152602001600782018054600181600116156101000203166002900480601f016020809104026020016040519081016040528092919081815260200182805460018160011615610100020316600290048015610c9f5780601f10610c7457610100808354040283529160200191610c9f565b820191906000526020600020905b815481529060010190602001808311610c8257829003601f168201915b50505050508152602001600882018054600181600116156101000203166002900480601f016020809104026020016040519081016040528092919081815260200182805460018160011615610100020316600290048015610d415780601f10610d1657610100808354040283529160200191610d41565b820191906000526020600020905b815481529060010190602001808311610d2457829003601f168201915b505050505081526020016009820160009054906101000a900460ff161515151581526020016009820160019054906101000a900460ff1615151515815250509050919050565b610d8f614f00565b60008088815260200190815260200160002060405180610140016040529081600082015481526020016001820160009054906101000a900473ffffffffffffffffffffffffffffffffffffffff1673ffffffffffffffffffffffffffffffffffffffff1673ffffffffffffffffffffffffffffffffffffffff168152602001600282018054600181600116156101000203166002900480601f016020809104026020016040519081016040528092919081815260200182805460018160011615610100020316600290048015610ea65780601f10610e7b57610100808354040283529160200191610ea6565b820191906000526020600020905b815481529060010190602001808311610e8957829003601f168201915b50505050508152602001600382018054600181600116156101000203166002900480601f016020809104026020016040519081016040528092919081815260200182805460018160011615610100020316600290048015610f485780601f10610f1d57610100808354040283529160200191610f48565b820191906000526020600020905b815481529060010190602001808311610f2b57829003601f168201915b50505050508152602001600482018054600181600116156101000203166002900480601f016020809104026020016040519081016040528092919081815260200182805460018160011615610100020316600290048015610fea5780601f10610fbf57610100808354040283529160200191610fea565b820191906000526020600020905b815481529060010190602001808311610fcd57829003601f168201915b50505050508152602001600582018054600181600116156101000203166002900480601f01602080910402602001604051908101604052809291908181526020018280546001816001161561010002031660029004801561108c5780601f106110615761010080835404028352916020019161108c565b820191906000526020600020905b81548152906001019060200180831161106f57829003601f168201915b50505050508152602001600682018054600181600116156101000203166002900480601f01602080910402602001604051908101604052809291908181526020018280546001816001161561010002031660029004801561112e5780601f106111035761010080835404028352916020019161112e565b820191906000526020600020905b81548152906001019060200180831161111157829003601f168201915b50505050508152602001600782018054600181600116156101000203166002900480601f0160208091040260200160405190810160405280929190818152602001828054600181600116156101000203166002900480156111d05780601f106111a5576101008083540402835291602001916111d0565b820191906000526020600020905b8154815290600101906020018083116111b357829003601f168201915b505050505081526020016008820160009054906101000a900460ff161515151581526020016008820160019054906101000a900460ff1615151515815250509050604051806101400160405280888152602001826020015173ffffffffffffffffffffffffffffffffffffffff1681526020018781526020018681526020018581526020018481526020018381526020018260e00151815260200182610100015115158152602001600015158152506000808981526020019081526020016000206000820151816000015560208201518160010160006101000a81548173ffffffffffffffffffffffffffffffffffffffff021916908373ffffffffffffffffffffffffffffffffffffffff16021790555060408201518160020190805190602001906112fe929190614fe1565b50606082015181600301908051906020019061131b929190614fe1565b506080820151816004019080519060200190611338929190614fe1565b5060a0820151816005019080519060200190611355929190614fe1565b5060c0820151816006019080519060200190611372929190614fe1565b5060e082015181600701908051906020019061138f929190614fe1565b506101008201518160080160006101000a81548160ff0219169083151502179055506101208201518160080160016101000a81548160ff02191690831515021790555090505050505050505050565b600160003373ffffffffffffffffffffffffffffffffffffffff1673ffffffffffffffffffffffffffffffffffffffff16815260200190815260200160002060009054906101000a900460ff1661146a576040517f08c379a000000000000000000000000000000000000000000000000000000000815260040161146190615909565b60405180910390fd5b611472614f6d565b60026000838152602001908152602001600020604051806101600160405290816000820160009054906101000a900473ffffffffffffffffffffffffffffffffffffffff1673ffffffffffffffffffffffffffffffffffffffff1673ffffffffffffffffffffffffffffffffffffffff16815260200160018201548152602001600282018054600181600116156101000203166002900480601f01602080910402602001604051908101604052809291908181526020018280546001816001161561010002031660029004801561158a5780601f1061155f5761010080835404028352916020019161158a565b820191906000526020600020905b81548152906001019060200180831161156d57829003601f168201915b50505050508152602001600382018054600181600116156101000203166002900480601f01602080910402602001604051908101604052809291908181526020018280546001816001161561010002031660029004801561162c5780601f106116015761010080835404028352916020019161162c565b820191906000526020600020905b81548152906001019060200180831161160f57829003601f168201915b50505050508152602001600482018054600181600116156101000203166002900480601f0160208091040260200160405190810160405280929190818152602001828054600181600116156101000203166002900480156116ce5780601f106116a3576101008083540402835291602001916116ce565b820191906000526020600020905b8154815290600101906020018083116116b157829003601f168201915b50505050508152602001600582018054600181600116156101000203166002900480601f0160208091040260200160405190810160405280929190818152602001828054600181600116156101000203166002900480156117705780601f1061174557610100808354040283529160200191611770565b820191906000526020600020905b81548152906001019060200180831161175357829003601f168201915b50505050508152602001600682018054600181600116156101000203166002900480601f0160208091040260200160405190810160405280929190818152602001828054600181600116156101000203166002900480156118125780601f106117e757610100808354040283529160200191611812565b820191906000526020600020905b8154815290600101906020018083116117f557829003601f168201915b50505050508152602001600782018054600181600116156101000203166002900480601f0160208091040260200160405190810160405280929190818152602001828054600181600116156101000203166002900480156118b45780601f10611889576101008083540402835291602001916118b4565b820191906000526020600020905b81548152906001019060200180831161189757829003601f168201915b50505050508152602001600882018054600181600116156101000203166002900480601f0160208091040260200160405190810160405280929190818152602001828054600181600116156101000203166002900480156119565780601f1061192b57610100808354040283529160200191611956565b820191906000526020600020905b81548152906001019060200180831161193957829003601f168201915b505050505081526020016009820160009054906101000a900460ff161515151581526020016009820160019054906101000a900460ff1615151515815250509050604051806101600160405280826000015173ffffffffffffffffffffffffffffffffffffffff1681526020018260200151815260200182604001518152602001826060015181526020018260a001518152602001826080015181526020018260c0015181526020018260e0015181526020018261010001518152602001600015158152602001600015158152506002600084815260200190815260200160002060008201518160000160006101000a81548173ffffffffffffffffffffffffffffffffffffffff021916908373ffffffffffffffffffffffffffffffffffffffff160217905550602082015181600101556040820151816002019080519060200190611aa4929190614fe1565b506060820151816003019080519060200190611ac1929190614fe1565b506080820151816004019080519060200190611ade929190614fe1565b5060a0820151816005019080519060200190611afb929190614fe1565b5060c0820151816006019080519060200190611b18929190614fe1565b5060e0820151816007019080519060200190611b35929190614fe1565b50610100820151816008019080519060200190611b53929190614fe1565b506101208201518160090160006101000a81548160ff0219169083151502179055506101408201518160090160016101000a81548160ff021916908315150217905550905050604051806101600160405280826000015173ffffffffffffffffffffffffffffffffffffffff1681526020018260200151815260200182604001518152602001826060015181526020018260a001518152602001826080015181526020018260c0015181526020018260e00151815260200182610100015181526020016000151581526020016000151581525060036000836000015173ffffffffffffffffffffffffffffffffffffffff1673ffffffffffffffffffffffffffffffffffffffff16815260200190815260200160002060008201518160000160006101000a81548173ffffffffffffffffffffffffffffffffffffffff021916908373ffffffffffffffffffffffffffffffffffffffff160217905550602082015181600101556040820151816002019080519060200190611cd6929190614fe1565b506060820151816003019080519060200190611cf3929190614fe1565b506080820151816004019080519060200190611d10929190614fe1565b5060a0820151816005019080519060200190611d2d929190614fe1565b5060c0820151816006019080519060200190611d4a929190614fe1565b5060e0820151816007019080519060200190611d67929190614fe1565b50610100820151816008019080519060200190611d85929190614fe1565b506101208201518160090160006101000a81548160ff0219169083151502179055506101408201518160090160016101000a81548160ff0219169083151502179055509050505050565b60018060003373ffffffffffffffffffffffffffffffffffffffff1673ffffffffffffffffffffffffffffffffffffffff16815260200190815260200160002060006101000a81548160ff021916908315150217905550565b6060600160003373ffffffffffffffffffffffffffffffffffffffff1673ffffffffffffffffffffffffffffffffffffffff16815260200190815260200160002060009054906101000a900460ff16611eb6576040517f08c379a0000000000000000000000000000000000000000000000000000000008152600401611ead90615909565b60405180910390fd5b60006005541415611ef9576000604051908082528060200260200182016040528015611ef15781602001602082028038833980820191505090505b50905061203d565b6060600554604051908082528060200260200182016040528015611f2c5781602001602082028038833980820191505090505b50905060008090506000600190505b6005548111611fb957600015156002600083815260200190815260200160002060090160019054906101000a900460ff1615151415611fac576002600082815260200190815260200160002060010154838381518110611f9757fe5b60200260200101818152505081806001019250505b8080600101915050611f3b565b50606081604051908082528060200260200182016040528015611feb5781602001602082028038833980820191505090505b50905060008090505b828110156120355783818151811061200857fe5b602002602001015182828151811061201c57fe5b6020026020010181815250508080600101915050611ff4565b508093505050505b90565b6005600081548092919060010191905055506040518061016001604052808973ffffffffffffffffffffffffffffffffffffffff16815260200160055481526020018881526020018781526020018681526020018581526020018481526020018381526020018281526020016001151581526020016000151581525060026000600554815260200190815260200160002060008201518160000160006101000a81548173ffffffffffffffffffffffffffffffffffffffff021916908373ffffffffffffffffffffffffffffffffffffffff16021790555060208201518160010155604082015181600201908051906020019061213e929190614fe1565b50606082015181600301908051906020019061215b929190614fe1565b506080820151816004019080519060200190612178929190614fe1565b5060a0820151816005019080519060200190612195929190614fe1565b5060c08201518160060190805190602001906121b2929190614fe1565b5060e08201518160070190805190602001906121cf929190614fe1565b506101008201518160080190805190602001906121ed929190614fe1565b506101208201518160090160006101000a81548160ff0219169083151502179055506101408201518160090160016101000a81548160ff0219169083151502179055509050506040518061016001604052808973ffffffffffffffffffffffffffffffffffffffff168152602001600554815260200188815260200187815260200186815260200185815260200184815260200183815260200182815260200160011515815260200160001515815250600360008a73ffffffffffffffffffffffffffffffffffffffff1673ffffffffffffffffffffffffffffffffffffffff16815260200190815260200160002060008201518160000160006101000a81548173ffffffffffffffffffffffffffffffffffffffff021916908373ffffffffffffffffffffffffffffffffffffffff160217905550602082015181600101556040820151816002019080519060200190612349929190614fe1565b506060820151816003019080519060200190612366929190614fe1565b506080820151816004019080519060200190612383929190614fe1565b5060a08201518160050190805190602001906123a0929190614fe1565b5060c08201518160060190805190602001906123bd929190614fe1565b5060e08201518160070190805190602001906123da929190614fe1565b506101008201518160080190805190602001906123f8929190614fe1565b506101208201518160090160006101000a81548160ff0219169083151502179055506101408201518160090160016101000a81548160ff0219169083151502179055509050505050505050505050565b612450614f00565b6000600190505b600454811161295e578273ffffffffffffffffffffffffffffffffffffffff1660008083815260200190815260200160002060010160009054906101000a900473ffffffffffffffffffffffffffffffffffffffff1673ffffffffffffffffffffffffffffffffffffffff1614156129515760008082815260200190815260200160002060405180610140016040529081600082015481526020016001820160009054906101000a900473ffffffffffffffffffffffffffffffffffffffff1673ffffffffffffffffffffffffffffffffffffffff1673ffffffffffffffffffffffffffffffffffffffff168152602001600282018054600181600116156101000203166002900480601f0160208091040260200160405190810160405280929190818152602001828054600181600116156101000203166002900480156125e05780601f106125b5576101008083540402835291602001916125e0565b820191906000526020600020905b8154815290600101906020018083116125c357829003601f168201915b50505050508152602001600382018054600181600116156101000203166002900480601f0160208091040260200160405190810160405280929190818152602001828054600181600116156101000203166002900480156126825780601f1061265757610100808354040283529160200191612682565b820191906000526020600020905b81548152906001019060200180831161266557829003601f168201915b50505050508152602001600482018054600181600116156101000203166002900480601f0160208091040260200160405190810160405280929190818152602001828054600181600116156101000203166002900480156127245780601f106126f957610100808354040283529160200191612724565b820191906000526020600020905b81548152906001019060200180831161270757829003601f168201915b50505050508152602001600582018054600181600116156101000203166002900480601f0160208091040260200160405190810160405280929190818152602001828054600181600116156101000203166002900480156127c65780601f1061279b576101008083540402835291602001916127c6565b820191906000526020600020905b8154815290600101906020018083116127a957829003601f168201915b50505050508152602001600682018054600181600116156101000203166002900480601f0160208091040260200160405190810160405280929190818152602001828054600181600116156101000203166002900480156128685780601f1061283d57610100808354040283529160200191612868565b820191906000526020600020905b81548152906001019060200180831161284b57829003601f168201915b50505050508152602001600782018054600181600116156101000203166002900480601f01602080910402602001604051908101604052809291908181526020018280546001816001161561010002031660029004801561290a5780601f106128df5761010080835404028352916020019161290a565b820191906000526020600020905b8154815290600101906020018083116128ed57829003601f168201915b505050505081526020016008820160009054906101000a900460ff161515151581526020016008820160019054906101000a900460ff161515151581525050915050612de2565b8080600101915050612457565b5060008080815260200190815260200160002060405180610140016040529081600082015481526020016001820160009054906101000a900473ffffffffffffffffffffffffffffffffffffffff1673ffffffffffffffffffffffffffffffffffffffff1673ffffffffffffffffffffffffffffffffffffffff168152602001600282018054600181600116156101000203166002900480601f016020809104026020016040519081016040528092919081815260200182805460018160011615610100020316600290048015612a765780601f10612a4b57610100808354040283529160200191612a76565b820191906000526020600020905b815481529060010190602001808311612a5957829003601f168201915b50505050508152602001600382018054600181600116156101000203166002900480601f016020809104026020016040519081016040528092919081815260200182805460018160011615610100020316600290048015612b185780601f10612aed57610100808354040283529160200191612b18565b820191906000526020600020905b815481529060010190602001808311612afb57829003601f168201915b50505050508152602001600482018054600181600116156101000203166002900480601f016020809104026020016040519081016040528092919081815260200182805460018160011615610100020316600290048015612bba5780601f10612b8f57610100808354040283529160200191612bba565b820191906000526020600020905b815481529060010190602001808311612b9d57829003601f168201915b50505050508152602001600582018054600181600116156101000203166002900480601f016020809104026020016040519081016040528092919081815260200182805460018160011615610100020316600290048015612c5c5780601f10612c3157610100808354040283529160200191612c5c565b820191906000526020600020905b815481529060010190602001808311612c3f57829003601f168201915b50505050508152602001600682018054600181600116156101000203166002900480601f016020809104026020016040519081016040528092919081815260200182805460018160011615610100020316600290048015612cfe5780601f10612cd357610100808354040283529160200191612cfe565b820191906000526020600020905b815481529060010190602001808311612ce157829003601f168201915b50505050508152602001600782018054600181600116156101000203166002900480601f016020809104026020016040519081016040528092919081815260200182805460018160011615610100020316600290048015612da05780601f10612d7557610100808354040283529160200191612da0565b820191906000526020600020905b815481529060010190602001808311612d8357829003601f168201915b505050505081526020016008820160009054906101000a900460ff161515151581526020016008820160019054906101000a900460ff16151515158152505090505b919050565b60046000815480929190600101919050555060405180610140016040528060045481526020018673ffffffffffffffffffffffffffffffffffffffff1681526020018581526020018481526020018381526020018281526020016040518060200160405280600081525081526020016040518060200160405280600081525081526020016000151581526020016000151581525060008060045481526020019081526020016000206000820151816000015560208201518160010160006101000a81548173ffffffffffffffffffffffffffffffffffffffff021916908373ffffffffffffffffffffffffffffffffffffffff1602179055506040820151816002019080519060200190612efc929190614fe1565b506060820151816003019080519060200190612f19929190614fe1565b506080820151816004019080519060200190612f36929190614fe1565b5060a0820151816005019080519060200190612f53929190614fe1565b5060c0820151816006019080519060200190612f70929190614fe1565b5060e0820151816007019080519060200190612f8d929190614fe1565b506101008201518160080160006101000a81548160ff0219169083151502179055506101208201518160080160016101000a81548160ff0219169083151502179055509050505050505050565b6000600160003373ffffffffffffffffffffffffffffffffffffffff1673ffffffffffffffffffffffffffffffffffffffff16815260200190815260200160002060009054906101000a900460ff16613068576040517f08c379a000000000000000000000000000000000000000000000000000000000815260040161305f90615909565b60405180910390fd5b600554905090565b6060600060045414156130b55760006040519080825280602002602001820160405280156130ad5781602001602082028038833980820191505090505b50905061314a565b60606004546040519080825280602002602001820160405280156130e85781602001602082028038833980820191505090505b50905060008090506000600190505b6004548111613143576000808281526020019081526020016000206000015483838151811061312257fe5b602002602001018181525050818060010192505080806001019150506130f7565b5081925050505b90565b600160003373ffffffffffffffffffffffffffffffffffffffff1673ffffffffffffffffffffffffffffffffffffffff16815260200190815260200160002060009054906101000a900460ff166131d9576040517f08c379a00000000000000000000000000000000000000000000000000000000081526004016131d090615909565b60405180910390fd5b6131e1614f6d565b60026000838152602001908152602001600020604051806101600160405290816000820160009054906101000a900473ffffffffffffffffffffffffffffffffffffffff1673ffffffffffffffffffffffffffffffffffffffff1673ffffffffffffffffffffffffffffffffffffffff16815260200160018201548152602001600282018054600181600116156101000203166002900480601f0160208091040260200160405190810160405280929190818152602001828054600181600116156101000203166002900480156132f95780601f106132ce576101008083540402835291602001916132f9565b820191906000526020600020905b8154815290600101906020018083116132dc57829003601f168201915b50505050508152602001600382018054600181600116156101000203166002900480601f01602080910402602001604051908101604052809291908181526020018280546001816001161561010002031660029004801561339b5780601f106133705761010080835404028352916020019161339b565b820191906000526020600020905b81548152906001019060200180831161337e57829003601f168201915b50505050508152602001600482018054600181600116156101000203166002900480601f01602080910402602001604051908101604052809291908181526020018280546001816001161561010002031660029004801561343d5780601f106134125761010080835404028352916020019161343d565b820191906000526020600020905b81548152906001019060200180831161342057829003601f168201915b50505050508152602001600582018054600181600116156101000203166002900480601f0160208091040260200160405190810160405280929190818152602001828054600181600116156101000203166002900480156134df5780601f106134b4576101008083540402835291602001916134df565b820191906000526020600020905b8154815290600101906020018083116134c257829003601f168201915b50505050508152602001600682018054600181600116156101000203166002900480601f0160208091040260200160405190810160405280929190818152602001828054600181600116156101000203166002900480156135815780601f1061355657610100808354040283529160200191613581565b820191906000526020600020905b81548152906001019060200180831161356457829003601f168201915b50505050508152602001600782018054600181600116156101000203166002900480601f0160208091040260200160405190810160405280929190818152602001828054600181600116156101000203166002900480156136235780601f106135f857610100808354040283529160200191613623565b820191906000526020600020905b81548152906001019060200180831161360657829003601f168201915b50505050508152602001600882018054600181600116156101000203166002900480601f0160208091040260200160405190810160405280929190818152602001828054600181600116156101000203166002900480156136c55780601f1061369a576101008083540402835291602001916136c5565b820191906000526020600020905b8154815290600101906020018083116136a857829003601f168201915b505050505081526020016009820160009054906101000a900460ff161515151581526020016009820160019054906101000a900460ff1615151515815250509050604051806101600160405280826000015173ffffffffffffffffffffffffffffffffffffffff1681526020018260200151815260200182604001518152602001826060015181526020018260a001518152602001826080015181526020018260c0015181526020018260e0015181526020018261010001518152602001600015158152602001600115158152506002600084815260200190815260200160002060008201518160000160006101000a81548173ffffffffffffffffffffffffffffffffffffffff021916908373ffffffffffffffffffffffffffffffffffffffff160217905550602082015181600101556040820151816002019080519060200190613813929190614fe1565b506060820151816003019080519060200190613830929190614fe1565b50608082015181600401908051906020019061384d929190614fe1565b5060a082015181600501908051906020019061386a929190614fe1565b5060c0820151816006019080519060200190613887929190614fe1565b5060e08201518160070190805190602001906138a4929190614fe1565b506101008201518160080190805190602001906138c2929190614fe1565b506101208201518160090160006101000a81548160ff0219169083151502179055506101408201518160090160016101000a81548160ff021916908315150217905550905050604051806101600160405280826000015173ffffffffffffffffffffffffffffffffffffffff1681526020018260200151815260200182604001518152602001826060015181526020018260a001518152602001826080015181526020018260c0015181526020018260e00151815260200182610100015181526020016000151581526020016001151581525060036000836000015173ffffffffffffffffffffffffffffffffffffffff1673ffffffffffffffffffffffffffffffffffffffff16815260200190815260200160002060008201518160000160006101000a81548173ffffffffffffffffffffffffffffffffffffffff021916908373ffffffffffffffffffffffffffffffffffffffff160217905550602082015181600101556040820151816002019080519060200190613a45929190614fe1565b506060820151816003019080519060200190613a62929190614fe1565b506080820151816004019080519060200190613a7f929190614fe1565b5060a0820151816005019080519060200190613a9c929190614fe1565b5060c0820151816006019080519060200190613ab9929190614fe1565b5060e0820151816007019080519060200190613ad6929190614fe1565b50610100820151816008019080519060200190613af4929190614fe1565b506101208201518160090160006101000a81548160ff0219169083151502179055506101408201518160090160016101000a81548160ff0219169083151502179055509050506004600081548092919060010191905055506040518061014001604052806004548152602001826000015173ffffffffffffffffffffffffffffffffffffffff16815260200182606001518152602001826080015181526020018260a0015181526020018260c00151815260200182610100015181526020018260e0015181526020016001151581526020016000151581525060008060045481526020019081526020016000206000820151816000015560208201518160010160006101000a81548173ffffffffffffffffffffffffffffffffffffffff021916908373ffffffffffffffffffffffffffffffffffffffff1602179055506040820151816002019080519060200190613c4e929190614fe1565b506060820151816003019080519060200190613c6b929190614fe1565b506080820151816004019080519060200190613c88929190614fe1565b5060a0820151816005019080519060200190613ca5929190614fe1565b5060c0820151816006019080519060200190613cc2929190614fe1565b5060e0820151816007019080519060200190613cdf929190614fe1565b506101008201518160080160006101000a81548160ff0219169083151502179055506101208201518160080160016101000a81548160ff0219169083151502179055509050505050565b60016020528060005260406000206000915054906101000a900460ff1681565b60006020528060005260406000206000915090508060000154908060010160009054906101000a900473ffffffffffffffffffffffffffffffffffffffff1690806002018054600181600116156101000203166002900480601f016020809104026020016040519081016040528092919081815260200182805460018160011615610100020316600290048015613e215780601f10613df657610100808354040283529160200191613e21565b820191906000526020600020905b815481529060010190602001808311613e0457829003601f168201915b505050505090806003018054600181600116156101000203166002900480601f016020809104026020016040519081016040528092919081815260200182805460018160011615610100020316600290048015613ebf5780601f10613e9457610100808354040283529160200191613ebf565b820191906000526020600020905b815481529060010190602001808311613ea257829003601f168201915b505050505090806004018054600181600116156101000203166002900480601f016020809104026020016040519081016040528092919081815260200182805460018160011615610100020316600290048015613f5d5780601f10613f3257610100808354040283529160200191613f5d565b820191906000526020600020905b815481529060010190602001808311613f4057829003601f168201915b505050505090806005018054600181600116156101000203166002900480601f016020809104026020016040519081016040528092919081815260200182805460018160011615610100020316600290048015613ffb5780601f10613fd057610100808354040283529160200191613ffb565b820191906000526020600020905b815481529060010190602001808311613fde57829003601f168201915b505050505090806006018054600181600116156101000203166002900480601f0160208091040260200160405190810160405280929190818152602001828054600181600116156101000203166002900480156140995780601f1061406e57610100808354040283529160200191614099565b820191906000526020600020905b81548152906001019060200180831161407c57829003601f168201915b505050505090806007018054600181600116156101000203166002900480601f0160208091040260200160405190810160405280929190818152602001828054600181600116156101000203166002900480156141375780601f1061410c57610100808354040283529160200191614137565b820191906000526020600020905b81548152906001019060200180831161411a57829003601f168201915b5050505050908060080160009054906101000a900460ff16908060080160019054906101000a900460ff1690508a565b6060614171614f6d565b600360008473ffffffffffffffffffffffffffffffffffffffff1673ffffffffffffffffffffffffffffffffffffffff168152602001908152602001600020604051806101600160405290816000820160009054906101000a900473ffffffffffffffffffffffffffffffffffffffff1673ffffffffffffffffffffffffffffffffffffffff1673ffffffffffffffffffffffffffffffffffffffff16815260200160018201548152602001600282018054600181600116156101000203166002900480601f0160208091040260200160405190810160405280929190818152602001828054600181600116156101000203166002900480156142b55780601f1061428a576101008083540402835291602001916142b5565b820191906000526020600020905b81548152906001019060200180831161429857829003601f168201915b50505050508152602001600382018054600181600116156101000203166002900480601f0160208091040260200160405190810160405280929190818152602001828054600181600116156101000203166002900480156143575780601f1061432c57610100808354040283529160200191614357565b820191906000526020600020905b81548152906001019060200180831161433a57829003601f168201915b50505050508152602001600482018054600181600116156101000203166002900480601f0160208091040260200160405190810160405280929190818152602001828054600181600116156101000203166002900480156143f95780601f106143ce576101008083540402835291602001916143f9565b820191906000526020600020905b8154815290600101906020018083116143dc57829003601f168201915b50505050508152602001600582018054600181600116156101000203166002900480601f01602080910402602001604051908101604052809291908181526020018280546001816001161561010002031660029004801561449b5780601f106144705761010080835404028352916020019161449b565b820191906000526020600020905b81548152906001019060200180831161447e57829003601f168201915b50505050508152602001600682018054600181600116156101000203166002900480601f01602080910402602001604051908101604052809291908181526020018280546001816001161561010002031660029004801561453d5780601f106145125761010080835404028352916020019161453d565b820191906000526020600020905b81548152906001019060200180831161452057829003601f168201915b50505050508152602001600782018054600181600116156101000203166002900480601f0160208091040260200160405190810160405280929190818152602001828054600181600116156101000203166002900480156145df5780601f106145b4576101008083540402835291602001916145df565b820191906000526020600020905b8154815290600101906020018083116145c257829003601f168201915b50505050508152602001600882018054600181600116156101000203166002900480601f0160208091040260200160405190810160405280929190818152602001828054600181600116156101000203166002900480156146815780601f1061465657610100808354040283529160200191614681565b820191906000526020600020905b81548152906001019060200180831161466457829003601f168201915b505050505081526020016009820160009054906101000a900460ff161515151581526020016009820160019054906101000a900460ff1615151515815250509050600073ffffffffffffffffffffffffffffffffffffffff16816000015173ffffffffffffffffffffffffffffffffffffffff161415614739576040518060400160405280600481526020017f6e756c6c00000000000000000000000000000000000000000000000000000000815250915050614805565b80610120015115614782576040518060400160405280600781526020017f70656e64696e6700000000000000000000000000000000000000000000000000815250915050614805565b806101400151156147cb576040518060400160405280600881526020017f617070726f766564000000000000000000000000000000000000000000000000815250915050614805565b6040518060400160405280600781526020017f72656675736564000000000000000000000000000000000000000000000000008152509150505b919050565b600160003373ffffffffffffffffffffffffffffffffffffffff1673ffffffffffffffffffffffffffffffffffffffff16815260200190815260200160002060009054906101000a900460ff16614896576040517f08c379a000000000000000000000000000000000000000000000000000000000815260040161488d90615909565b60405180910390fd5b61489e614f00565b60008084815260200190815260200160002060405180610140016040529081600082015481526020016001820160009054906101000a900473ffffffffffffffffffffffffffffffffffffffff1673ffffffffffffffffffffffffffffffffffffffff1673ffffffffffffffffffffffffffffffffffffffff168152602001600282018054600181600116156101000203166002900480601f0160208091040260200160405190810160405280929190818152602001828054600181600116156101000203166002900480156149b55780601f1061498a576101008083540402835291602001916149b5565b820191906000526020600020905b81548152906001019060200180831161499857829003601f168201915b50505050508152602001600382018054600181600116156101000203166002900480601f016020809104026020016040519081016040528092919081815260200182805460018160011615610100020316600290048015614a575780601f10614a2c57610100808354040283529160200191614a57565b820191906000526020600020905b815481529060010190602001808311614a3a57829003601f168201915b50505050508152602001600482018054600181600116156101000203166002900480601f016020809104026020016040519081016040528092919081815260200182805460018160011615610100020316600290048015614af95780601f10614ace57610100808354040283529160200191614af9565b820191906000526020600020905b815481529060010190602001808311614adc57829003601f168201915b50505050508152602001600582018054600181600116156101000203166002900480601f016020809104026020016040519081016040528092919081815260200182805460018160011615610100020316600290048015614b9b5780601f10614b7057610100808354040283529160200191614b9b565b820191906000526020600020905b815481529060010190602001808311614b7e57829003601f168201915b50505050508152602001600682018054600181600116156101000203166002900480601f016020809104026020016040519081016040528092919081815260200182805460018160011615610100020316600290048015614c3d5780601f10614c1257610100808354040283529160200191614c3d565b820191906000526020600020905b815481529060010190602001808311614c2057829003601f168201915b50505050508152602001600782018054600181600116156101000203166002900480601f016020809104026020016040519081016040528092919081815260200182805460018160011615610100020316600290048015614cdf5780601f10614cb457610100808354040283529160200191614cdf565b820191906000526020600020905b815481529060010190602001808311614cc257829003601f168201915b505050505081526020016008820160009054906101000a900460ff161515151581526020016008820160019054906101000a900460ff161515151581525050905060405180610140016040528082600001518152602001826020015173ffffffffffffffffffffffffffffffffffffffff1681526020018260400151815260200182606001518152602001826080015181526020018260a0015181526020018260c0015181526020018260e001518152602001826101000151151581526020018315158152506000808581526020019081526020016000206000820151816000015560208201518160010160006101000a81548173ffffffffffffffffffffffffffffffffffffffff021916908373ffffffffffffffffffffffffffffffffffffffff1602179055506040820151816002019080519060200190614e24929190614fe1565b506060820151816003019080519060200190614e41929190614fe1565b506080820151816004019080519060200190614e5e929190614fe1565b5060a0820151816005019080519060200190614e7b929190614fe1565b5060c0820151816006019080519060200190614e98929190614fe1565b5060e0820151816007019080519060200190614eb5929190614fe1565b506101008201518160080160006101000a81548160ff0219169083151502179055506101208201518160080160016101000a81548160ff021916908315150217905550905050505050565b60405180610140016040528060008152602001600073ffffffffffffffffffffffffffffffffffffffff1681526020016060815260200160608152602001606081526020016060815260200160608152602001606081526020016000151581526020016000151581525090565b604051806101600160405280600073ffffffffffffffffffffffffffffffffffffffff16815260200160008152602001606081526020016060815260200160608152602001606081526020016060815260200160608152602001606081526020016000151581526020016000151581525090565b828054600181600116156101000203166002900490600052602060002090601f016020900481019282601f1061502257805160ff1916838001178555615050565b82800160010185558215615050579182015b8281111561504f578251825591602001919060010190615034565b5b50905061505d9190615061565b5090565b61508391905b8082111561507f576000816000905550600101615067565b5090565b90565b60008135905061509581615bb3565b92915050565b6000813590506150aa81615bca565b92915050565b600082601f8301126150c157600080fd5b81356150d46150cf82615a7b565b615a4e565b915080825260208301602083018583830111156150f057600080fd5b6150fb838284615b60565b50505092915050565b60008135905061511381615be1565b92915050565b60006020828403121561512b57600080fd5b600061513984828501615086565b91505092915050565b600080600080600060a0868803121561515a57600080fd5b600061516888828901615086565b955050602086013567ffffffffffffffff81111561518557600080fd5b615191888289016150b0565b945050604086013567ffffffffffffffff8111156151ae57600080fd5b6151ba888289016150b0565b935050606086013567ffffffffffffffff8111156151d757600080fd5b6151e3888289016150b0565b925050608086013567ffffffffffffffff81111561520057600080fd5b61520c888289016150b0565b9150509295509295909350565b600080600080600080600080610100898b03121561523657600080fd5b60006152448b828c01615086565b985050602089013567ffffffffffffffff81111561526157600080fd5b61526d8b828c016150b0565b975050604089013567ffffffffffffffff81111561528a57600080fd5b6152968b828c016150b0565b965050606089013567ffffffffffffffff8111156152b357600080fd5b6152bf8b828c016150b0565b955050608089013567ffffffffffffffff8111156152dc57600080fd5b6152e88b828c016150b0565b94505060a089013567ffffffffffffffff81111561530557600080fd5b6153118b828c016150b0565b93505060c089013567ffffffffffffffff81111561532e57600080fd5b61533a8b828c016150b0565b92505060e089013567ffffffffffffffff81111561535757600080fd5b6153638b828c016150b0565b9150509295985092959890939650565b60006020828403121561538557600080fd5b600061539384828501615104565b91505092915050565b600080604083850312156153af57600080fd5b60006153bd85828601615104565b92505060206153ce8582860161509b565b9150509250929050565b60008060008060008060c087890312156153f157600080fd5b60006153ff89828a01615104565b965050602087013567ffffffffffffffff81111561541c57600080fd5b61542889828a016150b0565b955050604087013567ffffffffffffffff81111561544557600080fd5b61545189828a016150b0565b945050606087013567ffffffffffffffff81111561546e57600080fd5b61547a89828a016150b0565b935050608087013567ffffffffffffffff81111561549757600080fd5b6154a389828a016150b0565b92505060a087013567ffffffffffffffff8111156154c057600080fd5b6154cc89828a016150b0565b9150509295509295509295565b60006154e5838361588c565b60208301905092915050565b6154fa81615b18565b82525050565b61550981615b18565b82525050565b600061551a82615ab7565b6155248185615ae5565b935061552f83615aa7565b8060005b8381101561556057815161554788826154d9565b975061555283615ad8565b925050600181019050615533565b5085935050505092915050565b61557681615b2a565b82525050565b61558581615b2a565b82525050565b600061559682615acd565b6155a08185615b07565b93506155b0818560208601615b6f565b6155b981615ba2565b840191505092915050565b60006155cf82615ac2565b6155d98185615af6565b93506155e9818560208601615b6f565b6155f281615ba2565b840191505092915050565b600061560882615ac2565b6156128185615b07565b9350615622818560208601615b6f565b61562b81615ba2565b840191505092915050565b6000615643601183615b07565b91507f596f7520617265206e6f742061646d696e0000000000000000000000000000006000830152602082019050919050565b60006101408301600083015161568f600086018261588c565b5060208301516156a260208601826154f1565b50604083015184820360408601526156ba82826155c4565b915050606083015184820360608601526156d482826155c4565b915050608083015184820360808601526156ee82826155c4565b91505060a083015184820360a086015261570882826155c4565b91505060c083015184820360c086015261572282826155c4565b91505060e083015184820360e086015261573c82826155c4565b91505061010083015161575361010086018261556d565b5061012083015161576861012086018261556d565b508091505092915050565b60006101608301600083015161578c60008601826154f1565b50602083015161579f602086018261588c565b50604083015184820360408601526157b782826155c4565b915050606083015184820360608601526157d182826155c4565b915050608083015184820360808601526157eb82826155c4565b91505060a083015184820360a086015261580582826155c4565b91505060c083015184820360c086015261581f82826155c4565b91505060e083015184820360e086015261583982826155c4565b91505061010083015184820361010086015261585582826155c4565b91505061012083015161586c61012086018261556d565b5061014083015161588161014086018261556d565b508091505092915050565b61589581615b56565b82525050565b6158a481615b56565b82525050565b600060208201905081810360008301526158c4818461550f565b905092915050565b60006020820190506158e1600083018461557c565b92915050565b60006020820190508181036000830152615901818461558b565b905092915050565b6000602082019050818103600083015261592281615636565b9050919050565b600060208201905081810360008301526159438184615676565b905092915050565b600060208201905081810360008301526159658184615773565b905092915050565b6000602082019050615982600083018461589b565b92915050565b60006101408201905061599e600083018d61589b565b6159ab602083018c615500565b81810360408301526159bd818b6155fd565b905081810360608301526159d1818a6155fd565b905081810360808301526159e581896155fd565b905081810360a08301526159f981886155fd565b905081810360c0830152615a0d81876155fd565b905081810360e0830152615a2181866155fd565b9050615a3161010083018561557c565b615a3f61012083018461557c565b9b9a5050505050505050505050565b6000604051905081810181811067ffffffffffffffff82111715615a7157600080fd5b8060405250919050565b600067ffffffffffffffff821115615a9257600080fd5b601f19601f8301169050602081019050919050565b6000819050602082019050919050565b600081519050919050565b600081519050919050565b600081519050919050565b6000602082019050919050565b600082825260208201905092915050565b600082825260208201905092915050565b600082825260208201905092915050565b6000615b2382615b36565b9050919050565b60008115159050919050565b600073ffffffffffffffffffffffffffffffffffffffff82169050919050565b6000819050919050565b82818337600083830152505050565b60005b83811015615b8d578082015181840152602081019050615b72565b83811115615b9c576000848401525b50505050565b6000601f19601f8301169050919050565b615bbc81615b18565b8114615bc757600080fd5b50565b615bd381615b2a565b8114615bde57600080fd5b50565b615bea81615b56565b8114615bf557600080fd5b5056fea365627a7a72315820a751b51ae4a0da13a1a51dd20479d6cac71446b789df69858f082b900c07cf406c6578706572696d656e74616cf564736f6c63430005110040",
  "compiler": {
    "name": "solc",
    "version": "0.5.17+commit.d19bba13.Emscripten.clang",
    "optimizer": {
      "enabled": false,
      "runs": 200
    },
    "evmVersion": "petersburg"
  }
}