{
  "fileName": "Authentication.sol",
  "contractName": "Authentication",
  "source": "pragma experimental ABIEncoderV2;\npragma solidity >0.4.99 <0.6.0;\n\ncontract Authentication {\n    struct account {\n        uint256 id;\n        address owner;\n        string userName;\n        string email;\n        string phoneNumber;\n        string password;\n        string logoLink;\n        string country;\n        bool labo;\n    }\n\n    struct signupRequest {\n        address owner;\n        uint256 id;\n        string date;\n        string name;\n        string email;\n        string phoneNumber;\n        string responsableName;\n        string country;\n        string logoLink;\n        bool pending;\n        bool approved;\n    }\n\n    mapping(uint256 => account) public accounts;\n    mapping(address => bool) public adminAccounts;\n    mapping(uint256 => signupRequest) private signupRequestsId;\n    mapping(address => signupRequest) private signupRequestsAddress;\n\n    // State variables\n    uint256 accountsCounter;\n    uint256 signupRequestCounter;\n\n    function initContract() public {\n        adminAccounts[msg.sender] = true;\n    }\n\n    function signupAsClient(\n        address _address,\n        string memory _userName,\n        string memory _email,\n        string memory phoneNumber,\n        string memory _phAddress\n    ) public {\n        // store account\n        accountsCounter++;\n        accounts[accountsCounter] = account(\n            accountsCounter,\n            _address,\n            _userName,\n            _email,\n            phoneNumber,\n            _phAddress,\n            \"\",\n            \"\",\n            false\n        );\n    }\n\n    function signupAsLabo(\n        address _address,\n        string memory requestDate,\n        string memory laboName,\n        string memory phoneNumber,\n        string memory _email,\n        string memory responsableName,\n        string memory country,\n        string memory logoLink\n    ) public {\n        signupRequestCounter++;\n        signupRequestsId[signupRequestCounter] = signupRequest(\n            _address,\n            signupRequestCounter,\n            requestDate,\n            laboName,\n            phoneNumber,\n            _email,\n            responsableName,\n            country,\n            logoLink,\n            true,\n            false\n        );\n        signupRequestsAddress[_address] = signupRequest(\n            _address,\n            signupRequestCounter,\n            requestDate,\n            laboName,\n            phoneNumber,\n            _email,\n            responsableName,\n            country,\n            logoLink,\n            true,\n            false\n        );\n    }\n\n    function approveRequest(uint256 id) public {\n        require(adminAccounts[msg.sender], \"You are not admin\");\n        signupRequest memory request = signupRequestsId[id];\n        signupRequestsId[id] = signupRequest(\n            request.owner,\n            request.id,\n            request.date,\n            request.name,\n            request.phoneNumber,\n            request.email,\n            request.responsableName,\n            request.country,\n            request.logoLink,\n            false,\n            true\n        );\n        signupRequestsAddress[request.owner] = signupRequest(\n            request.owner,\n            request.id,\n            request.date,\n            request.name,\n            request.phoneNumber,\n            request.email,\n            request.responsableName,\n            request.country,\n            request.logoLink,\n            false,\n            true\n        );\n        accountsCounter++;\n        accounts[accountsCounter] = account(\n            accountsCounter,\n            request.owner,\n            request.name,\n            request.email,\n            request.phoneNumber,\n            request.responsableName,\n            request.logoLink,\n            request.country,\n            true\n        );\n    }\n\n    function refuseRequest(uint256 id) public {\n        require(adminAccounts[msg.sender], \"You are not admin\");\n        signupRequest memory request = signupRequestsId[id];\n        signupRequestsId[id] = signupRequest(\n            request.owner,\n            request.id,\n            request.date,\n            request.name,\n            request.phoneNumber,\n            request.email,\n            request.responsableName,\n            request.country,\n            request.logoLink,\n            false,\n            false\n        );\n        signupRequestsAddress[request.owner] = signupRequest(\n            request.owner,\n            request.id,\n            request.date,\n            request.name,\n            request.phoneNumber,\n            request.email,\n            request.responsableName,\n            request.country,\n            request.logoLink,\n            false,\n            false\n        );\n    }\n\n    function checkRequest(address _address)\n        public\n        view\n        returns (string memory)\n    {\n        signupRequest memory request = signupRequestsAddress[_address];\n        if (request.owner == address(0)) {\n            return \"null\";\n        }\n        if (request.pending) {\n            return \"pending\";\n        } else {\n            if (request.approved) {\n                return \"approved\";\n            } else {\n                return \"refused\";\n            }\n        }\n    }\n\n    function getSignupRequestCounter() public view returns (uint256) {\n        require(adminAccounts[msg.sender], \"You are not admin\");\n        return signupRequestCounter;\n    }\n\n    function getSignupRequest(uint256 requestId)\n        public\n        view\n        returns (signupRequest memory)\n    {\n        require(adminAccounts[msg.sender], \"You are not admin\");\n        return signupRequestsId[requestId];\n    }\n\n    function getSignupRequestPending() public view returns (uint256[] memory) {\n        require(adminAccounts[msg.sender], \"You are not admin\");\n        if (signupRequestCounter == 0) {\n            return new uint256[](0);\n        }\n        uint256[] memory pendingRequests = new uint256[](signupRequestCounter);\n        uint256 numberOfPendingRequests = 0;\n        for (uint256 i = 1; i <= signupRequestCounter; i++) {\n            if (signupRequestsId[i].approved == false) {\n                pendingRequests[numberOfPendingRequests] = signupRequestsId[i]\n                    .id;\n                numberOfPendingRequests++;\n            }\n        }\n        uint256[] memory finalPendingRequests = new uint256[](\n            numberOfPendingRequests\n        );\n        for (uint256 i = 0; i < numberOfPendingRequests; i++) {\n            finalPendingRequests[i] = pendingRequests[i];\n        }\n        return finalPendingRequests;\n    }\n\n    function editUserInfo(\n        uint256 _id,\n        string memory _userName,\n        string memory _email,\n        string memory phoneNumber,\n        string memory _password,\n        string memory logoLink\n    ) public {\n        account memory userAccount = accounts[_id];\n        //  require(userAccount.owner == msg.sender, \"This is not your acccount\");\n        accounts[_id] = account(\n            _id,\n            userAccount.owner,\n            _userName,\n            _email,\n            phoneNumber,\n            _password,\n            logoLink,\n            userAccount.country,\n            userAccount.labo\n        );\n    }\n\n    function getAccountById(uint256 _id) public view returns (account memory) {\n        return (accounts[_id]);\n    }\n\n    function getAccountByAddress(address _address)\n        public\n        view\n        returns (account memory)\n    {\n        for (uint256 i = 1; i <= accountsCounter; i++) {\n            if (accounts[i].owner == _address) {\n                return (accounts[i]);\n            }\n        }\n        return accounts[0];\n    }\n\n    function getAccountsIds() public view returns (uint256[] memory) {\n        if (accountsCounter == 0) {\n            return new uint256[](0);\n        }\n        uint256[] memory accountIds = new uint256[](accountsCounter);\n        uint256 numberOfAccounts = 0;\n        // iterate over accounts\n        for (uint256 i = 1; i <= accountsCounter; i++) {\n            accountIds[numberOfAccounts] = accounts[i].id;\n            numberOfAccounts++;\n        }\n        return accountIds;\n    }\n}\n",
  "sourcePath": "contracts/Authentication.sol",
  "abi": [
    {
      "constant": true,
      "inputs": [
        {
          "internalType": "uint256",
          "name": "",
          "type": "uint256"
        }
      ],
      "name": "accounts",
      "outputs": [
        {
          "internalType": "uint256",
          "name": "id",
          "type": "uint256"
        },
        {
          "internalType": "address",
          "name": "owner",
          "type": "address"
        },
        {
          "internalType": "string",
          "name": "userName",
          "type": "string"
        },
        {
          "internalType": "string",
          "name": "email",
          "type": "string"
        },
        {
          "internalType": "string",
          "name": "phoneNumber",
          "type": "string"
        },
        {
          "internalType": "string",
          "name": "password",
          "type": "string"
        },
        {
          "internalType": "string",
          "name": "logoLink",
          "type": "string"
        },
        {
          "internalType": "string",
          "name": "country",
          "type": "string"
        },
        {
          "internalType": "bool",
          "name": "labo",
          "type": "bool"
        }
      ],
      "payable": false,
      "stateMutability": "view",
      "type": "function"
    },
    {
      "constant": true,
      "inputs": [
        {
          "internalType": "address",
          "name": "",
          "type": "address"
        }
      ],
      "name": "adminAccounts",
      "outputs": [
        {
          "internalType": "bool",
          "name": "",
          "type": "bool"
        }
      ],
      "payable": false,
      "stateMutability": "view",
      "type": "function"
    },
    {
      "constant": false,
      "inputs": [
        {
          "internalType": "uint256",
          "name": "id",
          "type": "uint256"
        }
      ],
      "name": "approveRequest",
      "outputs": [],
      "payable": false,
      "stateMutability": "nonpayable",
      "type": "function"
    },
    {
      "constant": true,
      "inputs": [
        {
          "internalType": "address",
          "name": "_address",
          "type": "address"
        }
      ],
      "name": "checkRequest",
      "outputs": [
        {
          "internalType": "string",
          "name": "",
          "type": "string"
        }
      ],
      "payable": false,
      "stateMutability": "view",
      "type": "function"
    },
    {
      "constant": false,
      "inputs": [
        {
          "internalType": "uint256",
          "name": "_id",
          "type": "uint256"
        },
        {
          "internalType": "string",
          "name": "_userName",
          "type": "string"
        },
        {
          "internalType": "string",
          "name": "_email",
          "type": "string"
        },
        {
          "internalType": "string",
          "name": "phoneNumber",
          "type": "string"
        },
        {
          "internalType": "string",
          "name": "_password",
          "type": "string"
        },
        {
          "internalType": "string",
          "name": "logoLink",
          "type": "string"
        }
      ],
      "name": "editUserInfo",
      "outputs": [],
      "payable": false,
      "stateMutability": "nonpayable",
      "type": "function"
    },
    {
      "constant": true,
      "inputs": [
        {
          "internalType": "address",
          "name": "_address",
          "type": "address"
        }
      ],
      "name": "getAccountByAddress",
      "outputs": [
        {
          "components": [
            {
              "internalType": "uint256",
              "name": "id",
              "type": "uint256"
            },
            {
              "internalType": "address",
              "name": "owner",
              "type": "address"
            },
            {
              "internalType": "string",
              "name": "userName",
              "type": "string"
            },
            {
              "internalType": "string",
              "name": "email",
              "type": "string"
            },
            {
              "internalType": "string",
              "name": "phoneNumber",
              "type": "string"
            },
            {
              "internalType": "string",
              "name": "password",
              "type": "string"
            },
            {
              "internalType": "string",
              "name": "logoLink",
              "type": "string"
            },
            {
              "internalType": "string",
              "name": "country",
              "type": "string"
            },
            {
              "internalType": "bool",
              "name": "labo",
              "type": "bool"
            }
          ],
          "internalType": "struct Authentication.account",
          "name": "",
          "type": "tuple"
        }
      ],
      "payable": false,
      "stateMutability": "view",
      "type": "function"
    },
    {
      "constant": true,
      "inputs": [
        {
          "internalType": "uint256",
          "name": "_id",
          "type": "uint256"
        }
      ],
      "name": "getAccountById",
      "outputs": [
        {
          "components": [
            {
              "internalType": "uint256",
              "name": "id",
              "type": "uint256"
            },
            {
              "internalType": "address",
              "name": "owner",
              "type": "address"
            },
            {
              "internalType": "string",
              "name": "userName",
              "type": "string"
            },
            {
              "internalType": "string",
              "name": "email",
              "type": "string"
            },
            {
              "internalType": "string",
              "name": "phoneNumber",
              "type": "string"
            },
            {
              "internalType": "string",
              "name": "password",
              "type": "string"
            },
            {
              "internalType": "string",
              "name": "logoLink",
              "type": "string"
            },
            {
              "internalType": "string",
              "name": "country",
              "type": "string"
            },
            {
              "internalType": "bool",
              "name": "labo",
              "type": "bool"
            }
          ],
          "internalType": "struct Authentication.account",
          "name": "",
          "type": "tuple"
        }
      ],
      "payable": false,
      "stateMutability": "view",
      "type": "function"
    },
    {
      "constant": true,
      "inputs": [],
      "name": "getAccountsIds",
      "outputs": [
        {
          "internalType": "uint256[]",
          "name": "",
          "type": "uint256[]"
        }
      ],
      "payable": false,
      "stateMutability": "view",
      "type": "function"
    },
    {
      "constant": true,
      "inputs": [
        {
          "internalType": "uint256",
          "name": "requestId",
          "type": "uint256"
        }
      ],
      "name": "getSignupRequest",
      "outputs": [
        {
          "components": [
            {
              "internalType": "address",
              "name": "owner",
              "type": "address"
            },
            {
              "internalType": "uint256",
              "name": "id",
              "type": "uint256"
            },
            {
              "internalType": "string",
              "name": "date",
              "type": "string"
            },
            {
              "internalType": "string",
              "name": "name",
              "type": "string"
            },
            {
              "internalType": "string",
              "name": "email",
              "type": "string"
            },
            {
              "internalType": "string",
              "name": "phoneNumber",
              "type": "string"
            },
            {
              "internalType": "string",
              "name": "responsableName",
              "type": "string"
            },
            {
              "internalType": "string",
              "name": "country",
              "type": "string"
            },
            {
              "internalType": "string",
              "name": "logoLink",
              "type": "string"
            },
            {
              "internalType": "bool",
              "name": "pending",
              "type": "bool"
            },
            {
              "internalType": "bool",
              "name": "approved",
              "type": "bool"
            }
          ],
          "internalType": "struct Authentication.signupRequest",
          "name": "",
          "type": "tuple"
        }
      ],
      "payable": false,
      "stateMutability": "view",
      "type": "function"
    },
    {
      "constant": true,
      "inputs": [],
      "name": "getSignupRequestCounter",
      "outputs": [
        {
          "internalType": "uint256",
          "name": "",
          "type": "uint256"
        }
      ],
      "payable": false,
      "stateMutability": "view",
      "type": "function"
    },
    {
      "constant": true,
      "inputs": [],
      "name": "getSignupRequestPending",
      "outputs": [
        {
          "internalType": "uint256[]",
          "name": "",
          "type": "uint256[]"
        }
      ],
      "payable": false,
      "stateMutability": "view",
      "type": "function"
    },
    {
      "constant": false,
      "inputs": [],
      "name": "initContract",
      "outputs": [],
      "payable": false,
      "stateMutability": "nonpayable",
      "type": "function"
    },
    {
      "constant": false,
      "inputs": [
        {
          "internalType": "uint256",
          "name": "id",
          "type": "uint256"
        }
      ],
      "name": "refuseRequest",
      "outputs": [],
      "payable": false,
      "stateMutability": "nonpayable",
      "type": "function"
    },
    {
      "constant": false,
      "inputs": [
        {
          "internalType": "address",
          "name": "_address",
          "type": "address"
        },
        {
          "internalType": "string",
          "name": "_userName",
          "type": "string"
        },
        {
          "internalType": "string",
          "name": "_email",
          "type": "string"
        },
        {
          "internalType": "string",
          "name": "phoneNumber",
          "type": "string"
        },
        {
          "internalType": "string",
          "name": "_phAddress",
          "type": "string"
        }
      ],
      "name": "signupAsClient",
      "outputs": [],
      "payable": false,
      "stateMutability": "nonpayable",
      "type": "function"
    },
    {
      "constant": false,
      "inputs": [
        {
          "internalType": "address",
          "name": "_address",
          "type": "address"
        },
        {
          "internalType": "string",
          "name": "requestDate",
          "type": "string"
        },
        {
          "internalType": "string",
          "name": "laboName",
          "type": "string"
        },
        {
          "internalType": "string",
          "name": "phoneNumber",
          "type": "string"
        },
        {
          "internalType": "string",
          "name": "_email",
          "type": "string"
        },
        {
          "internalType": "string",
          "name": "responsableName",
          "type": "string"
        },
        {
          "internalType": "string",
          "name": "country",
          "type": "string"
        },
        {
          "internalType": "string",
          "name": "logoLink",
          "type": "string"
        }
      ],
      "name": "signupAsLabo",
      "outputs": [],
      "payable": false,
      "stateMutability": "nonpayable",
      "type": "function"
    }
  ],
  "bytecode": "0x608060405234801561001057600080fd5b5061538b806100206000396000f3fe608060405234801561001057600080fd5b50600436106100f55760003560e01c8063b8e85fec11610097578063d7d1bbdb11610066578063d7d1bbdb1461025e578063da2d3d691461027a578063f2a40db8146102aa578063f855b366146102e2576100f5565b8063b8e85fec146101d6578063bb9445ef14610206578063bdd35f3e14610222578063cd5d5cbf14610240576100f5565b80637cbf7229116100d35780637cbf7229146101765780638203f5fe146101925780639664dea31461019c578063b3dc09e0146101ba576100f5565b806305aca141146100fa57806344b328321461012a5780637b9a36191461015a575b600080fd5b610114600480360361010f9190810190614b3a565b610312565b604051610121919061509f565b60405180910390f35b610144600480360361013f9190810190614b3a565b610786565b60405161015191906150c1565b60405180910390f35b610174600480360361016f9190810190614b63565b610d44565b005b610190600480360361018b9190810190614b3a565b611356565b005b61019a611d47565b005b6101a4611da0565b6040516101b19190615020565b60405180910390f35b6101d460048036036101cf91908101906149e0565b611fb8565b005b6101f060048036036101eb91908101906148e0565b6123c0565b6040516101fd919061509f565b60405180910390f35b610220600480360361021b9190810190614909565b612d29565b005b61022a612ef2565b60405161023791906150e3565b60405180910390f35b610248612f88565b6040516102559190615020565b60405180910390f35b61027860048036036102739190810190614b3a565b613065565b005b610294600480360361028f91908101906148e0565b613c17565b6040516102a19190615042565b60405180910390f35b6102c460048036036102bf9190810190614b3a565b613c37565b6040516102d9999897969594939291906150fe565b60405180910390f35b6102fc60048036036102f791908101906148e0565b614042565b604051610309919061505d565b60405180910390f35b61031a6146e5565b60008083815260200190815260200160002060405180610120016040529081600082015481526020016001820160009054906101000a900473ffffffffffffffffffffffffffffffffffffffff1673ffffffffffffffffffffffffffffffffffffffff1673ffffffffffffffffffffffffffffffffffffffff168152602001600282018054600181600116156101000203166002900480601f0160208091040260200160405190810160405280929190818152602001828054600181600116156101000203166002900480156104315780601f1061040657610100808354040283529160200191610431565b820191906000526020600020905b81548152906001019060200180831161041457829003601f168201915b50505050508152602001600382018054600181600116156101000203166002900480601f0160208091040260200160405190810160405280929190818152602001828054600181600116156101000203166002900480156104d35780601f106104a8576101008083540402835291602001916104d3565b820191906000526020600020905b8154815290600101906020018083116104b657829003601f168201915b50505050508152602001600482018054600181600116156101000203166002900480601f0160208091040260200160405190810160405280929190818152602001828054600181600116156101000203166002900480156105755780601f1061054a57610100808354040283529160200191610575565b820191906000526020600020905b81548152906001019060200180831161055857829003601f168201915b50505050508152602001600582018054600181600116156101000203166002900480601f0160208091040260200160405190810160405280929190818152602001828054600181600116156101000203166002900480156106175780601f106105ec57610100808354040283529160200191610617565b820191906000526020600020905b8154815290600101906020018083116105fa57829003601f168201915b50505050508152602001600682018054600181600116156101000203166002900480601f0160208091040260200160405190810160405280929190818152602001828054600181600116156101000203166002900480156106b95780601f1061068e576101008083540402835291602001916106b9565b820191906000526020600020905b81548152906001019060200180831161069c57829003601f168201915b50505050508152602001600782018054600181600116156101000203166002900480601f01602080910402602001604051908101604052809291908181526020018280546001816001161561010002031660029004801561075b5780601f106107305761010080835404028352916020019161075b565b820191906000526020600020905b81548152906001019060200180831161073e57829003601f168201915b505050505081526020016008820160009054906101000a900460ff1615151515815250509050919050565b61078e614749565b600160003373ffffffffffffffffffffffffffffffffffffffff1673ffffffffffffffffffffffffffffffffffffffff16815260200190815260200160002060009054906101000a900460ff1661081a576040517f08c379a00000000000000000000000000000000000000000000000000000000081526004016108119061507f565b60405180910390fd5b60026000838152602001908152602001600020604051806101600160405290816000820160009054906101000a900473ffffffffffffffffffffffffffffffffffffffff1673ffffffffffffffffffffffffffffffffffffffff1673ffffffffffffffffffffffffffffffffffffffff16815260200160018201548152602001600282018054600181600116156101000203166002900480601f0160208091040260200160405190810160405280929190818152602001828054600181600116156101000203166002900480156109325780601f1061090757610100808354040283529160200191610932565b820191906000526020600020905b81548152906001019060200180831161091557829003601f168201915b50505050508152602001600382018054600181600116156101000203166002900480601f0160208091040260200160405190810160405280929190818152602001828054600181600116156101000203166002900480156109d45780601f106109a9576101008083540402835291602001916109d4565b820191906000526020600020905b8154815290600101906020018083116109b757829003601f168201915b50505050508152602001600482018054600181600116156101000203166002900480601f016020809104026020016040519081016040528092919081815260200182805460018160011615610100020316600290048015610a765780601f10610a4b57610100808354040283529160200191610a76565b820191906000526020600020905b815481529060010190602001808311610a5957829003601f168201915b50505050508152602001600582018054600181600116156101000203166002900480601f016020809104026020016040519081016040528092919081815260200182805460018160011615610100020316600290048015610b185780601f10610aed57610100808354040283529160200191610b18565b820191906000526020600020905b815481529060010190602001808311610afb57829003601f168201915b50505050508152602001600682018054600181600116156101000203166002900480601f016020809104026020016040519081016040528092919081815260200182805460018160011615610100020316600290048015610bba5780601f10610b8f57610100808354040283529160200191610bba565b820191906000526020600020905b815481529060010190602001808311610b9d57829003601f168201915b50505050508152602001600782018054600181600116156101000203166002900480601f016020809104026020016040519081016040528092919081815260200182805460018160011615610100020316600290048015610c5c5780601f10610c3157610100808354040283529160200191610c5c565b820191906000526020600020905b815481529060010190602001808311610c3f57829003601f168201915b50505050508152602001600882018054600181600116156101000203166002900480601f016020809104026020016040519081016040528092919081815260200182805460018160011615610100020316600290048015610cfe5780601f10610cd357610100808354040283529160200191610cfe565b820191906000526020600020905b815481529060010190602001808311610ce157829003601f168201915b505050505081526020016009820160009054906101000a900460ff161515151581526020016009820160019054906101000a900460ff1615151515815250509050919050565b610d4c6146e5565b60008088815260200190815260200160002060405180610120016040529081600082015481526020016001820160009054906101000a900473ffffffffffffffffffffffffffffffffffffffff1673ffffffffffffffffffffffffffffffffffffffff1673ffffffffffffffffffffffffffffffffffffffff168152602001600282018054600181600116156101000203166002900480601f016020809104026020016040519081016040528092919081815260200182805460018160011615610100020316600290048015610e635780601f10610e3857610100808354040283529160200191610e63565b820191906000526020600020905b815481529060010190602001808311610e4657829003601f168201915b50505050508152602001600382018054600181600116156101000203166002900480601f016020809104026020016040519081016040528092919081815260200182805460018160011615610100020316600290048015610f055780601f10610eda57610100808354040283529160200191610f05565b820191906000526020600020905b815481529060010190602001808311610ee857829003601f168201915b50505050508152602001600482018054600181600116156101000203166002900480601f016020809104026020016040519081016040528092919081815260200182805460018160011615610100020316600290048015610fa75780601f10610f7c57610100808354040283529160200191610fa7565b820191906000526020600020905b815481529060010190602001808311610f8a57829003601f168201915b50505050508152602001600582018054600181600116156101000203166002900480601f0160208091040260200160405190810160405280929190818152602001828054600181600116156101000203166002900480156110495780601f1061101e57610100808354040283529160200191611049565b820191906000526020600020905b81548152906001019060200180831161102c57829003601f168201915b50505050508152602001600682018054600181600116156101000203166002900480601f0160208091040260200160405190810160405280929190818152602001828054600181600116156101000203166002900480156110eb5780601f106110c0576101008083540402835291602001916110eb565b820191906000526020600020905b8154815290600101906020018083116110ce57829003601f168201915b50505050508152602001600782018054600181600116156101000203166002900480601f01602080910402602001604051908101604052809291908181526020018280546001816001161561010002031660029004801561118d5780601f106111625761010080835404028352916020019161118d565b820191906000526020600020905b81548152906001019060200180831161117057829003601f168201915b505050505081526020016008820160009054906101000a900460ff1615151515815250509050604051806101200160405280888152602001826020015173ffffffffffffffffffffffffffffffffffffffff1681526020018781526020018681526020018581526020018481526020018381526020018260e00151815260200182610100015115158152506000808981526020019081526020016000206000820151816000015560208201518160010160006101000a81548173ffffffffffffffffffffffffffffffffffffffff021916908373ffffffffffffffffffffffffffffffffffffffff16021790555060408201518160020190805190602001906112979291906147bd565b5060608201518160030190805190602001906112b49291906147bd565b5060808201518160040190805190602001906112d19291906147bd565b5060a08201518160050190805190602001906112ee9291906147bd565b5060c082015181600601908051906020019061130b9291906147bd565b5060e08201518160070190805190602001906113289291906147bd565b506101008201518160080160006101000a81548160ff02191690831515021790555090505050505050505050565b600160003373ffffffffffffffffffffffffffffffffffffffff1673ffffffffffffffffffffffffffffffffffffffff16815260200190815260200160002060009054906101000a900460ff166113e2576040517f08c379a00000000000000000000000000000000000000000000000000000000081526004016113d99061507f565b60405180910390fd5b6113ea614749565b60026000838152602001908152602001600020604051806101600160405290816000820160009054906101000a900473ffffffffffffffffffffffffffffffffffffffff1673ffffffffffffffffffffffffffffffffffffffff1673ffffffffffffffffffffffffffffffffffffffff16815260200160018201548152602001600282018054600181600116156101000203166002900480601f0160208091040260200160405190810160405280929190818152602001828054600181600116156101000203166002900480156115025780601f106114d757610100808354040283529160200191611502565b820191906000526020600020905b8154815290600101906020018083116114e557829003601f168201915b50505050508152602001600382018054600181600116156101000203166002900480601f0160208091040260200160405190810160405280929190818152602001828054600181600116156101000203166002900480156115a45780601f10611579576101008083540402835291602001916115a4565b820191906000526020600020905b81548152906001019060200180831161158757829003601f168201915b50505050508152602001600482018054600181600116156101000203166002900480601f0160208091040260200160405190810160405280929190818152602001828054600181600116156101000203166002900480156116465780601f1061161b57610100808354040283529160200191611646565b820191906000526020600020905b81548152906001019060200180831161162957829003601f168201915b50505050508152602001600582018054600181600116156101000203166002900480601f0160208091040260200160405190810160405280929190818152602001828054600181600116156101000203166002900480156116e85780601f106116bd576101008083540402835291602001916116e8565b820191906000526020600020905b8154815290600101906020018083116116cb57829003601f168201915b50505050508152602001600682018054600181600116156101000203166002900480601f01602080910402602001604051908101604052809291908181526020018280546001816001161561010002031660029004801561178a5780601f1061175f5761010080835404028352916020019161178a565b820191906000526020600020905b81548152906001019060200180831161176d57829003601f168201915b50505050508152602001600782018054600181600116156101000203166002900480601f01602080910402602001604051908101604052809291908181526020018280546001816001161561010002031660029004801561182c5780601f106118015761010080835404028352916020019161182c565b820191906000526020600020905b81548152906001019060200180831161180f57829003601f168201915b50505050508152602001600882018054600181600116156101000203166002900480601f0160208091040260200160405190810160405280929190818152602001828054600181600116156101000203166002900480156118ce5780601f106118a3576101008083540402835291602001916118ce565b820191906000526020600020905b8154815290600101906020018083116118b157829003601f168201915b505050505081526020016009820160009054906101000a900460ff161515151581526020016009820160019054906101000a900460ff1615151515815250509050604051806101600160405280826000015173ffffffffffffffffffffffffffffffffffffffff1681526020018260200151815260200182604001518152602001826060015181526020018260a001518152602001826080015181526020018260c0015181526020018260e0015181526020018261010001518152602001600015158152602001600015158152506002600084815260200190815260200160002060008201518160000160006101000a81548173ffffffffffffffffffffffffffffffffffffffff021916908373ffffffffffffffffffffffffffffffffffffffff160217905550602082015181600101556040820151816002019080519060200190611a1c9291906147bd565b506060820151816003019080519060200190611a399291906147bd565b506080820151816004019080519060200190611a569291906147bd565b5060a0820151816005019080519060200190611a739291906147bd565b5060c0820151816006019080519060200190611a909291906147bd565b5060e0820151816007019080519060200190611aad9291906147bd565b50610100820151816008019080519060200190611acb9291906147bd565b506101208201518160090160006101000a81548160ff0219169083151502179055506101408201518160090160016101000a81548160ff021916908315150217905550905050604051806101600160405280826000015173ffffffffffffffffffffffffffffffffffffffff1681526020018260200151815260200182604001518152602001826060015181526020018260a001518152602001826080015181526020018260c0015181526020018260e00151815260200182610100015181526020016000151581526020016000151581525060036000836000015173ffffffffffffffffffffffffffffffffffffffff1673ffffffffffffffffffffffffffffffffffffffff16815260200190815260200160002060008201518160000160006101000a81548173ffffffffffffffffffffffffffffffffffffffff021916908373ffffffffffffffffffffffffffffffffffffffff160217905550602082015181600101556040820151816002019080519060200190611c4e9291906147bd565b506060820151816003019080519060200190611c6b9291906147bd565b506080820151816004019080519060200190611c889291906147bd565b5060a0820151816005019080519060200190611ca59291906147bd565b5060c0820151816006019080519060200190611cc29291906147bd565b5060e0820151816007019080519060200190611cdf9291906147bd565b50610100820151816008019080519060200190611cfd9291906147bd565b506101208201518160090160006101000a81548160ff0219169083151502179055506101408201518160090160016101000a81548160ff0219169083151502179055509050505050565b60018060003373ffffffffffffffffffffffffffffffffffffffff1673ffffffffffffffffffffffffffffffffffffffff16815260200190815260200160002060006101000a81548160ff021916908315150217905550565b6060600160003373ffffffffffffffffffffffffffffffffffffffff1673ffffffffffffffffffffffffffffffffffffffff16815260200190815260200160002060009054906101000a900460ff16611e2e576040517f08c379a0000000000000000000000000000000000000000000000000000000008152600401611e259061507f565b60405180910390fd5b60006005541415611e71576000604051908082528060200260200182016040528015611e695781602001602082028038833980820191505090505b509050611fb5565b6060600554604051908082528060200260200182016040528015611ea45781602001602082028038833980820191505090505b50905060008090506000600190505b6005548111611f3157600015156002600083815260200190815260200160002060090160019054906101000a900460ff1615151415611f24576002600082815260200190815260200160002060010154838381518110611f0f57fe5b60200260200101818152505081806001019250505b8080600101915050611eb3565b50606081604051908082528060200260200182016040528015611f635781602001602082028038833980820191505090505b50905060008090505b82811015611fad57838181518110611f8057fe5b6020026020010151828281518110611f9457fe5b6020026020010181815250508080600101915050611f6c565b508093505050505b90565b6005600081548092919060010191905055506040518061016001604052808973ffffffffffffffffffffffffffffffffffffffff16815260200160055481526020018881526020018781526020018681526020018581526020018481526020018381526020018281526020016001151581526020016000151581525060026000600554815260200190815260200160002060008201518160000160006101000a81548173ffffffffffffffffffffffffffffffffffffffff021916908373ffffffffffffffffffffffffffffffffffffffff1602179055506020820151816001015560408201518160020190805190602001906120b69291906147bd565b5060608201518160030190805190602001906120d39291906147bd565b5060808201518160040190805190602001906120f09291906147bd565b5060a082015181600501908051906020019061210d9291906147bd565b5060c082015181600601908051906020019061212a9291906147bd565b5060e08201518160070190805190602001906121479291906147bd565b506101008201518160080190805190602001906121659291906147bd565b506101208201518160090160006101000a81548160ff0219169083151502179055506101408201518160090160016101000a81548160ff0219169083151502179055509050506040518061016001604052808973ffffffffffffffffffffffffffffffffffffffff168152602001600554815260200188815260200187815260200186815260200185815260200184815260200183815260200182815260200160011515815260200160001515815250600360008a73ffffffffffffffffffffffffffffffffffffffff1673ffffffffffffffffffffffffffffffffffffffff16815260200190815260200160002060008201518160000160006101000a81548173ffffffffffffffffffffffffffffffffffffffff021916908373ffffffffffffffffffffffffffffffffffffffff1602179055506020820151816001015560408201518160020190805190602001906122c19291906147bd565b5060608201518160030190805190602001906122de9291906147bd565b5060808201518160040190805190602001906122fb9291906147bd565b5060a08201518160050190805190602001906123189291906147bd565b5060c08201518160060190805190602001906123359291906147bd565b5060e08201518160070190805190602001906123529291906147bd565b506101008201518160080190805190602001906123709291906147bd565b506101208201518160090160006101000a81548160ff0219169083151502179055506101408201518160090160016101000a81548160ff0219169083151502179055509050505050505050505050565b6123c86146e5565b6000600190505b60045481116128bb578273ffffffffffffffffffffffffffffffffffffffff1660008083815260200190815260200160002060010160009054906101000a900473ffffffffffffffffffffffffffffffffffffffff1673ffffffffffffffffffffffffffffffffffffffff1614156128ae5760008082815260200190815260200160002060405180610120016040529081600082015481526020016001820160009054906101000a900473ffffffffffffffffffffffffffffffffffffffff1673ffffffffffffffffffffffffffffffffffffffff1673ffffffffffffffffffffffffffffffffffffffff168152602001600282018054600181600116156101000203166002900480601f0160208091040260200160405190810160405280929190818152602001828054600181600116156101000203166002900480156125585780601f1061252d57610100808354040283529160200191612558565b820191906000526020600020905b81548152906001019060200180831161253b57829003601f168201915b50505050508152602001600382018054600181600116156101000203166002900480601f0160208091040260200160405190810160405280929190818152602001828054600181600116156101000203166002900480156125fa5780601f106125cf576101008083540402835291602001916125fa565b820191906000526020600020905b8154815290600101906020018083116125dd57829003601f168201915b50505050508152602001600482018054600181600116156101000203166002900480601f01602080910402602001604051908101604052809291908181526020018280546001816001161561010002031660029004801561269c5780601f106126715761010080835404028352916020019161269c565b820191906000526020600020905b81548152906001019060200180831161267f57829003601f168201915b50505050508152602001600582018054600181600116156101000203166002900480601f01602080910402602001604051908101604052809291908181526020018280546001816001161561010002031660029004801561273e5780601f106127135761010080835404028352916020019161273e565b820191906000526020600020905b81548152906001019060200180831161272157829003601f168201915b50505050508152602001600682018054600181600116156101000203166002900480601f0160208091040260200160405190810160405280929190818152602001828054600181600116156101000203166002900480156127e05780601f106127b5576101008083540402835291602001916127e0565b820191906000526020600020905b8154815290600101906020018083116127c357829003601f168201915b50505050508152602001600782018054600181600116156101000203166002900480601f0160208091040260200160405190810160405280929190818152602001828054600181600116156101000203166002900480156128825780601f1061285757610100808354040283529160200191612882565b820191906000526020600020905b81548152906001019060200180831161286557829003601f168201915b505050505081526020016008820160009054906101000a900460ff161515151581525050915050612d24565b80806001019150506123cf565b5060008080815260200190815260200160002060405180610120016040529081600082015481526020016001820160009054906101000a900473ffffffffffffffffffffffffffffffffffffffff1673ffffffffffffffffffffffffffffffffffffffff1673ffffffffffffffffffffffffffffffffffffffff168152602001600282018054600181600116156101000203166002900480601f0160208091040260200160405190810160405280929190818152602001828054600181600116156101000203166002900480156129d35780601f106129a8576101008083540402835291602001916129d3565b820191906000526020600020905b8154815290600101906020018083116129b657829003601f168201915b50505050508152602001600382018054600181600116156101000203166002900480601f016020809104026020016040519081016040528092919081815260200182805460018160011615610100020316600290048015612a755780601f10612a4a57610100808354040283529160200191612a75565b820191906000526020600020905b815481529060010190602001808311612a5857829003601f168201915b50505050508152602001600482018054600181600116156101000203166002900480601f016020809104026020016040519081016040528092919081815260200182805460018160011615610100020316600290048015612b175780601f10612aec57610100808354040283529160200191612b17565b820191906000526020600020905b815481529060010190602001808311612afa57829003601f168201915b50505050508152602001600582018054600181600116156101000203166002900480601f016020809104026020016040519081016040528092919081815260200182805460018160011615610100020316600290048015612bb95780601f10612b8e57610100808354040283529160200191612bb9565b820191906000526020600020905b815481529060010190602001808311612b9c57829003601f168201915b50505050508152602001600682018054600181600116156101000203166002900480601f016020809104026020016040519081016040528092919081815260200182805460018160011615610100020316600290048015612c5b5780601f10612c3057610100808354040283529160200191612c5b565b820191906000526020600020905b815481529060010190602001808311612c3e57829003601f168201915b50505050508152602001600782018054600181600116156101000203166002900480601f016020809104026020016040519081016040528092919081815260200182805460018160011615610100020316600290048015612cfd5780601f10612cd257610100808354040283529160200191612cfd565b820191906000526020600020905b815481529060010190602001808311612ce057829003601f168201915b505050505081526020016008820160009054906101000a900460ff16151515158152505090505b919050565b60046000815480929190600101919050555060405180610120016040528060045481526020018673ffffffffffffffffffffffffffffffffffffffff1681526020018581526020018481526020018381526020018281526020016040518060200160405280600081525081526020016040518060200160405280600081525081526020016000151581525060008060045481526020019081526020016000206000820151816000015560208201518160010160006101000a81548173ffffffffffffffffffffffffffffffffffffffff021916908373ffffffffffffffffffffffffffffffffffffffff1602179055506040820151816002019080519060200190612e359291906147bd565b506060820151816003019080519060200190612e529291906147bd565b506080820151816004019080519060200190612e6f9291906147bd565b5060a0820151816005019080519060200190612e8c9291906147bd565b5060c0820151816006019080519060200190612ea99291906147bd565b5060e0820151816007019080519060200190612ec69291906147bd565b506101008201518160080160006101000a81548160ff0219169083151502179055509050505050505050565b6000600160003373ffffffffffffffffffffffffffffffffffffffff1673ffffffffffffffffffffffffffffffffffffffff16815260200190815260200160002060009054906101000a900460ff16612f80576040517f08c379a0000000000000000000000000000000000000000000000000000000008152600401612f779061507f565b60405180910390fd5b600554905090565b606060006004541415612fcd576000604051908082528060200260200182016040528015612fc55781602001602082028038833980820191505090505b509050613062565b60606004546040519080825280602002602001820160405280156130005781602001602082028038833980820191505090505b50905060008090506000600190505b600454811161305b576000808281526020019081526020016000206000015483838151811061303a57fe5b6020026020010181815250508180600101925050808060010191505061300f565b5081925050505b90565b600160003373ffffffffffffffffffffffffffffffffffffffff1673ffffffffffffffffffffffffffffffffffffffff16815260200190815260200160002060009054906101000a900460ff166130f1576040517f08c379a00000000000000000000000000000000000000000000000000000000081526004016130e89061507f565b60405180910390fd5b6130f9614749565b60026000838152602001908152602001600020604051806101600160405290816000820160009054906101000a900473ffffffffffffffffffffffffffffffffffffffff1673ffffffffffffffffffffffffffffffffffffffff1673ffffffffffffffffffffffffffffffffffffffff16815260200160018201548152602001600282018054600181600116156101000203166002900480601f0160208091040260200160405190810160405280929190818152602001828054600181600116156101000203166002900480156132115780601f106131e657610100808354040283529160200191613211565b820191906000526020600020905b8154815290600101906020018083116131f457829003601f168201915b50505050508152602001600382018054600181600116156101000203166002900480601f0160208091040260200160405190810160405280929190818152602001828054600181600116156101000203166002900480156132b35780601f10613288576101008083540402835291602001916132b3565b820191906000526020600020905b81548152906001019060200180831161329657829003601f168201915b50505050508152602001600482018054600181600116156101000203166002900480601f0160208091040260200160405190810160405280929190818152602001828054600181600116156101000203166002900480156133555780601f1061332a57610100808354040283529160200191613355565b820191906000526020600020905b81548152906001019060200180831161333857829003601f168201915b50505050508152602001600582018054600181600116156101000203166002900480601f0160208091040260200160405190810160405280929190818152602001828054600181600116156101000203166002900480156133f75780601f106133cc576101008083540402835291602001916133f7565b820191906000526020600020905b8154815290600101906020018083116133da57829003601f168201915b50505050508152602001600682018054600181600116156101000203166002900480601f0160208091040260200160405190810160405280929190818152602001828054600181600116156101000203166002900480156134995780601f1061346e57610100808354040283529160200191613499565b820191906000526020600020905b81548152906001019060200180831161347c57829003601f168201915b50505050508152602001600782018054600181600116156101000203166002900480601f01602080910402602001604051908101604052809291908181526020018280546001816001161561010002031660029004801561353b5780601f106135105761010080835404028352916020019161353b565b820191906000526020600020905b81548152906001019060200180831161351e57829003601f168201915b50505050508152602001600882018054600181600116156101000203166002900480601f0160208091040260200160405190810160405280929190818152602001828054600181600116156101000203166002900480156135dd5780601f106135b2576101008083540402835291602001916135dd565b820191906000526020600020905b8154815290600101906020018083116135c057829003601f168201915b505050505081526020016009820160009054906101000a900460ff161515151581526020016009820160019054906101000a900460ff1615151515815250509050604051806101600160405280826000015173ffffffffffffffffffffffffffffffffffffffff1681526020018260200151815260200182604001518152602001826060015181526020018260a001518152602001826080015181526020018260c0015181526020018260e0015181526020018261010001518152602001600015158152602001600115158152506002600084815260200190815260200160002060008201518160000160006101000a81548173ffffffffffffffffffffffffffffffffffffffff021916908373ffffffffffffffffffffffffffffffffffffffff16021790555060208201518160010155604082015181600201908051906020019061372b9291906147bd565b5060608201518160030190805190602001906137489291906147bd565b5060808201518160040190805190602001906137659291906147bd565b5060a08201518160050190805190602001906137829291906147bd565b5060c082015181600601908051906020019061379f9291906147bd565b5060e08201518160070190805190602001906137bc9291906147bd565b506101008201518160080190805190602001906137da9291906147bd565b506101208201518160090160006101000a81548160ff0219169083151502179055506101408201518160090160016101000a81548160ff021916908315150217905550905050604051806101600160405280826000015173ffffffffffffffffffffffffffffffffffffffff1681526020018260200151815260200182604001518152602001826060015181526020018260a001518152602001826080015181526020018260c0015181526020018260e00151815260200182610100015181526020016000151581526020016001151581525060036000836000015173ffffffffffffffffffffffffffffffffffffffff1673ffffffffffffffffffffffffffffffffffffffff16815260200190815260200160002060008201518160000160006101000a81548173ffffffffffffffffffffffffffffffffffffffff021916908373ffffffffffffffffffffffffffffffffffffffff16021790555060208201518160010155604082015181600201908051906020019061395d9291906147bd565b50606082015181600301908051906020019061397a9291906147bd565b5060808201518160040190805190602001906139979291906147bd565b5060a08201518160050190805190602001906139b49291906147bd565b5060c08201518160060190805190602001906139d19291906147bd565b5060e08201518160070190805190602001906139ee9291906147bd565b50610100820151816008019080519060200190613a0c9291906147bd565b506101208201518160090160006101000a81548160ff0219169083151502179055506101408201518160090160016101000a81548160ff0219169083151502179055509050506004600081548092919060010191905055506040518061012001604052806004548152602001826000015173ffffffffffffffffffffffffffffffffffffffff16815260200182606001518152602001826080015181526020018260a0015181526020018260c00151815260200182610100015181526020018260e0015181526020016001151581525060008060045481526020019081526020016000206000820151816000015560208201518160010160006101000a81548173ffffffffffffffffffffffffffffffffffffffff021916908373ffffffffffffffffffffffffffffffffffffffff1602179055506040820151816002019080519060200190613b5d9291906147bd565b506060820151816003019080519060200190613b7a9291906147bd565b506080820151816004019080519060200190613b979291906147bd565b5060a0820151816005019080519060200190613bb49291906147bd565b5060c0820151816006019080519060200190613bd19291906147bd565b5060e0820151816007019080519060200190613bee9291906147bd565b506101008201518160080160006101000a81548160ff0219169083151502179055509050505050565b60016020528060005260406000206000915054906101000a900460ff1681565b60006020528060005260406000206000915090508060000154908060010160009054906101000a900473ffffffffffffffffffffffffffffffffffffffff1690806002018054600181600116156101000203166002900480601f016020809104026020016040519081016040528092919081815260200182805460018160011615610100020316600290048015613d0f5780601f10613ce457610100808354040283529160200191613d0f565b820191906000526020600020905b815481529060010190602001808311613cf257829003601f168201915b505050505090806003018054600181600116156101000203166002900480601f016020809104026020016040519081016040528092919081815260200182805460018160011615610100020316600290048015613dad5780601f10613d8257610100808354040283529160200191613dad565b820191906000526020600020905b815481529060010190602001808311613d9057829003601f168201915b505050505090806004018054600181600116156101000203166002900480601f016020809104026020016040519081016040528092919081815260200182805460018160011615610100020316600290048015613e4b5780601f10613e2057610100808354040283529160200191613e4b565b820191906000526020600020905b815481529060010190602001808311613e2e57829003601f168201915b505050505090806005018054600181600116156101000203166002900480601f016020809104026020016040519081016040528092919081815260200182805460018160011615610100020316600290048015613ee95780601f10613ebe57610100808354040283529160200191613ee9565b820191906000526020600020905b815481529060010190602001808311613ecc57829003601f168201915b505050505090806006018054600181600116156101000203166002900480601f016020809104026020016040519081016040528092919081815260200182805460018160011615610100020316600290048015613f875780601f10613f5c57610100808354040283529160200191613f87565b820191906000526020600020905b815481529060010190602001808311613f6a57829003601f168201915b505050505090806007018054600181600116156101000203166002900480601f0160208091040260200160405190810160405280929190818152602001828054600181600116156101000203166002900480156140255780601f10613ffa57610100808354040283529160200191614025565b820191906000526020600020905b81548152906001019060200180831161400857829003601f168201915b5050505050908060080160009054906101000a900460ff16905089565b606061404c614749565b600360008473ffffffffffffffffffffffffffffffffffffffff1673ffffffffffffffffffffffffffffffffffffffff168152602001908152602001600020604051806101600160405290816000820160009054906101000a900473ffffffffffffffffffffffffffffffffffffffff1673ffffffffffffffffffffffffffffffffffffffff1673ffffffffffffffffffffffffffffffffffffffff16815260200160018201548152602001600282018054600181600116156101000203166002900480601f0160208091040260200160405190810160405280929190818152602001828054600181600116156101000203166002900480156141905780601f1061416557610100808354040283529160200191614190565b820191906000526020600020905b81548152906001019060200180831161417357829003601f168201915b50505050508152602001600382018054600181600116156101000203166002900480601f0160208091040260200160405190810160405280929190818152602001828054600181600116156101000203166002900480156142325780601f1061420757610100808354040283529160200191614232565b820191906000526020600020905b81548152906001019060200180831161421557829003601f168201915b50505050508152602001600482018054600181600116156101000203166002900480601f0160208091040260200160405190810160405280929190818152602001828054600181600116156101000203166002900480156142d45780601f106142a9576101008083540402835291602001916142d4565b820191906000526020600020905b8154815290600101906020018083116142b757829003601f168201915b50505050508152602001600582018054600181600116156101000203166002900480601f0160208091040260200160405190810160405280929190818152602001828054600181600116156101000203166002900480156143765780601f1061434b57610100808354040283529160200191614376565b820191906000526020600020905b81548152906001019060200180831161435957829003601f168201915b50505050508152602001600682018054600181600116156101000203166002900480601f0160208091040260200160405190810160405280929190818152602001828054600181600116156101000203166002900480156144185780601f106143ed57610100808354040283529160200191614418565b820191906000526020600020905b8154815290600101906020018083116143fb57829003601f168201915b50505050508152602001600782018054600181600116156101000203166002900480601f0160208091040260200160405190810160405280929190818152602001828054600181600116156101000203166002900480156144ba5780601f1061448f576101008083540402835291602001916144ba565b820191906000526020600020905b81548152906001019060200180831161449d57829003601f168201915b50505050508152602001600882018054600181600116156101000203166002900480601f01602080910402602001604051908101604052809291908181526020018280546001816001161561010002031660029004801561455c5780601f106145315761010080835404028352916020019161455c565b820191906000526020600020905b81548152906001019060200180831161453f57829003601f168201915b505050505081526020016009820160009054906101000a900460ff161515151581526020016009820160019054906101000a900460ff1615151515815250509050600073ffffffffffffffffffffffffffffffffffffffff16816000015173ffffffffffffffffffffffffffffffffffffffff161415614614576040518060400160405280600481526020017f6e756c6c000000000000000000000000000000000000000000000000000000008152509150506146e0565b8061012001511561465d576040518060400160405280600781526020017f70656e64696e67000000000000000000000000000000000000000000000000008152509150506146e0565b806101400151156146a6576040518060400160405280600881526020017f617070726f7665640000000000000000000000000000000000000000000000008152509150506146e0565b6040518060400160405280600781526020017f72656675736564000000000000000000000000000000000000000000000000008152509150505b919050565b60405180610120016040528060008152602001600073ffffffffffffffffffffffffffffffffffffffff1681526020016060815260200160608152602001606081526020016060815260200160608152602001606081526020016000151581525090565b604051806101600160405280600073ffffffffffffffffffffffffffffffffffffffff16815260200160008152602001606081526020016060815260200160608152602001606081526020016060815260200160608152602001606081526020016000151581526020016000151581525090565b828054600181600116156101000203166002900490600052602060002090601f016020900481019282601f106147fe57805160ff191683800117855561482c565b8280016001018555821561482c579182015b8281111561482b578251825591602001919060010190614810565b5b509050614839919061483d565b5090565b61485f91905b8082111561485b576000816000905550600101614843565b5090565b90565b6000813590506148718161531a565b92915050565b600082601f83011261488857600080fd5b813561489b614896826151e2565b6151b5565b915080825260208301602083018583830111156148b757600080fd5b6148c28382846152c7565b50505092915050565b6000813590506148da81615331565b92915050565b6000602082840312156148f257600080fd5b600061490084828501614862565b91505092915050565b600080600080600060a0868803121561492157600080fd5b600061492f88828901614862565b955050602086013567ffffffffffffffff81111561494c57600080fd5b61495888828901614877565b945050604086013567ffffffffffffffff81111561497557600080fd5b61498188828901614877565b935050606086013567ffffffffffffffff81111561499e57600080fd5b6149aa88828901614877565b925050608086013567ffffffffffffffff8111156149c757600080fd5b6149d388828901614877565b9150509295509295909350565b600080600080600080600080610100898b0312156149fd57600080fd5b6000614a0b8b828c01614862565b985050602089013567ffffffffffffffff811115614a2857600080fd5b614a348b828c01614877565b975050604089013567ffffffffffffffff811115614a5157600080fd5b614a5d8b828c01614877565b965050606089013567ffffffffffffffff811115614a7a57600080fd5b614a868b828c01614877565b955050608089013567ffffffffffffffff811115614aa357600080fd5b614aaf8b828c01614877565b94505060a089013567ffffffffffffffff811115614acc57600080fd5b614ad88b828c01614877565b93505060c089013567ffffffffffffffff811115614af557600080fd5b614b018b828c01614877565b92505060e089013567ffffffffffffffff811115614b1e57600080fd5b614b2a8b828c01614877565b9150509295985092959890939650565b600060208284031215614b4c57600080fd5b6000614b5a848285016148cb565b91505092915050565b60008060008060008060c08789031215614b7c57600080fd5b6000614b8a89828a016148cb565b965050602087013567ffffffffffffffff811115614ba757600080fd5b614bb389828a01614877565b955050604087013567ffffffffffffffff811115614bd057600080fd5b614bdc89828a01614877565b945050606087013567ffffffffffffffff811115614bf957600080fd5b614c0589828a01614877565b935050608087013567ffffffffffffffff811115614c2257600080fd5b614c2e89828a01614877565b92505060a087013567ffffffffffffffff811115614c4b57600080fd5b614c5789828a01614877565b9150509295509295509295565b6000614c708383615002565b60208301905092915050565b614c858161527f565b82525050565b614c948161527f565b82525050565b6000614ca58261521e565b614caf818561524c565b9350614cba8361520e565b8060005b83811015614ceb578151614cd28882614c64565b9750614cdd8361523f565b925050600181019050614cbe565b5085935050505092915050565b614d0181615291565b82525050565b614d1081615291565b82525050565b6000614d2182615234565b614d2b818561526e565b9350614d3b8185602086016152d6565b614d4481615309565b840191505092915050565b6000614d5a82615229565b614d64818561525d565b9350614d748185602086016152d6565b614d7d81615309565b840191505092915050565b6000614d9382615229565b614d9d818561526e565b9350614dad8185602086016152d6565b614db681615309565b840191505092915050565b6000614dce60118361526e565b91507f596f7520617265206e6f742061646d696e0000000000000000000000000000006000830152602082019050919050565b600061012083016000830151614e1a6000860182615002565b506020830151614e2d6020860182614c7c565b5060408301518482036040860152614e458282614d4f565b91505060608301518482036060860152614e5f8282614d4f565b91505060808301518482036080860152614e798282614d4f565b91505060a083015184820360a0860152614e938282614d4f565b91505060c083015184820360c0860152614ead8282614d4f565b91505060e083015184820360e0860152614ec78282614d4f565b915050610100830151614ede610100860182614cf8565b508091505092915050565b600061016083016000830151614f026000860182614c7c565b506020830151614f156020860182615002565b5060408301518482036040860152614f2d8282614d4f565b91505060608301518482036060860152614f478282614d4f565b91505060808301518482036080860152614f618282614d4f565b91505060a083015184820360a0860152614f7b8282614d4f565b91505060c083015184820360c0860152614f958282614d4f565b91505060e083015184820360e0860152614faf8282614d4f565b915050610100830151848203610100860152614fcb8282614d4f565b915050610120830151614fe2610120860182614cf8565b50610140830151614ff7610140860182614cf8565b508091505092915050565b61500b816152bd565b82525050565b61501a816152bd565b82525050565b6000602082019050818103600083015261503a8184614c9a565b905092915050565b60006020820190506150576000830184614d07565b92915050565b600060208201905081810360008301526150778184614d16565b905092915050565b6000602082019050818103600083015261509881614dc1565b9050919050565b600060208201905081810360008301526150b98184614e01565b905092915050565b600060208201905081810360008301526150db8184614ee9565b905092915050565b60006020820190506150f86000830184615011565b92915050565b600061012082019050615114600083018c615011565b615121602083018b614c8b565b8181036040830152615133818a614d88565b905081810360608301526151478189614d88565b9050818103608083015261515b8188614d88565b905081810360a083015261516f8187614d88565b905081810360c08301526151838186614d88565b905081810360e08301526151978185614d88565b90506151a7610100830184614d07565b9a9950505050505050505050565b6000604051905081810181811067ffffffffffffffff821117156151d857600080fd5b8060405250919050565b600067ffffffffffffffff8211156151f957600080fd5b601f19601f8301169050602081019050919050565b6000819050602082019050919050565b600081519050919050565b600081519050919050565b600081519050919050565b6000602082019050919050565b600082825260208201905092915050565b600082825260208201905092915050565b600082825260208201905092915050565b600061528a8261529d565b9050919050565b60008115159050919050565b600073ffffffffffffffffffffffffffffffffffffffff82169050919050565b6000819050919050565b82818337600083830152505050565b60005b838110156152f45780820151818401526020810190506152d9565b83811115615303576000848401525b50505050565b6000601f19601f8301169050919050565b6153238161527f565b811461532e57600080fd5b50565b61533a816152bd565b811461534557600080fd5b5056fea365627a7a72315820233b2e6fbde08388cc9032b8e8d776e9e37148346cd0d2ca52cb6c109f93c07d6c6578706572696d656e74616cf564736f6c63430005110040",
  "compiler": {
    "name": "solc",
    "version": "0.5.17+commit.d19bba13.Emscripten.clang",
    "optimizer": {
      "enabled": false,
      "runs": 200
    },
    "evmVersion": "petersburg"
  }
}