{
  "fileName": "Signup.sol",
  "contractName": "Signup",
  "source": "pragma experimental ABIEncoderV2;\npragma solidity >0.4.99 <0.6.0;\n\n\ncontract Signup {\n    struct account {\n        uint256 id;\n        address owner;\n        string userName;\n        string email;\n        string phoneNumber;\n        string phAddress;\n        string password;\n        string logoLink;\n        bool labo;\n    }\n\n    struct signupRequest {\n        address owner;\n        uint256 id;\n        string date;\n        string name;\n        string phAddress;\n        string email;\n        string phoneNumber;\n        string password;\n        string logoLink;\n        bool pending;\n        bool approved;\n    }\n\n    mapping(uint256 => account) public accounts;\n    mapping(address => bool) public adminAccounts;\n    mapping(uint256 => signupRequest) public signupRequestsId;\n    mapping(address => signupRequest) public signupRequestsAddress;\n\n    // State variables\n    uint256 accountsCounter;\n    uint256 signupRequestCounter;\n\n    function initContract() public {\n        adminAccounts[msg.sender] = true;\n    }\n\n    function signupAsClient(\n        address _address,\n        string memory _userName,\n        string memory _email,\n        string memory phoneNumber,\n        string memory _password\n    ) public {\n        // store account\n        accountsCounter++;\n        accounts[accountsCounter] = account(\n            accountsCounter,\n            _address,\n            _userName,\n            _email,\n            phoneNumber,\n            \"\",\n            _password,\n            \"\",\n            false\n        );\n    }\n\n    function signupAsLabo(\n        address _address,\n        string memory requestDate,\n        string memory laboName,\n        string memory phAddress,\n        string memory _email,\n        string memory _password,\n        string memory logoLink\n    ) public {\n        signupRequestCounter++;\n        signupRequestsId[signupRequestCounter] = signupRequest(\n            _address,\n            signupRequestCounter,\n            requestDate,\n            laboName,\n            phAddress,\n            _email,\n            \"\",\n            _password,\n            logoLink,\n            true,\n            false\n        );\n        signupRequestsAddress[_address] = signupRequest(\n            _address,\n            signupRequestCounter,\n            requestDate,\n            laboName,\n            phAddress,\n            _email,\n            \"\",\n            _password,\n            logoLink,\n            true,\n            false\n        );\n    }\n\n    function approveRequest(uint256 id) public {\n        require(adminAccounts[msg.sender], \"You are not admin\");\n        signupRequest memory request = signupRequestsId[id];\n        signupRequestsId[id] = signupRequest(\n            request.owner,\n            request.id,\n            request.date,\n            request.name,\n            request.phAddress,\n            request.email,\n            request.phoneNumber,\n            request.password,\n            request.logoLink,\n            false,\n            true\n        );\n        signupRequestsAddress[request.owner] = signupRequest(\n            request.owner,\n            request.id,\n            request.date,\n            request.name,\n            request.phAddress,\n            request.email,\n            request.phoneNumber,\n            request.password,\n            request.logoLink,\n            false,\n            true\n        );\n        accountsCounter++;\n        accounts[accountsCounter] = account(\n            accountsCounter,\n            request.owner,\n            request.name,\n            request.email,\n            request.phoneNumber,\n            request.phAddress,\n            request.password,\n            request.logoLink,\n            true\n        );\n    }\n\n    function refuseRequest(uint256 id) public {\n        require(adminAccounts[msg.sender], \"You are not admin\");\n        signupRequest memory request = signupRequestsId[id];\n        signupRequestsId[id] = signupRequest(\n            request.owner,\n            request.id,\n            request.date,\n            request.name,\n            request.phAddress,\n            request.email,\n            request.phoneNumber,\n            request.password,\n            request.logoLink,\n            false,\n            false\n        );\n        signupRequestsAddress[request.owner] = signupRequest(\n            request.owner,\n            request.id,\n            request.date,\n            request.name,\n            request.phAddress,\n            request.email,\n            request.phoneNumber,\n            request.password,\n            request.logoLink,\n            false,\n            false\n        );\n    }\n\n    function checkRequest(address _address)\n        public\n        view\n        returns (string memory)\n    {\n        signupRequest memory request = signupRequestsAddress[_address];\n        if (request.owner == address(0)) {\n            return \"null\";\n        }\n        if (request.pending) {\n            return \"pending\";\n        } else {\n            if (request.approved) {\n                return \"approved\";\n            } else {\n                return \"refused\";\n            }\n        }\n    }\n\n    function getSignupRequestCounter() public view returns (uint256) {\n        return signupRequestCounter;\n    }\n\n    function getSignupRequestPending() public view returns (uint256[] memory) {\n        if (signupRequestCounter == 0) {\n            return new uint256[](0);\n        }\n        uint256[] memory pendingRequests = new uint256[](signupRequestCounter);\n        uint256 numberOfPendingRequests = 0;\n        for (uint256 i = 1; i <= signupRequestCounter; i++) {\n            if (signupRequestsId[i].approved == false) {\n                pendingRequests[numberOfPendingRequests] = signupRequestsId[i]\n                    .id;\n                numberOfPendingRequests++;\n            }\n        }\n        uint256[] memory finalPendingRequests = new uint256[](\n            numberOfPendingRequests\n        );\n        for (uint256 i = 0; i < numberOfPendingRequests; i++) {\n            finalPendingRequests[i] = pendingRequests[i];\n        }\n        return finalPendingRequests;\n    }\n\n    function editUserInfo(\n        uint256 _id,\n        string memory _userName,\n        string memory _email,\n        string memory phoneNumber,\n        string memory _password,\n        string memory _phAddress,\n        string memory logoLink\n    ) public {\n        account memory userAccount = accounts[_id];\n        //  require(userAccount.owner == msg.sender, \"This is not your acccount\");\n        accounts[_id] = account(\n            _id,\n            userAccount.owner,\n            _userName,\n            _email,\n            phoneNumber,\n            _phAddress,\n            _password,\n            logoLink,\n            userAccount.labo\n        );\n    }\n\n    function getAccountById(uint256 _id) public view returns (account memory) {\n        return (accounts[_id]);\n    }\n\n    function getAccountByAddress(address _address)\n        public\n        view\n        returns (account memory)\n    {\n        for (uint256 i = 1; i <= accountsCounter; i++) {\n            if (accounts[i].owner == _address) {\n                return (accounts[i]);\n            }\n        }\n        return accounts[0];\n    }\n\n    function getAccountsIds() public view returns (uint256[] memory) {\n        if (accountsCounter == 0) {\n            return new uint256[](0);\n        }\n        uint256[] memory accountIds = new uint256[](accountsCounter);\n        uint256 numberOfAccounts = 0;\n        // iterate over accounts\n        for (uint256 i = 1; i <= accountsCounter; i++) {\n            accountIds[numberOfAccounts] = accounts[i].id;\n            numberOfAccounts++;\n        }\n        return accountIds;\n    }\n}\n",
  "sourcePath": "contracts/Signup.sol",
  "abi": [
    {
      "constant": true,
      "inputs": [
        {
          "internalType": "uint256",
          "name": "",
          "type": "uint256"
        }
      ],
      "name": "accounts",
      "outputs": [
        {
          "internalType": "uint256",
          "name": "id",
          "type": "uint256"
        },
        {
          "internalType": "address",
          "name": "owner",
          "type": "address"
        },
        {
          "internalType": "string",
          "name": "userName",
          "type": "string"
        },
        {
          "internalType": "string",
          "name": "email",
          "type": "string"
        },
        {
          "internalType": "string",
          "name": "phoneNumber",
          "type": "string"
        },
        {
          "internalType": "string",
          "name": "phAddress",
          "type": "string"
        },
        {
          "internalType": "string",
          "name": "password",
          "type": "string"
        },
        {
          "internalType": "string",
          "name": "logoLink",
          "type": "string"
        },
        {
          "internalType": "bool",
          "name": "labo",
          "type": "bool"
        }
      ],
      "payable": false,
      "stateMutability": "view",
      "type": "function"
    },
    {
      "constant": true,
      "inputs": [
        {
          "internalType": "address",
          "name": "",
          "type": "address"
        }
      ],
      "name": "adminAccounts",
      "outputs": [
        {
          "internalType": "bool",
          "name": "",
          "type": "bool"
        }
      ],
      "payable": false,
      "stateMutability": "view",
      "type": "function"
    },
    {
      "constant": false,
      "inputs": [
        {
          "internalType": "uint256",
          "name": "id",
          "type": "uint256"
        }
      ],
      "name": "approveRequest",
      "outputs": [],
      "payable": false,
      "stateMutability": "nonpayable",
      "type": "function"
    },
    {
      "constant": true,
      "inputs": [
        {
          "internalType": "address",
          "name": "_address",
          "type": "address"
        }
      ],
      "name": "checkRequest",
      "outputs": [
        {
          "internalType": "string",
          "name": "",
          "type": "string"
        }
      ],
      "payable": false,
      "stateMutability": "view",
      "type": "function"
    },
    {
      "constant": false,
      "inputs": [
        {
          "internalType": "uint256",
          "name": "_id",
          "type": "uint256"
        },
        {
          "internalType": "string",
          "name": "_userName",
          "type": "string"
        },
        {
          "internalType": "string",
          "name": "_email",
          "type": "string"
        },
        {
          "internalType": "string",
          "name": "phoneNumber",
          "type": "string"
        },
        {
          "internalType": "string",
          "name": "_password",
          "type": "string"
        },
        {
          "internalType": "string",
          "name": "_phAddress",
          "type": "string"
        },
        {
          "internalType": "string",
          "name": "logoLink",
          "type": "string"
        }
      ],
      "name": "editUserInfo",
      "outputs": [],
      "payable": false,
      "stateMutability": "nonpayable",
      "type": "function"
    },
    {
      "constant": true,
      "inputs": [
        {
          "internalType": "address",
          "name": "_address",
          "type": "address"
        }
      ],
      "name": "getAccountByAddress",
      "outputs": [
        {
          "components": [
            {
              "internalType": "uint256",
              "name": "id",
              "type": "uint256"
            },
            {
              "internalType": "address",
              "name": "owner",
              "type": "address"
            },
            {
              "internalType": "string",
              "name": "userName",
              "type": "string"
            },
            {
              "internalType": "string",
              "name": "email",
              "type": "string"
            },
            {
              "internalType": "string",
              "name": "phoneNumber",
              "type": "string"
            },
            {
              "internalType": "string",
              "name": "phAddress",
              "type": "string"
            },
            {
              "internalType": "string",
              "name": "password",
              "type": "string"
            },
            {
              "internalType": "string",
              "name": "logoLink",
              "type": "string"
            },
            {
              "internalType": "bool",
              "name": "labo",
              "type": "bool"
            }
          ],
          "internalType": "struct Signup.account",
          "name": "",
          "type": "tuple"
        }
      ],
      "payable": false,
      "stateMutability": "view",
      "type": "function"
    },
    {
      "constant": true,
      "inputs": [
        {
          "internalType": "uint256",
          "name": "_id",
          "type": "uint256"
        }
      ],
      "name": "getAccountById",
      "outputs": [
        {
          "components": [
            {
              "internalType": "uint256",
              "name": "id",
              "type": "uint256"
            },
            {
              "internalType": "address",
              "name": "owner",
              "type": "address"
            },
            {
              "internalType": "string",
              "name": "userName",
              "type": "string"
            },
            {
              "internalType": "string",
              "name": "email",
              "type": "string"
            },
            {
              "internalType": "string",
              "name": "phoneNumber",
              "type": "string"
            },
            {
              "internalType": "string",
              "name": "phAddress",
              "type": "string"
            },
            {
              "internalType": "string",
              "name": "password",
              "type": "string"
            },
            {
              "internalType": "string",
              "name": "logoLink",
              "type": "string"
            },
            {
              "internalType": "bool",
              "name": "labo",
              "type": "bool"
            }
          ],
          "internalType": "struct Signup.account",
          "name": "",
          "type": "tuple"
        }
      ],
      "payable": false,
      "stateMutability": "view",
      "type": "function"
    },
    {
      "constant": true,
      "inputs": [],
      "name": "getAccountsIds",
      "outputs": [
        {
          "internalType": "uint256[]",
          "name": "",
          "type": "uint256[]"
        }
      ],
      "payable": false,
      "stateMutability": "view",
      "type": "function"
    },
    {
      "constant": true,
      "inputs": [],
      "name": "getSignupRequestCounter",
      "outputs": [
        {
          "internalType": "uint256",
          "name": "",
          "type": "uint256"
        }
      ],
      "payable": false,
      "stateMutability": "view",
      "type": "function"
    },
    {
      "constant": true,
      "inputs": [],
      "name": "getSignupRequestPending",
      "outputs": [
        {
          "internalType": "uint256[]",
          "name": "",
          "type": "uint256[]"
        }
      ],
      "payable": false,
      "stateMutability": "view",
      "type": "function"
    },
    {
      "constant": false,
      "inputs": [],
      "name": "initContract",
      "outputs": [],
      "payable": false,
      "stateMutability": "nonpayable",
      "type": "function"
    },
    {
      "constant": false,
      "inputs": [
        {
          "internalType": "uint256",
          "name": "id",
          "type": "uint256"
        }
      ],
      "name": "refuseRequest",
      "outputs": [],
      "payable": false,
      "stateMutability": "nonpayable",
      "type": "function"
    },
    {
      "constant": false,
      "inputs": [
        {
          "internalType": "address",
          "name": "_address",
          "type": "address"
        },
        {
          "internalType": "string",
          "name": "_userName",
          "type": "string"
        },
        {
          "internalType": "string",
          "name": "_email",
          "type": "string"
        },
        {
          "internalType": "string",
          "name": "phoneNumber",
          "type": "string"
        },
        {
          "internalType": "string",
          "name": "_password",
          "type": "string"
        }
      ],
      "name": "signupAsClient",
      "outputs": [],
      "payable": false,
      "stateMutability": "nonpayable",
      "type": "function"
    },
    {
      "constant": false,
      "inputs": [
        {
          "internalType": "address",
          "name": "_address",
          "type": "address"
        },
        {
          "internalType": "string",
          "name": "requestDate",
          "type": "string"
        },
        {
          "internalType": "string",
          "name": "laboName",
          "type": "string"
        },
        {
          "internalType": "string",
          "name": "phAddress",
          "type": "string"
        },
        {
          "internalType": "string",
          "name": "_email",
          "type": "string"
        },
        {
          "internalType": "string",
          "name": "_password",
          "type": "string"
        },
        {
          "internalType": "string",
          "name": "logoLink",
          "type": "string"
        }
      ],
      "name": "signupAsLabo",
      "outputs": [],
      "payable": false,
      "stateMutability": "nonpayable",
      "type": "function"
    },
    {
      "constant": true,
      "inputs": [
        {
          "internalType": "address",
          "name": "",
          "type": "address"
        }
      ],
      "name": "signupRequestsAddress",
      "outputs": [
        {
          "internalType": "address",
          "name": "owner",
          "type": "address"
        },
        {
          "internalType": "uint256",
          "name": "id",
          "type": "uint256"
        },
        {
          "internalType": "string",
          "name": "date",
          "type": "string"
        },
        {
          "internalType": "string",
          "name": "name",
          "type": "string"
        },
        {
          "internalType": "string",
          "name": "phAddress",
          "type": "string"
        },
        {
          "internalType": "string",
          "name": "email",
          "type": "string"
        },
        {
          "internalType": "string",
          "name": "phoneNumber",
          "type": "string"
        },
        {
          "internalType": "string",
          "name": "password",
          "type": "string"
        },
        {
          "internalType": "string",
          "name": "logoLink",
          "type": "string"
        },
        {
          "internalType": "bool",
          "name": "pending",
          "type": "bool"
        },
        {
          "internalType": "bool",
          "name": "approved",
          "type": "bool"
        }
      ],
      "payable": false,
      "stateMutability": "view",
      "type": "function"
    },
    {
      "constant": true,
      "inputs": [
        {
          "internalType": "uint256",
          "name": "",
          "type": "uint256"
        }
      ],
      "name": "signupRequestsId",
      "outputs": [
        {
          "internalType": "address",
          "name": "owner",
          "type": "address"
        },
        {
          "internalType": "uint256",
          "name": "id",
          "type": "uint256"
        },
        {
          "internalType": "string",
          "name": "date",
          "type": "string"
        },
        {
          "internalType": "string",
          "name": "name",
          "type": "string"
        },
        {
          "internalType": "string",
          "name": "phAddress",
          "type": "string"
        },
        {
          "internalType": "string",
          "name": "email",
          "type": "string"
        },
        {
          "internalType": "string",
          "name": "phoneNumber",
          "type": "string"
        },
        {
          "internalType": "string",
          "name": "password",
          "type": "string"
        },
        {
          "internalType": "string",
          "name": "logoLink",
          "type": "string"
        },
        {
          "internalType": "bool",
          "name": "pending",
          "type": "bool"
        },
        {
          "internalType": "bool",
          "name": "approved",
          "type": "bool"
        }
      ],
      "payable": false,
      "stateMutability": "view",
      "type": "function"
    }
  ],
  "bytecode": "0x608060405234801561001057600080fd5b5061563880620000216000396000f3fe608060405234801561001057600080fd5b50600436106101005760003560e01c8063cd5d5cbf11610097578063f2a40db811610066578063f2a40db8146102c1578063f855b366146102f9578063fc9826ac14610329578063fd1570361461034557610100565b8063cd5d5cbf1461021d578063d7d1bbdb1461023b578063d8d2ff2e14610257578063da2d3d691461029157610100565b80639664dea3116100d35780639664dea314610195578063b8e85fec146101b3578063bb9445ef146101e3578063bdd35f3e146101ff57610100565b806305aca14114610105578063417452ec146101355780637cbf72291461016f5780638203f5fe1461018b575b600080fd5b61011f600480360361011a9190810190614e19565b610361565b60405161012c919061536e565b60405180910390f35b61014f600480360361014a9190810190614e19565b6107d5565b6040516101669b9a99989796959493929190615213565b60405180910390f35b61018960048036036101849190810190614e19565b610c91565b005b610193611682565b005b61019d6116db565b6040516101aa91906152ef565b60405180910390f35b6101cd60048036036101c89190810190614beb565b611867565b6040516101da919061536e565b60405180910390f35b6101fd60048036036101f89190810190614c14565b6121d0565b005b610207612399565b6040516102149190615390565b60405180910390f35b6102256123a3565b60405161023291906152ef565b60405180910390f35b61025560048036036102509190810190614e19565b612480565b005b610271600480360361026c9190810190614beb565b613032565b6040516102889b9a99989796959493929190615213565b60405180910390f35b6102ab60048036036102a69190810190614beb565b6134ee565b6040516102b89190615311565b60405180910390f35b6102db60048036036102d69190810190614e19565b61350e565b6040516102f0999897969594939291906153ab565b60405180910390f35b610313600480360361030e9190810190614beb565b613919565b604051610320919061532c565b60405180910390f35b610343600480360361033e9190810190614ceb565b613fbc565b005b61035f600480360361035a9190810190614e42565b6143e1565b005b6103696149f0565b60008083815260200190815260200160002060405180610120016040529081600082015481526020016001820160009054906101000a900473ffffffffffffffffffffffffffffffffffffffff1673ffffffffffffffffffffffffffffffffffffffff1673ffffffffffffffffffffffffffffffffffffffff168152602001600282018054600181600116156101000203166002900480601f0160208091040260200160405190810160405280929190818152602001828054600181600116156101000203166002900480156104805780601f1061045557610100808354040283529160200191610480565b820191906000526020600020905b81548152906001019060200180831161046357829003601f168201915b50505050508152602001600382018054600181600116156101000203166002900480601f0160208091040260200160405190810160405280929190818152602001828054600181600116156101000203166002900480156105225780601f106104f757610100808354040283529160200191610522565b820191906000526020600020905b81548152906001019060200180831161050557829003601f168201915b50505050508152602001600482018054600181600116156101000203166002900480601f0160208091040260200160405190810160405280929190818152602001828054600181600116156101000203166002900480156105c45780601f10610599576101008083540402835291602001916105c4565b820191906000526020600020905b8154815290600101906020018083116105a757829003601f168201915b50505050508152602001600582018054600181600116156101000203166002900480601f0160208091040260200160405190810160405280929190818152602001828054600181600116156101000203166002900480156106665780601f1061063b57610100808354040283529160200191610666565b820191906000526020600020905b81548152906001019060200180831161064957829003601f168201915b50505050508152602001600682018054600181600116156101000203166002900480601f0160208091040260200160405190810160405280929190818152602001828054600181600116156101000203166002900480156107085780601f106106dd57610100808354040283529160200191610708565b820191906000526020600020905b8154815290600101906020018083116106eb57829003601f168201915b50505050508152602001600782018054600181600116156101000203166002900480601f0160208091040260200160405190810160405280929190818152602001828054600181600116156101000203166002900480156107aa5780601f1061077f576101008083540402835291602001916107aa565b820191906000526020600020905b81548152906001019060200180831161078d57829003601f168201915b505050505081526020016008820160009054906101000a900460ff1615151515815250509050919050565b60026020528060005260406000206000915090508060000160009054906101000a900473ffffffffffffffffffffffffffffffffffffffff1690806001015490806002018054600181600116156101000203166002900480601f0160208091040260200160405190810160405280929190818152602001828054600181600116156101000203166002900480156108ad5780601f10610882576101008083540402835291602001916108ad565b820191906000526020600020905b81548152906001019060200180831161089057829003601f168201915b505050505090806003018054600181600116156101000203166002900480601f01602080910402602001604051908101604052809291908181526020018280546001816001161561010002031660029004801561094b5780601f106109205761010080835404028352916020019161094b565b820191906000526020600020905b81548152906001019060200180831161092e57829003601f168201915b505050505090806004018054600181600116156101000203166002900480601f0160208091040260200160405190810160405280929190818152602001828054600181600116156101000203166002900480156109e95780601f106109be576101008083540402835291602001916109e9565b820191906000526020600020905b8154815290600101906020018083116109cc57829003601f168201915b505050505090806005018054600181600116156101000203166002900480601f016020809104026020016040519081016040528092919081815260200182805460018160011615610100020316600290048015610a875780601f10610a5c57610100808354040283529160200191610a87565b820191906000526020600020905b815481529060010190602001808311610a6a57829003601f168201915b505050505090806006018054600181600116156101000203166002900480601f016020809104026020016040519081016040528092919081815260200182805460018160011615610100020316600290048015610b255780601f10610afa57610100808354040283529160200191610b25565b820191906000526020600020905b815481529060010190602001808311610b0857829003601f168201915b505050505090806007018054600181600116156101000203166002900480601f016020809104026020016040519081016040528092919081815260200182805460018160011615610100020316600290048015610bc35780601f10610b9857610100808354040283529160200191610bc3565b820191906000526020600020905b815481529060010190602001808311610ba657829003601f168201915b505050505090806008018054600181600116156101000203166002900480601f016020809104026020016040519081016040528092919081815260200182805460018160011615610100020316600290048015610c615780601f10610c3657610100808354040283529160200191610c61565b820191906000526020600020905b815481529060010190602001808311610c4457829003601f168201915b5050505050908060090160009054906101000a900460ff16908060090160019054906101000a900460ff1690508b565b600160003373ffffffffffffffffffffffffffffffffffffffff1673ffffffffffffffffffffffffffffffffffffffff16815260200190815260200160002060009054906101000a900460ff16610d1d576040517f08c379a0000000000000000000000000000000000000000000000000000000008152600401610d149061534e565b60405180910390fd5b610d25614a54565b60026000838152602001908152602001600020604051806101600160405290816000820160009054906101000a900473ffffffffffffffffffffffffffffffffffffffff1673ffffffffffffffffffffffffffffffffffffffff1673ffffffffffffffffffffffffffffffffffffffff16815260200160018201548152602001600282018054600181600116156101000203166002900480601f016020809104026020016040519081016040528092919081815260200182805460018160011615610100020316600290048015610e3d5780601f10610e1257610100808354040283529160200191610e3d565b820191906000526020600020905b815481529060010190602001808311610e2057829003601f168201915b50505050508152602001600382018054600181600116156101000203166002900480601f016020809104026020016040519081016040528092919081815260200182805460018160011615610100020316600290048015610edf5780601f10610eb457610100808354040283529160200191610edf565b820191906000526020600020905b815481529060010190602001808311610ec257829003601f168201915b50505050508152602001600482018054600181600116156101000203166002900480601f016020809104026020016040519081016040528092919081815260200182805460018160011615610100020316600290048015610f815780601f10610f5657610100808354040283529160200191610f81565b820191906000526020600020905b815481529060010190602001808311610f6457829003601f168201915b50505050508152602001600582018054600181600116156101000203166002900480601f0160208091040260200160405190810160405280929190818152602001828054600181600116156101000203166002900480156110235780601f10610ff857610100808354040283529160200191611023565b820191906000526020600020905b81548152906001019060200180831161100657829003601f168201915b50505050508152602001600682018054600181600116156101000203166002900480601f0160208091040260200160405190810160405280929190818152602001828054600181600116156101000203166002900480156110c55780601f1061109a576101008083540402835291602001916110c5565b820191906000526020600020905b8154815290600101906020018083116110a857829003601f168201915b50505050508152602001600782018054600181600116156101000203166002900480601f0160208091040260200160405190810160405280929190818152602001828054600181600116156101000203166002900480156111675780601f1061113c57610100808354040283529160200191611167565b820191906000526020600020905b81548152906001019060200180831161114a57829003601f168201915b50505050508152602001600882018054600181600116156101000203166002900480601f0160208091040260200160405190810160405280929190818152602001828054600181600116156101000203166002900480156112095780601f106111de57610100808354040283529160200191611209565b820191906000526020600020905b8154815290600101906020018083116111ec57829003601f168201915b505050505081526020016009820160009054906101000a900460ff161515151581526020016009820160019054906101000a900460ff1615151515815250509050604051806101600160405280826000015173ffffffffffffffffffffffffffffffffffffffff168152602001826020015181526020018260400151815260200182606001518152602001826080015181526020018260a0015181526020018260c0015181526020018260e0015181526020018261010001518152602001600015158152602001600015158152506002600084815260200190815260200160002060008201518160000160006101000a81548173ffffffffffffffffffffffffffffffffffffffff021916908373ffffffffffffffffffffffffffffffffffffffff160217905550602082015181600101556040820151816002019080519060200190611357929190614ac8565b506060820151816003019080519060200190611374929190614ac8565b506080820151816004019080519060200190611391929190614ac8565b5060a08201518160050190805190602001906113ae929190614ac8565b5060c08201518160060190805190602001906113cb929190614ac8565b5060e08201518160070190805190602001906113e8929190614ac8565b50610100820151816008019080519060200190611406929190614ac8565b506101208201518160090160006101000a81548160ff0219169083151502179055506101408201518160090160016101000a81548160ff021916908315150217905550905050604051806101600160405280826000015173ffffffffffffffffffffffffffffffffffffffff168152602001826020015181526020018260400151815260200182606001518152602001826080015181526020018260a0015181526020018260c0015181526020018260e00151815260200182610100015181526020016000151581526020016000151581525060036000836000015173ffffffffffffffffffffffffffffffffffffffff1673ffffffffffffffffffffffffffffffffffffffff16815260200190815260200160002060008201518160000160006101000a81548173ffffffffffffffffffffffffffffffffffffffff021916908373ffffffffffffffffffffffffffffffffffffffff160217905550602082015181600101556040820151816002019080519060200190611589929190614ac8565b5060608201518160030190805190602001906115a6929190614ac8565b5060808201518160040190805190602001906115c3929190614ac8565b5060a08201518160050190805190602001906115e0929190614ac8565b5060c08201518160060190805190602001906115fd929190614ac8565b5060e082015181600701908051906020019061161a929190614ac8565b50610100820151816008019080519060200190611638929190614ac8565b506101208201518160090160006101000a81548160ff0219169083151502179055506101408201518160090160016101000a81548160ff0219169083151502179055509050505050565b60018060003373ffffffffffffffffffffffffffffffffffffffff1673ffffffffffffffffffffffffffffffffffffffff16815260200190815260200160002060006101000a81548160ff021916908315150217905550565b6060600060055414156117205760006040519080825280602002602001820160405280156117185781602001602082028038833980820191505090505b509050611864565b60606005546040519080825280602002602001820160405280156117535781602001602082028038833980820191505090505b50905060008090506000600190505b60055481116117e057600015156002600083815260200190815260200160002060090160019054906101000a900460ff16151514156117d35760026000828152602001908152602001600020600101548383815181106117be57fe5b60200260200101818152505081806001019250505b8080600101915050611762565b506060816040519080825280602002602001820160405280156118125781602001602082028038833980820191505090505b50905060008090505b8281101561185c5783818151811061182f57fe5b602002602001015182828151811061184357fe5b602002602001018181525050808060010191505061181b565b508093505050505b90565b61186f6149f0565b6000600190505b6004548111611d62578273ffffffffffffffffffffffffffffffffffffffff1660008083815260200190815260200160002060010160009054906101000a900473ffffffffffffffffffffffffffffffffffffffff1673ffffffffffffffffffffffffffffffffffffffff161415611d555760008082815260200190815260200160002060405180610120016040529081600082015481526020016001820160009054906101000a900473ffffffffffffffffffffffffffffffffffffffff1673ffffffffffffffffffffffffffffffffffffffff1673ffffffffffffffffffffffffffffffffffffffff168152602001600282018054600181600116156101000203166002900480601f0160208091040260200160405190810160405280929190818152602001828054600181600116156101000203166002900480156119ff5780601f106119d4576101008083540402835291602001916119ff565b820191906000526020600020905b8154815290600101906020018083116119e257829003601f168201915b50505050508152602001600382018054600181600116156101000203166002900480601f016020809104026020016040519081016040528092919081815260200182805460018160011615610100020316600290048015611aa15780601f10611a7657610100808354040283529160200191611aa1565b820191906000526020600020905b815481529060010190602001808311611a8457829003601f168201915b50505050508152602001600482018054600181600116156101000203166002900480601f016020809104026020016040519081016040528092919081815260200182805460018160011615610100020316600290048015611b435780601f10611b1857610100808354040283529160200191611b43565b820191906000526020600020905b815481529060010190602001808311611b2657829003601f168201915b50505050508152602001600582018054600181600116156101000203166002900480601f016020809104026020016040519081016040528092919081815260200182805460018160011615610100020316600290048015611be55780601f10611bba57610100808354040283529160200191611be5565b820191906000526020600020905b815481529060010190602001808311611bc857829003601f168201915b50505050508152602001600682018054600181600116156101000203166002900480601f016020809104026020016040519081016040528092919081815260200182805460018160011615610100020316600290048015611c875780601f10611c5c57610100808354040283529160200191611c87565b820191906000526020600020905b815481529060010190602001808311611c6a57829003601f168201915b50505050508152602001600782018054600181600116156101000203166002900480601f016020809104026020016040519081016040528092919081815260200182805460018160011615610100020316600290048015611d295780601f10611cfe57610100808354040283529160200191611d29565b820191906000526020600020905b815481529060010190602001808311611d0c57829003601f168201915b505050505081526020016008820160009054906101000a900460ff1615151515815250509150506121cb565b8080600101915050611876565b5060008080815260200190815260200160002060405180610120016040529081600082015481526020016001820160009054906101000a900473ffffffffffffffffffffffffffffffffffffffff1673ffffffffffffffffffffffffffffffffffffffff1673ffffffffffffffffffffffffffffffffffffffff168152602001600282018054600181600116156101000203166002900480601f016020809104026020016040519081016040528092919081815260200182805460018160011615610100020316600290048015611e7a5780601f10611e4f57610100808354040283529160200191611e7a565b820191906000526020600020905b815481529060010190602001808311611e5d57829003601f168201915b50505050508152602001600382018054600181600116156101000203166002900480601f016020809104026020016040519081016040528092919081815260200182805460018160011615610100020316600290048015611f1c5780601f10611ef157610100808354040283529160200191611f1c565b820191906000526020600020905b815481529060010190602001808311611eff57829003601f168201915b50505050508152602001600482018054600181600116156101000203166002900480601f016020809104026020016040519081016040528092919081815260200182805460018160011615610100020316600290048015611fbe5780601f10611f9357610100808354040283529160200191611fbe565b820191906000526020600020905b815481529060010190602001808311611fa157829003601f168201915b50505050508152602001600582018054600181600116156101000203166002900480601f0160208091040260200160405190810160405280929190818152602001828054600181600116156101000203166002900480156120605780601f1061203557610100808354040283529160200191612060565b820191906000526020600020905b81548152906001019060200180831161204357829003601f168201915b50505050508152602001600682018054600181600116156101000203166002900480601f0160208091040260200160405190810160405280929190818152602001828054600181600116156101000203166002900480156121025780601f106120d757610100808354040283529160200191612102565b820191906000526020600020905b8154815290600101906020018083116120e557829003601f168201915b50505050508152602001600782018054600181600116156101000203166002900480601f0160208091040260200160405190810160405280929190818152602001828054600181600116156101000203166002900480156121a45780601f10612179576101008083540402835291602001916121a4565b820191906000526020600020905b81548152906001019060200180831161218757829003601f168201915b505050505081526020016008820160009054906101000a900460ff16151515158152505090505b919050565b60046000815480929190600101919050555060405180610120016040528060045481526020018673ffffffffffffffffffffffffffffffffffffffff1681526020018581526020018481526020018381526020016040518060200160405280600081525081526020018281526020016040518060200160405280600081525081526020016000151581525060008060045481526020019081526020016000206000820151816000015560208201518160010160006101000a81548173ffffffffffffffffffffffffffffffffffffffff021916908373ffffffffffffffffffffffffffffffffffffffff16021790555060408201518160020190805190602001906122dc929190614ac8565b5060608201518160030190805190602001906122f9929190614ac8565b506080820151816004019080519060200190612316929190614ac8565b5060a0820151816005019080519060200190612333929190614ac8565b5060c0820151816006019080519060200190612350929190614ac8565b5060e082015181600701908051906020019061236d929190614ac8565b506101008201518160080160006101000a81548160ff0219169083151502179055509050505050505050565b6000600554905090565b6060600060045414156123e85760006040519080825280602002602001820160405280156123e05781602001602082028038833980820191505090505b50905061247d565b606060045460405190808252806020026020018201604052801561241b5781602001602082028038833980820191505090505b50905060008090506000600190505b6004548111612476576000808281526020019081526020016000206000015483838151811061245557fe5b6020026020010181815250508180600101925050808060010191505061242a565b5081925050505b90565b600160003373ffffffffffffffffffffffffffffffffffffffff1673ffffffffffffffffffffffffffffffffffffffff16815260200190815260200160002060009054906101000a900460ff1661250c576040517f08c379a00000000000000000000000000000000000000000000000000000000081526004016125039061534e565b60405180910390fd5b612514614a54565b60026000838152602001908152602001600020604051806101600160405290816000820160009054906101000a900473ffffffffffffffffffffffffffffffffffffffff1673ffffffffffffffffffffffffffffffffffffffff1673ffffffffffffffffffffffffffffffffffffffff16815260200160018201548152602001600282018054600181600116156101000203166002900480601f01602080910402602001604051908101604052809291908181526020018280546001816001161561010002031660029004801561262c5780601f106126015761010080835404028352916020019161262c565b820191906000526020600020905b81548152906001019060200180831161260f57829003601f168201915b50505050508152602001600382018054600181600116156101000203166002900480601f0160208091040260200160405190810160405280929190818152602001828054600181600116156101000203166002900480156126ce5780601f106126a3576101008083540402835291602001916126ce565b820191906000526020600020905b8154815290600101906020018083116126b157829003601f168201915b50505050508152602001600482018054600181600116156101000203166002900480601f0160208091040260200160405190810160405280929190818152602001828054600181600116156101000203166002900480156127705780601f1061274557610100808354040283529160200191612770565b820191906000526020600020905b81548152906001019060200180831161275357829003601f168201915b50505050508152602001600582018054600181600116156101000203166002900480601f0160208091040260200160405190810160405280929190818152602001828054600181600116156101000203166002900480156128125780601f106127e757610100808354040283529160200191612812565b820191906000526020600020905b8154815290600101906020018083116127f557829003601f168201915b50505050508152602001600682018054600181600116156101000203166002900480601f0160208091040260200160405190810160405280929190818152602001828054600181600116156101000203166002900480156128b45780601f10612889576101008083540402835291602001916128b4565b820191906000526020600020905b81548152906001019060200180831161289757829003601f168201915b50505050508152602001600782018054600181600116156101000203166002900480601f0160208091040260200160405190810160405280929190818152602001828054600181600116156101000203166002900480156129565780601f1061292b57610100808354040283529160200191612956565b820191906000526020600020905b81548152906001019060200180831161293957829003601f168201915b50505050508152602001600882018054600181600116156101000203166002900480601f0160208091040260200160405190810160405280929190818152602001828054600181600116156101000203166002900480156129f85780601f106129cd576101008083540402835291602001916129f8565b820191906000526020600020905b8154815290600101906020018083116129db57829003601f168201915b505050505081526020016009820160009054906101000a900460ff161515151581526020016009820160019054906101000a900460ff1615151515815250509050604051806101600160405280826000015173ffffffffffffffffffffffffffffffffffffffff168152602001826020015181526020018260400151815260200182606001518152602001826080015181526020018260a0015181526020018260c0015181526020018260e0015181526020018261010001518152602001600015158152602001600115158152506002600084815260200190815260200160002060008201518160000160006101000a81548173ffffffffffffffffffffffffffffffffffffffff021916908373ffffffffffffffffffffffffffffffffffffffff160217905550602082015181600101556040820151816002019080519060200190612b46929190614ac8565b506060820151816003019080519060200190612b63929190614ac8565b506080820151816004019080519060200190612b80929190614ac8565b5060a0820151816005019080519060200190612b9d929190614ac8565b5060c0820151816006019080519060200190612bba929190614ac8565b5060e0820151816007019080519060200190612bd7929190614ac8565b50610100820151816008019080519060200190612bf5929190614ac8565b506101208201518160090160006101000a81548160ff0219169083151502179055506101408201518160090160016101000a81548160ff021916908315150217905550905050604051806101600160405280826000015173ffffffffffffffffffffffffffffffffffffffff168152602001826020015181526020018260400151815260200182606001518152602001826080015181526020018260a0015181526020018260c0015181526020018260e00151815260200182610100015181526020016000151581526020016001151581525060036000836000015173ffffffffffffffffffffffffffffffffffffffff1673ffffffffffffffffffffffffffffffffffffffff16815260200190815260200160002060008201518160000160006101000a81548173ffffffffffffffffffffffffffffffffffffffff021916908373ffffffffffffffffffffffffffffffffffffffff160217905550602082015181600101556040820151816002019080519060200190612d78929190614ac8565b506060820151816003019080519060200190612d95929190614ac8565b506080820151816004019080519060200190612db2929190614ac8565b5060a0820151816005019080519060200190612dcf929190614ac8565b5060c0820151816006019080519060200190612dec929190614ac8565b5060e0820151816007019080519060200190612e09929190614ac8565b50610100820151816008019080519060200190612e27929190614ac8565b506101208201518160090160006101000a81548160ff0219169083151502179055506101408201518160090160016101000a81548160ff0219169083151502179055509050506004600081548092919060010191905055506040518061012001604052806004548152602001826000015173ffffffffffffffffffffffffffffffffffffffff168152602001826060015181526020018260a0015181526020018260c001518152602001826080015181526020018260e00151815260200182610100015181526020016001151581525060008060045481526020019081526020016000206000820151816000015560208201518160010160006101000a81548173ffffffffffffffffffffffffffffffffffffffff021916908373ffffffffffffffffffffffffffffffffffffffff1602179055506040820151816002019080519060200190612f78929190614ac8565b506060820151816003019080519060200190612f95929190614ac8565b506080820151816004019080519060200190612fb2929190614ac8565b5060a0820151816005019080519060200190612fcf929190614ac8565b5060c0820151816006019080519060200190612fec929190614ac8565b5060e0820151816007019080519060200190613009929190614ac8565b506101008201518160080160006101000a81548160ff0219169083151502179055509050505050565b60036020528060005260406000206000915090508060000160009054906101000a900473ffffffffffffffffffffffffffffffffffffffff1690806001015490806002018054600181600116156101000203166002900480601f01602080910402602001604051908101604052809291908181526020018280546001816001161561010002031660029004801561310a5780601f106130df5761010080835404028352916020019161310a565b820191906000526020600020905b8154815290600101906020018083116130ed57829003601f168201915b505050505090806003018054600181600116156101000203166002900480601f0160208091040260200160405190810160405280929190818152602001828054600181600116156101000203166002900480156131a85780601f1061317d576101008083540402835291602001916131a8565b820191906000526020600020905b81548152906001019060200180831161318b57829003601f168201915b505050505090806004018054600181600116156101000203166002900480601f0160208091040260200160405190810160405280929190818152602001828054600181600116156101000203166002900480156132465780601f1061321b57610100808354040283529160200191613246565b820191906000526020600020905b81548152906001019060200180831161322957829003601f168201915b505050505090806005018054600181600116156101000203166002900480601f0160208091040260200160405190810160405280929190818152602001828054600181600116156101000203166002900480156132e45780601f106132b9576101008083540402835291602001916132e4565b820191906000526020600020905b8154815290600101906020018083116132c757829003601f168201915b505050505090806006018054600181600116156101000203166002900480601f0160208091040260200160405190810160405280929190818152602001828054600181600116156101000203166002900480156133825780601f1061335757610100808354040283529160200191613382565b820191906000526020600020905b81548152906001019060200180831161336557829003601f168201915b505050505090806007018054600181600116156101000203166002900480601f0160208091040260200160405190810160405280929190818152602001828054600181600116156101000203166002900480156134205780601f106133f557610100808354040283529160200191613420565b820191906000526020600020905b81548152906001019060200180831161340357829003601f168201915b505050505090806008018054600181600116156101000203166002900480601f0160208091040260200160405190810160405280929190818152602001828054600181600116156101000203166002900480156134be5780601f10613493576101008083540402835291602001916134be565b820191906000526020600020905b8154815290600101906020018083116134a157829003601f168201915b5050505050908060090160009054906101000a900460ff16908060090160019054906101000a900460ff1690508b565b60016020528060005260406000206000915054906101000a900460ff1681565b60006020528060005260406000206000915090508060000154908060010160009054906101000a900473ffffffffffffffffffffffffffffffffffffffff1690806002018054600181600116156101000203166002900480601f0160208091040260200160405190810160405280929190818152602001828054600181600116156101000203166002900480156135e65780601f106135bb576101008083540402835291602001916135e6565b820191906000526020600020905b8154815290600101906020018083116135c957829003601f168201915b505050505090806003018054600181600116156101000203166002900480601f0160208091040260200160405190810160405280929190818152602001828054600181600116156101000203166002900480156136845780601f1061365957610100808354040283529160200191613684565b820191906000526020600020905b81548152906001019060200180831161366757829003601f168201915b505050505090806004018054600181600116156101000203166002900480601f0160208091040260200160405190810160405280929190818152602001828054600181600116156101000203166002900480156137225780601f106136f757610100808354040283529160200191613722565b820191906000526020600020905b81548152906001019060200180831161370557829003601f168201915b505050505090806005018054600181600116156101000203166002900480601f0160208091040260200160405190810160405280929190818152602001828054600181600116156101000203166002900480156137c05780601f10613795576101008083540402835291602001916137c0565b820191906000526020600020905b8154815290600101906020018083116137a357829003601f168201915b505050505090806006018054600181600116156101000203166002900480601f01602080910402602001604051908101604052809291908181526020018280546001816001161561010002031660029004801561385e5780601f106138335761010080835404028352916020019161385e565b820191906000526020600020905b81548152906001019060200180831161384157829003601f168201915b505050505090806007018054600181600116156101000203166002900480601f0160208091040260200160405190810160405280929190818152602001828054600181600116156101000203166002900480156138fc5780601f106138d1576101008083540402835291602001916138fc565b820191906000526020600020905b8154815290600101906020018083116138df57829003601f168201915b5050505050908060080160009054906101000a900460ff16905089565b6060613923614a54565b600360008473ffffffffffffffffffffffffffffffffffffffff1673ffffffffffffffffffffffffffffffffffffffff168152602001908152602001600020604051806101600160405290816000820160009054906101000a900473ffffffffffffffffffffffffffffffffffffffff1673ffffffffffffffffffffffffffffffffffffffff1673ffffffffffffffffffffffffffffffffffffffff16815260200160018201548152602001600282018054600181600116156101000203166002900480601f016020809104026020016040519081016040528092919081815260200182805460018160011615610100020316600290048015613a675780601f10613a3c57610100808354040283529160200191613a67565b820191906000526020600020905b815481529060010190602001808311613a4a57829003601f168201915b50505050508152602001600382018054600181600116156101000203166002900480601f016020809104026020016040519081016040528092919081815260200182805460018160011615610100020316600290048015613b095780601f10613ade57610100808354040283529160200191613b09565b820191906000526020600020905b815481529060010190602001808311613aec57829003601f168201915b50505050508152602001600482018054600181600116156101000203166002900480601f016020809104026020016040519081016040528092919081815260200182805460018160011615610100020316600290048015613bab5780601f10613b8057610100808354040283529160200191613bab565b820191906000526020600020905b815481529060010190602001808311613b8e57829003601f168201915b50505050508152602001600582018054600181600116156101000203166002900480601f016020809104026020016040519081016040528092919081815260200182805460018160011615610100020316600290048015613c4d5780601f10613c2257610100808354040283529160200191613c4d565b820191906000526020600020905b815481529060010190602001808311613c3057829003601f168201915b50505050508152602001600682018054600181600116156101000203166002900480601f016020809104026020016040519081016040528092919081815260200182805460018160011615610100020316600290048015613cef5780601f10613cc457610100808354040283529160200191613cef565b820191906000526020600020905b815481529060010190602001808311613cd257829003601f168201915b50505050508152602001600782018054600181600116156101000203166002900480601f016020809104026020016040519081016040528092919081815260200182805460018160011615610100020316600290048015613d915780601f10613d6657610100808354040283529160200191613d91565b820191906000526020600020905b815481529060010190602001808311613d7457829003601f168201915b50505050508152602001600882018054600181600116156101000203166002900480601f016020809104026020016040519081016040528092919081815260200182805460018160011615610100020316600290048015613e335780601f10613e0857610100808354040283529160200191613e33565b820191906000526020600020905b815481529060010190602001808311613e1657829003601f168201915b505050505081526020016009820160009054906101000a900460ff161515151581526020016009820160019054906101000a900460ff1615151515815250509050600073ffffffffffffffffffffffffffffffffffffffff16816000015173ffffffffffffffffffffffffffffffffffffffff161415613eeb576040518060400160405280600481526020017f6e756c6c00000000000000000000000000000000000000000000000000000000815250915050613fb7565b80610120015115613f34576040518060400160405280600781526020017f70656e64696e6700000000000000000000000000000000000000000000000000815250915050613fb7565b80610140015115613f7d576040518060400160405280600881526020017f617070726f766564000000000000000000000000000000000000000000000000815250915050613fb7565b6040518060400160405280600781526020017f72656675736564000000000000000000000000000000000000000000000000008152509150505b919050565b6005600081548092919060010191905055506040518061016001604052808873ffffffffffffffffffffffffffffffffffffffff16815260200160055481526020018781526020018681526020018581526020018481526020016040518060200160405280600081525081526020018381526020018281526020016001151581526020016000151581525060026000600554815260200190815260200160002060008201518160000160006101000a81548173ffffffffffffffffffffffffffffffffffffffff021916908373ffffffffffffffffffffffffffffffffffffffff1602179055506020820151816001015560408201518160020190805190602001906140c9929190614ac8565b5060608201518160030190805190602001906140e6929190614ac8565b506080820151816004019080519060200190614103929190614ac8565b5060a0820151816005019080519060200190614120929190614ac8565b5060c082015181600601908051906020019061413d929190614ac8565b5060e082015181600701908051906020019061415a929190614ac8565b50610100820151816008019080519060200190614178929190614ac8565b506101208201518160090160006101000a81548160ff0219169083151502179055506101408201518160090160016101000a81548160ff0219169083151502179055509050506040518061016001604052808873ffffffffffffffffffffffffffffffffffffffff168152602001600554815260200187815260200186815260200185815260200184815260200160405180602001604052806000815250815260200183815260200182815260200160011515815260200160001515815250600360008973ffffffffffffffffffffffffffffffffffffffff1673ffffffffffffffffffffffffffffffffffffffff16815260200190815260200160002060008201518160000160006101000a81548173ffffffffffffffffffffffffffffffffffffffff021916908373ffffffffffffffffffffffffffffffffffffffff1602179055506020820151816001015560408201518160020190805190602001906142e3929190614ac8565b506060820151816003019080519060200190614300929190614ac8565b50608082015181600401908051906020019061431d929190614ac8565b5060a082015181600501908051906020019061433a929190614ac8565b5060c0820151816006019080519060200190614357929190614ac8565b5060e0820151816007019080519060200190614374929190614ac8565b50610100820151816008019080519060200190614392929190614ac8565b506101208201518160090160006101000a81548160ff0219169083151502179055506101408201518160090160016101000a81548160ff02191690831515021790555090505050505050505050565b6143e96149f0565b60008089815260200190815260200160002060405180610120016040529081600082015481526020016001820160009054906101000a900473ffffffffffffffffffffffffffffffffffffffff1673ffffffffffffffffffffffffffffffffffffffff1673ffffffffffffffffffffffffffffffffffffffff168152602001600282018054600181600116156101000203166002900480601f0160208091040260200160405190810160405280929190818152602001828054600181600116156101000203166002900480156145005780601f106144d557610100808354040283529160200191614500565b820191906000526020600020905b8154815290600101906020018083116144e357829003601f168201915b50505050508152602001600382018054600181600116156101000203166002900480601f0160208091040260200160405190810160405280929190818152602001828054600181600116156101000203166002900480156145a25780601f10614577576101008083540402835291602001916145a2565b820191906000526020600020905b81548152906001019060200180831161458557829003601f168201915b50505050508152602001600482018054600181600116156101000203166002900480601f0160208091040260200160405190810160405280929190818152602001828054600181600116156101000203166002900480156146445780601f1061461957610100808354040283529160200191614644565b820191906000526020600020905b81548152906001019060200180831161462757829003601f168201915b50505050508152602001600582018054600181600116156101000203166002900480601f0160208091040260200160405190810160405280929190818152602001828054600181600116156101000203166002900480156146e65780601f106146bb576101008083540402835291602001916146e6565b820191906000526020600020905b8154815290600101906020018083116146c957829003601f168201915b50505050508152602001600682018054600181600116156101000203166002900480601f0160208091040260200160405190810160405280929190818152602001828054600181600116156101000203166002900480156147885780601f1061475d57610100808354040283529160200191614788565b820191906000526020600020905b81548152906001019060200180831161476b57829003601f168201915b50505050508152602001600782018054600181600116156101000203166002900480601f01602080910402602001604051908101604052809291908181526020018280546001816001161561010002031660029004801561482a5780601f106147ff5761010080835404028352916020019161482a565b820191906000526020600020905b81548152906001019060200180831161480d57829003601f168201915b505050505081526020016008820160009054906101000a900460ff1615151515815250509050604051806101200160405280898152602001826020015173ffffffffffffffffffffffffffffffffffffffff16815260200188815260200187815260200186815260200184815260200185815260200183815260200182610100015115158152506000808a81526020019081526020016000206000820151816000015560208201518160010160006101000a81548173ffffffffffffffffffffffffffffffffffffffff021916908373ffffffffffffffffffffffffffffffffffffffff1602179055506040820151816002019080519060200190614930929190614ac8565b50606082015181600301908051906020019061494d929190614ac8565b50608082015181600401908051906020019061496a929190614ac8565b5060a0820151816005019080519060200190614987929190614ac8565b5060c08201518160060190805190602001906149a4929190614ac8565b5060e08201518160070190805190602001906149c1929190614ac8565b506101008201518160080160006101000a81548160ff0219169083151502179055509050505050505050505050565b60405180610120016040528060008152602001600073ffffffffffffffffffffffffffffffffffffffff1681526020016060815260200160608152602001606081526020016060815260200160608152602001606081526020016000151581525090565b604051806101600160405280600073ffffffffffffffffffffffffffffffffffffffff16815260200160008152602001606081526020016060815260200160608152602001606081526020016060815260200160608152602001606081526020016000151581526020016000151581525090565b828054600181600116156101000203166002900490600052602060002090601f016020900481019282601f10614b0957805160ff1916838001178555614b37565b82800160010185558215614b37579182015b82811115614b36578251825591602001919060010190614b1b565b5b509050614b449190614b48565b5090565b614b6a91905b80821115614b66576000816000905550600101614b4e565b5090565b90565b600081359050614b7c816155c7565b92915050565b600082601f830112614b9357600080fd5b8135614ba6614ba18261548f565b615462565b91508082526020830160208301858383011115614bc257600080fd5b614bcd838284615574565b50505092915050565b600081359050614be5816155de565b92915050565b600060208284031215614bfd57600080fd5b6000614c0b84828501614b6d565b91505092915050565b600080600080600060a08688031215614c2c57600080fd5b6000614c3a88828901614b6d565b955050602086013567ffffffffffffffff811115614c5757600080fd5b614c6388828901614b82565b945050604086013567ffffffffffffffff811115614c8057600080fd5b614c8c88828901614b82565b935050606086013567ffffffffffffffff811115614ca957600080fd5b614cb588828901614b82565b925050608086013567ffffffffffffffff811115614cd257600080fd5b614cde88828901614b82565b9150509295509295909350565b600080600080600080600060e0888a031215614d0657600080fd5b6000614d148a828b01614b6d565b975050602088013567ffffffffffffffff811115614d3157600080fd5b614d3d8a828b01614b82565b965050604088013567ffffffffffffffff811115614d5a57600080fd5b614d668a828b01614b82565b955050606088013567ffffffffffffffff811115614d8357600080fd5b614d8f8a828b01614b82565b945050608088013567ffffffffffffffff811115614dac57600080fd5b614db88a828b01614b82565b93505060a088013567ffffffffffffffff811115614dd557600080fd5b614de18a828b01614b82565b92505060c088013567ffffffffffffffff811115614dfe57600080fd5b614e0a8a828b01614b82565b91505092959891949750929550565b600060208284031215614e2b57600080fd5b6000614e3984828501614bd6565b91505092915050565b600080600080600080600060e0888a031215614e5d57600080fd5b6000614e6b8a828b01614bd6565b975050602088013567ffffffffffffffff811115614e8857600080fd5b614e948a828b01614b82565b965050604088013567ffffffffffffffff811115614eb157600080fd5b614ebd8a828b01614b82565b955050606088013567ffffffffffffffff811115614eda57600080fd5b614ee68a828b01614b82565b945050608088013567ffffffffffffffff811115614f0357600080fd5b614f0f8a828b01614b82565b93505060a088013567ffffffffffffffff811115614f2c57600080fd5b614f388a828b01614b82565b92505060c088013567ffffffffffffffff811115614f5557600080fd5b614f618a828b01614b82565b91505092959891949750929550565b6000614f7c83836151f5565b60208301905092915050565b614f918161552c565b82525050565b614fa08161552c565b82525050565b6000614fb1826154cb565b614fbb81856154f9565b9350614fc6836154bb565b8060005b83811015614ff7578151614fde8882614f70565b9750614fe9836154ec565b925050600181019050614fca565b5085935050505092915050565b61500d8161553e565b82525050565b61501c8161553e565b82525050565b600061502d826154e1565b615037818561551b565b9350615047818560208601615583565b615050816155b6565b840191505092915050565b6000615066826154d6565b615070818561550a565b9350615080818560208601615583565b615089816155b6565b840191505092915050565b600061509f826154d6565b6150a9818561551b565b93506150b9818560208601615583565b6150c2816155b6565b840191505092915050565b60006150da60118361551b565b91507f596f7520617265206e6f742061646d696e0000000000000000000000000000006000830152602082019050919050565b60006101208301600083015161512660008601826151f5565b5060208301516151396020860182614f88565b5060408301518482036040860152615151828261505b565b9150506060830151848203606086015261516b828261505b565b91505060808301518482036080860152615185828261505b565b91505060a083015184820360a086015261519f828261505b565b91505060c083015184820360c08601526151b9828261505b565b91505060e083015184820360e08601526151d3828261505b565b9150506101008301516151ea610100860182615004565b508091505092915050565b6151fe8161556a565b82525050565b61520d8161556a565b82525050565b600061016082019050615229600083018e614f97565b615236602083018d615204565b8181036040830152615248818c615094565b9050818103606083015261525c818b615094565b90508181036080830152615270818a615094565b905081810360a08301526152848189615094565b905081810360c08301526152988188615094565b905081810360e08301526152ac8187615094565b90508181036101008301526152c18186615094565b90506152d1610120830185615013565b6152df610140830184615013565b9c9b505050505050505050505050565b600060208201905081810360008301526153098184614fa6565b905092915050565b60006020820190506153266000830184615013565b92915050565b600060208201905081810360008301526153468184615022565b905092915050565b60006020820190508181036000830152615367816150cd565b9050919050565b60006020820190508181036000830152615388818461510d565b905092915050565b60006020820190506153a56000830184615204565b92915050565b6000610120820190506153c1600083018c615204565b6153ce602083018b614f97565b81810360408301526153e0818a615094565b905081810360608301526153f48189615094565b905081810360808301526154088188615094565b905081810360a083015261541c8187615094565b905081810360c08301526154308186615094565b905081810360e08301526154448185615094565b9050615454610100830184615013565b9a9950505050505050505050565b6000604051905081810181811067ffffffffffffffff8211171561548557600080fd5b8060405250919050565b600067ffffffffffffffff8211156154a657600080fd5b601f19601f8301169050602081019050919050565b6000819050602082019050919050565b600081519050919050565b600081519050919050565b600081519050919050565b6000602082019050919050565b600082825260208201905092915050565b600082825260208201905092915050565b600082825260208201905092915050565b60006155378261554a565b9050919050565b60008115159050919050565b600073ffffffffffffffffffffffffffffffffffffffff82169050919050565b6000819050919050565b82818337600083830152505050565b60005b838110156155a1578082015181840152602081019050615586565b838111156155b0576000848401525b50505050565b6000601f19601f8301169050919050565b6155d08161552c565b81146155db57600080fd5b50565b6155e78161556a565b81146155f257600080fd5b5056fea365627a7a7231582053ddd0a55d2fb8be6db38c2ee0c0ec046c63d2bde7bb66ea9c737149cd343c816c6578706572696d656e74616cf564736f6c63430005110040",
  "compiler": {
    "name": "solc",
    "version": "0.5.17+commit.d19bba13.Emscripten.clang",
    "optimizer": {
      "enabled": false,
      "runs": 200
    },
    "evmVersion": "petersburg"
  }
}