{
  "fileName": "Testy.sol",
  "contractName": "testy",
  "source": "pragma experimental ABIEncoderV2;\npragma solidity >0.4.99 <0.6.0;\n\n\ncontract testy {\n    function initContract() public {\n        accounts[1] = account(\n            1,\n            0x1AB71030E9D220588c1FE5DCE9783886eEd7713C,\n            \"_userName\",\n            \"_email\",\n            \"phoneNumber\",\n            \"_phAddress\",\n            \"_password\",\n            \"logoLink\",\n            true\n        );\n    }\n\n    struct account {\n        uint256 id;\n        address owner;\n        string userName;\n        string email;\n        string phoneNumber;\n        string phAddress;\n        string password;\n        string logoLink;\n        bool labo;\n    }\n\n    mapping(uint256 => account) public accounts;\n\n    function editUserInfo(\n        uint256 _id,\n        string memory _userName,\n        string memory _email,\n        string memory phoneNumber,\n        string memory _password,\n        string memory _phAddress,\n        string memory logoLink\n    ) public {\n        account memory userAccount = accounts[_id];\n        //  require(userAccount.owner == msg.sender, \"This is not your acccount\");\n        accounts[_id] = account(\n            _id,\n            userAccount.owner,\n            _userName,\n            _email,\n            phoneNumber,\n            _phAddress,\n            _password,\n            logoLink,\n            userAccount.labo\n        );\n    }\n}\n",
  "sourcePath": "contracts/Testy.sol",
  "abi": [
    {
      "constant": true,
      "inputs": [
        {
          "internalType": "uint256",
          "name": "",
          "type": "uint256"
        }
      ],
      "name": "accounts",
      "outputs": [
        {
          "internalType": "uint256",
          "name": "id",
          "type": "uint256"
        },
        {
          "internalType": "address",
          "name": "owner",
          "type": "address"
        },
        {
          "internalType": "string",
          "name": "userName",
          "type": "string"
        },
        {
          "internalType": "string",
          "name": "email",
          "type": "string"
        },
        {
          "internalType": "string",
          "name": "phoneNumber",
          "type": "string"
        },
        {
          "internalType": "string",
          "name": "phAddress",
          "type": "string"
        },
        {
          "internalType": "string",
          "name": "password",
          "type": "string"
        },
        {
          "internalType": "string",
          "name": "logoLink",
          "type": "string"
        },
        {
          "internalType": "bool",
          "name": "labo",
          "type": "bool"
        }
      ],
      "payable": false,
      "stateMutability": "view",
      "type": "function"
    },
    {
      "constant": false,
      "inputs": [
        {
          "internalType": "uint256",
          "name": "_id",
          "type": "uint256"
        },
        {
          "internalType": "string",
          "name": "_userName",
          "type": "string"
        },
        {
          "internalType": "string",
          "name": "_email",
          "type": "string"
        },
        {
          "internalType": "string",
          "name": "phoneNumber",
          "type": "string"
        },
        {
          "internalType": "string",
          "name": "_password",
          "type": "string"
        },
        {
          "internalType": "string",
          "name": "_phAddress",
          "type": "string"
        },
        {
          "internalType": "string",
          "name": "logoLink",
          "type": "string"
        }
      ],
      "name": "editUserInfo",
      "outputs": [],
      "payable": false,
      "stateMutability": "nonpayable",
      "type": "function"
    },
    {
      "constant": false,
      "inputs": [],
      "name": "initContract",
      "outputs": [],
      "payable": false,
      "stateMutability": "nonpayable",
      "type": "function"
    }
  ],
  "bytecode": "0x608060405234801561001057600080fd5b506112f2806100206000396000f3fe608060405234801561001057600080fd5b50600436106100415760003560e01c80638203f5fe14610046578063f2a40db814610050578063fd15703614610088575b600080fd5b61004e6100a4565b005b61006a60048036036100659190810190610f14565b610388565b60405161007f999897969594939291906110d1565b60405180910390f35b6100a2600480360361009d9190810190610f3d565b610793565b005b60405180610120016040528060018152602001731ab71030e9d220588c1fe5dce9783886eed7713c73ffffffffffffffffffffffffffffffffffffffff1681526020016040518060400160405280600981526020017f5f757365724e616d65000000000000000000000000000000000000000000000081525081526020016040518060400160405280600681526020017f5f656d61696c000000000000000000000000000000000000000000000000000081525081526020016040518060400160405280600b81526020017f70686f6e654e756d62657200000000000000000000000000000000000000000081525081526020016040518060400160405280600a81526020017f5f7068416464726573730000000000000000000000000000000000000000000081525081526020016040518060400160405280600981526020017f5f70617373776f7264000000000000000000000000000000000000000000000081525081526020016040518060400160405280600881526020017f6c6f676f4c696e6b000000000000000000000000000000000000000000000000815250815260200160011515815250600080600181526020019081526020016000206000820151816000015560208201518160010160006101000a81548173ffffffffffffffffffffffffffffffffffffffff021916908373ffffffffffffffffffffffffffffffffffffffff16021790555060408201518160020190805190602001906102d0929190610da2565b5060608201518160030190805190602001906102ed929190610da2565b50608082015181600401908051906020019061030a929190610da2565b5060a0820151816005019080519060200190610327929190610da2565b5060c0820151816006019080519060200190610344929190610da2565b5060e0820151816007019080519060200190610361929190610da2565b506101008201518160080160006101000a81548160ff021916908315150217905550905050565b60006020528060005260406000206000915090508060000154908060010160009054906101000a900473ffffffffffffffffffffffffffffffffffffffff1690806002018054600181600116156101000203166002900480601f0160208091040260200160405190810160405280929190818152602001828054600181600116156101000203166002900480156104605780601f1061043557610100808354040283529160200191610460565b820191906000526020600020905b81548152906001019060200180831161044357829003601f168201915b505050505090806003018054600181600116156101000203166002900480601f0160208091040260200160405190810160405280929190818152602001828054600181600116156101000203166002900480156104fe5780601f106104d3576101008083540402835291602001916104fe565b820191906000526020600020905b8154815290600101906020018083116104e157829003601f168201915b505050505090806004018054600181600116156101000203166002900480601f01602080910402602001604051908101604052809291908181526020018280546001816001161561010002031660029004801561059c5780601f106105715761010080835404028352916020019161059c565b820191906000526020600020905b81548152906001019060200180831161057f57829003601f168201915b505050505090806005018054600181600116156101000203166002900480601f01602080910402602001604051908101604052809291908181526020018280546001816001161561010002031660029004801561063a5780601f1061060f5761010080835404028352916020019161063a565b820191906000526020600020905b81548152906001019060200180831161061d57829003601f168201915b505050505090806006018054600181600116156101000203166002900480601f0160208091040260200160405190810160405280929190818152602001828054600181600116156101000203166002900480156106d85780601f106106ad576101008083540402835291602001916106d8565b820191906000526020600020905b8154815290600101906020018083116106bb57829003601f168201915b505050505090806007018054600181600116156101000203166002900480601f0160208091040260200160405190810160405280929190818152602001828054600181600116156101000203166002900480156107765780601f1061074b57610100808354040283529160200191610776565b820191906000526020600020905b81548152906001019060200180831161075957829003601f168201915b5050505050908060080160009054906101000a900460ff16905089565b61079b610e22565b60008089815260200190815260200160002060405180610120016040529081600082015481526020016001820160009054906101000a900473ffffffffffffffffffffffffffffffffffffffff1673ffffffffffffffffffffffffffffffffffffffff1673ffffffffffffffffffffffffffffffffffffffff168152602001600282018054600181600116156101000203166002900480601f0160208091040260200160405190810160405280929190818152602001828054600181600116156101000203166002900480156108b25780601f10610887576101008083540402835291602001916108b2565b820191906000526020600020905b81548152906001019060200180831161089557829003601f168201915b50505050508152602001600382018054600181600116156101000203166002900480601f0160208091040260200160405190810160405280929190818152602001828054600181600116156101000203166002900480156109545780601f1061092957610100808354040283529160200191610954565b820191906000526020600020905b81548152906001019060200180831161093757829003601f168201915b50505050508152602001600482018054600181600116156101000203166002900480601f0160208091040260200160405190810160405280929190818152602001828054600181600116156101000203166002900480156109f65780601f106109cb576101008083540402835291602001916109f6565b820191906000526020600020905b8154815290600101906020018083116109d957829003601f168201915b50505050508152602001600582018054600181600116156101000203166002900480601f016020809104026020016040519081016040528092919081815260200182805460018160011615610100020316600290048015610a985780601f10610a6d57610100808354040283529160200191610a98565b820191906000526020600020905b815481529060010190602001808311610a7b57829003601f168201915b50505050508152602001600682018054600181600116156101000203166002900480601f016020809104026020016040519081016040528092919081815260200182805460018160011615610100020316600290048015610b3a5780601f10610b0f57610100808354040283529160200191610b3a565b820191906000526020600020905b815481529060010190602001808311610b1d57829003601f168201915b50505050508152602001600782018054600181600116156101000203166002900480601f016020809104026020016040519081016040528092919081815260200182805460018160011615610100020316600290048015610bdc5780601f10610bb157610100808354040283529160200191610bdc565b820191906000526020600020905b815481529060010190602001808311610bbf57829003601f168201915b505050505081526020016008820160009054906101000a900460ff1615151515815250509050604051806101200160405280898152602001826020015173ffffffffffffffffffffffffffffffffffffffff16815260200188815260200187815260200186815260200184815260200185815260200183815260200182610100015115158152506000808a81526020019081526020016000206000820151816000015560208201518160010160006101000a81548173ffffffffffffffffffffffffffffffffffffffff021916908373ffffffffffffffffffffffffffffffffffffffff1602179055506040820151816002019080519060200190610ce2929190610da2565b506060820151816003019080519060200190610cff929190610da2565b506080820151816004019080519060200190610d1c929190610da2565b5060a0820151816005019080519060200190610d39929190610da2565b5060c0820151816006019080519060200190610d56929190610da2565b5060e0820151816007019080519060200190610d73929190610da2565b506101008201518160080160006101000a81548160ff0219169083151502179055509050505050505050505050565b828054600181600116156101000203166002900490600052602060002090601f016020900481019282601f10610de357805160ff1916838001178555610e11565b82800160010185558215610e11579182015b82811115610e10578251825591602001919060010190610df5565b5b509050610e1e9190610e86565b5090565b60405180610120016040528060008152602001600073ffffffffffffffffffffffffffffffffffffffff1681526020016060815260200160608152602001606081526020016060815260200160608152602001606081526020016000151581525090565b610ea891905b80821115610ea4576000816000905550600101610e8c565b5090565b90565b600082601f830112610ebc57600080fd5b8135610ecf610eca826111b5565b611188565b91508082526020830160208301858383011115610eeb57600080fd5b610ef6838284611245565b50505092915050565b600081359050610f0e81611298565b92915050565b600060208284031215610f2657600080fd5b6000610f3484828501610eff565b91505092915050565b600080600080600080600060e0888a031215610f5857600080fd5b6000610f668a828b01610eff565b975050602088013567ffffffffffffffff811115610f8357600080fd5b610f8f8a828b01610eab565b965050604088013567ffffffffffffffff811115610fac57600080fd5b610fb88a828b01610eab565b955050606088013567ffffffffffffffff811115610fd557600080fd5b610fe18a828b01610eab565b945050608088013567ffffffffffffffff811115610ffe57600080fd5b61100a8a828b01610eab565b93505060a088013567ffffffffffffffff81111561102757600080fd5b6110338a828b01610eab565b92505060c088013567ffffffffffffffff81111561105057600080fd5b61105c8a828b01610eab565b91505092959891949750929550565b611074816111fd565b82525050565b6110838161120f565b82525050565b6000611094826111e1565b61109e81856111ec565b93506110ae818560208601611254565b6110b781611287565b840191505092915050565b6110cb8161123b565b82525050565b6000610120820190506110e7600083018c6110c2565b6110f4602083018b61106b565b8181036040830152611106818a611089565b9050818103606083015261111a8189611089565b9050818103608083015261112e8188611089565b905081810360a08301526111428187611089565b905081810360c08301526111568186611089565b905081810360e083015261116a8185611089565b905061117a61010083018461107a565b9a9950505050505050505050565b6000604051905081810181811067ffffffffffffffff821117156111ab57600080fd5b8060405250919050565b600067ffffffffffffffff8211156111cc57600080fd5b601f19601f8301169050602081019050919050565b600081519050919050565b600082825260208201905092915050565b60006112088261121b565b9050919050565b60008115159050919050565b600073ffffffffffffffffffffffffffffffffffffffff82169050919050565b6000819050919050565b82818337600083830152505050565b60005b83811015611272578082015181840152602081019050611257565b83811115611281576000848401525b50505050565b6000601f19601f8301169050919050565b6112a18161123b565b81146112ac57600080fd5b5056fea365627a7a723158201fe2e0d3cb619907c96b6da9e23380f6c8c9ed66fc5e541832108761610b2b396c6578706572696d656e74616cf564736f6c63430005110040",
  "compiler": {
    "name": "solc",
    "version": "0.5.17+commit.d19bba13.Emscripten.clang",
    "optimizer": {
      "enabled": false,
      "runs": 200
    },
    "evmVersion": "petersburg"
  }
}