{
  "fileName": "Testy.sol",
  "contractName": "testy",
  "source": "pragma experimental ABIEncoderV2;\npragma solidity >0.4.99 <0.6.0;\n\n\ncontract testy {\n    uint256[] public pages;\n\n    constructor() public {\n        pages = [\n            1,\n            2,\n            3,\n            4,\n            5,\n            6,\n            7,\n            8,\n            9,\n            10,\n            11,\n            12,\n            13,\n            14,\n            15,\n            16,\n            17,\n            18,\n            19,\n            20,\n            21,\n            23,\n            24,\n            25,\n            26,\n            27,\n            28,\n            29,\n            30,\n            31,\n            32,\n            34,\n            35,\n            36,\n            37,\n            38,\n            39\n        ];\n    }\n\n    function getPages(uint256 lot)\n        public\n        view\n        returns (uint256[] memory pagesToReturn)\n    {\n        uint256[] memory finalePages = new uint256[](10);\n        uint256 counter = 0;\n        uint256 from = pages.length - 1 - (lot * 10) + 10;\n        uint256 to = from - 9;\n\n        for (uint256 i = from; i >= to && i >= 0; i--) {\n            finalePages[counter] = pages[i];\n\n            counter++;\n        }\n        return finalePages;\n    }\n}\n",
  "sourcePath": "contracts/Testy.sol",
  "abi": [
    {
      "inputs": [],
      "payable": false,
      "stateMutability": "nonpayable",
      "type": "constructor"
    },
    {
      "constant": true,
      "inputs": [
        {
          "internalType": "uint256",
          "name": "lot",
          "type": "uint256"
        }
      ],
      "name": "getPages",
      "outputs": [
        {
          "internalType": "uint256[]",
          "name": "pagesToReturn",
          "type": "uint256[]"
        }
      ],
      "payable": false,
      "stateMutability": "view",
      "type": "function"
    },
    {
      "constant": true,
      "inputs": [
        {
          "internalType": "uint256",
          "name": "",
          "type": "uint256"
        }
      ],
      "name": "pages",
      "outputs": [
        {
          "internalType": "uint256",
          "name": "",
          "type": "uint256"
        }
      ],
      "payable": false,
      "stateMutability": "view",
      "type": "function"
    }
  ],
  "bytecode": "0x608060405234801561001057600080fd5b50604051806104a00160405280600160ff168152602001600260ff168152602001600360ff168152602001600460ff168152602001600560ff168152602001600660ff168152602001600760ff168152602001600860ff168152602001600960ff168152602001600a60ff168152602001600b60ff168152602001600c60ff168152602001600d60ff168152602001600e60ff168152602001600f60ff168152602001601060ff168152602001601160ff168152602001601260ff168152602001601360ff168152602001601460ff168152602001601560ff168152602001601760ff168152602001601860ff168152602001601960ff168152602001601a60ff168152602001601b60ff168152602001601c60ff168152602001601d60ff168152602001601e60ff168152602001601f60ff168152602001602060ff168152602001602260ff168152602001602360ff168152602001602460ff168152602001602560ff168152602001602660ff168152602001602760ff16815250600090602561019d9291906101a3565b5061021a565b8280548282559060005260206000209081019282156101e4579160200282015b828111156101e3578251829060ff169055916020019190600101906101c3565b5b5090506101f191906101f5565b5090565b61021791905b808211156102135760008160009055506001016101fb565b5090565b90565b61032e806102296000396000f3fe608060405234801561001057600080fd5b50600436106100365760003560e01c80635c3e9cc21461003b578063bc07e8671461006b575b600080fd5b61005560048036036100509190810190610197565b61009b565b6040516100629190610276565b60405180910390f35b61008560048036036100809190810190610197565b6100bc565b6040516100929190610254565b60405180910390f35b600081815481106100a857fe5b906000526020600020016000915090505481565b606080600a6040519080825280602002602001820160405280156100ef5781602001602082028038833980820191505090505b50905060008090506000600a80860260016000805490500303019050600060098203905060008290505b81811015801561012a575060008110155b15610175576000818154811061013c57fe5b906000526020600020015485858151811061015357fe5b6020026020010181815250508380600101945050808060019003915050610119565b5083945050505050919050565b600081359050610191816102d4565b92915050565b6000602082840312156101a957600080fd5b60006101b784828501610182565b91505092915050565b60006101cc8383610236565b60208301905092915050565b60006101e3826102a1565b6101ed81856102b9565b93506101f883610291565b8060005b8381101561022957815161021088826101c0565b975061021b836102ac565b9250506001810190506101fc565b5085935050505092915050565b61023f816102ca565b82525050565b61024e816102ca565b82525050565b6000602082019050818103600083015261026e81846101d8565b905092915050565b600060208201905061028b6000830184610245565b92915050565b6000819050602082019050919050565b600081519050919050565b6000602082019050919050565b600082825260208201905092915050565b6000819050919050565b6102dd816102ca565b81146102e857600080fd5b5056fea365627a7a723158206766fcadae9ed7aeed09dafe519645eaeb227249362ac3c489391740b06ce7bd6c6578706572696d656e74616cf564736f6c63430005110040",
  "compiler": {
    "name": "solc",
    "version": "0.5.17+commit.d19bba13.Emscripten.clang",
    "optimizer": {
      "enabled": false,
      "runs": 200
    },
    "evmVersion": "petersburg"
  }
}