{
  "fileName": "Tracepic.sol",
  "contractName": "Tracepic",
  "source": "pragma experimental ABIEncoderV2;\npragma solidity >0.4.99 <0.6.0;\n\ncontract Tracepic {\n    struct analyse {\n        uint256 id;\n        address payable seller;\n        address buyer;\n        string analyseReference;\n        string date;\n        string value;\n        string description;\n        uint256 price;\n    }\n\n    struct privateAnalyse {\n        uint256 id;\n        address payable seller;\n        address buyer;\n        string analyseReference;\n        string date;\n        string value;\n        string description;\n        uint256 price;\n        address owner;\n    }\n\n    mapping(string => analyse) public publicAnalysisByRef;\n    mapping(uint256 => analyse) public publicAnalysisById;\n    mapping(address => analyse[]) public publicAnalysisBuyer;\n    mapping(address => uint256[]) private publicAnalysesPoster;\n\n    mapping(uint256 => privateAnalyse) public privateAnalysis;\n    mapping(address => uint256[]) private privateAnalysesPoster;\n    mapping(address => privateAnalyse[]) public privateAnalysisBuyer;\n    mapping(address => privateAnalyse[]) private privateAnalysesOwner;\n\n    // State variables\n    uint256 publicAnalyseCounter;\n    uint256 privateAnalysesCounter;\n\n    // sell an analyse\n    function postAnalyse(\n        string memory _analyseReference,\n        string memory _value,\n        string memory _date,\n        string memory _description,\n        uint256 _price,\n        address _owner\n    ) public {\n        if (_owner != address(0)) {\n            privateAnalysesCounter++;\n            privateAnalysesPoster[msg.sender].push(privateAnalysesCounter);\n            privateAnalysis[privateAnalysesCounter] = (\n                privateAnalyse(\n                    privateAnalysesCounter,\n                    msg.sender,\n                    address(0),\n                    _analyseReference,\n                    _date,\n                    _value,\n                    _description,\n                    _price,\n                    _owner\n                )\n            );\n\n            privateAnalysesOwner[_owner].push(\n                privateAnalyse(\n                    privateAnalysesCounter,\n                    msg.sender,\n                    address(0),\n                    _analyseReference,\n                    _date,\n                    _value,\n                    _description,\n                    _price,\n                    _owner\n                )\n            );\n        } else {\n            publicAnalyseCounter++;\n            publicAnalysesPoster[msg.sender].push(publicAnalyseCounter);\n            publicAnalysisById[publicAnalyseCounter] = analyse(\n                publicAnalyseCounter,\n                msg.sender,\n                address(0),\n                _analyseReference,\n                _date,\n                _value,\n                _description,\n                _price\n            );\n            publicAnalysisByRef[_analyseReference] = analyse(\n                publicAnalyseCounter,\n                msg.sender,\n                address(0),\n                _analyseReference,\n                _date,\n                _value,\n                _description,\n                _price\n            );\n        }\n    }\n\n    // buy an analyse\n    function buyAnalyse(uint256 _id) public payable {\n        // we check whether there is at least one analyse\n        require(\n            publicAnalyseCounter > 0,\n            \"There should be at least one analyse\"\n        );\n\n        // we check whether the analyse exists\n        require(\n            _id > 0 && _id <= publicAnalyseCounter,\n            \"analyse with this id does not exist\"\n        );\n        // we retrieve the analyse\n        analyse storage analyseToBuy = publicAnalysisById[_id];\n        // we check whether the analyse has not already been sold\n        require(analyseToBuy.buyer == address(0), \"analyse was already sold\");\n        // we don't allow the seller to buy his/her own analyse\n        require(\n            analyseToBuy.seller != msg.sender,\n            \"Seller cannot buy his own analyse\"\n        );\n        // we check whether the value sent corresponds to the analyse price\n        require(\n            analyseToBuy.price == msg.value,\n            \"Value provided does not match price of analyse\"\n        );\n\n        // keep buyer's information\n        analyseToBuy.buyer = msg.sender;\n        publicAnalysisById[_id].buyer = msg.sender;\n\n        publicAnalysisBuyer[msg.sender].push(analyseToBuy);\n        // the buyer can buy the analyse\n        analyseToBuy.seller.transfer(msg.value);\n    }\n\n    // buy a private analyse\n    function buyPrivateAnalyse(uint256 analyseId) public payable {\n        // we retrieve the analyse\n        privateAnalyse memory analyseToBuy = privateAnalysis[analyseId];\n        // we check whether the analyse exists\n        require(analyseToBuy.seller != address(0), \"Analyze not found!\");\n        // we check whether the analyse has not already been sold\n        require(analyseToBuy.buyer == address(0), \"analyse was already sold\");\n        // we don't allow the seller to buy his/her own analyse\n        require(\n            analyseToBuy.seller != msg.sender,\n            \"Seller cannot buy his own analyse\"\n        );\n        // we check whether the value sent corresponds to the analyse price\n        require(\n            analyseToBuy.price == msg.value,\n            \"Value provided does not match price of analyse\"\n        );\n\n        require(analyseToBuy.owner == msg.sender, \"You are not owner\");\n\n        // keep buyer's information\n        analyseToBuy.buyer = msg.sender;\n        privateAnalysis[analyseId].buyer = msg.sender;\n\n        for (uint256 i = 0; i < privateAnalysesOwner[msg.sender].length; i++) {\n            if (privateAnalysesOwner[msg.sender][i].id == analyseId) {\n                privateAnalysesOwner[msg.sender][i].buyer = msg.sender;\n            }\n        }\n\n        privateAnalysis[analyseId].buyer = msg.sender;\n        privateAnalysisBuyer[msg.sender].push(analyseToBuy);\n        // the buyer can buy the analyse\n        analyseToBuy.seller.transfer(msg.value);\n    }\n\n    // fetch and returns all analyse IDs available for sale\n    function getAnalysesForSale(uint256 lot)\n        public\n        view\n        returns (analyse[] memory)\n    {\n        // we check whether there is at least one analyse\n        if (publicAnalyseCounter == 0) {\n            return new analyse[](0);\n        }\n        // prepare output arrays\n        analyse[] memory analysis = new analyse[](10);\n        uint256 numberOfAnalysesForSale = 0;\n        uint256 fromm = publicAnalyseCounter - (lot * 10) + 10;\n        uint256 to = 0;\n        if (fromm >= 9) {\n            to = fromm - 9;\n        } else {\n            to = 1;\n        }\n        for (uint256 i = fromm; i >= to; i--) {\n            analysis[numberOfAnalysesForSale] = publicAnalysisById[i];\n            numberOfAnalysesForSale++;\n        }\n        return analysis;\n    }\n\n    function getSelfPostedPublicAnalysisIds()\n        public\n        view\n        returns (uint256[] memory)\n    {\n        return publicAnalysesPoster[msg.sender];\n    }\n\n    function getSelfPostedPrivateAnalysisIds()\n        public\n        view\n        returns (uint256[] memory)\n    {\n        return privateAnalysesPoster[msg.sender];\n    }\n\n    function getSelfPostedPrivateAnalyse(uint256 analyseId)\n        public\n        view\n        returns (privateAnalyse memory)\n    {\n        privateAnalyse memory _analyse = privateAnalysis[analyseId];\n        require(\n            _analyse.seller == msg.sender,\n            \"This is a private analyse, and you are not the owner\"\n        );\n        return _analyse;\n    }\n\n    function getSelfPostedPrivateAnalyseByAddress(address owner)\n        public\n        view\n        returns (privateAnalyse[] memory)\n    {\n        privateAnalyse[] memory analysis = privateAnalysesOwner[owner];\n        privateAnalyse[] memory postedAnalysis = new privateAnalyse[](\n            analysis.length\n        );\n        uint256 counter = 0;\n        for (uint256 i = 0; i < analysis.length; i++) {\n            if (analysis[i].seller == msg.sender) {\n                postedAnalysis[counter] = analysis[i];\n                counter++;\n            }\n        }\n        privateAnalyse[] memory finalAnalysis = new privateAnalyse[](counter);\n        for (uint256 i = 0; i < counter; i++) {\n            finalAnalysis[i] = postedAnalysis[i];\n        }\n        return finalAnalysis;\n    }\n\n    function getSelfBoughtAnalysis()\n        public\n        view\n        returns (analyse[] memory publicA, privateAnalyse[] memory privateA)\n    {\n        return (\n            publicAnalysisBuyer[msg.sender],\n            privateAnalysisBuyer[msg.sender]\n        );\n    }\n\n    function getAnalyseByReference(string memory _reference)\n        public\n        view\n        returns (analyse memory)\n    {\n        return publicAnalysisByRef[_reference];\n    }\n\n    function getPrivateAnalyse() public view returns (privateAnalyse[] memory) {\n        privateAnalyse[] memory _analyse = privateAnalysesOwner[msg.sender];\n        return _analyse;\n    }\n\n    function getPrivateAnalysisIds() public view returns (uint256 counter) {\n        // must check if it is admin\n        return privateAnalysesCounter;\n    }\n}\n",
  "sourcePath": "contracts/Tracepic.sol",
  "abi": [
    {
      "constant": false,
      "inputs": [
        {
          "internalType": "uint256",
          "name": "_id",
          "type": "uint256"
        }
      ],
      "name": "buyAnalyse",
      "outputs": [],
      "payable": true,
      "stateMutability": "payable",
      "type": "function"
    },
    {
      "constant": false,
      "inputs": [
        {
          "internalType": "uint256",
          "name": "analyseId",
          "type": "uint256"
        }
      ],
      "name": "buyPrivateAnalyse",
      "outputs": [],
      "payable": true,
      "stateMutability": "payable",
      "type": "function"
    },
    {
      "constant": true,
      "inputs": [
        {
          "internalType": "string",
          "name": "_reference",
          "type": "string"
        }
      ],
      "name": "getAnalyseByReference",
      "outputs": [
        {
          "components": [
            {
              "internalType": "uint256",
              "name": "id",
              "type": "uint256"
            },
            {
              "internalType": "address payable",
              "name": "seller",
              "type": "address"
            },
            {
              "internalType": "address",
              "name": "buyer",
              "type": "address"
            },
            {
              "internalType": "string",
              "name": "analyseReference",
              "type": "string"
            },
            {
              "internalType": "string",
              "name": "date",
              "type": "string"
            },
            {
              "internalType": "string",
              "name": "value",
              "type": "string"
            },
            {
              "internalType": "string",
              "name": "description",
              "type": "string"
            },
            {
              "internalType": "uint256",
              "name": "price",
              "type": "uint256"
            }
          ],
          "internalType": "struct Tracepic.analyse",
          "name": "",
          "type": "tuple"
        }
      ],
      "payable": false,
      "stateMutability": "view",
      "type": "function"
    },
    {
      "constant": true,
      "inputs": [
        {
          "internalType": "uint256",
          "name": "lot",
          "type": "uint256"
        }
      ],
      "name": "getAnalysesForSale",
      "outputs": [
        {
          "components": [
            {
              "internalType": "uint256",
              "name": "id",
              "type": "uint256"
            },
            {
              "internalType": "address payable",
              "name": "seller",
              "type": "address"
            },
            {
              "internalType": "address",
              "name": "buyer",
              "type": "address"
            },
            {
              "internalType": "string",
              "name": "analyseReference",
              "type": "string"
            },
            {
              "internalType": "string",
              "name": "date",
              "type": "string"
            },
            {
              "internalType": "string",
              "name": "value",
              "type": "string"
            },
            {
              "internalType": "string",
              "name": "description",
              "type": "string"
            },
            {
              "internalType": "uint256",
              "name": "price",
              "type": "uint256"
            }
          ],
          "internalType": "struct Tracepic.analyse[]",
          "name": "",
          "type": "tuple[]"
        }
      ],
      "payable": false,
      "stateMutability": "view",
      "type": "function"
    },
    {
      "constant": true,
      "inputs": [],
      "name": "getPrivateAnalyse",
      "outputs": [
        {
          "components": [
            {
              "internalType": "uint256",
              "name": "id",
              "type": "uint256"
            },
            {
              "internalType": "address payable",
              "name": "seller",
              "type": "address"
            },
            {
              "internalType": "address",
              "name": "buyer",
              "type": "address"
            },
            {
              "internalType": "string",
              "name": "analyseReference",
              "type": "string"
            },
            {
              "internalType": "string",
              "name": "date",
              "type": "string"
            },
            {
              "internalType": "string",
              "name": "value",
              "type": "string"
            },
            {
              "internalType": "string",
              "name": "description",
              "type": "string"
            },
            {
              "internalType": "uint256",
              "name": "price",
              "type": "uint256"
            },
            {
              "internalType": "address",
              "name": "owner",
              "type": "address"
            }
          ],
          "internalType": "struct Tracepic.privateAnalyse[]",
          "name": "",
          "type": "tuple[]"
        }
      ],
      "payable": false,
      "stateMutability": "view",
      "type": "function"
    },
    {
      "constant": true,
      "inputs": [],
      "name": "getPrivateAnalysisIds",
      "outputs": [
        {
          "internalType": "uint256",
          "name": "counter",
          "type": "uint256"
        }
      ],
      "payable": false,
      "stateMutability": "view",
      "type": "function"
    },
    {
      "constant": true,
      "inputs": [],
      "name": "getSelfBoughtAnalysis",
      "outputs": [
        {
          "components": [
            {
              "internalType": "uint256",
              "name": "id",
              "type": "uint256"
            },
            {
              "internalType": "address payable",
              "name": "seller",
              "type": "address"
            },
            {
              "internalType": "address",
              "name": "buyer",
              "type": "address"
            },
            {
              "internalType": "string",
              "name": "analyseReference",
              "type": "string"
            },
            {
              "internalType": "string",
              "name": "date",
              "type": "string"
            },
            {
              "internalType": "string",
              "name": "value",
              "type": "string"
            },
            {
              "internalType": "string",
              "name": "description",
              "type": "string"
            },
            {
              "internalType": "uint256",
              "name": "price",
              "type": "uint256"
            }
          ],
          "internalType": "struct Tracepic.analyse[]",
          "name": "publicA",
          "type": "tuple[]"
        },
        {
          "components": [
            {
              "internalType": "uint256",
              "name": "id",
              "type": "uint256"
            },
            {
              "internalType": "address payable",
              "name": "seller",
              "type": "address"
            },
            {
              "internalType": "address",
              "name": "buyer",
              "type": "address"
            },
            {
              "internalType": "string",
              "name": "analyseReference",
              "type": "string"
            },
            {
              "internalType": "string",
              "name": "date",
              "type": "string"
            },
            {
              "internalType": "string",
              "name": "value",
              "type": "string"
            },
            {
              "internalType": "string",
              "name": "description",
              "type": "string"
            },
            {
              "internalType": "uint256",
              "name": "price",
              "type": "uint256"
            },
            {
              "internalType": "address",
              "name": "owner",
              "type": "address"
            }
          ],
          "internalType": "struct Tracepic.privateAnalyse[]",
          "name": "privateA",
          "type": "tuple[]"
        }
      ],
      "payable": false,
      "stateMutability": "view",
      "type": "function"
    },
    {
      "constant": true,
      "inputs": [
        {
          "internalType": "uint256",
          "name": "analyseId",
          "type": "uint256"
        }
      ],
      "name": "getSelfPostedPrivateAnalyse",
      "outputs": [
        {
          "components": [
            {
              "internalType": "uint256",
              "name": "id",
              "type": "uint256"
            },
            {
              "internalType": "address payable",
              "name": "seller",
              "type": "address"
            },
            {
              "internalType": "address",
              "name": "buyer",
              "type": "address"
            },
            {
              "internalType": "string",
              "name": "analyseReference",
              "type": "string"
            },
            {
              "internalType": "string",
              "name": "date",
              "type": "string"
            },
            {
              "internalType": "string",
              "name": "value",
              "type": "string"
            },
            {
              "internalType": "string",
              "name": "description",
              "type": "string"
            },
            {
              "internalType": "uint256",
              "name": "price",
              "type": "uint256"
            },
            {
              "internalType": "address",
              "name": "owner",
              "type": "address"
            }
          ],
          "internalType": "struct Tracepic.privateAnalyse",
          "name": "",
          "type": "tuple"
        }
      ],
      "payable": false,
      "stateMutability": "view",
      "type": "function"
    },
    {
      "constant": true,
      "inputs": [
        {
          "internalType": "address",
          "name": "owner",
          "type": "address"
        }
      ],
      "name": "getSelfPostedPrivateAnalyseByAddress",
      "outputs": [
        {
          "components": [
            {
              "internalType": "uint256",
              "name": "id",
              "type": "uint256"
            },
            {
              "internalType": "address payable",
              "name": "seller",
              "type": "address"
            },
            {
              "internalType": "address",
              "name": "buyer",
              "type": "address"
            },
            {
              "internalType": "string",
              "name": "analyseReference",
              "type": "string"
            },
            {
              "internalType": "string",
              "name": "date",
              "type": "string"
            },
            {
              "internalType": "string",
              "name": "value",
              "type": "string"
            },
            {
              "internalType": "string",
              "name": "description",
              "type": "string"
            },
            {
              "internalType": "uint256",
              "name": "price",
              "type": "uint256"
            },
            {
              "internalType": "address",
              "name": "owner",
              "type": "address"
            }
          ],
          "internalType": "struct Tracepic.privateAnalyse[]",
          "name": "",
          "type": "tuple[]"
        }
      ],
      "payable": false,
      "stateMutability": "view",
      "type": "function"
    },
    {
      "constant": true,
      "inputs": [],
      "name": "getSelfPostedPrivateAnalysisIds",
      "outputs": [
        {
          "internalType": "uint256[]",
          "name": "",
          "type": "uint256[]"
        }
      ],
      "payable": false,
      "stateMutability": "view",
      "type": "function"
    },
    {
      "constant": true,
      "inputs": [],
      "name": "getSelfPostedPublicAnalysisIds",
      "outputs": [
        {
          "internalType": "uint256[]",
          "name": "",
          "type": "uint256[]"
        }
      ],
      "payable": false,
      "stateMutability": "view",
      "type": "function"
    },
    {
      "constant": false,
      "inputs": [
        {
          "internalType": "string",
          "name": "_analyseReference",
          "type": "string"
        },
        {
          "internalType": "string",
          "name": "_value",
          "type": "string"
        },
        {
          "internalType": "string",
          "name": "_date",
          "type": "string"
        },
        {
          "internalType": "string",
          "name": "_description",
          "type": "string"
        },
        {
          "internalType": "uint256",
          "name": "_price",
          "type": "uint256"
        },
        {
          "internalType": "address",
          "name": "_owner",
          "type": "address"
        }
      ],
      "name": "postAnalyse",
      "outputs": [],
      "payable": false,
      "stateMutability": "nonpayable",
      "type": "function"
    },
    {
      "constant": true,
      "inputs": [
        {
          "internalType": "uint256",
          "name": "",
          "type": "uint256"
        }
      ],
      "name": "privateAnalysis",
      "outputs": [
        {
          "internalType": "uint256",
          "name": "id",
          "type": "uint256"
        },
        {
          "internalType": "address payable",
          "name": "seller",
          "type": "address"
        },
        {
          "internalType": "address",
          "name": "buyer",
          "type": "address"
        },
        {
          "internalType": "string",
          "name": "analyseReference",
          "type": "string"
        },
        {
          "internalType": "string",
          "name": "date",
          "type": "string"
        },
        {
          "internalType": "string",
          "name": "value",
          "type": "string"
        },
        {
          "internalType": "string",
          "name": "description",
          "type": "string"
        },
        {
          "internalType": "uint256",
          "name": "price",
          "type": "uint256"
        },
        {
          "internalType": "address",
          "name": "owner",
          "type": "address"
        }
      ],
      "payable": false,
      "stateMutability": "view",
      "type": "function"
    },
    {
      "constant": true,
      "inputs": [
        {
          "internalType": "address",
          "name": "",
          "type": "address"
        },
        {
          "internalType": "uint256",
          "name": "",
          "type": "uint256"
        }
      ],
      "name": "privateAnalysisBuyer",
      "outputs": [
        {
          "internalType": "uint256",
          "name": "id",
          "type": "uint256"
        },
        {
          "internalType": "address payable",
          "name": "seller",
          "type": "address"
        },
        {
          "internalType": "address",
          "name": "buyer",
          "type": "address"
        },
        {
          "internalType": "string",
          "name": "analyseReference",
          "type": "string"
        },
        {
          "internalType": "string",
          "name": "date",
          "type": "string"
        },
        {
          "internalType": "string",
          "name": "value",
          "type": "string"
        },
        {
          "internalType": "string",
          "name": "description",
          "type": "string"
        },
        {
          "internalType": "uint256",
          "name": "price",
          "type": "uint256"
        },
        {
          "internalType": "address",
          "name": "owner",
          "type": "address"
        }
      ],
      "payable": false,
      "stateMutability": "view",
      "type": "function"
    },
    {
      "constant": true,
      "inputs": [
        {
          "internalType": "address",
          "name": "",
          "type": "address"
        },
        {
          "internalType": "uint256",
          "name": "",
          "type": "uint256"
        }
      ],
      "name": "publicAnalysisBuyer",
      "outputs": [
        {
          "internalType": "uint256",
          "name": "id",
          "type": "uint256"
        },
        {
          "internalType": "address payable",
          "name": "seller",
          "type": "address"
        },
        {
          "internalType": "address",
          "name": "buyer",
          "type": "address"
        },
        {
          "internalType": "string",
          "name": "analyseReference",
          "type": "string"
        },
        {
          "internalType": "string",
          "name": "date",
          "type": "string"
        },
        {
          "internalType": "string",
          "name": "value",
          "type": "string"
        },
        {
          "internalType": "string",
          "name": "description",
          "type": "string"
        },
        {
          "internalType": "uint256",
          "name": "price",
          "type": "uint256"
        }
      ],
      "payable": false,
      "stateMutability": "view",
      "type": "function"
    },
    {
      "constant": true,
      "inputs": [
        {
          "internalType": "uint256",
          "name": "",
          "type": "uint256"
        }
      ],
      "name": "publicAnalysisById",
      "outputs": [
        {
          "internalType": "uint256",
          "name": "id",
          "type": "uint256"
        },
        {
          "internalType": "address payable",
          "name": "seller",
          "type": "address"
        },
        {
          "internalType": "address",
          "name": "buyer",
          "type": "address"
        },
        {
          "internalType": "string",
          "name": "analyseReference",
          "type": "string"
        },
        {
          "internalType": "string",
          "name": "date",
          "type": "string"
        },
        {
          "internalType": "string",
          "name": "value",
          "type": "string"
        },
        {
          "internalType": "string",
          "name": "description",
          "type": "string"
        },
        {
          "internalType": "uint256",
          "name": "price",
          "type": "uint256"
        }
      ],
      "payable": false,
      "stateMutability": "view",
      "type": "function"
    },
    {
      "constant": true,
      "inputs": [
        {
          "internalType": "string",
          "name": "",
          "type": "string"
        }
      ],
      "name": "publicAnalysisByRef",
      "outputs": [
        {
          "internalType": "uint256",
          "name": "id",
          "type": "uint256"
        },
        {
          "internalType": "address payable",
          "name": "seller",
          "type": "address"
        },
        {
          "internalType": "address",
          "name": "buyer",
          "type": "address"
        },
        {
          "internalType": "string",
          "name": "analyseReference",
          "type": "string"
        },
        {
          "internalType": "string",
          "name": "date",
          "type": "string"
        },
        {
          "internalType": "string",
          "name": "value",
          "type": "string"
        },
        {
          "internalType": "string",
          "name": "description",
          "type": "string"
        },
        {
          "internalType": "uint256",
          "name": "price",
          "type": "uint256"
        }
      ],
      "payable": false,
      "stateMutability": "view",
      "type": "function"
    }
  ],
  "bytecode": "0x608060405234801561001057600080fd5b50615f7380620000216000396000f3fe6080604052600436106100fe5760003560e01c80636d37a01911610095578063c8ad992911610064578063c8ad992914610360578063d65a38cc1461039d578063f19e134a146103e1578063f23e7bee1461040c578063fdb349fd14610449576100fe565b80636d37a0191461026757806372790a6c146102ab578063a844fd81146102f0578063c491385d14610334576100fe565b8063546d9f7a116100d1578063546d9f7a146101d957806359a90a2e146102045780635b2a66df1461022f5780635e5a0e201461024b576100fe565b806319953d7b1461010357806323c95bdb1461012c57806334b084ed146101695780633e016e48146101ae575b600080fd5b34801561010f57600080fd5b5061012a60048036036101259190810190615005565b610486565b005b34801561013857600080fd5b50610153600480360361014e91908101906150ee565b610d44565b60405161016091906159af565b60405180910390f35b34801561017557600080fd5b50610190600480360361018b91908101906150ee565b6111b3565b6040516101a599989796959493929190615c45565b60405180910390f35b3480156101ba57600080fd5b506101c36114c1565b6040516101d09190615b90565b60405180910390f35b3480156101e557600080fd5b506101ee6114cb565b6040516101fb9190615a2a565b60405180910390f35b34801561021057600080fd5b50610219611560565b6040516102269190615a08565b60405180910390f35b610249600480360361024491908101906150ee565b6119a0565b005b610265600480360361026091908101906150ee565b6123d3565b005b34801561027357600080fd5b5061028e60048036036102899190810190614f83565b6128e3565b6040516102a2989796959493929190615bab565b60405180910390f35b3480156102b757600080fd5b506102d260048036036102cd9190810190614f47565b612be1565b6040516102e799989796959493929190615c45565b60405180910390f35b3480156102fc57600080fd5b5061031760048036036103129190810190614f47565b612f09565b60405161032b989796959493929190615bab565b60405180910390f35b34801561034057600080fd5b5061034961320b565b6040516103579291906159d1565b60405180910390f35b34801561036c57600080fd5b5061038760048036036103829190810190614fc4565b613a2e565b6040516103949190615b4c565b60405180910390f35b3480156103a957600080fd5b506103c460048036036103bf91908101906150ee565b613daf565b6040516103d8989796959493929190615bab565b60405180910390f35b3480156103ed57600080fd5b506103f6614097565b6040516104039190615a2a565b60405180910390f35b34801561041857600080fd5b50610433600480360361042e9190810190614f1e565b61412c565b6040516104409190615a08565b60405180910390f35b34801561045557600080fd5b50610470600480360361046b91908101906150ee565b6146d8565b60405161047d9190615b6e565b60405180910390f35b600073ffffffffffffffffffffffffffffffffffffffff168173ffffffffffffffffffffffffffffffffffffffff161461098757600960008154809291906001019190505550600560003373ffffffffffffffffffffffffffffffffffffffff1673ffffffffffffffffffffffffffffffffffffffff168152602001908152602001600020600954908060018154018082558091505090600182039060005260206000200160009091929091909150555060405180610120016040528060095481526020013373ffffffffffffffffffffffffffffffffffffffff168152602001600073ffffffffffffffffffffffffffffffffffffffff1681526020018781526020018581526020018681526020018481526020018381526020018273ffffffffffffffffffffffffffffffffffffffff168152506004600060095481526020019081526020016000206000820151816000015560208201518160010160006101000a81548173ffffffffffffffffffffffffffffffffffffffff021916908373ffffffffffffffffffffffffffffffffffffffff16021790555060408201518160020160006101000a81548173ffffffffffffffffffffffffffffffffffffffff021916908373ffffffffffffffffffffffffffffffffffffffff1602179055506060820151816003019080519060200190610685929190614b22565b5060808201518160040190805190602001906106a2929190614b22565b5060a08201518160050190805190602001906106bf929190614b22565b5060c08201518160060190805190602001906106dc929190614b22565b5060e082015181600701556101008201518160080160006101000a81548173ffffffffffffffffffffffffffffffffffffffff021916908373ffffffffffffffffffffffffffffffffffffffff160217905550905050600760008273ffffffffffffffffffffffffffffffffffffffff1673ffffffffffffffffffffffffffffffffffffffff16815260200190815260200160002060405180610120016040528060095481526020013373ffffffffffffffffffffffffffffffffffffffff168152602001600073ffffffffffffffffffffffffffffffffffffffff1681526020018881526020018681526020018781526020018581526020018481526020018373ffffffffffffffffffffffffffffffffffffffff16815250908060018154018082558091505090600182039060005260206000209060090201600090919290919091506000820151816000015560208201518160010160006101000a81548173ffffffffffffffffffffffffffffffffffffffff021916908373ffffffffffffffffffffffffffffffffffffffff16021790555060408201518160020160006101000a81548173ffffffffffffffffffffffffffffffffffffffff021916908373ffffffffffffffffffffffffffffffffffffffff16021790555060608201518160030190805190602001906108d5929190614b22565b5060808201518160040190805190602001906108f2929190614b22565b5060a082015181600501908051906020019061090f929190614b22565b5060c082015181600601908051906020019061092c929190614b22565b5060e082015181600701556101008201518160080160006101000a81548173ffffffffffffffffffffffffffffffffffffffff021916908373ffffffffffffffffffffffffffffffffffffffff160217905550505050610d3c565b600860008154809291906001019190505550600360003373ffffffffffffffffffffffffffffffffffffffff1673ffffffffffffffffffffffffffffffffffffffff168152602001908152602001600020600854908060018154018082558091505090600182039060005260206000200160009091929091909150555060405180610100016040528060085481526020013373ffffffffffffffffffffffffffffffffffffffff168152602001600073ffffffffffffffffffffffffffffffffffffffff168152602001878152602001858152602001868152602001848152602001838152506001600060085481526020019081526020016000206000820151816000015560208201518160010160006101000a81548173ffffffffffffffffffffffffffffffffffffffff021916908373ffffffffffffffffffffffffffffffffffffffff16021790555060408201518160020160006101000a81548173ffffffffffffffffffffffffffffffffffffffff021916908373ffffffffffffffffffffffffffffffffffffffff1602179055506060820151816003019080519060200190610b36929190614b22565b506080820151816004019080519060200190610b53929190614b22565b5060a0820151816005019080519060200190610b70929190614b22565b5060c0820151816006019080519060200190610b8d929190614b22565b5060e0820151816007015590505060405180610100016040528060085481526020013373ffffffffffffffffffffffffffffffffffffffff168152602001600073ffffffffffffffffffffffffffffffffffffffff16815260200187815260200185815260200186815260200184815260200183815250600087604051610c149190615998565b90815260200160405180910390206000820151816000015560208201518160010160006101000a81548173ffffffffffffffffffffffffffffffffffffffff021916908373ffffffffffffffffffffffffffffffffffffffff16021790555060408201518160020160006101000a81548173ffffffffffffffffffffffffffffffffffffffff021916908373ffffffffffffffffffffffffffffffffffffffff1602179055506060820151816003019080519060200190610cd6929190614b22565b506080820151816004019080519060200190610cf3929190614b22565b5060a0820151816005019080519060200190610d10929190614b22565b5060c0820151816006019080519060200190610d2d929190614b22565b5060e082015181600701559050505b505050505050565b606060006008541415610d94576000604051908082528060200260200182016040528015610d8c57816020015b610d79614ba2565b815260200190600190039081610d715790505b5090506111ae565b6060600a604051908082528060200260200182016040528015610dd157816020015b610dbe614ba2565b815260200190600190039081610db65790505b50905060008090506000600a80860260085403019050600080905060098210610dff57600982039050610e04565b600190505b60008290505b8181106111a5576001600082815260200190815260200160002060405180610100016040529081600082015481526020016001820160009054906101000a900473ffffffffffffffffffffffffffffffffffffffff1673ffffffffffffffffffffffffffffffffffffffff1673ffffffffffffffffffffffffffffffffffffffff1681526020016002820160009054906101000a900473ffffffffffffffffffffffffffffffffffffffff1673ffffffffffffffffffffffffffffffffffffffff1673ffffffffffffffffffffffffffffffffffffffff168152602001600382018054600181600116156101000203166002900480601f016020809104026020016040519081016040528092919081815260200182805460018160011615610100020316600290048015610f7f5780601f10610f5457610100808354040283529160200191610f7f565b820191906000526020600020905b815481529060010190602001808311610f6257829003601f168201915b50505050508152602001600482018054600181600116156101000203166002900480601f0160208091040260200160405190810160405280929190818152602001828054600181600116156101000203166002900480156110215780601f10610ff657610100808354040283529160200191611021565b820191906000526020600020905b81548152906001019060200180831161100457829003601f168201915b50505050508152602001600582018054600181600116156101000203166002900480601f0160208091040260200160405190810160405280929190818152602001828054600181600116156101000203166002900480156110c35780601f10611098576101008083540402835291602001916110c3565b820191906000526020600020905b8154815290600101906020018083116110a657829003601f168201915b50505050508152602001600682018054600181600116156101000203166002900480601f0160208091040260200160405190810160405280929190818152602001828054600181600116156101000203166002900480156111655780601f1061113a57610100808354040283529160200191611165565b820191906000526020600020905b81548152906001019060200180831161114857829003601f168201915b5050505050815260200160078201548152505085858151811061118457fe5b60200260200101819052508380600101945050808060019003915050610e0a565b50839450505050505b919050565b60046020528060005260406000206000915090508060000154908060010160009054906101000a900473ffffffffffffffffffffffffffffffffffffffff16908060020160009054906101000a900473ffffffffffffffffffffffffffffffffffffffff1690806003018054600181600116156101000203166002900480601f0160208091040260200160405190810160405280929190818152602001828054600181600116156101000203166002900480156112b15780601f10611286576101008083540402835291602001916112b1565b820191906000526020600020905b81548152906001019060200180831161129457829003601f168201915b505050505090806004018054600181600116156101000203166002900480601f01602080910402602001604051908101604052809291908181526020018280546001816001161561010002031660029004801561134f5780601f106113245761010080835404028352916020019161134f565b820191906000526020600020905b81548152906001019060200180831161133257829003601f168201915b505050505090806005018054600181600116156101000203166002900480601f0160208091040260200160405190810160405280929190818152602001828054600181600116156101000203166002900480156113ed5780601f106113c2576101008083540402835291602001916113ed565b820191906000526020600020905b8154815290600101906020018083116113d057829003601f168201915b505050505090806006018054600181600116156101000203166002900480601f01602080910402602001604051908101604052809291908181526020018280546001816001161561010002031660029004801561148b5780601f106114605761010080835404028352916020019161148b565b820191906000526020600020905b81548152906001019060200180831161146e57829003601f168201915b5050505050908060070154908060080160009054906101000a900473ffffffffffffffffffffffffffffffffffffffff16905089565b6000600954905090565b6060600360003373ffffffffffffffffffffffffffffffffffffffff1673ffffffffffffffffffffffffffffffffffffffff16815260200190815260200160002080548060200260200160405190810160405280929190818152602001828054801561155657602002820191906000526020600020905b815481526020019060010190808311611542575b5050505050905090565b606080600760003373ffffffffffffffffffffffffffffffffffffffff1673ffffffffffffffffffffffffffffffffffffffff168152602001908152602001600020805480602002602001604051908101604052809291908181526020016000905b82821015611993578382906000526020600020906009020160405180610120016040529081600082015481526020016001820160009054906101000a900473ffffffffffffffffffffffffffffffffffffffff1673ffffffffffffffffffffffffffffffffffffffff1673ffffffffffffffffffffffffffffffffffffffff1681526020016002820160009054906101000a900473ffffffffffffffffffffffffffffffffffffffff1673ffffffffffffffffffffffffffffffffffffffff1673ffffffffffffffffffffffffffffffffffffffff168152602001600382018054600181600116156101000203166002900480601f0160208091040260200160405190810160405280929190818152602001828054600181600116156101000203166002900480156117355780601f1061170a57610100808354040283529160200191611735565b820191906000526020600020905b81548152906001019060200180831161171857829003601f168201915b50505050508152602001600482018054600181600116156101000203166002900480601f0160208091040260200160405190810160405280929190818152602001828054600181600116156101000203166002900480156117d75780601f106117ac576101008083540402835291602001916117d7565b820191906000526020600020905b8154815290600101906020018083116117ba57829003601f168201915b50505050508152602001600582018054600181600116156101000203166002900480601f0160208091040260200160405190810160405280929190818152602001828054600181600116156101000203166002900480156118795780601f1061184e57610100808354040283529160200191611879565b820191906000526020600020905b81548152906001019060200180831161185c57829003601f168201915b50505050508152602001600682018054600181600116156101000203166002900480601f01602080910402602001604051908101604052809291908181526020018280546001816001161561010002031660029004801561191b5780601f106118f05761010080835404028352916020019161191b565b820191906000526020600020905b8154815290600101906020018083116118fe57829003601f168201915b50505050508152602001600782015481526020016008820160009054906101000a900473ffffffffffffffffffffffffffffffffffffffff1673ffffffffffffffffffffffffffffffffffffffff1673ffffffffffffffffffffffffffffffffffffffff1681525050815260200190600101906115c2565b5050505090508091505090565b6119a8614c13565b6004600083815260200190815260200160002060405180610120016040529081600082015481526020016001820160009054906101000a900473ffffffffffffffffffffffffffffffffffffffff1673ffffffffffffffffffffffffffffffffffffffff1673ffffffffffffffffffffffffffffffffffffffff1681526020016002820160009054906101000a900473ffffffffffffffffffffffffffffffffffffffff1673ffffffffffffffffffffffffffffffffffffffff1673ffffffffffffffffffffffffffffffffffffffff168152602001600382018054600181600116156101000203166002900480601f016020809104026020016040519081016040528092919081815260200182805460018160011615610100020316600290048015611b165780601f10611aeb57610100808354040283529160200191611b16565b820191906000526020600020905b815481529060010190602001808311611af957829003601f168201915b50505050508152602001600482018054600181600116156101000203166002900480601f016020809104026020016040519081016040528092919081815260200182805460018160011615610100020316600290048015611bb85780601f10611b8d57610100808354040283529160200191611bb8565b820191906000526020600020905b815481529060010190602001808311611b9b57829003601f168201915b50505050508152602001600582018054600181600116156101000203166002900480601f016020809104026020016040519081016040528092919081815260200182805460018160011615610100020316600290048015611c5a5780601f10611c2f57610100808354040283529160200191611c5a565b820191906000526020600020905b815481529060010190602001808311611c3d57829003601f168201915b50505050508152602001600682018054600181600116156101000203166002900480601f016020809104026020016040519081016040528092919081815260200182805460018160011615610100020316600290048015611cfc5780601f10611cd157610100808354040283529160200191611cfc565b820191906000526020600020905b815481529060010190602001808311611cdf57829003601f168201915b50505050508152602001600782015481526020016008820160009054906101000a900473ffffffffffffffffffffffffffffffffffffffff1673ffffffffffffffffffffffffffffffffffffffff1673ffffffffffffffffffffffffffffffffffffffff16815250509050600073ffffffffffffffffffffffffffffffffffffffff16816020015173ffffffffffffffffffffffffffffffffffffffff161415611ddb576040517f08c379a0000000000000000000000000000000000000000000000000000000008152600401611dd290615a8c565b60405180910390fd5b600073ffffffffffffffffffffffffffffffffffffffff16816040015173ffffffffffffffffffffffffffffffffffffffff1614611e4e576040517f08c379a0000000000000000000000000000000000000000000000000000000008152600401611e4590615acc565b60405180910390fd5b3373ffffffffffffffffffffffffffffffffffffffff16816020015173ffffffffffffffffffffffffffffffffffffffff161415611ec1576040517f08c379a0000000000000000000000000000000000000000000000000000000008152600401611eb890615aac565b60405180910390fd5b348160e0015114611f07576040517f08c379a0000000000000000000000000000000000000000000000000000000008152600401611efe90615aec565b60405180910390fd5b3373ffffffffffffffffffffffffffffffffffffffff1681610100015173ffffffffffffffffffffffffffffffffffffffff1614611f7a576040517f08c379a0000000000000000000000000000000000000000000000000000000008152600401611f7190615b2c565b60405180910390fd5b33816040019073ffffffffffffffffffffffffffffffffffffffff16908173ffffffffffffffffffffffffffffffffffffffff1681525050336004600084815260200190815260200160002060020160006101000a81548173ffffffffffffffffffffffffffffffffffffffff021916908373ffffffffffffffffffffffffffffffffffffffff16021790555060008090505b600760003373ffffffffffffffffffffffffffffffffffffffff1673ffffffffffffffffffffffffffffffffffffffff168152602001908152602001600020805490508110156121625782600760003373ffffffffffffffffffffffffffffffffffffffff1673ffffffffffffffffffffffffffffffffffffffff16815260200190815260200160002082815481106120a257fe5b90600052602060002090600902016000015414156121555733600760003373ffffffffffffffffffffffffffffffffffffffff1673ffffffffffffffffffffffffffffffffffffffff168152602001908152602001600020828154811061210557fe5b906000526020600020906009020160020160006101000a81548173ffffffffffffffffffffffffffffffffffffffff021916908373ffffffffffffffffffffffffffffffffffffffff1602179055505b808060010191505061200d565b50336004600084815260200190815260200160002060020160006101000a81548173ffffffffffffffffffffffffffffffffffffffff021916908373ffffffffffffffffffffffffffffffffffffffff160217905550600660003373ffffffffffffffffffffffffffffffffffffffff1673ffffffffffffffffffffffffffffffffffffffff16815260200190815260200160002081908060018154018082558091505090600182039060005260206000209060090201600090919290919091506000820151816000015560208201518160010160006101000a81548173ffffffffffffffffffffffffffffffffffffffff021916908373ffffffffffffffffffffffffffffffffffffffff16021790555060408201518160020160006101000a81548173ffffffffffffffffffffffffffffffffffffffff021916908373ffffffffffffffffffffffffffffffffffffffff16021790555060608201518160030190805190602001906122d7929190614b22565b5060808201518160040190805190602001906122f4929190614b22565b5060a0820151816005019080519060200190612311929190614b22565b5060c082015181600601908051906020019061232e929190614b22565b5060e082015181600701556101008201518160080160006101000a81548173ffffffffffffffffffffffffffffffffffffffff021916908373ffffffffffffffffffffffffffffffffffffffff160217905550505050806020015173ffffffffffffffffffffffffffffffffffffffff166108fc349081150290604051600060405180830381858888f193505050501580156123ce573d6000803e3d6000fd5b505050565b600060085411612418576040517f08c379a000000000000000000000000000000000000000000000000000000000815260040161240f90615a4c565b60405180910390fd5b60008111801561242a57506008548111155b612469576040517f08c379a000000000000000000000000000000000000000000000000000000000815260040161246090615b0c565b60405180910390fd5b6000600160008381526020019081526020016000209050600073ffffffffffffffffffffffffffffffffffffffff168160020160009054906101000a900473ffffffffffffffffffffffffffffffffffffffff1673ffffffffffffffffffffffffffffffffffffffff1614612513576040517f08c379a000000000000000000000000000000000000000000000000000000000815260040161250a90615acc565b60405180910390fd5b3373ffffffffffffffffffffffffffffffffffffffff168160010160009054906101000a900473ffffffffffffffffffffffffffffffffffffffff1673ffffffffffffffffffffffffffffffffffffffff1614156125a6576040517f08c379a000000000000000000000000000000000000000000000000000000000815260040161259d90615aac565b60405180910390fd5b348160070154146125ec576040517f08c379a00000000000000000000000000000000000000000000000000000000081526004016125e390615aec565b60405180910390fd5b338160020160006101000a81548173ffffffffffffffffffffffffffffffffffffffff021916908373ffffffffffffffffffffffffffffffffffffffff160217905550336001600084815260200190815260200160002060020160006101000a81548173ffffffffffffffffffffffffffffffffffffffff021916908373ffffffffffffffffffffffffffffffffffffffff160217905550600260003373ffffffffffffffffffffffffffffffffffffffff1673ffffffffffffffffffffffffffffffffffffffff1681526020019081526020016000208190806001815401808255809150509060018203906000526020600020906008020160009091929091909150600082015481600001556001820160009054906101000a900473ffffffffffffffffffffffffffffffffffffffff168160010160006101000a81548173ffffffffffffffffffffffffffffffffffffffff021916908373ffffffffffffffffffffffffffffffffffffffff1602179055506002820160009054906101000a900473ffffffffffffffffffffffffffffffffffffffff168160020160006101000a81548173ffffffffffffffffffffffffffffffffffffffff021916908373ffffffffffffffffffffffffffffffffffffffff160217905550600382018160030190805460018160011615610100020316600290046127ee929190614ca1565b5060048201816004019080546001816001161561010002031660029004612816929190614ca1565b506005820181600501908054600181600116156101000203166002900461283e929190614ca1565b5060068201816006019080546001816001161561010002031660029004612866929190614ca1565b50600782015481600701555050508060010160009054906101000a900473ffffffffffffffffffffffffffffffffffffffff1673ffffffffffffffffffffffffffffffffffffffff166108fc349081150290604051600060405180830381858888f193505050501580156128de573d6000803e3d6000fd5b505050565b6000818051602081018201805184825260208301602085012081835280955050505050506000915090508060000154908060010160009054906101000a900473ffffffffffffffffffffffffffffffffffffffff16908060020160009054906101000a900473ffffffffffffffffffffffffffffffffffffffff1690806003018054600181600116156101000203166002900480601f0160208091040260200160405190810160405280929190818152602001828054600181600116156101000203166002900480156129f75780601f106129cc576101008083540402835291602001916129f7565b820191906000526020600020905b8154815290600101906020018083116129da57829003601f168201915b505050505090806004018054600181600116156101000203166002900480601f016020809104026020016040519081016040528092919081815260200182805460018160011615610100020316600290048015612a955780601f10612a6a57610100808354040283529160200191612a95565b820191906000526020600020905b815481529060010190602001808311612a7857829003601f168201915b505050505090806005018054600181600116156101000203166002900480601f016020809104026020016040519081016040528092919081815260200182805460018160011615610100020316600290048015612b335780601f10612b0857610100808354040283529160200191612b33565b820191906000526020600020905b815481529060010190602001808311612b1657829003601f168201915b505050505090806006018054600181600116156101000203166002900480601f016020809104026020016040519081016040528092919081815260200182805460018160011615610100020316600290048015612bd15780601f10612ba657610100808354040283529160200191612bd1565b820191906000526020600020905b815481529060010190602001808311612bb457829003601f168201915b5050505050908060070154905088565b60066020528160005260406000208181548110612bfa57fe5b9060005260206000209060090201600091509150508060000154908060010160009054906101000a900473ffffffffffffffffffffffffffffffffffffffff16908060020160009054906101000a900473ffffffffffffffffffffffffffffffffffffffff1690806003018054600181600116156101000203166002900480601f016020809104026020016040519081016040528092919081815260200182805460018160011615610100020316600290048015612cf95780601f10612cce57610100808354040283529160200191612cf9565b820191906000526020600020905b815481529060010190602001808311612cdc57829003601f168201915b505050505090806004018054600181600116156101000203166002900480601f016020809104026020016040519081016040528092919081815260200182805460018160011615610100020316600290048015612d975780601f10612d6c57610100808354040283529160200191612d97565b820191906000526020600020905b815481529060010190602001808311612d7a57829003601f168201915b505050505090806005018054600181600116156101000203166002900480601f016020809104026020016040519081016040528092919081815260200182805460018160011615610100020316600290048015612e355780601f10612e0a57610100808354040283529160200191612e35565b820191906000526020600020905b815481529060010190602001808311612e1857829003601f168201915b505050505090806006018054600181600116156101000203166002900480601f016020809104026020016040519081016040528092919081815260200182805460018160011615610100020316600290048015612ed35780601f10612ea857610100808354040283529160200191612ed3565b820191906000526020600020905b815481529060010190602001808311612eb657829003601f168201915b5050505050908060070154908060080160009054906101000a900473ffffffffffffffffffffffffffffffffffffffff16905089565b60026020528160005260406000208181548110612f2257fe5b9060005260206000209060080201600091509150508060000154908060010160009054906101000a900473ffffffffffffffffffffffffffffffffffffffff16908060020160009054906101000a900473ffffffffffffffffffffffffffffffffffffffff1690806003018054600181600116156101000203166002900480601f0160208091040260200160405190810160405280929190818152602001828054600181600116156101000203166002900480156130215780601f10612ff657610100808354040283529160200191613021565b820191906000526020600020905b81548152906001019060200180831161300457829003601f168201915b505050505090806004018054600181600116156101000203166002900480601f0160208091040260200160405190810160405280929190818152602001828054600181600116156101000203166002900480156130bf5780601f10613094576101008083540402835291602001916130bf565b820191906000526020600020905b8154815290600101906020018083116130a257829003601f168201915b505050505090806005018054600181600116156101000203166002900480601f01602080910402602001604051908101604052809291908181526020018280546001816001161561010002031660029004801561315d5780601f106131325761010080835404028352916020019161315d565b820191906000526020600020905b81548152906001019060200180831161314057829003601f168201915b505050505090806006018054600181600116156101000203166002900480601f0160208091040260200160405190810160405280929190818152602001828054600181600116156101000203166002900480156131fb5780601f106131d0576101008083540402835291602001916131fb565b820191906000526020600020905b8154815290600101906020018083116131de57829003601f168201915b5050505050908060070154905088565b606080600260003373ffffffffffffffffffffffffffffffffffffffff1673ffffffffffffffffffffffffffffffffffffffff168152602001908152602001600020600660003373ffffffffffffffffffffffffffffffffffffffff1673ffffffffffffffffffffffffffffffffffffffff16815260200190815260200160002081805480602002602001604051908101604052809291908181526020016000905b82821015613628578382906000526020600020906008020160405180610100016040529081600082015481526020016001820160009054906101000a900473ffffffffffffffffffffffffffffffffffffffff1673ffffffffffffffffffffffffffffffffffffffff1673ffffffffffffffffffffffffffffffffffffffff1681526020016002820160009054906101000a900473ffffffffffffffffffffffffffffffffffffffff1673ffffffffffffffffffffffffffffffffffffffff1673ffffffffffffffffffffffffffffffffffffffff168152602001600382018054600181600116156101000203166002900480601f0160208091040260200160405190810160405280929190818152602001828054600181600116156101000203166002900480156134205780601f106133f557610100808354040283529160200191613420565b820191906000526020600020905b81548152906001019060200180831161340357829003601f168201915b50505050508152602001600482018054600181600116156101000203166002900480601f0160208091040260200160405190810160405280929190818152602001828054600181600116156101000203166002900480156134c25780601f10613497576101008083540402835291602001916134c2565b820191906000526020600020905b8154815290600101906020018083116134a557829003601f168201915b50505050508152602001600582018054600181600116156101000203166002900480601f0160208091040260200160405190810160405280929190818152602001828054600181600116156101000203166002900480156135645780601f1061353957610100808354040283529160200191613564565b820191906000526020600020905b81548152906001019060200180831161354757829003601f168201915b50505050508152602001600682018054600181600116156101000203166002900480601f0160208091040260200160405190810160405280929190818152602001828054600181600116156101000203166002900480156136065780601f106135db57610100808354040283529160200191613606565b820191906000526020600020905b8154815290600101906020018083116135e957829003601f168201915b50505050508152602001600782015481525050815260200190600101906132ad565b50505050915080805480602002602001604051908101604052809291908181526020016000905b82821015613a20578382906000526020600020906009020160405180610120016040529081600082015481526020016001820160009054906101000a900473ffffffffffffffffffffffffffffffffffffffff1673ffffffffffffffffffffffffffffffffffffffff1673ffffffffffffffffffffffffffffffffffffffff1681526020016002820160009054906101000a900473ffffffffffffffffffffffffffffffffffffffff1673ffffffffffffffffffffffffffffffffffffffff1673ffffffffffffffffffffffffffffffffffffffff168152602001600382018054600181600116156101000203166002900480601f0160208091040260200160405190810160405280929190818152602001828054600181600116156101000203166002900480156137c25780601f10613797576101008083540402835291602001916137c2565b820191906000526020600020905b8154815290600101906020018083116137a557829003601f168201915b50505050508152602001600482018054600181600116156101000203166002900480601f0160208091040260200160405190810160405280929190818152602001828054600181600116156101000203166002900480156138645780601f1061383957610100808354040283529160200191613864565b820191906000526020600020905b81548152906001019060200180831161384757829003601f168201915b50505050508152602001600582018054600181600116156101000203166002900480601f0160208091040260200160405190810160405280929190818152602001828054600181600116156101000203166002900480156139065780601f106138db57610100808354040283529160200191613906565b820191906000526020600020905b8154815290600101906020018083116138e957829003601f168201915b50505050508152602001600682018054600181600116156101000203166002900480601f0160208091040260200160405190810160405280929190818152602001828054600181600116156101000203166002900480156139a85780601f1061397d576101008083540402835291602001916139a8565b820191906000526020600020905b81548152906001019060200180831161398b57829003601f168201915b50505050508152602001600782015481526020016008820160009054906101000a900473ffffffffffffffffffffffffffffffffffffffff1673ffffffffffffffffffffffffffffffffffffffff1673ffffffffffffffffffffffffffffffffffffffff16815250508152602001906001019061364f565b505050509050915091509091565b613a36614d28565b600082604051613a469190615998565b908152602001604051809103902060405180610100016040529081600082015481526020016001820160009054906101000a900473ffffffffffffffffffffffffffffffffffffffff1673ffffffffffffffffffffffffffffffffffffffff1673ffffffffffffffffffffffffffffffffffffffff1681526020016002820160009054906101000a900473ffffffffffffffffffffffffffffffffffffffff1673ffffffffffffffffffffffffffffffffffffffff1673ffffffffffffffffffffffffffffffffffffffff168152602001600382018054600181600116156101000203166002900480601f016020809104026020016040519081016040528092919081815260200182805460018160011615610100020316600290048015613baf5780601f10613b8457610100808354040283529160200191613baf565b820191906000526020600020905b815481529060010190602001808311613b9257829003601f168201915b50505050508152602001600482018054600181600116156101000203166002900480601f016020809104026020016040519081016040528092919081815260200182805460018160011615610100020316600290048015613c515780601f10613c2657610100808354040283529160200191613c51565b820191906000526020600020905b815481529060010190602001808311613c3457829003601f168201915b50505050508152602001600582018054600181600116156101000203166002900480601f016020809104026020016040519081016040528092919081815260200182805460018160011615610100020316600290048015613cf35780601f10613cc857610100808354040283529160200191613cf3565b820191906000526020600020905b815481529060010190602001808311613cd657829003601f168201915b50505050508152602001600682018054600181600116156101000203166002900480601f016020809104026020016040519081016040528092919081815260200182805460018160011615610100020316600290048015613d955780601f10613d6a57610100808354040283529160200191613d95565b820191906000526020600020905b815481529060010190602001808311613d7857829003601f168201915b505050505081526020016007820154815250509050919050565b60016020528060005260406000206000915090508060000154908060010160009054906101000a900473ffffffffffffffffffffffffffffffffffffffff16908060020160009054906101000a900473ffffffffffffffffffffffffffffffffffffffff1690806003018054600181600116156101000203166002900480601f016020809104026020016040519081016040528092919081815260200182805460018160011615610100020316600290048015613ead5780601f10613e8257610100808354040283529160200191613ead565b820191906000526020600020905b815481529060010190602001808311613e9057829003601f168201915b505050505090806004018054600181600116156101000203166002900480601f016020809104026020016040519081016040528092919081815260200182805460018160011615610100020316600290048015613f4b5780601f10613f2057610100808354040283529160200191613f4b565b820191906000526020600020905b815481529060010190602001808311613f2e57829003601f168201915b505050505090806005018054600181600116156101000203166002900480601f016020809104026020016040519081016040528092919081815260200182805460018160011615610100020316600290048015613fe95780601f10613fbe57610100808354040283529160200191613fe9565b820191906000526020600020905b815481529060010190602001808311613fcc57829003601f168201915b505050505090806006018054600181600116156101000203166002900480601f0160208091040260200160405190810160405280929190818152602001828054600181600116156101000203166002900480156140875780601f1061405c57610100808354040283529160200191614087565b820191906000526020600020905b81548152906001019060200180831161406a57829003601f168201915b5050505050908060070154905088565b6060600560003373ffffffffffffffffffffffffffffffffffffffff1673ffffffffffffffffffffffffffffffffffffffff16815260200190815260200160002080548060200260200160405190810160405280929190818152602001828054801561412257602002820191906000526020600020905b81548152602001906001019080831161410e575b5050505050905090565b606080600760008473ffffffffffffffffffffffffffffffffffffffff1673ffffffffffffffffffffffffffffffffffffffff168152602001908152602001600020805480602002602001604051908101604052809291908181526020016000905b8282101561455f578382906000526020600020906009020160405180610120016040529081600082015481526020016001820160009054906101000a900473ffffffffffffffffffffffffffffffffffffffff1673ffffffffffffffffffffffffffffffffffffffff1673ffffffffffffffffffffffffffffffffffffffff1681526020016002820160009054906101000a900473ffffffffffffffffffffffffffffffffffffffff1673ffffffffffffffffffffffffffffffffffffffff1673ffffffffffffffffffffffffffffffffffffffff168152602001600382018054600181600116156101000203166002900480601f0160208091040260200160405190810160405280929190818152602001828054600181600116156101000203166002900480156143015780601f106142d657610100808354040283529160200191614301565b820191906000526020600020905b8154815290600101906020018083116142e457829003601f168201915b50505050508152602001600482018054600181600116156101000203166002900480601f0160208091040260200160405190810160405280929190818152602001828054600181600116156101000203166002900480156143a35780601f10614378576101008083540402835291602001916143a3565b820191906000526020600020905b81548152906001019060200180831161438657829003601f168201915b50505050508152602001600582018054600181600116156101000203166002900480601f0160208091040260200160405190810160405280929190818152602001828054600181600116156101000203166002900480156144455780601f1061441a57610100808354040283529160200191614445565b820191906000526020600020905b81548152906001019060200180831161442857829003601f168201915b50505050508152602001600682018054600181600116156101000203166002900480601f0160208091040260200160405190810160405280929190818152602001828054600181600116156101000203166002900480156144e75780601f106144bc576101008083540402835291602001916144e7565b820191906000526020600020905b8154815290600101906020018083116144ca57829003601f168201915b50505050508152602001600782015481526020016008820160009054906101000a900473ffffffffffffffffffffffffffffffffffffffff1673ffffffffffffffffffffffffffffffffffffffff1673ffffffffffffffffffffffffffffffffffffffff16815250508152602001906001019061418e565b505050509050606081516040519080825280602002602001820160405280156145a257816020015b61458f614d99565b8152602001906001900390816145875790505b509050600080905060008090505b8351811015614645573373ffffffffffffffffffffffffffffffffffffffff168482815181106145dc57fe5b60200260200101516020015173ffffffffffffffffffffffffffffffffffffffff1614156146385783818151811061461057fe5b602002602001015183838151811061462457fe5b602002602001018190525081806001019250505b80806001019150506145b0565b5060608160405190808252806020026020018201604052801561468257816020015b61466f614d99565b8152602001906001900390816146675790505b50905060008090505b828110156146cb5783818151811061469f57fe5b60200260200101518282815181106146b357fe5b6020026020010181905250808060010191505061468b565b5080945050505050919050565b6146e0614c13565b6146e8614c13565b6004600084815260200190815260200160002060405180610120016040529081600082015481526020016001820160009054906101000a900473ffffffffffffffffffffffffffffffffffffffff1673ffffffffffffffffffffffffffffffffffffffff1673ffffffffffffffffffffffffffffffffffffffff1681526020016002820160009054906101000a900473ffffffffffffffffffffffffffffffffffffffff1673ffffffffffffffffffffffffffffffffffffffff1673ffffffffffffffffffffffffffffffffffffffff168152602001600382018054600181600116156101000203166002900480601f0160208091040260200160405190810160405280929190818152602001828054600181600116156101000203166002900480156148565780601f1061482b57610100808354040283529160200191614856565b820191906000526020600020905b81548152906001019060200180831161483957829003601f168201915b50505050508152602001600482018054600181600116156101000203166002900480601f0160208091040260200160405190810160405280929190818152602001828054600181600116156101000203166002900480156148f85780601f106148cd576101008083540402835291602001916148f8565b820191906000526020600020905b8154815290600101906020018083116148db57829003601f168201915b50505050508152602001600582018054600181600116156101000203166002900480601f01602080910402602001604051908101604052809291908181526020018280546001816001161561010002031660029004801561499a5780601f1061496f5761010080835404028352916020019161499a565b820191906000526020600020905b81548152906001019060200180831161497d57829003601f168201915b50505050508152602001600682018054600181600116156101000203166002900480601f016020809104026020016040519081016040528092919081815260200182805460018160011615610100020316600290048015614a3c5780601f10614a1157610100808354040283529160200191614a3c565b820191906000526020600020905b815481529060010190602001808311614a1f57829003601f168201915b50505050508152602001600782015481526020016008820160009054906101000a900473ffffffffffffffffffffffffffffffffffffffff1673ffffffffffffffffffffffffffffffffffffffff1673ffffffffffffffffffffffffffffffffffffffff168152505090503373ffffffffffffffffffffffffffffffffffffffff16816020015173ffffffffffffffffffffffffffffffffffffffff1614614b19576040517f08c379a0000000000000000000000000000000000000000000000000000000008152600401614b1090615a6c565b60405180910390fd5b80915050919050565b828054600181600116156101000203166002900490600052602060002090601f016020900481019282601f10614b6357805160ff1916838001178555614b91565b82800160010185558215614b91579182015b82811115614b90578251825591602001919060010190614b75565b5b509050614b9e9190614e27565b5090565b60405180610100016040528060008152602001600073ffffffffffffffffffffffffffffffffffffffff168152602001600073ffffffffffffffffffffffffffffffffffffffff16815260200160608152602001606081526020016060815260200160608152602001600081525090565b60405180610120016040528060008152602001600073ffffffffffffffffffffffffffffffffffffffff168152602001600073ffffffffffffffffffffffffffffffffffffffff1681526020016060815260200160608152602001606081526020016060815260200160008152602001600073ffffffffffffffffffffffffffffffffffffffff1681525090565b828054600181600116156101000203166002900490600052602060002090601f016020900481019282601f10614cda5780548555614d17565b82800160010185558215614d1757600052602060002091601f016020900482015b82811115614d16578254825591600101919060010190614cfb565b5b509050614d249190614e27565b5090565b60405180610100016040528060008152602001600073ffffffffffffffffffffffffffffffffffffffff168152602001600073ffffffffffffffffffffffffffffffffffffffff16815260200160608152602001606081526020016060815260200160608152602001600081525090565b60405180610120016040528060008152602001600073ffffffffffffffffffffffffffffffffffffffff168152602001600073ffffffffffffffffffffffffffffffffffffffff1681526020016060815260200160608152602001606081526020016060815260200160008152602001600073ffffffffffffffffffffffffffffffffffffffff1681525090565b614e4991905b80821115614e45576000816000905550600101614e2d565b5090565b90565b600081359050614e5b81615f02565b92915050565b600082601f830112614e7257600080fd5b8135614e85614e8082615d1b565b615cee565b91508082526020830160208301858383011115614ea157600080fd5b614eac838284615eaf565b50505092915050565b600082601f830112614ec657600080fd5b8135614ed9614ed482615d47565b615cee565b91508082526020830160208301858383011115614ef557600080fd5b614f00838284615eaf565b50505092915050565b600081359050614f1881615f19565b92915050565b600060208284031215614f3057600080fd5b6000614f3e84828501614e4c565b91505092915050565b60008060408385031215614f5a57600080fd5b6000614f6885828601614e4c565b9250506020614f7985828601614f09565b9150509250929050565b600060208284031215614f9557600080fd5b600082013567ffffffffffffffff811115614faf57600080fd5b614fbb84828501614e61565b91505092915050565b600060208284031215614fd657600080fd5b600082013567ffffffffffffffff811115614ff057600080fd5b614ffc84828501614eb5565b91505092915050565b60008060008060008060c0878903121561501e57600080fd5b600087013567ffffffffffffffff81111561503857600080fd5b61504489828a01614eb5565b965050602087013567ffffffffffffffff81111561506157600080fd5b61506d89828a01614eb5565b955050604087013567ffffffffffffffff81111561508a57600080fd5b61509689828a01614eb5565b945050606087013567ffffffffffffffff8111156150b357600080fd5b6150bf89828a01614eb5565b93505060806150d089828a01614f09565b92505060a06150e189828a01614e4c565b9150509295509295509295565b60006020828403121561510057600080fd5b600061510e84828501614f09565b91505092915050565b60006151238383615701565b905092915050565b600061513783836158a0565b905092915050565b600061514b838361597a565b60208301905092915050565b61516081615e73565b82525050565b61516f81615e73565b82525050565b61517e81615e61565b82525050565b61518d81615e61565b82525050565b600061519e82615da3565b6151a88185615e01565b9350836020820285016151ba85615d73565b8060005b858110156151f657848403895281516151d78582615117565b94506151e283615dda565b925060208a019950506001810190506151be565b50829750879550505050505092915050565b600061521382615dae565b61521d8185615e12565b93508360208202850161522f85615d83565b8060005b8581101561526b578484038952815161524c858261512b565b945061525783615de7565b925060208a01995050600181019050615233565b50829750879550505050505092915050565b600061528882615db9565b6152928185615e23565b935061529d83615d93565b8060005b838110156152ce5781516152b5888261513f565b97506152c083615df4565b9250506001810190506152a1565b5085935050505092915050565b60006152e682615dcf565b6152f08185615e56565b9350615300818560208601615ebe565b80840191505092915050565b600061531782615dc4565b6153218185615e34565b9350615331818560208601615ebe565b61533a81615ef1565b840191505092915050565b600061535082615dc4565b61535a8185615e45565b935061536a818560208601615ebe565b61537381615ef1565b840191505092915050565b600061538b602483615e45565b91507f54686572652073686f756c64206265206174206c65617374206f6e6520616e6160008301527f6c797365000000000000000000000000000000000000000000000000000000006020830152604082019050919050565b60006153f1603483615e45565b91507f546869732069732061207072697661746520616e616c7973652c20616e64207960008301527f6f7520617265206e6f7420746865206f776e65720000000000000000000000006020830152604082019050919050565b6000615457601283615e45565b91507f416e616c797a65206e6f7420666f756e642100000000000000000000000000006000830152602082019050919050565b6000615497602183615e45565b91507f53656c6c65722063616e6e6f742062757920686973206f776e20616e616c797360008301527f65000000000000000000000000000000000000000000000000000000000000006020830152604082019050919050565b60006154fd601883615e45565b91507f616e616c7973652077617320616c726561647920736f6c6400000000000000006000830152602082019050919050565b600061553d602e83615e45565b91507f56616c75652070726f766964656420646f6573206e6f74206d6174636820707260008301527f696365206f6620616e616c7973650000000000000000000000000000000000006020830152604082019050919050565b60006155a3602383615e45565b91507f616e616c7973652077697468207468697320696420646f6573206e6f7420657860008301527f69737400000000000000000000000000000000000000000000000000000000006020830152604082019050919050565b6000615609601183615e45565b91507f596f7520617265206e6f74206f776e65720000000000000000000000000000006000830152602082019050919050565b600061010083016000830151615655600086018261597a565b5060208301516156686020860182615157565b50604083015161567b6040860182615175565b5060608301518482036060860152615693828261530c565b915050608083015184820360808601526156ad828261530c565b91505060a083015184820360a08601526156c7828261530c565b91505060c083015184820360c08601526156e1828261530c565b91505060e08301516156f660e086018261597a565b508091505092915050565b60006101008301600083015161571a600086018261597a565b50602083015161572d6020860182615157565b5060408301516157406040860182615175565b5060608301518482036060860152615758828261530c565b91505060808301518482036080860152615772828261530c565b91505060a083015184820360a086015261578c828261530c565b91505060c083015184820360c08601526157a6828261530c565b91505060e08301516157bb60e086018261597a565b508091505092915050565b6000610120830160008301516157df600086018261597a565b5060208301516157f26020860182615157565b5060408301516158056040860182615175565b506060830151848203606086015261581d828261530c565b91505060808301518482036080860152615837828261530c565b91505060a083015184820360a0860152615851828261530c565b91505060c083015184820360c086015261586b828261530c565b91505060e083015161588060e086018261597a565b50610100830151615895610100860182615175565b508091505092915050565b6000610120830160008301516158b9600086018261597a565b5060208301516158cc6020860182615157565b5060408301516158df6040860182615175565b50606083015184820360608601526158f7828261530c565b91505060808301518482036080860152615911828261530c565b91505060a083015184820360a086015261592b828261530c565b91505060c083015184820360c0860152615945828261530c565b91505060e083015161595a60e086018261597a565b5061010083015161596f610100860182615175565b508091505092915050565b61598381615ea5565b82525050565b61599281615ea5565b82525050565b60006159a482846152db565b915081905092915050565b600060208201905081810360008301526159c98184615193565b905092915050565b600060408201905081810360008301526159eb8185615193565b905081810360208301526159ff8184615208565b90509392505050565b60006020820190508181036000830152615a228184615208565b905092915050565b60006020820190508181036000830152615a44818461527d565b905092915050565b60006020820190508181036000830152615a658161537e565b9050919050565b60006020820190508181036000830152615a85816153e4565b9050919050565b60006020820190508181036000830152615aa58161544a565b9050919050565b60006020820190508181036000830152615ac58161548a565b9050919050565b60006020820190508181036000830152615ae5816154f0565b9050919050565b60006020820190508181036000830152615b0581615530565b9050919050565b60006020820190508181036000830152615b2581615596565b9050919050565b60006020820190508181036000830152615b45816155fc565b9050919050565b60006020820190508181036000830152615b66818461563c565b905092915050565b60006020820190508181036000830152615b8881846157c6565b905092915050565b6000602082019050615ba56000830184615989565b92915050565b600061010082019050615bc1600083018b615989565b615bce602083018a615166565b615bdb6040830189615184565b8181036060830152615bed8188615345565b90508181036080830152615c018187615345565b905081810360a0830152615c158186615345565b905081810360c0830152615c298185615345565b9050615c3860e0830184615989565b9998505050505050505050565b600061012082019050615c5b600083018c615989565b615c68602083018b615166565b615c75604083018a615184565b8181036060830152615c878189615345565b90508181036080830152615c9b8188615345565b905081810360a0830152615caf8187615345565b905081810360c0830152615cc38186615345565b9050615cd260e0830185615989565b615ce0610100830184615184565b9a9950505050505050505050565b6000604051905081810181811067ffffffffffffffff82111715615d1157600080fd5b8060405250919050565b600067ffffffffffffffff821115615d3257600080fd5b601f19601f8301169050602081019050919050565b600067ffffffffffffffff821115615d5e57600080fd5b601f19601f8301169050602081019050919050565b6000819050602082019050919050565b6000819050602082019050919050565b6000819050602082019050919050565b600081519050919050565b600081519050919050565b600081519050919050565b600081519050919050565b600081519050919050565b6000602082019050919050565b6000602082019050919050565b6000602082019050919050565b600082825260208201905092915050565b600082825260208201905092915050565b600082825260208201905092915050565b600082825260208201905092915050565b600082825260208201905092915050565b600081905092915050565b6000615e6c82615e85565b9050919050565b6000615e7e82615e85565b9050919050565b600073ffffffffffffffffffffffffffffffffffffffff82169050919050565b6000819050919050565b82818337600083830152505050565b60005b83811015615edc578082015181840152602081019050615ec1565b83811115615eeb576000848401525b50505050565b6000601f19601f8301169050919050565b615f0b81615e61565b8114615f1657600080fd5b50565b615f2281615ea5565b8114615f2d57600080fd5b5056fea365627a7a72315820659998145ce754bf8afab7d69866ccb5dbdb1b9f7275aba4200381991cde731b6c6578706572696d656e74616cf564736f6c63430005110040",
  "compiler": {
    "name": "solc",
    "version": "0.5.17+commit.d19bba13.Emscripten.clang",
    "optimizer": {
      "enabled": false,
      "runs": 200
    },
    "evmVersion": "petersburg"
  }
}