{
  "fileName": "Tracepic.sol",
  "contractName": "Tracepic",
  "source": "pragma experimental ABIEncoderV2;\npragma solidity >0.4.99 <0.6.0;\n\n\ncontract Tracepic {\n    struct analyse {\n        uint256 id;\n        address payable seller;\n        address buyer;\n        string analyseReference;\n        string date;\n        string value;\n        string description;\n        uint256 price;\n    }\n\n    struct privateAnalyse {\n        uint256 id;\n        address payable seller;\n        address buyer;\n        string analyseReference;\n        string date;\n        string value;\n        string description;\n        uint256 price;\n        address owner;\n    }\n\n    mapping(uint256 => analyse) public publicAnalysisById;\n    mapping(string => analyse) public publicAnalysisByRef;\n    mapping(address => uint256[]) private publicAnalysesPoster;\n    mapping(address => analyse[]) public publicAnalysisBuyer;\n\n    mapping(uint256 => privateAnalyse) private privateAnalysis;\n\n    mapping(address => privateAnalyse[]) public privateAnalysisBuyer;\n    mapping(address => privateAnalyse[]) private privateAnalysesOwner;\n    mapping(address => uint256[]) private privateAnalysesPoster;\n\n    // State variables\n    uint256 publicAnalyseCounter;\n    uint256 privateAnalysesCounter;\n\n    function initContract() public {\n        postAnalyse(\"0\", \"0\", \"0\", \"0\", 0, address(0));\n        /*for (uint i = 0; i < 28; i++){\n            postAnalyse(\"byte(i)\", \"byte(i)\", \"byte(i)\", \"byte(i)\", i, address(0));\n        }*/\n    }\n\n    // sell an analyse\n    function postAnalyse(\n        string memory _analyseReference,\n        string memory _value,\n        string memory _date,\n        string memory _description,\n        uint256 _price,\n        address _owner\n    ) public {\n        if (_owner != address(0)) {\n            privateAnalysesCounter++;\n\n            privateAnalysesPoster[msg.sender].push(privateAnalysesCounter);\n\n            privateAnalysis[privateAnalysesCounter] = (\n                privateAnalyse(\n                    privateAnalysesCounter,\n                    msg.sender,\n                    address(0),\n                    _analyseReference,\n                    _date,\n                    _value,\n                    _description,\n                    _price,\n                    _owner\n                )\n            );\n\n            privateAnalysesOwner[_owner].push(\n                privateAnalyse(\n                    privateAnalysesCounter,\n                    msg.sender,\n                    address(0),\n                    _analyseReference,\n                    _date,\n                    _value,\n                    _description,\n                    _price,\n                    _owner\n                )\n            );\n        } else {\n            publicAnalyseCounter++;\n            publicAnalysesPoster[msg.sender].push(publicAnalyseCounter);\n            publicAnalysisById[publicAnalyseCounter] = analyse(\n                publicAnalyseCounter,\n                msg.sender,\n                address(0),\n                _analyseReference,\n                _date,\n                _value,\n                _description,\n                _price\n            );\n            publicAnalysisByRef[_analyseReference] = analyse(\n                publicAnalyseCounter,\n                msg.sender,\n                address(0),\n                _analyseReference,\n                _date,\n                _value,\n                _description,\n                _price\n            );\n        }\n    }\n\n    // buy an analyse\n    function buyAnalyse(uint256 _id) public payable {\n        // we check whether there is at least one analyse\n        require(\n            publicAnalyseCounter > 0,\n            \"There should be at least one analyse\"\n        );\n\n        // we check whether the analyse exists\n        require(\n            _id > 0 && _id <= publicAnalyseCounter,\n            \"analyse with this id does not exist\"\n        );\n        // we retrieve the analyse\n        analyse storage analyseToBuy = publicAnalysisById[_id];\n        // we check whether the analyse has not already been sold\n        require(analyseToBuy.buyer == address(0), \"analyse was already sold\");\n        // we don't allow the seller to buy his/her own analyse\n        require(\n            analyseToBuy.seller != msg.sender,\n            \"Seller cannot buy his own analyse\"\n        );\n        // we check whether the value sent corresponds to the analyse price\n        require(\n            analyseToBuy.price == msg.value,\n            \"Value provided does not match price of analyse\"\n        );\n\n        // keep buyer's information\n        analyseToBuy.buyer = msg.sender;\n\n        publicAnalysisBuyer[msg.sender].push(analyseToBuy);\n        // the buyer can buy the analyse\n        analyseToBuy.seller.transfer(msg.value);\n    }\n\n    // buy a private analyse\n    function buyPrivateAnalyse(uint256 analyseId) public payable {\n        // we retrieve the analyse\n        privateAnalyse memory analyseToBuy = privateAnalysis[analyseId];\n        // we check whether the analyse exists\n        require(analyseToBuy.seller != address(0), \"Analyze not found!\");\n        // we check whether the analyse has not already been sold\n        require(analyseToBuy.buyer == address(0), \"analyse was already sold\");\n        // we don't allow the seller to buy his/her own analyse\n        require(\n            analyseToBuy.seller != msg.sender,\n            \"Seller cannot buy his own analyse\"\n        );\n        // we check whether the value sent corresponds to the analyse price\n        require(\n            analyseToBuy.price == msg.value,\n            \"Value provided does not match price of analyse\"\n        );\n\n        require(analyseToBuy.owner == msg.sender, \"You are not owner\");\n\n        // keep buyer's information\n        analyseToBuy.buyer = msg.sender;\n\n        privateAnalysis[analyseId].buyer = msg.sender;\n        privateAnalysisBuyer[msg.sender].push(analyseToBuy);\n        // the buyer can buy the analyse\n        analyseToBuy.seller.transfer(msg.value);\n    }\n\n    // fetch and returns all analyse IDs available for sale\n    function getAnalysesForSale(uint256 lot)\n        public\n        view\n        returns (analyse[] memory)\n    {\n        // we check whether there is at least one analyse\n        if (publicAnalyseCounter == 0) {\n            return new analyse[](0);\n        }\n        // prepare output arrays\n        analyse[] memory analysis = new analyse[](10);\n        uint256 numberOfAnalysesForSale = 0;\n        uint256 fromm = publicAnalyseCounter - (lot * 10) + 10;\n        uint256 to = 0;\n        if (fromm >= 9) {\n            to = fromm - 9;\n        } else {\n            to = 1;\n        }\n        for (uint256 i = fromm; i >= to; i--) {\n            analysis[numberOfAnalysesForSale] = publicAnalysisById[i];\n            numberOfAnalysesForSale++;\n        }\n        return analysis;\n    }\n\n    function getSelfPostedPublicAnalysisIds()\n        public\n        view\n        returns (uint256[] memory)\n    {\n        return publicAnalysesPoster[msg.sender];\n    }\n\n    function getSelfPostedPrivateAnalysisIds()\n        public\n        view\n        returns (uint256[] memory)\n    {\n        return privateAnalysesPoster[msg.sender];\n    }\n\n    function getSelfPostedPrivateAnalyse(uint256 analyseId)\n        public\n        view\n        returns (privateAnalyse memory)\n    {\n        privateAnalyse memory _analyse = privateAnalysis[analyseId];\n        require(\n            _analyse.seller == msg.sender,\n            \"This is a private analyse, and you are not the owner\"\n        );\n        return _analyse;\n    }\n\n    function getSelfPostedPrivateAnalyseByAddress(address owner)\n        public\n        view\n        returns (privateAnalyse[] memory)\n    {\n        privateAnalyse[] memory analysis = privateAnalysesOwner[owner];\n        privateAnalyse[] memory postedAnalysis = new privateAnalyse[](\n            analysis.length\n        );\n        uint256 counter = 0;\n        for (uint256 i = 0; i < analysis.length; i++) {\n            if (analysis[i].seller == msg.sender) {\n                postedAnalysis[counter] = analysis[i];\n                counter++;\n            }\n        }\n        privateAnalyse[] memory finalAnalysis = new privateAnalyse[](counter);\n        for (uint256 i = 0; i < counter; i++) {\n            finalAnalysis[i] = postedAnalysis[i];\n        }\n        return finalAnalysis;\n    }\n\n    function getSelfBoughtAnalysis()\n        public\n        view\n        returns (analyse[] memory publicA, privateAnalyse[] memory privateA)\n    {\n        return (\n            publicAnalysisBuyer[msg.sender],\n            privateAnalysisBuyer[msg.sender]\n        );\n    }\n\n    function getAnalyseByReference(string memory _reference)\n        public\n        view\n        returns (analyse memory)\n    {\n        return publicAnalysisByRef[_reference];\n    }\n\n    function getPrivateAnalyse() public view returns (privateAnalyse[] memory) {\n        privateAnalyse[] memory _analyse = privateAnalysesOwner[msg.sender];\n        return _analyse;\n    }\n}\n",
  "sourcePath": "contracts/Tracepic.sol",
  "abi": [
    {
      "constant": false,
      "inputs": [
        {
          "internalType": "uint256",
          "name": "_id",
          "type": "uint256"
        }
      ],
      "name": "buyAnalyse",
      "outputs": [],
      "payable": true,
      "stateMutability": "payable",
      "type": "function"
    },
    {
      "constant": false,
      "inputs": [
        {
          "internalType": "uint256",
          "name": "analyseId",
          "type": "uint256"
        }
      ],
      "name": "buyPrivateAnalyse",
      "outputs": [],
      "payable": true,
      "stateMutability": "payable",
      "type": "function"
    },
    {
      "constant": true,
      "inputs": [
        {
          "internalType": "string",
          "name": "_reference",
          "type": "string"
        }
      ],
      "name": "getAnalyseByReference",
      "outputs": [
        {
          "components": [
            {
              "internalType": "uint256",
              "name": "id",
              "type": "uint256"
            },
            {
              "internalType": "address payable",
              "name": "seller",
              "type": "address"
            },
            {
              "internalType": "address",
              "name": "buyer",
              "type": "address"
            },
            {
              "internalType": "string",
              "name": "analyseReference",
              "type": "string"
            },
            {
              "internalType": "string",
              "name": "date",
              "type": "string"
            },
            {
              "internalType": "string",
              "name": "value",
              "type": "string"
            },
            {
              "internalType": "string",
              "name": "description",
              "type": "string"
            },
            {
              "internalType": "uint256",
              "name": "price",
              "type": "uint256"
            }
          ],
          "internalType": "struct Tracepic.analyse",
          "name": "",
          "type": "tuple"
        }
      ],
      "payable": false,
      "stateMutability": "view",
      "type": "function"
    },
    {
      "constant": true,
      "inputs": [
        {
          "internalType": "uint256",
          "name": "lot",
          "type": "uint256"
        }
      ],
      "name": "getAnalysesForSale",
      "outputs": [
        {
          "components": [
            {
              "internalType": "uint256",
              "name": "id",
              "type": "uint256"
            },
            {
              "internalType": "address payable",
              "name": "seller",
              "type": "address"
            },
            {
              "internalType": "address",
              "name": "buyer",
              "type": "address"
            },
            {
              "internalType": "string",
              "name": "analyseReference",
              "type": "string"
            },
            {
              "internalType": "string",
              "name": "date",
              "type": "string"
            },
            {
              "internalType": "string",
              "name": "value",
              "type": "string"
            },
            {
              "internalType": "string",
              "name": "description",
              "type": "string"
            },
            {
              "internalType": "uint256",
              "name": "price",
              "type": "uint256"
            }
          ],
          "internalType": "struct Tracepic.analyse[]",
          "name": "",
          "type": "tuple[]"
        }
      ],
      "payable": false,
      "stateMutability": "view",
      "type": "function"
    },
    {
      "constant": true,
      "inputs": [],
      "name": "getPrivateAnalyse",
      "outputs": [
        {
          "components": [
            {
              "internalType": "uint256",
              "name": "id",
              "type": "uint256"
            },
            {
              "internalType": "address payable",
              "name": "seller",
              "type": "address"
            },
            {
              "internalType": "address",
              "name": "buyer",
              "type": "address"
            },
            {
              "internalType": "string",
              "name": "analyseReference",
              "type": "string"
            },
            {
              "internalType": "string",
              "name": "date",
              "type": "string"
            },
            {
              "internalType": "string",
              "name": "value",
              "type": "string"
            },
            {
              "internalType": "string",
              "name": "description",
              "type": "string"
            },
            {
              "internalType": "uint256",
              "name": "price",
              "type": "uint256"
            },
            {
              "internalType": "address",
              "name": "owner",
              "type": "address"
            }
          ],
          "internalType": "struct Tracepic.privateAnalyse[]",
          "name": "",
          "type": "tuple[]"
        }
      ],
      "payable": false,
      "stateMutability": "view",
      "type": "function"
    },
    {
      "constant": true,
      "inputs": [],
      "name": "getSelfBoughtAnalysis",
      "outputs": [
        {
          "components": [
            {
              "internalType": "uint256",
              "name": "id",
              "type": "uint256"
            },
            {
              "internalType": "address payable",
              "name": "seller",
              "type": "address"
            },
            {
              "internalType": "address",
              "name": "buyer",
              "type": "address"
            },
            {
              "internalType": "string",
              "name": "analyseReference",
              "type": "string"
            },
            {
              "internalType": "string",
              "name": "date",
              "type": "string"
            },
            {
              "internalType": "string",
              "name": "value",
              "type": "string"
            },
            {
              "internalType": "string",
              "name": "description",
              "type": "string"
            },
            {
              "internalType": "uint256",
              "name": "price",
              "type": "uint256"
            }
          ],
          "internalType": "struct Tracepic.analyse[]",
          "name": "publicA",
          "type": "tuple[]"
        },
        {
          "components": [
            {
              "internalType": "uint256",
              "name": "id",
              "type": "uint256"
            },
            {
              "internalType": "address payable",
              "name": "seller",
              "type": "address"
            },
            {
              "internalType": "address",
              "name": "buyer",
              "type": "address"
            },
            {
              "internalType": "string",
              "name": "analyseReference",
              "type": "string"
            },
            {
              "internalType": "string",
              "name": "date",
              "type": "string"
            },
            {
              "internalType": "string",
              "name": "value",
              "type": "string"
            },
            {
              "internalType": "string",
              "name": "description",
              "type": "string"
            },
            {
              "internalType": "uint256",
              "name": "price",
              "type": "uint256"
            },
            {
              "internalType": "address",
              "name": "owner",
              "type": "address"
            }
          ],
          "internalType": "struct Tracepic.privateAnalyse[]",
          "name": "privateA",
          "type": "tuple[]"
        }
      ],
      "payable": false,
      "stateMutability": "view",
      "type": "function"
    },
    {
      "constant": true,
      "inputs": [
        {
          "internalType": "uint256",
          "name": "analyseId",
          "type": "uint256"
        }
      ],
      "name": "getSelfPostedPrivateAnalyse",
      "outputs": [
        {
          "components": [
            {
              "internalType": "uint256",
              "name": "id",
              "type": "uint256"
            },
            {
              "internalType": "address payable",
              "name": "seller",
              "type": "address"
            },
            {
              "internalType": "address",
              "name": "buyer",
              "type": "address"
            },
            {
              "internalType": "string",
              "name": "analyseReference",
              "type": "string"
            },
            {
              "internalType": "string",
              "name": "date",
              "type": "string"
            },
            {
              "internalType": "string",
              "name": "value",
              "type": "string"
            },
            {
              "internalType": "string",
              "name": "description",
              "type": "string"
            },
            {
              "internalType": "uint256",
              "name": "price",
              "type": "uint256"
            },
            {
              "internalType": "address",
              "name": "owner",
              "type": "address"
            }
          ],
          "internalType": "struct Tracepic.privateAnalyse",
          "name": "",
          "type": "tuple"
        }
      ],
      "payable": false,
      "stateMutability": "view",
      "type": "function"
    },
    {
      "constant": true,
      "inputs": [
        {
          "internalType": "address",
          "name": "owner",
          "type": "address"
        }
      ],
      "name": "getSelfPostedPrivateAnalyseByAddress",
      "outputs": [
        {
          "components": [
            {
              "internalType": "uint256",
              "name": "id",
              "type": "uint256"
            },
            {
              "internalType": "address payable",
              "name": "seller",
              "type": "address"
            },
            {
              "internalType": "address",
              "name": "buyer",
              "type": "address"
            },
            {
              "internalType": "string",
              "name": "analyseReference",
              "type": "string"
            },
            {
              "internalType": "string",
              "name": "date",
              "type": "string"
            },
            {
              "internalType": "string",
              "name": "value",
              "type": "string"
            },
            {
              "internalType": "string",
              "name": "description",
              "type": "string"
            },
            {
              "internalType": "uint256",
              "name": "price",
              "type": "uint256"
            },
            {
              "internalType": "address",
              "name": "owner",
              "type": "address"
            }
          ],
          "internalType": "struct Tracepic.privateAnalyse[]",
          "name": "",
          "type": "tuple[]"
        }
      ],
      "payable": false,
      "stateMutability": "view",
      "type": "function"
    },
    {
      "constant": true,
      "inputs": [],
      "name": "getSelfPostedPrivateAnalysisIds",
      "outputs": [
        {
          "internalType": "uint256[]",
          "name": "",
          "type": "uint256[]"
        }
      ],
      "payable": false,
      "stateMutability": "view",
      "type": "function"
    },
    {
      "constant": true,
      "inputs": [],
      "name": "getSelfPostedPublicAnalysisIds",
      "outputs": [
        {
          "internalType": "uint256[]",
          "name": "",
          "type": "uint256[]"
        }
      ],
      "payable": false,
      "stateMutability": "view",
      "type": "function"
    },
    {
      "constant": false,
      "inputs": [],
      "name": "initContract",
      "outputs": [],
      "payable": false,
      "stateMutability": "nonpayable",
      "type": "function"
    },
    {
      "constant": false,
      "inputs": [
        {
          "internalType": "string",
          "name": "_analyseReference",
          "type": "string"
        },
        {
          "internalType": "string",
          "name": "_value",
          "type": "string"
        },
        {
          "internalType": "string",
          "name": "_date",
          "type": "string"
        },
        {
          "internalType": "string",
          "name": "_description",
          "type": "string"
        },
        {
          "internalType": "uint256",
          "name": "_price",
          "type": "uint256"
        },
        {
          "internalType": "address",
          "name": "_owner",
          "type": "address"
        }
      ],
      "name": "postAnalyse",
      "outputs": [],
      "payable": false,
      "stateMutability": "nonpayable",
      "type": "function"
    },
    {
      "constant": true,
      "inputs": [
        {
          "internalType": "address",
          "name": "",
          "type": "address"
        },
        {
          "internalType": "uint256",
          "name": "",
          "type": "uint256"
        }
      ],
      "name": "privateAnalysisBuyer",
      "outputs": [
        {
          "internalType": "uint256",
          "name": "id",
          "type": "uint256"
        },
        {
          "internalType": "address payable",
          "name": "seller",
          "type": "address"
        },
        {
          "internalType": "address",
          "name": "buyer",
          "type": "address"
        },
        {
          "internalType": "string",
          "name": "analyseReference",
          "type": "string"
        },
        {
          "internalType": "string",
          "name": "date",
          "type": "string"
        },
        {
          "internalType": "string",
          "name": "value",
          "type": "string"
        },
        {
          "internalType": "string",
          "name": "description",
          "type": "string"
        },
        {
          "internalType": "uint256",
          "name": "price",
          "type": "uint256"
        },
        {
          "internalType": "address",
          "name": "owner",
          "type": "address"
        }
      ],
      "payable": false,
      "stateMutability": "view",
      "type": "function"
    },
    {
      "constant": true,
      "inputs": [
        {
          "internalType": "address",
          "name": "",
          "type": "address"
        },
        {
          "internalType": "uint256",
          "name": "",
          "type": "uint256"
        }
      ],
      "name": "publicAnalysisBuyer",
      "outputs": [
        {
          "internalType": "uint256",
          "name": "id",
          "type": "uint256"
        },
        {
          "internalType": "address payable",
          "name": "seller",
          "type": "address"
        },
        {
          "internalType": "address",
          "name": "buyer",
          "type": "address"
        },
        {
          "internalType": "string",
          "name": "analyseReference",
          "type": "string"
        },
        {
          "internalType": "string",
          "name": "date",
          "type": "string"
        },
        {
          "internalType": "string",
          "name": "value",
          "type": "string"
        },
        {
          "internalType": "string",
          "name": "description",
          "type": "string"
        },
        {
          "internalType": "uint256",
          "name": "price",
          "type": "uint256"
        }
      ],
      "payable": false,
      "stateMutability": "view",
      "type": "function"
    },
    {
      "constant": true,
      "inputs": [
        {
          "internalType": "uint256",
          "name": "",
          "type": "uint256"
        }
      ],
      "name": "publicAnalysisById",
      "outputs": [
        {
          "internalType": "uint256",
          "name": "id",
          "type": "uint256"
        },
        {
          "internalType": "address payable",
          "name": "seller",
          "type": "address"
        },
        {
          "internalType": "address",
          "name": "buyer",
          "type": "address"
        },
        {
          "internalType": "string",
          "name": "analyseReference",
          "type": "string"
        },
        {
          "internalType": "string",
          "name": "date",
          "type": "string"
        },
        {
          "internalType": "string",
          "name": "value",
          "type": "string"
        },
        {
          "internalType": "string",
          "name": "description",
          "type": "string"
        },
        {
          "internalType": "uint256",
          "name": "price",
          "type": "uint256"
        }
      ],
      "payable": false,
      "stateMutability": "view",
      "type": "function"
    },
    {
      "constant": true,
      "inputs": [
        {
          "internalType": "string",
          "name": "",
          "type": "string"
        }
      ],
      "name": "publicAnalysisByRef",
      "outputs": [
        {
          "internalType": "uint256",
          "name": "id",
          "type": "uint256"
        },
        {
          "internalType": "address payable",
          "name": "seller",
          "type": "address"
        },
        {
          "internalType": "address",
          "name": "buyer",
          "type": "address"
        },
        {
          "internalType": "string",
          "name": "analyseReference",
          "type": "string"
        },
        {
          "internalType": "string",
          "name": "date",
          "type": "string"
        },
        {
          "internalType": "string",
          "name": "value",
          "type": "string"
        },
        {
          "internalType": "string",
          "name": "description",
          "type": "string"
        },
        {
          "internalType": "uint256",
          "name": "price",
          "type": "uint256"
        }
      ],
      "payable": false,
      "stateMutability": "view",
      "type": "function"
    }
  ],
  "bytecode": "0x608060405234801561001057600080fd5b50615ab880620000216000396000f3fe6080604052600436106100f35760003560e01c80638203f5fe1161008a578063d65a38cc11610059578063d65a38cc14610339578063f19e134a1461037d578063f23e7bee146103a8578063fdb349fd146103e5576100f3565b80638203f5fe14610275578063a844fd811461028c578063c491385d146102d0578063c8ad9929146102fc576100f3565b80635b2a66df116100c65780635b2a66df146101b45780635e5a0e20146101d05780636d37a019146101ec57806372790a6c14610230576100f3565b806319953d7b146100f857806323c95bdb14610121578063546d9f7a1461015e57806359a90a2e14610189575b600080fd5b34801561010457600080fd5b5061011f600480360361011a9190810190614b65565b610422565b005b34801561012d57600080fd5b5061014860048036036101439190810190614c4e565b610cdf565b604051610155919061550f565b60405180910390f35b34801561016a57600080fd5b5061017361114d565b604051610180919061558a565b60405180910390f35b34801561019557600080fd5b5061019e6111e2565b6040516101ab9190615568565b60405180910390f35b6101ce60048036036101c99190810190614c4e565b611622565b005b6101ea60048036036101e59190810190614c4e565b611ea4565b005b3480156101f857600080fd5b50610213600480360361020e9190810190614ae3565b61235e565b6040516102279897969594939291906156f0565b60405180910390f35b34801561023c57600080fd5b5061025760048036036102529190810190614aa7565b61265c565b60405161026c9998979695949392919061578a565b60405180910390f35b34801561028157600080fd5b5061028a612984565b005b34801561029857600080fd5b506102b360048036036102ae9190810190614aa7565b612a69565b6040516102c79897969594939291906156f0565b60405180910390f35b3480156102dc57600080fd5b506102e5612d6b565b6040516102f3929190615531565b60405180910390f35b34801561030857600080fd5b50610323600480360361031e9190810190614b24565b61358e565b60405161033091906156ac565b60405180910390f35b34801561034557600080fd5b50610360600480360361035b9190810190614c4e565b61390f565b6040516103749897969594939291906156f0565b60405180910390f35b34801561038957600080fd5b50610392613bf7565b60405161039f919061558a565b60405180910390f35b3480156103b457600080fd5b506103cf60048036036103ca9190810190614a7e565b613c8c565b6040516103dc9190615568565b60405180910390f35b3480156103f157600080fd5b5061040c60048036036104079190810190614c4e565b614238565b60405161041991906156ce565b60405180910390f35b600073ffffffffffffffffffffffffffffffffffffffff168173ffffffffffffffffffffffffffffffffffffffff161461092357600960008154809291906001019190505550600760003373ffffffffffffffffffffffffffffffffffffffff1673ffffffffffffffffffffffffffffffffffffffff168152602001908152602001600020600954908060018154018082558091505090600182039060005260206000200160009091929091909150555060405180610120016040528060095481526020013373ffffffffffffffffffffffffffffffffffffffff168152602001600073ffffffffffffffffffffffffffffffffffffffff1681526020018781526020018581526020018681526020018481526020018381526020018273ffffffffffffffffffffffffffffffffffffffff168152506004600060095481526020019081526020016000206000820151816000015560208201518160010160006101000a81548173ffffffffffffffffffffffffffffffffffffffff021916908373ffffffffffffffffffffffffffffffffffffffff16021790555060408201518160020160006101000a81548173ffffffffffffffffffffffffffffffffffffffff021916908373ffffffffffffffffffffffffffffffffffffffff1602179055506060820151816003019080519060200190610621929190614682565b50608082015181600401908051906020019061063e929190614682565b5060a082015181600501908051906020019061065b929190614682565b5060c0820151816006019080519060200190610678929190614682565b5060e082015181600701556101008201518160080160006101000a81548173ffffffffffffffffffffffffffffffffffffffff021916908373ffffffffffffffffffffffffffffffffffffffff160217905550905050600660008273ffffffffffffffffffffffffffffffffffffffff1673ffffffffffffffffffffffffffffffffffffffff16815260200190815260200160002060405180610120016040528060095481526020013373ffffffffffffffffffffffffffffffffffffffff168152602001600073ffffffffffffffffffffffffffffffffffffffff1681526020018881526020018681526020018781526020018581526020018481526020018373ffffffffffffffffffffffffffffffffffffffff16815250908060018154018082558091505090600182039060005260206000209060090201600090919290919091506000820151816000015560208201518160010160006101000a81548173ffffffffffffffffffffffffffffffffffffffff021916908373ffffffffffffffffffffffffffffffffffffffff16021790555060408201518160020160006101000a81548173ffffffffffffffffffffffffffffffffffffffff021916908373ffffffffffffffffffffffffffffffffffffffff1602179055506060820151816003019080519060200190610871929190614682565b50608082015181600401908051906020019061088e929190614682565b5060a08201518160050190805190602001906108ab929190614682565b5060c08201518160060190805190602001906108c8929190614682565b5060e082015181600701556101008201518160080160006101000a81548173ffffffffffffffffffffffffffffffffffffffff021916908373ffffffffffffffffffffffffffffffffffffffff160217905550505050610cd7565b600860008154809291906001019190505550600260003373ffffffffffffffffffffffffffffffffffffffff1673ffffffffffffffffffffffffffffffffffffffff168152602001908152602001600020600854908060018154018082558091505090600182039060005260206000200160009091929091909150555060405180610100016040528060085481526020013373ffffffffffffffffffffffffffffffffffffffff168152602001600073ffffffffffffffffffffffffffffffffffffffff1681526020018781526020018581526020018681526020018481526020018381525060008060085481526020019081526020016000206000820151816000015560208201518160010160006101000a81548173ffffffffffffffffffffffffffffffffffffffff021916908373ffffffffffffffffffffffffffffffffffffffff16021790555060408201518160020160006101000a81548173ffffffffffffffffffffffffffffffffffffffff021916908373ffffffffffffffffffffffffffffffffffffffff1602179055506060820151816003019080519060200190610ad1929190614682565b506080820151816004019080519060200190610aee929190614682565b5060a0820151816005019080519060200190610b0b929190614682565b5060c0820151816006019080519060200190610b28929190614682565b5060e0820151816007015590505060405180610100016040528060085481526020013373ffffffffffffffffffffffffffffffffffffffff168152602001600073ffffffffffffffffffffffffffffffffffffffff16815260200187815260200185815260200186815260200184815260200183815250600187604051610baf91906154f8565b90815260200160405180910390206000820151816000015560208201518160010160006101000a81548173ffffffffffffffffffffffffffffffffffffffff021916908373ffffffffffffffffffffffffffffffffffffffff16021790555060408201518160020160006101000a81548173ffffffffffffffffffffffffffffffffffffffff021916908373ffffffffffffffffffffffffffffffffffffffff1602179055506060820151816003019080519060200190610c71929190614682565b506080820151816004019080519060200190610c8e929190614682565b5060a0820151816005019080519060200190610cab929190614682565b5060c0820151816006019080519060200190610cc8929190614682565b5060e082015181600701559050505b505050505050565b606060006008541415610d2f576000604051908082528060200260200182016040528015610d2757816020015b610d14614702565b815260200190600190039081610d0c5790505b509050611148565b6060600a604051908082528060200260200182016040528015610d6c57816020015b610d59614702565b815260200190600190039081610d515790505b50905060008090506000600a80860260085403019050600080905060098210610d9a57600982039050610d9f565b600190505b60008290505b81811061113f5760008082815260200190815260200160002060405180610100016040529081600082015481526020016001820160009054906101000a900473ffffffffffffffffffffffffffffffffffffffff1673ffffffffffffffffffffffffffffffffffffffff1673ffffffffffffffffffffffffffffffffffffffff1681526020016002820160009054906101000a900473ffffffffffffffffffffffffffffffffffffffff1673ffffffffffffffffffffffffffffffffffffffff1673ffffffffffffffffffffffffffffffffffffffff168152602001600382018054600181600116156101000203166002900480601f016020809104026020016040519081016040528092919081815260200182805460018160011615610100020316600290048015610f195780601f10610eee57610100808354040283529160200191610f19565b820191906000526020600020905b815481529060010190602001808311610efc57829003601f168201915b50505050508152602001600482018054600181600116156101000203166002900480601f016020809104026020016040519081016040528092919081815260200182805460018160011615610100020316600290048015610fbb5780601f10610f9057610100808354040283529160200191610fbb565b820191906000526020600020905b815481529060010190602001808311610f9e57829003601f168201915b50505050508152602001600582018054600181600116156101000203166002900480601f01602080910402602001604051908101604052809291908181526020018280546001816001161561010002031660029004801561105d5780601f106110325761010080835404028352916020019161105d565b820191906000526020600020905b81548152906001019060200180831161104057829003601f168201915b50505050508152602001600682018054600181600116156101000203166002900480601f0160208091040260200160405190810160405280929190818152602001828054600181600116156101000203166002900480156110ff5780601f106110d4576101008083540402835291602001916110ff565b820191906000526020600020905b8154815290600101906020018083116110e257829003601f168201915b5050505050815260200160078201548152505085858151811061111e57fe5b60200260200101819052508380600101945050808060019003915050610da5565b50839450505050505b919050565b6060600260003373ffffffffffffffffffffffffffffffffffffffff1673ffffffffffffffffffffffffffffffffffffffff1681526020019081526020016000208054806020026020016040519081016040528092919081815260200182805480156111d857602002820191906000526020600020905b8154815260200190600101908083116111c4575b5050505050905090565b606080600660003373ffffffffffffffffffffffffffffffffffffffff1673ffffffffffffffffffffffffffffffffffffffff168152602001908152602001600020805480602002602001604051908101604052809291908181526020016000905b82821015611615578382906000526020600020906009020160405180610120016040529081600082015481526020016001820160009054906101000a900473ffffffffffffffffffffffffffffffffffffffff1673ffffffffffffffffffffffffffffffffffffffff1673ffffffffffffffffffffffffffffffffffffffff1681526020016002820160009054906101000a900473ffffffffffffffffffffffffffffffffffffffff1673ffffffffffffffffffffffffffffffffffffffff1673ffffffffffffffffffffffffffffffffffffffff168152602001600382018054600181600116156101000203166002900480601f0160208091040260200160405190810160405280929190818152602001828054600181600116156101000203166002900480156113b75780601f1061138c576101008083540402835291602001916113b7565b820191906000526020600020905b81548152906001019060200180831161139a57829003601f168201915b50505050508152602001600482018054600181600116156101000203166002900480601f0160208091040260200160405190810160405280929190818152602001828054600181600116156101000203166002900480156114595780601f1061142e57610100808354040283529160200191611459565b820191906000526020600020905b81548152906001019060200180831161143c57829003601f168201915b50505050508152602001600582018054600181600116156101000203166002900480601f0160208091040260200160405190810160405280929190818152602001828054600181600116156101000203166002900480156114fb5780601f106114d0576101008083540402835291602001916114fb565b820191906000526020600020905b8154815290600101906020018083116114de57829003601f168201915b50505050508152602001600682018054600181600116156101000203166002900480601f01602080910402602001604051908101604052809291908181526020018280546001816001161561010002031660029004801561159d5780601f106115725761010080835404028352916020019161159d565b820191906000526020600020905b81548152906001019060200180831161158057829003601f168201915b50505050508152602001600782015481526020016008820160009054906101000a900473ffffffffffffffffffffffffffffffffffffffff1673ffffffffffffffffffffffffffffffffffffffff1673ffffffffffffffffffffffffffffffffffffffff168152505081526020019060010190611244565b5050505090508091505090565b61162a614773565b6004600083815260200190815260200160002060405180610120016040529081600082015481526020016001820160009054906101000a900473ffffffffffffffffffffffffffffffffffffffff1673ffffffffffffffffffffffffffffffffffffffff1673ffffffffffffffffffffffffffffffffffffffff1681526020016002820160009054906101000a900473ffffffffffffffffffffffffffffffffffffffff1673ffffffffffffffffffffffffffffffffffffffff1673ffffffffffffffffffffffffffffffffffffffff168152602001600382018054600181600116156101000203166002900480601f0160208091040260200160405190810160405280929190818152602001828054600181600116156101000203166002900480156117985780601f1061176d57610100808354040283529160200191611798565b820191906000526020600020905b81548152906001019060200180831161177b57829003601f168201915b50505050508152602001600482018054600181600116156101000203166002900480601f01602080910402602001604051908101604052809291908181526020018280546001816001161561010002031660029004801561183a5780601f1061180f5761010080835404028352916020019161183a565b820191906000526020600020905b81548152906001019060200180831161181d57829003601f168201915b50505050508152602001600582018054600181600116156101000203166002900480601f0160208091040260200160405190810160405280929190818152602001828054600181600116156101000203166002900480156118dc5780601f106118b1576101008083540402835291602001916118dc565b820191906000526020600020905b8154815290600101906020018083116118bf57829003601f168201915b50505050508152602001600682018054600181600116156101000203166002900480601f01602080910402602001604051908101604052809291908181526020018280546001816001161561010002031660029004801561197e5780601f106119535761010080835404028352916020019161197e565b820191906000526020600020905b81548152906001019060200180831161196157829003601f168201915b50505050508152602001600782015481526020016008820160009054906101000a900473ffffffffffffffffffffffffffffffffffffffff1673ffffffffffffffffffffffffffffffffffffffff1673ffffffffffffffffffffffffffffffffffffffff16815250509050600073ffffffffffffffffffffffffffffffffffffffff16816020015173ffffffffffffffffffffffffffffffffffffffff161415611a5d576040517f08c379a0000000000000000000000000000000000000000000000000000000008152600401611a54906155ec565b60405180910390fd5b600073ffffffffffffffffffffffffffffffffffffffff16816040015173ffffffffffffffffffffffffffffffffffffffff1614611ad0576040517f08c379a0000000000000000000000000000000000000000000000000000000008152600401611ac79061562c565b60405180910390fd5b3373ffffffffffffffffffffffffffffffffffffffff16816020015173ffffffffffffffffffffffffffffffffffffffff161415611b43576040517f08c379a0000000000000000000000000000000000000000000000000000000008152600401611b3a9061560c565b60405180910390fd5b348160e0015114611b89576040517f08c379a0000000000000000000000000000000000000000000000000000000008152600401611b809061564c565b60405180910390fd5b3373ffffffffffffffffffffffffffffffffffffffff1681610100015173ffffffffffffffffffffffffffffffffffffffff1614611bfc576040517f08c379a0000000000000000000000000000000000000000000000000000000008152600401611bf39061568c565b60405180910390fd5b33816040019073ffffffffffffffffffffffffffffffffffffffff16908173ffffffffffffffffffffffffffffffffffffffff1681525050336004600084815260200190815260200160002060020160006101000a81548173ffffffffffffffffffffffffffffffffffffffff021916908373ffffffffffffffffffffffffffffffffffffffff160217905550600560003373ffffffffffffffffffffffffffffffffffffffff1673ffffffffffffffffffffffffffffffffffffffff16815260200190815260200160002081908060018154018082558091505090600182039060005260206000209060090201600090919290919091506000820151816000015560208201518160010160006101000a81548173ffffffffffffffffffffffffffffffffffffffff021916908373ffffffffffffffffffffffffffffffffffffffff16021790555060408201518160020160006101000a81548173ffffffffffffffffffffffffffffffffffffffff021916908373ffffffffffffffffffffffffffffffffffffffff1602179055506060820151816003019080519060200190611da8929190614682565b506080820151816004019080519060200190611dc5929190614682565b5060a0820151816005019080519060200190611de2929190614682565b5060c0820151816006019080519060200190611dff929190614682565b5060e082015181600701556101008201518160080160006101000a81548173ffffffffffffffffffffffffffffffffffffffff021916908373ffffffffffffffffffffffffffffffffffffffff160217905550505050806020015173ffffffffffffffffffffffffffffffffffffffff166108fc349081150290604051600060405180830381858888f19350505050158015611e9f573d6000803e3d6000fd5b505050565b600060085411611ee9576040517f08c379a0000000000000000000000000000000000000000000000000000000008152600401611ee0906155ac565b60405180910390fd5b600081118015611efb57506008548111155b611f3a576040517f08c379a0000000000000000000000000000000000000000000000000000000008152600401611f319061566c565b60405180910390fd5b60008060008381526020019081526020016000209050600073ffffffffffffffffffffffffffffffffffffffff168160020160009054906101000a900473ffffffffffffffffffffffffffffffffffffffff1673ffffffffffffffffffffffffffffffffffffffff1614611fe3576040517f08c379a0000000000000000000000000000000000000000000000000000000008152600401611fda9061562c565b60405180910390fd5b3373ffffffffffffffffffffffffffffffffffffffff168160010160009054906101000a900473ffffffffffffffffffffffffffffffffffffffff1673ffffffffffffffffffffffffffffffffffffffff161415612076576040517f08c379a000000000000000000000000000000000000000000000000000000000815260040161206d9061560c565b60405180910390fd5b348160070154146120bc576040517f08c379a00000000000000000000000000000000000000000000000000000000081526004016120b39061564c565b60405180910390fd5b338160020160006101000a81548173ffffffffffffffffffffffffffffffffffffffff021916908373ffffffffffffffffffffffffffffffffffffffff160217905550600360003373ffffffffffffffffffffffffffffffffffffffff1673ffffffffffffffffffffffffffffffffffffffff1681526020019081526020016000208190806001815401808255809150509060018203906000526020600020906008020160009091929091909150600082015481600001556001820160009054906101000a900473ffffffffffffffffffffffffffffffffffffffff168160010160006101000a81548173ffffffffffffffffffffffffffffffffffffffff021916908373ffffffffffffffffffffffffffffffffffffffff1602179055506002820160009054906101000a900473ffffffffffffffffffffffffffffffffffffffff168160020160006101000a81548173ffffffffffffffffffffffffffffffffffffffff021916908373ffffffffffffffffffffffffffffffffffffffff16021790555060038201816003019080546001816001161561010002031660029004612269929190614801565b5060048201816004019080546001816001161561010002031660029004612291929190614801565b50600582018160050190805460018160011615610100020316600290046122b9929190614801565b50600682018160060190805460018160011615610100020316600290046122e1929190614801565b50600782015481600701555050508060010160009054906101000a900473ffffffffffffffffffffffffffffffffffffffff1673ffffffffffffffffffffffffffffffffffffffff166108fc349081150290604051600060405180830381858888f19350505050158015612359573d6000803e3d6000fd5b505050565b6001818051602081018201805184825260208301602085012081835280955050505050506000915090508060000154908060010160009054906101000a900473ffffffffffffffffffffffffffffffffffffffff16908060020160009054906101000a900473ffffffffffffffffffffffffffffffffffffffff1690806003018054600181600116156101000203166002900480601f0160208091040260200160405190810160405280929190818152602001828054600181600116156101000203166002900480156124725780601f1061244757610100808354040283529160200191612472565b820191906000526020600020905b81548152906001019060200180831161245557829003601f168201915b505050505090806004018054600181600116156101000203166002900480601f0160208091040260200160405190810160405280929190818152602001828054600181600116156101000203166002900480156125105780601f106124e557610100808354040283529160200191612510565b820191906000526020600020905b8154815290600101906020018083116124f357829003601f168201915b505050505090806005018054600181600116156101000203166002900480601f0160208091040260200160405190810160405280929190818152602001828054600181600116156101000203166002900480156125ae5780601f10612583576101008083540402835291602001916125ae565b820191906000526020600020905b81548152906001019060200180831161259157829003601f168201915b505050505090806006018054600181600116156101000203166002900480601f01602080910402602001604051908101604052809291908181526020018280546001816001161561010002031660029004801561264c5780601f106126215761010080835404028352916020019161264c565b820191906000526020600020905b81548152906001019060200180831161262f57829003601f168201915b5050505050908060070154905088565b6005602052816000526040600020818154811061267557fe5b9060005260206000209060090201600091509150508060000154908060010160009054906101000a900473ffffffffffffffffffffffffffffffffffffffff16908060020160009054906101000a900473ffffffffffffffffffffffffffffffffffffffff1690806003018054600181600116156101000203166002900480601f0160208091040260200160405190810160405280929190818152602001828054600181600116156101000203166002900480156127745780601f1061274957610100808354040283529160200191612774565b820191906000526020600020905b81548152906001019060200180831161275757829003601f168201915b505050505090806004018054600181600116156101000203166002900480601f0160208091040260200160405190810160405280929190818152602001828054600181600116156101000203166002900480156128125780601f106127e757610100808354040283529160200191612812565b820191906000526020600020905b8154815290600101906020018083116127f557829003601f168201915b505050505090806005018054600181600116156101000203166002900480601f0160208091040260200160405190810160405280929190818152602001828054600181600116156101000203166002900480156128b05780601f10612885576101008083540402835291602001916128b0565b820191906000526020600020905b81548152906001019060200180831161289357829003601f168201915b505050505090806006018054600181600116156101000203166002900480601f01602080910402602001604051908101604052809291908181526020018280546001816001161561010002031660029004801561294e5780601f106129235761010080835404028352916020019161294e565b820191906000526020600020905b81548152906001019060200180831161293157829003601f168201915b5050505050908060070154908060080160009054906101000a900473ffffffffffffffffffffffffffffffffffffffff16905089565b612a676040518060400160405280600181526020017f30000000000000000000000000000000000000000000000000000000000000008152506040518060400160405280600181526020017f30000000000000000000000000000000000000000000000000000000000000008152506040518060400160405280600181526020017f30000000000000000000000000000000000000000000000000000000000000008152506040518060400160405280600181526020017f3000000000000000000000000000000000000000000000000000000000000000815250600080610422565b565b60036020528160005260406000208181548110612a8257fe5b9060005260206000209060080201600091509150508060000154908060010160009054906101000a900473ffffffffffffffffffffffffffffffffffffffff16908060020160009054906101000a900473ffffffffffffffffffffffffffffffffffffffff1690806003018054600181600116156101000203166002900480601f016020809104026020016040519081016040528092919081815260200182805460018160011615610100020316600290048015612b815780601f10612b5657610100808354040283529160200191612b81565b820191906000526020600020905b815481529060010190602001808311612b6457829003601f168201915b505050505090806004018054600181600116156101000203166002900480601f016020809104026020016040519081016040528092919081815260200182805460018160011615610100020316600290048015612c1f5780601f10612bf457610100808354040283529160200191612c1f565b820191906000526020600020905b815481529060010190602001808311612c0257829003601f168201915b505050505090806005018054600181600116156101000203166002900480601f016020809104026020016040519081016040528092919081815260200182805460018160011615610100020316600290048015612cbd5780601f10612c9257610100808354040283529160200191612cbd565b820191906000526020600020905b815481529060010190602001808311612ca057829003601f168201915b505050505090806006018054600181600116156101000203166002900480601f016020809104026020016040519081016040528092919081815260200182805460018160011615610100020316600290048015612d5b5780601f10612d3057610100808354040283529160200191612d5b565b820191906000526020600020905b815481529060010190602001808311612d3e57829003601f168201915b5050505050908060070154905088565b606080600360003373ffffffffffffffffffffffffffffffffffffffff1673ffffffffffffffffffffffffffffffffffffffff168152602001908152602001600020600560003373ffffffffffffffffffffffffffffffffffffffff1673ffffffffffffffffffffffffffffffffffffffff16815260200190815260200160002081805480602002602001604051908101604052809291908181526020016000905b82821015613188578382906000526020600020906008020160405180610100016040529081600082015481526020016001820160009054906101000a900473ffffffffffffffffffffffffffffffffffffffff1673ffffffffffffffffffffffffffffffffffffffff1673ffffffffffffffffffffffffffffffffffffffff1681526020016002820160009054906101000a900473ffffffffffffffffffffffffffffffffffffffff1673ffffffffffffffffffffffffffffffffffffffff1673ffffffffffffffffffffffffffffffffffffffff168152602001600382018054600181600116156101000203166002900480601f016020809104026020016040519081016040528092919081815260200182805460018160011615610100020316600290048015612f805780601f10612f5557610100808354040283529160200191612f80565b820191906000526020600020905b815481529060010190602001808311612f6357829003601f168201915b50505050508152602001600482018054600181600116156101000203166002900480601f0160208091040260200160405190810160405280929190818152602001828054600181600116156101000203166002900480156130225780601f10612ff757610100808354040283529160200191613022565b820191906000526020600020905b81548152906001019060200180831161300557829003601f168201915b50505050508152602001600582018054600181600116156101000203166002900480601f0160208091040260200160405190810160405280929190818152602001828054600181600116156101000203166002900480156130c45780601f10613099576101008083540402835291602001916130c4565b820191906000526020600020905b8154815290600101906020018083116130a757829003601f168201915b50505050508152602001600682018054600181600116156101000203166002900480601f0160208091040260200160405190810160405280929190818152602001828054600181600116156101000203166002900480156131665780601f1061313b57610100808354040283529160200191613166565b820191906000526020600020905b81548152906001019060200180831161314957829003601f168201915b5050505050815260200160078201548152505081526020019060010190612e0d565b50505050915080805480602002602001604051908101604052809291908181526020016000905b82821015613580578382906000526020600020906009020160405180610120016040529081600082015481526020016001820160009054906101000a900473ffffffffffffffffffffffffffffffffffffffff1673ffffffffffffffffffffffffffffffffffffffff1673ffffffffffffffffffffffffffffffffffffffff1681526020016002820160009054906101000a900473ffffffffffffffffffffffffffffffffffffffff1673ffffffffffffffffffffffffffffffffffffffff1673ffffffffffffffffffffffffffffffffffffffff168152602001600382018054600181600116156101000203166002900480601f0160208091040260200160405190810160405280929190818152602001828054600181600116156101000203166002900480156133225780601f106132f757610100808354040283529160200191613322565b820191906000526020600020905b81548152906001019060200180831161330557829003601f168201915b50505050508152602001600482018054600181600116156101000203166002900480601f0160208091040260200160405190810160405280929190818152602001828054600181600116156101000203166002900480156133c45780601f10613399576101008083540402835291602001916133c4565b820191906000526020600020905b8154815290600101906020018083116133a757829003601f168201915b50505050508152602001600582018054600181600116156101000203166002900480601f0160208091040260200160405190810160405280929190818152602001828054600181600116156101000203166002900480156134665780601f1061343b57610100808354040283529160200191613466565b820191906000526020600020905b81548152906001019060200180831161344957829003601f168201915b50505050508152602001600682018054600181600116156101000203166002900480601f0160208091040260200160405190810160405280929190818152602001828054600181600116156101000203166002900480156135085780601f106134dd57610100808354040283529160200191613508565b820191906000526020600020905b8154815290600101906020018083116134eb57829003601f168201915b50505050508152602001600782015481526020016008820160009054906101000a900473ffffffffffffffffffffffffffffffffffffffff1673ffffffffffffffffffffffffffffffffffffffff1673ffffffffffffffffffffffffffffffffffffffff1681525050815260200190600101906131af565b505050509050915091509091565b613596614888565b6001826040516135a691906154f8565b908152602001604051809103902060405180610100016040529081600082015481526020016001820160009054906101000a900473ffffffffffffffffffffffffffffffffffffffff1673ffffffffffffffffffffffffffffffffffffffff1673ffffffffffffffffffffffffffffffffffffffff1681526020016002820160009054906101000a900473ffffffffffffffffffffffffffffffffffffffff1673ffffffffffffffffffffffffffffffffffffffff1673ffffffffffffffffffffffffffffffffffffffff168152602001600382018054600181600116156101000203166002900480601f01602080910402602001604051908101604052809291908181526020018280546001816001161561010002031660029004801561370f5780601f106136e45761010080835404028352916020019161370f565b820191906000526020600020905b8154815290600101906020018083116136f257829003601f168201915b50505050508152602001600482018054600181600116156101000203166002900480601f0160208091040260200160405190810160405280929190818152602001828054600181600116156101000203166002900480156137b15780601f10613786576101008083540402835291602001916137b1565b820191906000526020600020905b81548152906001019060200180831161379457829003601f168201915b50505050508152602001600582018054600181600116156101000203166002900480601f0160208091040260200160405190810160405280929190818152602001828054600181600116156101000203166002900480156138535780601f1061382857610100808354040283529160200191613853565b820191906000526020600020905b81548152906001019060200180831161383657829003601f168201915b50505050508152602001600682018054600181600116156101000203166002900480601f0160208091040260200160405190810160405280929190818152602001828054600181600116156101000203166002900480156138f55780601f106138ca576101008083540402835291602001916138f5565b820191906000526020600020905b8154815290600101906020018083116138d857829003601f168201915b505050505081526020016007820154815250509050919050565b60006020528060005260406000206000915090508060000154908060010160009054906101000a900473ffffffffffffffffffffffffffffffffffffffff16908060020160009054906101000a900473ffffffffffffffffffffffffffffffffffffffff1690806003018054600181600116156101000203166002900480601f016020809104026020016040519081016040528092919081815260200182805460018160011615610100020316600290048015613a0d5780601f106139e257610100808354040283529160200191613a0d565b820191906000526020600020905b8154815290600101906020018083116139f057829003601f168201915b505050505090806004018054600181600116156101000203166002900480601f016020809104026020016040519081016040528092919081815260200182805460018160011615610100020316600290048015613aab5780601f10613a8057610100808354040283529160200191613aab565b820191906000526020600020905b815481529060010190602001808311613a8e57829003601f168201915b505050505090806005018054600181600116156101000203166002900480601f016020809104026020016040519081016040528092919081815260200182805460018160011615610100020316600290048015613b495780601f10613b1e57610100808354040283529160200191613b49565b820191906000526020600020905b815481529060010190602001808311613b2c57829003601f168201915b505050505090806006018054600181600116156101000203166002900480601f016020809104026020016040519081016040528092919081815260200182805460018160011615610100020316600290048015613be75780601f10613bbc57610100808354040283529160200191613be7565b820191906000526020600020905b815481529060010190602001808311613bca57829003601f168201915b5050505050908060070154905088565b6060600760003373ffffffffffffffffffffffffffffffffffffffff1673ffffffffffffffffffffffffffffffffffffffff168152602001908152602001600020805480602002602001604051908101604052809291908181526020018280548015613c8257602002820191906000526020600020905b815481526020019060010190808311613c6e575b5050505050905090565b606080600660008473ffffffffffffffffffffffffffffffffffffffff1673ffffffffffffffffffffffffffffffffffffffff168152602001908152602001600020805480602002602001604051908101604052809291908181526020016000905b828210156140bf578382906000526020600020906009020160405180610120016040529081600082015481526020016001820160009054906101000a900473ffffffffffffffffffffffffffffffffffffffff1673ffffffffffffffffffffffffffffffffffffffff1673ffffffffffffffffffffffffffffffffffffffff1681526020016002820160009054906101000a900473ffffffffffffffffffffffffffffffffffffffff1673ffffffffffffffffffffffffffffffffffffffff1673ffffffffffffffffffffffffffffffffffffffff168152602001600382018054600181600116156101000203166002900480601f016020809104026020016040519081016040528092919081815260200182805460018160011615610100020316600290048015613e615780601f10613e3657610100808354040283529160200191613e61565b820191906000526020600020905b815481529060010190602001808311613e4457829003601f168201915b50505050508152602001600482018054600181600116156101000203166002900480601f016020809104026020016040519081016040528092919081815260200182805460018160011615610100020316600290048015613f035780601f10613ed857610100808354040283529160200191613f03565b820191906000526020600020905b815481529060010190602001808311613ee657829003601f168201915b50505050508152602001600582018054600181600116156101000203166002900480601f016020809104026020016040519081016040528092919081815260200182805460018160011615610100020316600290048015613fa55780601f10613f7a57610100808354040283529160200191613fa5565b820191906000526020600020905b815481529060010190602001808311613f8857829003601f168201915b50505050508152602001600682018054600181600116156101000203166002900480601f0160208091040260200160405190810160405280929190818152602001828054600181600116156101000203166002900480156140475780601f1061401c57610100808354040283529160200191614047565b820191906000526020600020905b81548152906001019060200180831161402a57829003601f168201915b50505050508152602001600782015481526020016008820160009054906101000a900473ffffffffffffffffffffffffffffffffffffffff1673ffffffffffffffffffffffffffffffffffffffff1673ffffffffffffffffffffffffffffffffffffffff168152505081526020019060010190613cee565b5050505090506060815160405190808252806020026020018201604052801561410257816020015b6140ef6148f9565b8152602001906001900390816140e75790505b509050600080905060008090505b83518110156141a5573373ffffffffffffffffffffffffffffffffffffffff1684828151811061413c57fe5b60200260200101516020015173ffffffffffffffffffffffffffffffffffffffff1614156141985783818151811061417057fe5b602002602001015183838151811061418457fe5b602002602001018190525081806001019250505b8080600101915050614110565b506060816040519080825280602002602001820160405280156141e257816020015b6141cf6148f9565b8152602001906001900390816141c75790505b50905060008090505b8281101561422b578381815181106141ff57fe5b602002602001015182828151811061421357fe5b602002602001018190525080806001019150506141eb565b5080945050505050919050565b614240614773565b614248614773565b6004600084815260200190815260200160002060405180610120016040529081600082015481526020016001820160009054906101000a900473ffffffffffffffffffffffffffffffffffffffff1673ffffffffffffffffffffffffffffffffffffffff1673ffffffffffffffffffffffffffffffffffffffff1681526020016002820160009054906101000a900473ffffffffffffffffffffffffffffffffffffffff1673ffffffffffffffffffffffffffffffffffffffff1673ffffffffffffffffffffffffffffffffffffffff168152602001600382018054600181600116156101000203166002900480601f0160208091040260200160405190810160405280929190818152602001828054600181600116156101000203166002900480156143b65780601f1061438b576101008083540402835291602001916143b6565b820191906000526020600020905b81548152906001019060200180831161439957829003601f168201915b50505050508152602001600482018054600181600116156101000203166002900480601f0160208091040260200160405190810160405280929190818152602001828054600181600116156101000203166002900480156144585780601f1061442d57610100808354040283529160200191614458565b820191906000526020600020905b81548152906001019060200180831161443b57829003601f168201915b50505050508152602001600582018054600181600116156101000203166002900480601f0160208091040260200160405190810160405280929190818152602001828054600181600116156101000203166002900480156144fa5780601f106144cf576101008083540402835291602001916144fa565b820191906000526020600020905b8154815290600101906020018083116144dd57829003601f168201915b50505050508152602001600682018054600181600116156101000203166002900480601f01602080910402602001604051908101604052809291908181526020018280546001816001161561010002031660029004801561459c5780601f106145715761010080835404028352916020019161459c565b820191906000526020600020905b81548152906001019060200180831161457f57829003601f168201915b50505050508152602001600782015481526020016008820160009054906101000a900473ffffffffffffffffffffffffffffffffffffffff1673ffffffffffffffffffffffffffffffffffffffff1673ffffffffffffffffffffffffffffffffffffffff168152505090503373ffffffffffffffffffffffffffffffffffffffff16816020015173ffffffffffffffffffffffffffffffffffffffff1614614679576040517f08c379a0000000000000000000000000000000000000000000000000000000008152600401614670906155cc565b60405180910390fd5b80915050919050565b828054600181600116156101000203166002900490600052602060002090601f016020900481019282601f106146c357805160ff19168380011785556146f1565b828001600101855582156146f1579182015b828111156146f05782518255916020019190600101906146d5565b5b5090506146fe9190614987565b5090565b60405180610100016040528060008152602001600073ffffffffffffffffffffffffffffffffffffffff168152602001600073ffffffffffffffffffffffffffffffffffffffff16815260200160608152602001606081526020016060815260200160608152602001600081525090565b60405180610120016040528060008152602001600073ffffffffffffffffffffffffffffffffffffffff168152602001600073ffffffffffffffffffffffffffffffffffffffff1681526020016060815260200160608152602001606081526020016060815260200160008152602001600073ffffffffffffffffffffffffffffffffffffffff1681525090565b828054600181600116156101000203166002900490600052602060002090601f016020900481019282601f1061483a5780548555614877565b8280016001018555821561487757600052602060002091601f016020900482015b8281111561487657825482559160010191906001019061485b565b5b5090506148849190614987565b5090565b60405180610100016040528060008152602001600073ffffffffffffffffffffffffffffffffffffffff168152602001600073ffffffffffffffffffffffffffffffffffffffff16815260200160608152602001606081526020016060815260200160608152602001600081525090565b60405180610120016040528060008152602001600073ffffffffffffffffffffffffffffffffffffffff168152602001600073ffffffffffffffffffffffffffffffffffffffff1681526020016060815260200160608152602001606081526020016060815260200160008152602001600073ffffffffffffffffffffffffffffffffffffffff1681525090565b6149a991905b808211156149a557600081600090555060010161498d565b5090565b90565b6000813590506149bb81615a47565b92915050565b600082601f8301126149d257600080fd5b81356149e56149e082615860565b615833565b91508082526020830160208301858383011115614a0157600080fd5b614a0c8382846159f4565b50505092915050565b600082601f830112614a2657600080fd5b8135614a39614a348261588c565b615833565b91508082526020830160208301858383011115614a5557600080fd5b614a608382846159f4565b50505092915050565b600081359050614a7881615a5e565b92915050565b600060208284031215614a9057600080fd5b6000614a9e848285016149ac565b91505092915050565b60008060408385031215614aba57600080fd5b6000614ac8858286016149ac565b9250506020614ad985828601614a69565b9150509250929050565b600060208284031215614af557600080fd5b600082013567ffffffffffffffff811115614b0f57600080fd5b614b1b848285016149c1565b91505092915050565b600060208284031215614b3657600080fd5b600082013567ffffffffffffffff811115614b5057600080fd5b614b5c84828501614a15565b91505092915050565b60008060008060008060c08789031215614b7e57600080fd5b600087013567ffffffffffffffff811115614b9857600080fd5b614ba489828a01614a15565b965050602087013567ffffffffffffffff811115614bc157600080fd5b614bcd89828a01614a15565b955050604087013567ffffffffffffffff811115614bea57600080fd5b614bf689828a01614a15565b945050606087013567ffffffffffffffff811115614c1357600080fd5b614c1f89828a01614a15565b9350506080614c3089828a01614a69565b92505060a0614c4189828a016149ac565b9150509295509295509295565b600060208284031215614c6057600080fd5b6000614c6e84828501614a69565b91505092915050565b6000614c838383615261565b905092915050565b6000614c978383615400565b905092915050565b6000614cab83836154da565b60208301905092915050565b614cc0816159b8565b82525050565b614ccf816159b8565b82525050565b614cde816159a6565b82525050565b614ced816159a6565b82525050565b6000614cfe826158e8565b614d088185615946565b935083602082028501614d1a856158b8565b8060005b85811015614d565784840389528151614d378582614c77565b9450614d428361591f565b925060208a01995050600181019050614d1e565b50829750879550505050505092915050565b6000614d73826158f3565b614d7d8185615957565b935083602082028501614d8f856158c8565b8060005b85811015614dcb5784840389528151614dac8582614c8b565b9450614db78361592c565b925060208a01995050600181019050614d93565b50829750879550505050505092915050565b6000614de8826158fe565b614df28185615968565b9350614dfd836158d8565b8060005b83811015614e2e578151614e158882614c9f565b9750614e2083615939565b925050600181019050614e01565b5085935050505092915050565b6000614e4682615914565b614e50818561599b565b9350614e60818560208601615a03565b80840191505092915050565b6000614e7782615909565b614e818185615979565b9350614e91818560208601615a03565b614e9a81615a36565b840191505092915050565b6000614eb082615909565b614eba818561598a565b9350614eca818560208601615a03565b614ed381615a36565b840191505092915050565b6000614eeb60248361598a565b91507f54686572652073686f756c64206265206174206c65617374206f6e6520616e6160008301527f6c797365000000000000000000000000000000000000000000000000000000006020830152604082019050919050565b6000614f5160348361598a565b91507f546869732069732061207072697661746520616e616c7973652c20616e64207960008301527f6f7520617265206e6f7420746865206f776e65720000000000000000000000006020830152604082019050919050565b6000614fb760128361598a565b91507f416e616c797a65206e6f7420666f756e642100000000000000000000000000006000830152602082019050919050565b6000614ff760218361598a565b91507f53656c6c65722063616e6e6f742062757920686973206f776e20616e616c797360008301527f65000000000000000000000000000000000000000000000000000000000000006020830152604082019050919050565b600061505d60188361598a565b91507f616e616c7973652077617320616c726561647920736f6c6400000000000000006000830152602082019050919050565b600061509d602e8361598a565b91507f56616c75652070726f766964656420646f6573206e6f74206d6174636820707260008301527f696365206f6620616e616c7973650000000000000000000000000000000000006020830152604082019050919050565b600061510360238361598a565b91507f616e616c7973652077697468207468697320696420646f6573206e6f7420657860008301527f69737400000000000000000000000000000000000000000000000000000000006020830152604082019050919050565b600061516960118361598a565b91507f596f7520617265206e6f74206f776e65720000000000000000000000000000006000830152602082019050919050565b6000610100830160008301516151b560008601826154da565b5060208301516151c86020860182614cb7565b5060408301516151db6040860182614cd5565b50606083015184820360608601526151f38282614e6c565b9150506080830151848203608086015261520d8282614e6c565b91505060a083015184820360a08601526152278282614e6c565b91505060c083015184820360c08601526152418282614e6c565b91505060e083015161525660e08601826154da565b508091505092915050565b60006101008301600083015161527a60008601826154da565b50602083015161528d6020860182614cb7565b5060408301516152a06040860182614cd5565b50606083015184820360608601526152b88282614e6c565b915050608083015184820360808601526152d28282614e6c565b91505060a083015184820360a08601526152ec8282614e6c565b91505060c083015184820360c08601526153068282614e6c565b91505060e083015161531b60e08601826154da565b508091505092915050565b60006101208301600083015161533f60008601826154da565b5060208301516153526020860182614cb7565b5060408301516153656040860182614cd5565b506060830151848203606086015261537d8282614e6c565b915050608083015184820360808601526153978282614e6c565b91505060a083015184820360a08601526153b18282614e6c565b91505060c083015184820360c08601526153cb8282614e6c565b91505060e08301516153e060e08601826154da565b506101008301516153f5610100860182614cd5565b508091505092915050565b60006101208301600083015161541960008601826154da565b50602083015161542c6020860182614cb7565b50604083015161543f6040860182614cd5565b50606083015184820360608601526154578282614e6c565b915050608083015184820360808601526154718282614e6c565b91505060a083015184820360a086015261548b8282614e6c565b91505060c083015184820360c08601526154a58282614e6c565b91505060e08301516154ba60e08601826154da565b506101008301516154cf610100860182614cd5565b508091505092915050565b6154e3816159ea565b82525050565b6154f2816159ea565b82525050565b60006155048284614e3b565b915081905092915050565b600060208201905081810360008301526155298184614cf3565b905092915050565b6000604082019050818103600083015261554b8185614cf3565b9050818103602083015261555f8184614d68565b90509392505050565b600060208201905081810360008301526155828184614d68565b905092915050565b600060208201905081810360008301526155a48184614ddd565b905092915050565b600060208201905081810360008301526155c581614ede565b9050919050565b600060208201905081810360008301526155e581614f44565b9050919050565b6000602082019050818103600083015261560581614faa565b9050919050565b6000602082019050818103600083015261562581614fea565b9050919050565b6000602082019050818103600083015261564581615050565b9050919050565b6000602082019050818103600083015261566581615090565b9050919050565b60006020820190508181036000830152615685816150f6565b9050919050565b600060208201905081810360008301526156a58161515c565b9050919050565b600060208201905081810360008301526156c6818461519c565b905092915050565b600060208201905081810360008301526156e88184615326565b905092915050565b600061010082019050615706600083018b6154e9565b615713602083018a614cc6565b6157206040830189614ce4565b81810360608301526157328188614ea5565b905081810360808301526157468187614ea5565b905081810360a083015261575a8186614ea5565b905081810360c083015261576e8185614ea5565b905061577d60e08301846154e9565b9998505050505050505050565b6000610120820190506157a0600083018c6154e9565b6157ad602083018b614cc6565b6157ba604083018a614ce4565b81810360608301526157cc8189614ea5565b905081810360808301526157e08188614ea5565b905081810360a08301526157f48187614ea5565b905081810360c08301526158088186614ea5565b905061581760e08301856154e9565b615825610100830184614ce4565b9a9950505050505050505050565b6000604051905081810181811067ffffffffffffffff8211171561585657600080fd5b8060405250919050565b600067ffffffffffffffff82111561587757600080fd5b601f19601f8301169050602081019050919050565b600067ffffffffffffffff8211156158a357600080fd5b601f19601f8301169050602081019050919050565b6000819050602082019050919050565b6000819050602082019050919050565b6000819050602082019050919050565b600081519050919050565b600081519050919050565b600081519050919050565b600081519050919050565b600081519050919050565b6000602082019050919050565b6000602082019050919050565b6000602082019050919050565b600082825260208201905092915050565b600082825260208201905092915050565b600082825260208201905092915050565b600082825260208201905092915050565b600082825260208201905092915050565b600081905092915050565b60006159b1826159ca565b9050919050565b60006159c3826159ca565b9050919050565b600073ffffffffffffffffffffffffffffffffffffffff82169050919050565b6000819050919050565b82818337600083830152505050565b60005b83811015615a21578082015181840152602081019050615a06565b83811115615a30576000848401525b50505050565b6000601f19601f8301169050919050565b615a50816159a6565b8114615a5b57600080fd5b50565b615a67816159ea565b8114615a7257600080fd5b5056fea365627a7a7231582013e95c8c557fef08fb16ca42878466ae937fb1456e2ee3aef3c14328052fbe016c6578706572696d656e74616cf564736f6c63430005110040",
  "compiler": {
    "name": "solc",
    "version": "0.5.17+commit.d19bba13.Emscripten.clang",
    "optimizer": {
      "enabled": false,
      "runs": 200
    },
    "evmVersion": "petersburg"
  }
}