{
  "fileName": "Tracepic.sol",
  "contractName": "Tracepic",
  "source": "pragma experimental ABIEncoderV2;\npragma solidity >0.4.99 <0.6.0;\n\n\ncontract Tracepic {\n    struct analyse {\n        uint256 id;\n        address payable seller;\n        address buyer;\n        string analyseReference;\n        string date;\n        string value;\n        string description;\n        uint256 price;\n    }\n\n    struct privateAnalyse {\n        uint256 id;\n        address payable seller;\n        address buyer;\n        string analyseReference;\n        string date;\n        string value;\n        string description;\n        uint256 price;\n        address owner;\n    }\n\n    mapping(uint256 => analyse) public publicAnalysis;\n    mapping(address => privateAnalyse) private privateAnalyses;\n    mapping(address => uint256[]) private publicAnalysesOwners;\n    mapping(address => uint256[]) private privateAnalysesOwners;\n\n    // State variables\n    uint256 publicAnalyseCounter;\n    uint256 privateAnalysesCounter;\n\n    // sell an analyse\n    function postAnalyse(\n        string memory _analyseReference,\n        string memory _value,\n        string memory _date,\n        string memory _description,\n        uint256 _price,\n        address _owner\n    ) public {\n        if (_owner != address(0)) {\n            privateAnalysesCounter++;\n            privateAnalysesOwners[msg.sender].push(privateAnalysesCounter);\n            privateAnalyses[_owner] = privateAnalyse(\n                privateAnalysesCounter,\n                msg.sender,\n                address(0),\n                _analyseReference,\n                _date,\n                _value,\n                _description,\n                _price,\n                _owner\n            );\n        } else {\n            publicAnalyseCounter++;\n            publicAnalysesOwners[msg.sender].push(publicAnalyseCounter);\n            publicAnalysis[publicAnalyseCounter] = analyse(\n                publicAnalyseCounter,\n                msg.sender,\n                address(0),\n                _analyseReference,\n                _date,\n                _value,\n                _description,\n                _price\n            );\n        }\n    }\n\n    // buy an analyse\n    function buyAnalyse(uint256 _id) public payable {\n        // we check whether there is at least one analyse\n        require(\n            publicAnalyseCounter > 0,\n            \"There should be at least one analyse\"\n        );\n\n        // we check whether the analyse exists\n        require(\n            _id > 0 && _id <= publicAnalyseCounter,\n            \"analyse with this id does not exist\"\n        );\n\n        // we retrieve the analyse\n        analyse storage analyseToBuy = publicAnalysis[_id];\n\n        // we check whether the analyse has not already been sold\n        require(analyseToBuy.buyer == address(0), \"analyse was already sold\");\n\n        // we don't allow the seller to buy his/her own analyse\n        require(\n            analyseToBuy.seller != msg.sender,\n            \"Seller cannot buy his own analyse\"\n        );\n\n        // we check whether the value sent corresponds to the analyse price\n        require(\n            analyseToBuy.price == msg.value,\n            \"Value provided does not match price of analyse\"\n        );\n\n        // keep buyer's information\n        analyseToBuy.buyer = msg.sender;\n\n        // the buyer can buy the analyse\n        analyseToBuy.seller.transfer(msg.value);\n    }\n\n    // buy a private analyse\n    function buyPrivateAnalyse() public payable {\n        // we retrieve the analyse\n        privateAnalyse memory analyseToBuy = privateAnalyses[msg.sender];\n\n        // we check whether the analyse exists\n        require(analyseToBuy.seller != address(0), \"Analyze not found!\");\n\n        // we check whether the analyse has not already been sold\n        require(analyseToBuy.buyer == address(0), \"analyse was already sold\");\n\n        // we don't allow the seller to buy his/her own analyse\n        require(\n            analyseToBuy.seller != msg.sender,\n            \"Seller cannot buy his own analyse\"\n        );\n\n        // we check whether the value sent corresponds to the analyse price\n        require(\n            analyseToBuy.price == msg.value,\n            \"Value provided does not match price of analyse\"\n        );\n\n        // keep buyer's information\n        analyseToBuy.buyer = msg.sender;\n        privateAnalyses[msg.sender].buyer = msg.sender;\n\n        // the buyer can buy the analyse\n        analyseToBuy.seller.transfer(msg.value);\n    }\n\n    // fetch the number of analyses in the contract\n    function getNumberOfAnalyses() public view returns (uint256) {\n        return publicAnalyseCounter;\n    }\n\n    function getAllAnalyses() public view returns (uint256[] memory) {\n        // we check whether there is at least one analyse\n        if (publicAnalyseCounter == 0) {\n            return new uint256[](0);\n        }\n        // prepare output arrays\n        uint256[] memory analyseIds = new uint256[](publicAnalyseCounter);\n        uint256 numberOfAnalyses = 0;\n        // iterate over analyses\n        for (uint256 i = 1; i <= publicAnalyseCounter; i++) {\n            analyseIds[numberOfAnalyses] = publicAnalysis[i].id;\n            numberOfAnalyses++;\n        }\n        return analyseIds;\n    }\n\n    // fetch and returns all analyse IDs available for sale\n    function getAnalysesForSale() public view returns (uint256[] memory) {\n        // we check whether there is at least one analyse\n        if (publicAnalyseCounter == 0) {\n            return new uint256[](0);\n        }\n        // prepare output arrays\n        uint256[] memory analyseIds = new uint256[](publicAnalyseCounter);\n        uint256 numberOfAnalysesForSale = 0;\n        // iterate over analyses\n        for (uint256 i = 1; i <= publicAnalyseCounter; i++) {\n            // keep only the ID for the analyse not already sold\n            if (publicAnalysis[i].buyer == address(0)) {\n                analyseIds[numberOfAnalysesForSale] = publicAnalysis[i].id;\n                numberOfAnalysesForSale++;\n            }\n        }\n        // copy the analyseIds array into the smaller forSale array\n        uint256[] memory forSale = new uint256[](numberOfAnalysesForSale);\n        for (uint256 j = 0; j < numberOfAnalysesForSale; j++) {\n            forSale[j] = analyseIds[j];\n        }\n        return forSale;\n    }\n\n    function getSelfPublicAnalyses() public view returns (uint256[] memory) {\n        return publicAnalysesOwners[msg.sender];\n    }\n\n    function getSelfPrivateAnalyses() public view returns (uint256[] memory) {\n        return privateAnalysesOwners[msg.sender];\n    }\n\n    function getAnalyseByReference(string memory _reference)\n        public\n        view\n        returns (uint256 id)\n    {\n        for (uint256 i = 1; i <= publicAnalyseCounter; i++) {\n            if (\n                keccak256(\n                    abi.encodePacked(publicAnalysis[i].analyseReference)\n                ) == keccak256(abi.encodePacked(_reference))\n            ) {\n                return publicAnalysis[i].id;\n            }\n        }\n    }\n\n    function getPrivateAnalyse(address _address)\n        public\n        view\n        returns (privateAnalyse memory _privateAnalyse)\n    {\n        privateAnalyse memory _analyse = privateAnalyses[_address];\n        //  bool condition = msg.sender == _analyse.owner || msg.sender == _analyse.seller;\n        //   require(condition, 'You cannot access this analyse');\n        return _analyse;\n    }\n}\n",
  "sourcePath": "contracts/Tracepic.sol",
  "abi": [
    {
      "constant": false,
      "inputs": [
        {
          "internalType": "uint256",
          "name": "_id",
          "type": "uint256"
        }
      ],
      "name": "buyAnalyse",
      "outputs": [],
      "payable": true,
      "stateMutability": "payable",
      "type": "function"
    },
    {
      "constant": false,
      "inputs": [],
      "name": "buyPrivateAnalyse",
      "outputs": [],
      "payable": true,
      "stateMutability": "payable",
      "type": "function"
    },
    {
      "constant": true,
      "inputs": [],
      "name": "getAllAnalyses",
      "outputs": [
        {
          "internalType": "uint256[]",
          "name": "",
          "type": "uint256[]"
        }
      ],
      "payable": false,
      "stateMutability": "view",
      "type": "function"
    },
    {
      "constant": true,
      "inputs": [
        {
          "internalType": "string",
          "name": "_reference",
          "type": "string"
        }
      ],
      "name": "getAnalyseByReference",
      "outputs": [
        {
          "internalType": "uint256",
          "name": "id",
          "type": "uint256"
        }
      ],
      "payable": false,
      "stateMutability": "view",
      "type": "function"
    },
    {
      "constant": true,
      "inputs": [],
      "name": "getAnalysesForSale",
      "outputs": [
        {
          "internalType": "uint256[]",
          "name": "",
          "type": "uint256[]"
        }
      ],
      "payable": false,
      "stateMutability": "view",
      "type": "function"
    },
    {
      "constant": true,
      "inputs": [],
      "name": "getNumberOfAnalyses",
      "outputs": [
        {
          "internalType": "uint256",
          "name": "",
          "type": "uint256"
        }
      ],
      "payable": false,
      "stateMutability": "view",
      "type": "function"
    },
    {
      "constant": true,
      "inputs": [
        {
          "internalType": "address",
          "name": "_address",
          "type": "address"
        }
      ],
      "name": "getPrivateAnalyse",
      "outputs": [
        {
          "components": [
            {
              "internalType": "uint256",
              "name": "id",
              "type": "uint256"
            },
            {
              "internalType": "address payable",
              "name": "seller",
              "type": "address"
            },
            {
              "internalType": "address",
              "name": "buyer",
              "type": "address"
            },
            {
              "internalType": "string",
              "name": "analyseReference",
              "type": "string"
            },
            {
              "internalType": "string",
              "name": "date",
              "type": "string"
            },
            {
              "internalType": "string",
              "name": "value",
              "type": "string"
            },
            {
              "internalType": "string",
              "name": "description",
              "type": "string"
            },
            {
              "internalType": "uint256",
              "name": "price",
              "type": "uint256"
            },
            {
              "internalType": "address",
              "name": "owner",
              "type": "address"
            }
          ],
          "internalType": "struct Tracepic.privateAnalyse",
          "name": "_privateAnalyse",
          "type": "tuple"
        }
      ],
      "payable": false,
      "stateMutability": "view",
      "type": "function"
    },
    {
      "constant": true,
      "inputs": [],
      "name": "getSelfPrivateAnalyses",
      "outputs": [
        {
          "internalType": "uint256[]",
          "name": "",
          "type": "uint256[]"
        }
      ],
      "payable": false,
      "stateMutability": "view",
      "type": "function"
    },
    {
      "constant": true,
      "inputs": [],
      "name": "getSelfPublicAnalyses",
      "outputs": [
        {
          "internalType": "uint256[]",
          "name": "",
          "type": "uint256[]"
        }
      ],
      "payable": false,
      "stateMutability": "view",
      "type": "function"
    },
    {
      "constant": false,
      "inputs": [
        {
          "internalType": "string",
          "name": "_analyseReference",
          "type": "string"
        },
        {
          "internalType": "string",
          "name": "_value",
          "type": "string"
        },
        {
          "internalType": "string",
          "name": "_date",
          "type": "string"
        },
        {
          "internalType": "string",
          "name": "_description",
          "type": "string"
        },
        {
          "internalType": "uint256",
          "name": "_price",
          "type": "uint256"
        },
        {
          "internalType": "address",
          "name": "_owner",
          "type": "address"
        }
      ],
      "name": "postAnalyse",
      "outputs": [],
      "payable": false,
      "stateMutability": "nonpayable",
      "type": "function"
    },
    {
      "constant": true,
      "inputs": [
        {
          "internalType": "uint256",
          "name": "",
          "type": "uint256"
        }
      ],
      "name": "publicAnalysis",
      "outputs": [
        {
          "internalType": "uint256",
          "name": "id",
          "type": "uint256"
        },
        {
          "internalType": "address payable",
          "name": "seller",
          "type": "address"
        },
        {
          "internalType": "address",
          "name": "buyer",
          "type": "address"
        },
        {
          "internalType": "string",
          "name": "analyseReference",
          "type": "string"
        },
        {
          "internalType": "string",
          "name": "date",
          "type": "string"
        },
        {
          "internalType": "string",
          "name": "value",
          "type": "string"
        },
        {
          "internalType": "string",
          "name": "description",
          "type": "string"
        },
        {
          "internalType": "uint256",
          "name": "price",
          "type": "uint256"
        }
      ],
      "payable": false,
      "stateMutability": "view",
      "type": "function"
    }
  ],
  "bytecode": "0x608060405234801561001057600080fd5b50612850806100206000396000f3fe60806040526004361061009c5760003560e01c806388dacc7f1161006457806388dacc7f146101795780639c926f18146101bd578063c8ad9929146101e8578063eee967ee14610225578063f528cdf414610250578063fbf9960b1461027b5761009c565b806310367bb0146100a157806319953d7b146100de57806336d40d44146101075780633a3ce503146101325780635e5a0e201461015d575b600080fd5b3480156100ad57600080fd5b506100c860048036036100c39190810190611dfe565b610285565b6040516100d5919061257d565b60405180910390f35b3480156100ea57600080fd5b5061010560048036036101009190810190611e68565b610689565b005b34801561011357600080fd5b5061011c610b80565b604051610129919061249b565b60405180910390f35b34801561013e57600080fd5b50610147610c15565b604051610154919061249b565b60405180910390f35b61017760048036036101729190810190611f51565b610cf2565b005b34801561018557600080fd5b506101a0600480360361019b9190810190611f51565b610fbc565b6040516101b49897969594939291906125ba565b60405180910390f35b3480156101c957600080fd5b506101d26112a4565b6040516101df919061259f565b60405180910390f35b3480156101f457600080fd5b5061020f600480360361020a9190810190611e27565b6112ae565b60405161021c919061259f565b60405180910390f35b34801561023157600080fd5b5061023a611359565b604051610247919061249b565b60405180910390f35b34801561025c57600080fd5b5061026561151e565b604051610272919061249b565b60405180910390f35b6102836115b3565b005b61028d611c4d565b610295611c4d565b600160008473ffffffffffffffffffffffffffffffffffffffff1673ffffffffffffffffffffffffffffffffffffffff16815260200190815260200160002060405180610120016040529081600082015481526020016001820160009054906101000a900473ffffffffffffffffffffffffffffffffffffffff1673ffffffffffffffffffffffffffffffffffffffff1673ffffffffffffffffffffffffffffffffffffffff1681526020016002820160009054906101000a900473ffffffffffffffffffffffffffffffffffffffff1673ffffffffffffffffffffffffffffffffffffffff1673ffffffffffffffffffffffffffffffffffffffff168152602001600382018054600181600116156101000203166002900480601f01602080910402602001604051908101604052809291908181526020018280546001816001161561010002031660029004801561042f5780601f106104045761010080835404028352916020019161042f565b820191906000526020600020905b81548152906001019060200180831161041257829003601f168201915b50505050508152602001600482018054600181600116156101000203166002900480601f0160208091040260200160405190810160405280929190818152602001828054600181600116156101000203166002900480156104d15780601f106104a6576101008083540402835291602001916104d1565b820191906000526020600020905b8154815290600101906020018083116104b457829003601f168201915b50505050508152602001600582018054600181600116156101000203166002900480601f0160208091040260200160405190810160405280929190818152602001828054600181600116156101000203166002900480156105735780601f1061054857610100808354040283529160200191610573565b820191906000526020600020905b81548152906001019060200180831161055657829003601f168201915b50505050508152602001600682018054600181600116156101000203166002900480601f0160208091040260200160405190810160405280929190818152602001828054600181600116156101000203166002900480156106155780601f106105ea57610100808354040283529160200191610615565b820191906000526020600020905b8154815290600101906020018083116105f857829003601f168201915b50505050508152602001600782015481526020016008820160009054906101000a900473ffffffffffffffffffffffffffffffffffffffff1673ffffffffffffffffffffffffffffffffffffffff1673ffffffffffffffffffffffffffffffffffffffff1681525050905080915050919050565b600073ffffffffffffffffffffffffffffffffffffffff168173ffffffffffffffffffffffffffffffffffffffff161461096457600560008154809291906001019190505550600360003373ffffffffffffffffffffffffffffffffffffffff1673ffffffffffffffffffffffffffffffffffffffff168152602001908152602001600020600554908060018154018082558091505090600182039060005260206000200160009091929091909150555060405180610120016040528060055481526020013373ffffffffffffffffffffffffffffffffffffffff168152602001600073ffffffffffffffffffffffffffffffffffffffff1681526020018781526020018581526020018681526020018481526020018381526020018273ffffffffffffffffffffffffffffffffffffffff16815250600160008373ffffffffffffffffffffffffffffffffffffffff1673ffffffffffffffffffffffffffffffffffffffff1681526020019081526020016000206000820151816000015560208201518160010160006101000a81548173ffffffffffffffffffffffffffffffffffffffff021916908373ffffffffffffffffffffffffffffffffffffffff16021790555060408201518160020160006101000a81548173ffffffffffffffffffffffffffffffffffffffff021916908373ffffffffffffffffffffffffffffffffffffffff16021790555060608201518160030190805190602001906108b2929190611cdb565b5060808201518160040190805190602001906108cf929190611cdb565b5060a08201518160050190805190602001906108ec929190611cdb565b5060c0820151816006019080519060200190610909929190611cdb565b5060e082015181600701556101008201518160080160006101000a81548173ffffffffffffffffffffffffffffffffffffffff021916908373ffffffffffffffffffffffffffffffffffffffff160217905550905050610b78565b600460008154809291906001019190505550600260003373ffffffffffffffffffffffffffffffffffffffff1673ffffffffffffffffffffffffffffffffffffffff168152602001908152602001600020600454908060018154018082558091505090600182039060005260206000200160009091929091909150555060405180610100016040528060045481526020013373ffffffffffffffffffffffffffffffffffffffff168152602001600073ffffffffffffffffffffffffffffffffffffffff1681526020018781526020018581526020018681526020018481526020018381525060008060045481526020019081526020016000206000820151816000015560208201518160010160006101000a81548173ffffffffffffffffffffffffffffffffffffffff021916908373ffffffffffffffffffffffffffffffffffffffff16021790555060408201518160020160006101000a81548173ffffffffffffffffffffffffffffffffffffffff021916908373ffffffffffffffffffffffffffffffffffffffff1602179055506060820151816003019080519060200190610b12929190611cdb565b506080820151816004019080519060200190610b2f929190611cdb565b5060a0820151816005019080519060200190610b4c929190611cdb565b5060c0820151816006019080519060200190610b69929190611cdb565b5060e082015181600701559050505b505050505050565b6060600260003373ffffffffffffffffffffffffffffffffffffffff1673ffffffffffffffffffffffffffffffffffffffff168152602001908152602001600020805480602002602001604051908101604052809291908181526020018280548015610c0b57602002820191906000526020600020905b815481526020019060010190808311610bf7575b5050505050905090565b606060006004541415610c5a576000604051908082528060200260200182016040528015610c525781602001602082028038833980820191505090505b509050610cef565b6060600454604051908082528060200260200182016040528015610c8d5781602001602082028038833980820191505090505b50905060008090506000600190505b6004548111610ce85760008082815260200190815260200160002060000154838381518110610cc757fe5b60200260200101818152505081806001019250508080600101915050610c9c565b5081925050505b90565b600060045411610d37576040517f08c379a0000000000000000000000000000000000000000000000000000000008152600401610d2e906124bd565b60405180910390fd5b600081118015610d4957506004548111155b610d88576040517f08c379a0000000000000000000000000000000000000000000000000000000008152600401610d7f9061255d565b60405180910390fd5b60008060008381526020019081526020016000209050600073ffffffffffffffffffffffffffffffffffffffff168160020160009054906101000a900473ffffffffffffffffffffffffffffffffffffffff1673ffffffffffffffffffffffffffffffffffffffff1614610e31576040517f08c379a0000000000000000000000000000000000000000000000000000000008152600401610e289061251d565b60405180910390fd5b3373ffffffffffffffffffffffffffffffffffffffff168160010160009054906101000a900473ffffffffffffffffffffffffffffffffffffffff1673ffffffffffffffffffffffffffffffffffffffff161415610ec4576040517f08c379a0000000000000000000000000000000000000000000000000000000008152600401610ebb906124fd565b60405180910390fd5b34816007015414610f0a576040517f08c379a0000000000000000000000000000000000000000000000000000000008152600401610f019061253d565b60405180910390fd5b338160020160006101000a81548173ffffffffffffffffffffffffffffffffffffffff021916908373ffffffffffffffffffffffffffffffffffffffff1602179055508060010160009054906101000a900473ffffffffffffffffffffffffffffffffffffffff1673ffffffffffffffffffffffffffffffffffffffff166108fc349081150290604051600060405180830381858888f19350505050158015610fb7573d6000803e3d6000fd5b505050565b60006020528060005260406000206000915090508060000154908060010160009054906101000a900473ffffffffffffffffffffffffffffffffffffffff16908060020160009054906101000a900473ffffffffffffffffffffffffffffffffffffffff1690806003018054600181600116156101000203166002900480601f0160208091040260200160405190810160405280929190818152602001828054600181600116156101000203166002900480156110ba5780601f1061108f576101008083540402835291602001916110ba565b820191906000526020600020905b81548152906001019060200180831161109d57829003601f168201915b505050505090806004018054600181600116156101000203166002900480601f0160208091040260200160405190810160405280929190818152602001828054600181600116156101000203166002900480156111585780601f1061112d57610100808354040283529160200191611158565b820191906000526020600020905b81548152906001019060200180831161113b57829003601f168201915b505050505090806005018054600181600116156101000203166002900480601f0160208091040260200160405190810160405280929190818152602001828054600181600116156101000203166002900480156111f65780601f106111cb576101008083540402835291602001916111f6565b820191906000526020600020905b8154815290600101906020018083116111d957829003601f168201915b505050505090806006018054600181600116156101000203166002900480601f0160208091040260200160405190810160405280929190818152602001828054600181600116156101000203166002900480156112945780601f1061126957610100808354040283529160200191611294565b820191906000526020600020905b81548152906001019060200180831161127757829003601f168201915b5050505050908060070154905088565b6000600454905090565b600080600190505b600454811161135257826040516020016112d0919061246d565b6040516020818303038152906040528051906020012060008083815260200190815260200160002060030160405160200161130b9190612484565b6040516020818303038152906040528051906020012014156113455760008082815260200190815260200160002060000154915050611354565b80806001019150506112b6565b505b919050565b60606000600454141561139e5760006040519080825280602002602001820160405280156113965781602001602082028038833980820191505090505b50905061151b565b60606004546040519080825280602002602001820160405280156113d15781602001602082028038833980820191505090505b50905060008090506000600190505b600454811161149757600073ffffffffffffffffffffffffffffffffffffffff1660008083815260200190815260200160002060020160009054906101000a900473ffffffffffffffffffffffffffffffffffffffff1673ffffffffffffffffffffffffffffffffffffffff16141561148a576000808281526020019081526020016000206000015483838151811061147557fe5b60200260200101818152505081806001019250505b80806001019150506113e0565b506060816040519080825280602002602001820160405280156114c95781602001602082028038833980820191505090505b50905060008090505b82811015611513578381815181106114e657fe5b60200260200101518282815181106114fa57fe5b60200260200101818152505080806001019150506114d2565b508093505050505b90565b6060600360003373ffffffffffffffffffffffffffffffffffffffff1673ffffffffffffffffffffffffffffffffffffffff1681526020019081526020016000208054806020026020016040519081016040528092919081815260200182805480156115a957602002820191906000526020600020905b815481526020019060010190808311611595575b5050505050905090565b6115bb611c4d565b600160003373ffffffffffffffffffffffffffffffffffffffff1673ffffffffffffffffffffffffffffffffffffffff16815260200190815260200160002060405180610120016040529081600082015481526020016001820160009054906101000a900473ffffffffffffffffffffffffffffffffffffffff1673ffffffffffffffffffffffffffffffffffffffff1673ffffffffffffffffffffffffffffffffffffffff1681526020016002820160009054906101000a900473ffffffffffffffffffffffffffffffffffffffff1673ffffffffffffffffffffffffffffffffffffffff1673ffffffffffffffffffffffffffffffffffffffff168152602001600382018054600181600116156101000203166002900480601f0160208091040260200160405190810160405280929190818152602001828054600181600116156101000203166002900480156117555780601f1061172a57610100808354040283529160200191611755565b820191906000526020600020905b81548152906001019060200180831161173857829003601f168201915b50505050508152602001600482018054600181600116156101000203166002900480601f0160208091040260200160405190810160405280929190818152602001828054600181600116156101000203166002900480156117f75780601f106117cc576101008083540402835291602001916117f7565b820191906000526020600020905b8154815290600101906020018083116117da57829003601f168201915b50505050508152602001600582018054600181600116156101000203166002900480601f0160208091040260200160405190810160405280929190818152602001828054600181600116156101000203166002900480156118995780601f1061186e57610100808354040283529160200191611899565b820191906000526020600020905b81548152906001019060200180831161187c57829003601f168201915b50505050508152602001600682018054600181600116156101000203166002900480601f01602080910402602001604051908101604052809291908181526020018280546001816001161561010002031660029004801561193b5780601f106119105761010080835404028352916020019161193b565b820191906000526020600020905b81548152906001019060200180831161191e57829003601f168201915b50505050508152602001600782015481526020016008820160009054906101000a900473ffffffffffffffffffffffffffffffffffffffff1673ffffffffffffffffffffffffffffffffffffffff1673ffffffffffffffffffffffffffffffffffffffff16815250509050600073ffffffffffffffffffffffffffffffffffffffff16816020015173ffffffffffffffffffffffffffffffffffffffff161415611a1a576040517f08c379a0000000000000000000000000000000000000000000000000000000008152600401611a11906124dd565b60405180910390fd5b600073ffffffffffffffffffffffffffffffffffffffff16816040015173ffffffffffffffffffffffffffffffffffffffff1614611a8d576040517f08c379a0000000000000000000000000000000000000000000000000000000008152600401611a849061251d565b60405180910390fd5b3373ffffffffffffffffffffffffffffffffffffffff16816020015173ffffffffffffffffffffffffffffffffffffffff161415611b00576040517f08c379a0000000000000000000000000000000000000000000000000000000008152600401611af7906124fd565b60405180910390fd5b348160e0015114611b46576040517f08c379a0000000000000000000000000000000000000000000000000000000008152600401611b3d9061253d565b60405180910390fd5b33816040019073ffffffffffffffffffffffffffffffffffffffff16908173ffffffffffffffffffffffffffffffffffffffff168152505033600160003373ffffffffffffffffffffffffffffffffffffffff1673ffffffffffffffffffffffffffffffffffffffff16815260200190815260200160002060020160006101000a81548173ffffffffffffffffffffffffffffffffffffffff021916908373ffffffffffffffffffffffffffffffffffffffff160217905550806020015173ffffffffffffffffffffffffffffffffffffffff166108fc349081150290604051600060405180830381858888f19350505050158015611c49573d6000803e3d6000fd5b5050565b60405180610120016040528060008152602001600073ffffffffffffffffffffffffffffffffffffffff168152602001600073ffffffffffffffffffffffffffffffffffffffff1681526020016060815260200160608152602001606081526020016060815260200160008152602001600073ffffffffffffffffffffffffffffffffffffffff1681525090565b828054600181600116156101000203166002900490600052602060002090601f016020900481019282601f10611d1c57805160ff1916838001178555611d4a565b82800160010185558215611d4a579182015b82811115611d49578251825591602001919060010190611d2e565b5b509050611d579190611d5b565b5090565b611d7d91905b80821115611d79576000816000905550600101611d61565b5090565b90565b600081359050611d8f816127df565b92915050565b600082601f830112611da657600080fd5b8135611db9611db482612681565b612654565b91508082526020830160208301858383011115611dd557600080fd5b611de083828461278c565b50505092915050565b600081359050611df8816127f6565b92915050565b600060208284031215611e1057600080fd5b6000611e1e84828501611d80565b91505092915050565b600060208284031215611e3957600080fd5b600082013567ffffffffffffffff811115611e5357600080fd5b611e5f84828501611d95565b91505092915050565b60008060008060008060c08789031215611e8157600080fd5b600087013567ffffffffffffffff811115611e9b57600080fd5b611ea789828a01611d95565b965050602087013567ffffffffffffffff811115611ec457600080fd5b611ed089828a01611d95565b955050604087013567ffffffffffffffff811115611eed57600080fd5b611ef989828a01611d95565b945050606087013567ffffffffffffffff811115611f1657600080fd5b611f2289828a01611d95565b9350506080611f3389828a01611de9565b92505060a0611f4489828a01611d80565b9150509295509295509295565b600060208284031215611f6357600080fd5b6000611f7184828501611de9565b91505092915050565b6000611f86838361244f565b60208301905092915050565b611f9b81612750565b82525050565b611faa81612750565b82525050565b611fb98161273e565b82525050565b611fc88161273e565b82525050565b6000611fd9826126d2565b611fe38185612700565b9350611fee836126ad565b8060005b8381101561201f5781516120068882611f7a565b9750612011836126f3565b925050600181019050611ff2565b5085935050505092915050565b6000612037826126e8565b6120418185612733565b935061205181856020860161279b565b80840191505092915050565b6000612068826126dd565b6120728185612711565b935061208281856020860161279b565b61208b816127ce565b840191505092915050565b60006120a1826126dd565b6120ab8185612722565b93506120bb81856020860161279b565b6120c4816127ce565b840191505092915050565b6000815460018116600081146120ec576001811461211157612155565b607f60028304166120fd8187612733565b955060ff1983168652808601935050612155565b6002820461211f8187612733565b955061212a856126bd565b60005b8281101561214c5781548189015260018201915060208101905061212d565b82880195505050505b505092915050565b600061216a602483612722565b91507f54686572652073686f756c64206265206174206c65617374206f6e6520616e6160008301527f6c797365000000000000000000000000000000000000000000000000000000006020830152604082019050919050565b60006121d0601283612722565b91507f416e616c797a65206e6f7420666f756e642100000000000000000000000000006000830152602082019050919050565b6000612210602183612722565b91507f53656c6c65722063616e6e6f742062757920686973206f776e20616e616c797360008301527f65000000000000000000000000000000000000000000000000000000000000006020830152604082019050919050565b6000612276601883612722565b91507f616e616c7973652077617320616c726561647920736f6c6400000000000000006000830152602082019050919050565b60006122b6602e83612722565b91507f56616c75652070726f766964656420646f6573206e6f74206d6174636820707260008301527f696365206f6620616e616c7973650000000000000000000000000000000000006020830152604082019050919050565b600061231c602383612722565b91507f616e616c7973652077697468207468697320696420646f6573206e6f7420657860008301527f69737400000000000000000000000000000000000000000000000000000000006020830152604082019050919050565b60006101208301600083015161238e600086018261244f565b5060208301516123a16020860182611f92565b5060408301516123b46040860182611fb0565b50606083015184820360608601526123cc828261205d565b915050608083015184820360808601526123e6828261205d565b91505060a083015184820360a0860152612400828261205d565b91505060c083015184820360c086015261241a828261205d565b91505060e083015161242f60e086018261244f565b50610100830151612444610100860182611fb0565b508091505092915050565b61245881612782565b82525050565b61246781612782565b82525050565b6000612479828461202c565b915081905092915050565b600061249082846120cf565b915081905092915050565b600060208201905081810360008301526124b58184611fce565b905092915050565b600060208201905081810360008301526124d68161215d565b9050919050565b600060208201905081810360008301526124f6816121c3565b9050919050565b6000602082019050818103600083015261251681612203565b9050919050565b6000602082019050818103600083015261253681612269565b9050919050565b60006020820190508181036000830152612556816122a9565b9050919050565b600060208201905081810360008301526125768161230f565b9050919050565b600060208201905081810360008301526125978184612375565b905092915050565b60006020820190506125b4600083018461245e565b92915050565b6000610100820190506125d0600083018b61245e565b6125dd602083018a611fa1565b6125ea6040830189611fbf565b81810360608301526125fc8188612096565b905081810360808301526126108187612096565b905081810360a08301526126248186612096565b905081810360c08301526126388185612096565b905061264760e083018461245e565b9998505050505050505050565b6000604051905081810181811067ffffffffffffffff8211171561267757600080fd5b8060405250919050565b600067ffffffffffffffff82111561269857600080fd5b601f19601f8301169050602081019050919050565b6000819050602082019050919050565b60008190508160005260206000209050919050565b600081519050919050565b600081519050919050565b600081519050919050565b6000602082019050919050565b600082825260208201905092915050565b600082825260208201905092915050565b600082825260208201905092915050565b600081905092915050565b600061274982612762565b9050919050565b600061275b82612762565b9050919050565b600073ffffffffffffffffffffffffffffffffffffffff82169050919050565b6000819050919050565b82818337600083830152505050565b60005b838110156127b957808201518184015260208101905061279e565b838111156127c8576000848401525b50505050565b6000601f19601f8301169050919050565b6127e88161273e565b81146127f357600080fd5b50565b6127ff81612782565b811461280a57600080fd5b5056fea365627a7a72315820efdca528478b42703b2156a9b07c8e0310757a43e46975e8e1d2901119c703e46c6578706572696d656e74616cf564736f6c63430005110040",
  "compiler": {
    "name": "solc",
    "version": "0.5.17+commit.d19bba13.Emscripten.clang",
    "optimizer": {
      "enabled": false,
      "runs": 200
    },
    "evmVersion": "petersburg"
  }
}