{
  "fileName": "Tracepic.sol",
  "contractName": "Tracepic",
  "source": "pragma experimental ABIEncoderV2;\npragma solidity >0.4.99 <0.6.0;\n\n\ncontract Tracepic {\n    struct analyse {\n        uint256 id;\n        address payable seller;\n        address buyer;\n        string analyseReference;\n        string date;\n        string value;\n        string description;\n        uint256 price;\n    }\n\n    struct privateAnalyse {\n        uint256 id;\n        address payable seller;\n        address buyer;\n        string analyseReference;\n        string date;\n        string value;\n        string description;\n        uint256 price;\n        address owner;\n    }\n\n    mapping(string => analyse) public publicAnalysisByRef;\n    mapping(uint256 => analyse) public publicAnalysisById;\n    mapping(address => analyse[]) public publicAnalysisBuyer;\n    mapping(address => uint256[]) private publicAnalysesPoster;\n\n    mapping(uint256 => privateAnalyse) private privateAnalysis;\n    mapping(address => uint256[]) private privateAnalysesPoster;\n    mapping(address => privateAnalyse[]) public privateAnalysisBuyer;\n    mapping(address => privateAnalyse[]) private privateAnalysesOwner;\n\n    // State variables\n    uint256 publicAnalyseCounter;\n    uint256 privateAnalysesCounter;\n\n    function initContract() public {\n        // postAnalyse(\"0\", \"0\", \"0\", \"0\", 0, address(0));\n        /*for (uint i = 0; i < 28; i++){\n            postAnalyse(\"byte(i)\", \"byte(i)\", \"byte(i)\", \"byte(i)\", i, address(0));\n        }*/\n    }\n\n    // sell an analyse\n    function postAnalyse(\n        string memory _analyseReference,\n        string memory _value,\n        string memory _date,\n        string memory _description,\n        uint256 _price,\n        address _owner\n    ) public {\n        if (_owner != address(0)) {\n            privateAnalysesCounter++;\n\n            privateAnalysesPoster[msg.sender].push(privateAnalysesCounter);\n\n            privateAnalysis[privateAnalysesCounter] = (\n                privateAnalyse(\n                    privateAnalysesCounter,\n                    msg.sender,\n                    address(0),\n                    _analyseReference,\n                    _date,\n                    _value,\n                    _description,\n                    _price,\n                    _owner\n                )\n            );\n\n            privateAnalysesOwner[_owner].push(\n                privateAnalyse(\n                    privateAnalysesCounter,\n                    msg.sender,\n                    address(0),\n                    _analyseReference,\n                    _date,\n                    _value,\n                    _description,\n                    _price,\n                    _owner\n                )\n            );\n        } else {\n            publicAnalyseCounter++;\n            publicAnalysesPoster[msg.sender].push(publicAnalyseCounter);\n            publicAnalysisById[publicAnalyseCounter] = analyse(\n                publicAnalyseCounter,\n                msg.sender,\n                address(0),\n                _analyseReference,\n                _date,\n                _value,\n                _description,\n                _price\n            );\n            publicAnalysisByRef[_analyseReference] = analyse(\n                publicAnalyseCounter,\n                msg.sender,\n                address(0),\n                _analyseReference,\n                _date,\n                _value,\n                _description,\n                _price\n            );\n        }\n    }\n\n    // buy an analyse\n    function buyAnalyse(uint256 _id) public payable {\n        // we check whether there is at least one analyse\n        require(\n            publicAnalyseCounter > 0,\n            \"There should be at least one analyse\"\n        );\n\n        // we check whether the analyse exists\n        require(\n            _id > 0 && _id <= publicAnalyseCounter,\n            \"analyse with this id does not exist\"\n        );\n        // we retrieve the analyse\n        analyse storage analyseToBuy = publicAnalysisById[_id];\n        // we check whether the analyse has not already been sold\n        require(analyseToBuy.buyer == address(0), \"analyse was already sold\");\n        // we don't allow the seller to buy his/her own analyse\n        require(\n            analyseToBuy.seller != msg.sender,\n            \"Seller cannot buy his own analyse\"\n        );\n        // we check whether the value sent corresponds to the analyse price\n        require(\n            analyseToBuy.price == msg.value,\n            \"Value provided does not match price of analyse\"\n        );\n\n        // keep buyer's information\n        analyseToBuy.buyer = msg.sender;\n        publicAnalysisById[_id].buyer = msg.sender;\n\n        publicAnalysisBuyer[msg.sender].push(analyseToBuy);\n        // the buyer can buy the analyse\n        analyseToBuy.seller.transfer(msg.value);\n    }\n\n    // buy a private analyse\n    function buyPrivateAnalyse(uint256 analyseId) public payable {\n        // we retrieve the analyse\n        privateAnalyse memory analyseToBuy = privateAnalysis[analyseId];\n        // we check whether the analyse exists\n        require(analyseToBuy.seller != address(0), \"Analyze not found!\");\n        // we check whether the analyse has not already been sold\n        require(analyseToBuy.buyer == address(0), \"analyse was already sold\");\n        // we don't allow the seller to buy his/her own analyse\n        require(\n            analyseToBuy.seller != msg.sender,\n            \"Seller cannot buy his own analyse\"\n        );\n        // we check whether the value sent corresponds to the analyse price\n        require(\n            analyseToBuy.price == msg.value,\n            \"Value provided does not match price of analyse\"\n        );\n\n        require(analyseToBuy.owner == msg.sender, \"You are not owner\");\n\n        // keep buyer's information\n        analyseToBuy.buyer = msg.sender;\n        privateAnalysis[analyseId].buyer = msg.sender;\n\n        for (uint256 i = 0; i < privateAnalysesOwner[msg.sender].length; i++) {\n            if (privateAnalysesOwner[msg.sender][i].id == analyseId) {\n                privateAnalysesOwner[msg.sender][i].buyer = msg.sender;\n            }\n        }\n\n        privateAnalysis[analyseId].buyer = msg.sender;\n        privateAnalysisBuyer[msg.sender].push(analyseToBuy);\n        // the buyer can buy the analyse\n        analyseToBuy.seller.transfer(msg.value);\n    }\n\n    // fetch and returns all analyse IDs available for sale\n    function getAnalysesForSale(uint256 lot)\n        public\n        view\n        returns (analyse[] memory)\n    {\n        // we check whether there is at least one analyse\n        if (publicAnalyseCounter == 0) {\n            return new analyse[](0);\n        }\n        // prepare output arrays\n        analyse[] memory analysis = new analyse[](10);\n        uint256 numberOfAnalysesForSale = 0;\n        uint256 fromm = publicAnalyseCounter - (lot * 10) + 10;\n        uint256 to = 0;\n        if (fromm >= 9) {\n            to = fromm - 9;\n        } else {\n            to = 1;\n        }\n        for (uint256 i = fromm; i >= to; i--) {\n            analysis[numberOfAnalysesForSale] = publicAnalysisById[i];\n            numberOfAnalysesForSale++;\n        }\n        return analysis;\n    }\n\n    function getSelfPostedPublicAnalysisIds()\n        public\n        view\n        returns (uint256[] memory)\n    {\n        return publicAnalysesPoster[msg.sender];\n    }\n\n    function getSelfPostedPrivateAnalysisIds()\n        public\n        view\n        returns (uint256[] memory)\n    {\n        return privateAnalysesPoster[msg.sender];\n    }\n\n    function getSelfPostedPrivateAnalyse(uint256 analyseId)\n        public\n        view\n        returns (privateAnalyse memory)\n    {\n        privateAnalyse memory _analyse = privateAnalysis[analyseId];\n        require(\n            _analyse.seller == msg.sender,\n            \"This is a private analyse, and you are not the owner\"\n        );\n        return _analyse;\n    }\n\n    function getSelfPostedPrivateAnalyseByAddress(address owner)\n        public\n        view\n        returns (privateAnalyse[] memory)\n    {\n        privateAnalyse[] memory analysis = privateAnalysesOwner[owner];\n        privateAnalyse[] memory postedAnalysis = new privateAnalyse[](\n            analysis.length\n        );\n        uint256 counter = 0;\n        for (uint256 i = 0; i < analysis.length; i++) {\n            if (analysis[i].seller == msg.sender) {\n                postedAnalysis[counter] = analysis[i];\n                counter++;\n            }\n        }\n        privateAnalyse[] memory finalAnalysis = new privateAnalyse[](counter);\n        for (uint256 i = 0; i < counter; i++) {\n            finalAnalysis[i] = postedAnalysis[i];\n        }\n        return finalAnalysis;\n    }\n\n    function getSelfBoughtAnalysis()\n        public\n        view\n        returns (analyse[] memory publicA, privateAnalyse[] memory privateA)\n    {\n        return (\n            publicAnalysisBuyer[msg.sender],\n            privateAnalysisBuyer[msg.sender]\n        );\n    }\n\n    function getAnalyseByReference(string memory _reference)\n        public\n        view\n        returns (analyse memory)\n    {\n        return publicAnalysisByRef[_reference];\n    }\n\n    function getPrivateAnalyse() public view returns (privateAnalyse[] memory) {\n        privateAnalyse[] memory _analyse = privateAnalysesOwner[msg.sender];\n        return _analyse;\n    }\n}\n",
  "sourcePath": "contracts/Tracepic.sol",
  "abi": [
    {
      "constant": false,
      "inputs": [
        {
          "internalType": "uint256",
          "name": "_id",
          "type": "uint256"
        }
      ],
      "name": "buyAnalyse",
      "outputs": [],
      "payable": true,
      "stateMutability": "payable",
      "type": "function"
    },
    {
      "constant": false,
      "inputs": [
        {
          "internalType": "uint256",
          "name": "analyseId",
          "type": "uint256"
        }
      ],
      "name": "buyPrivateAnalyse",
      "outputs": [],
      "payable": true,
      "stateMutability": "payable",
      "type": "function"
    },
    {
      "constant": true,
      "inputs": [
        {
          "internalType": "string",
          "name": "_reference",
          "type": "string"
        }
      ],
      "name": "getAnalyseByReference",
      "outputs": [
        {
          "components": [
            {
              "internalType": "uint256",
              "name": "id",
              "type": "uint256"
            },
            {
              "internalType": "address payable",
              "name": "seller",
              "type": "address"
            },
            {
              "internalType": "address",
              "name": "buyer",
              "type": "address"
            },
            {
              "internalType": "string",
              "name": "analyseReference",
              "type": "string"
            },
            {
              "internalType": "string",
              "name": "date",
              "type": "string"
            },
            {
              "internalType": "string",
              "name": "value",
              "type": "string"
            },
            {
              "internalType": "string",
              "name": "description",
              "type": "string"
            },
            {
              "internalType": "uint256",
              "name": "price",
              "type": "uint256"
            }
          ],
          "internalType": "struct Tracepic.analyse",
          "name": "",
          "type": "tuple"
        }
      ],
      "payable": false,
      "stateMutability": "view",
      "type": "function"
    },
    {
      "constant": true,
      "inputs": [
        {
          "internalType": "uint256",
          "name": "lot",
          "type": "uint256"
        }
      ],
      "name": "getAnalysesForSale",
      "outputs": [
        {
          "components": [
            {
              "internalType": "uint256",
              "name": "id",
              "type": "uint256"
            },
            {
              "internalType": "address payable",
              "name": "seller",
              "type": "address"
            },
            {
              "internalType": "address",
              "name": "buyer",
              "type": "address"
            },
            {
              "internalType": "string",
              "name": "analyseReference",
              "type": "string"
            },
            {
              "internalType": "string",
              "name": "date",
              "type": "string"
            },
            {
              "internalType": "string",
              "name": "value",
              "type": "string"
            },
            {
              "internalType": "string",
              "name": "description",
              "type": "string"
            },
            {
              "internalType": "uint256",
              "name": "price",
              "type": "uint256"
            }
          ],
          "internalType": "struct Tracepic.analyse[]",
          "name": "",
          "type": "tuple[]"
        }
      ],
      "payable": false,
      "stateMutability": "view",
      "type": "function"
    },
    {
      "constant": true,
      "inputs": [],
      "name": "getPrivateAnalyse",
      "outputs": [
        {
          "components": [
            {
              "internalType": "uint256",
              "name": "id",
              "type": "uint256"
            },
            {
              "internalType": "address payable",
              "name": "seller",
              "type": "address"
            },
            {
              "internalType": "address",
              "name": "buyer",
              "type": "address"
            },
            {
              "internalType": "string",
              "name": "analyseReference",
              "type": "string"
            },
            {
              "internalType": "string",
              "name": "date",
              "type": "string"
            },
            {
              "internalType": "string",
              "name": "value",
              "type": "string"
            },
            {
              "internalType": "string",
              "name": "description",
              "type": "string"
            },
            {
              "internalType": "uint256",
              "name": "price",
              "type": "uint256"
            },
            {
              "internalType": "address",
              "name": "owner",
              "type": "address"
            }
          ],
          "internalType": "struct Tracepic.privateAnalyse[]",
          "name": "",
          "type": "tuple[]"
        }
      ],
      "payable": false,
      "stateMutability": "view",
      "type": "function"
    },
    {
      "constant": true,
      "inputs": [],
      "name": "getSelfBoughtAnalysis",
      "outputs": [
        {
          "components": [
            {
              "internalType": "uint256",
              "name": "id",
              "type": "uint256"
            },
            {
              "internalType": "address payable",
              "name": "seller",
              "type": "address"
            },
            {
              "internalType": "address",
              "name": "buyer",
              "type": "address"
            },
            {
              "internalType": "string",
              "name": "analyseReference",
              "type": "string"
            },
            {
              "internalType": "string",
              "name": "date",
              "type": "string"
            },
            {
              "internalType": "string",
              "name": "value",
              "type": "string"
            },
            {
              "internalType": "string",
              "name": "description",
              "type": "string"
            },
            {
              "internalType": "uint256",
              "name": "price",
              "type": "uint256"
            }
          ],
          "internalType": "struct Tracepic.analyse[]",
          "name": "publicA",
          "type": "tuple[]"
        },
        {
          "components": [
            {
              "internalType": "uint256",
              "name": "id",
              "type": "uint256"
            },
            {
              "internalType": "address payable",
              "name": "seller",
              "type": "address"
            },
            {
              "internalType": "address",
              "name": "buyer",
              "type": "address"
            },
            {
              "internalType": "string",
              "name": "analyseReference",
              "type": "string"
            },
            {
              "internalType": "string",
              "name": "date",
              "type": "string"
            },
            {
              "internalType": "string",
              "name": "value",
              "type": "string"
            },
            {
              "internalType": "string",
              "name": "description",
              "type": "string"
            },
            {
              "internalType": "uint256",
              "name": "price",
              "type": "uint256"
            },
            {
              "internalType": "address",
              "name": "owner",
              "type": "address"
            }
          ],
          "internalType": "struct Tracepic.privateAnalyse[]",
          "name": "privateA",
          "type": "tuple[]"
        }
      ],
      "payable": false,
      "stateMutability": "view",
      "type": "function"
    },
    {
      "constant": true,
      "inputs": [
        {
          "internalType": "uint256",
          "name": "analyseId",
          "type": "uint256"
        }
      ],
      "name": "getSelfPostedPrivateAnalyse",
      "outputs": [
        {
          "components": [
            {
              "internalType": "uint256",
              "name": "id",
              "type": "uint256"
            },
            {
              "internalType": "address payable",
              "name": "seller",
              "type": "address"
            },
            {
              "internalType": "address",
              "name": "buyer",
              "type": "address"
            },
            {
              "internalType": "string",
              "name": "analyseReference",
              "type": "string"
            },
            {
              "internalType": "string",
              "name": "date",
              "type": "string"
            },
            {
              "internalType": "string",
              "name": "value",
              "type": "string"
            },
            {
              "internalType": "string",
              "name": "description",
              "type": "string"
            },
            {
              "internalType": "uint256",
              "name": "price",
              "type": "uint256"
            },
            {
              "internalType": "address",
              "name": "owner",
              "type": "address"
            }
          ],
          "internalType": "struct Tracepic.privateAnalyse",
          "name": "",
          "type": "tuple"
        }
      ],
      "payable": false,
      "stateMutability": "view",
      "type": "function"
    },
    {
      "constant": true,
      "inputs": [
        {
          "internalType": "address",
          "name": "owner",
          "type": "address"
        }
      ],
      "name": "getSelfPostedPrivateAnalyseByAddress",
      "outputs": [
        {
          "components": [
            {
              "internalType": "uint256",
              "name": "id",
              "type": "uint256"
            },
            {
              "internalType": "address payable",
              "name": "seller",
              "type": "address"
            },
            {
              "internalType": "address",
              "name": "buyer",
              "type": "address"
            },
            {
              "internalType": "string",
              "name": "analyseReference",
              "type": "string"
            },
            {
              "internalType": "string",
              "name": "date",
              "type": "string"
            },
            {
              "internalType": "string",
              "name": "value",
              "type": "string"
            },
            {
              "internalType": "string",
              "name": "description",
              "type": "string"
            },
            {
              "internalType": "uint256",
              "name": "price",
              "type": "uint256"
            },
            {
              "internalType": "address",
              "name": "owner",
              "type": "address"
            }
          ],
          "internalType": "struct Tracepic.privateAnalyse[]",
          "name": "",
          "type": "tuple[]"
        }
      ],
      "payable": false,
      "stateMutability": "view",
      "type": "function"
    },
    {
      "constant": true,
      "inputs": [],
      "name": "getSelfPostedPrivateAnalysisIds",
      "outputs": [
        {
          "internalType": "uint256[]",
          "name": "",
          "type": "uint256[]"
        }
      ],
      "payable": false,
      "stateMutability": "view",
      "type": "function"
    },
    {
      "constant": true,
      "inputs": [],
      "name": "getSelfPostedPublicAnalysisIds",
      "outputs": [
        {
          "internalType": "uint256[]",
          "name": "",
          "type": "uint256[]"
        }
      ],
      "payable": false,
      "stateMutability": "view",
      "type": "function"
    },
    {
      "constant": false,
      "inputs": [],
      "name": "initContract",
      "outputs": [],
      "payable": false,
      "stateMutability": "nonpayable",
      "type": "function"
    },
    {
      "constant": false,
      "inputs": [
        {
          "internalType": "string",
          "name": "_analyseReference",
          "type": "string"
        },
        {
          "internalType": "string",
          "name": "_value",
          "type": "string"
        },
        {
          "internalType": "string",
          "name": "_date",
          "type": "string"
        },
        {
          "internalType": "string",
          "name": "_description",
          "type": "string"
        },
        {
          "internalType": "uint256",
          "name": "_price",
          "type": "uint256"
        },
        {
          "internalType": "address",
          "name": "_owner",
          "type": "address"
        }
      ],
      "name": "postAnalyse",
      "outputs": [],
      "payable": false,
      "stateMutability": "nonpayable",
      "type": "function"
    },
    {
      "constant": true,
      "inputs": [
        {
          "internalType": "address",
          "name": "",
          "type": "address"
        },
        {
          "internalType": "uint256",
          "name": "",
          "type": "uint256"
        }
      ],
      "name": "privateAnalysisBuyer",
      "outputs": [
        {
          "internalType": "uint256",
          "name": "id",
          "type": "uint256"
        },
        {
          "internalType": "address payable",
          "name": "seller",
          "type": "address"
        },
        {
          "internalType": "address",
          "name": "buyer",
          "type": "address"
        },
        {
          "internalType": "string",
          "name": "analyseReference",
          "type": "string"
        },
        {
          "internalType": "string",
          "name": "date",
          "type": "string"
        },
        {
          "internalType": "string",
          "name": "value",
          "type": "string"
        },
        {
          "internalType": "string",
          "name": "description",
          "type": "string"
        },
        {
          "internalType": "uint256",
          "name": "price",
          "type": "uint256"
        },
        {
          "internalType": "address",
          "name": "owner",
          "type": "address"
        }
      ],
      "payable": false,
      "stateMutability": "view",
      "type": "function"
    },
    {
      "constant": true,
      "inputs": [
        {
          "internalType": "address",
          "name": "",
          "type": "address"
        },
        {
          "internalType": "uint256",
          "name": "",
          "type": "uint256"
        }
      ],
      "name": "publicAnalysisBuyer",
      "outputs": [
        {
          "internalType": "uint256",
          "name": "id",
          "type": "uint256"
        },
        {
          "internalType": "address payable",
          "name": "seller",
          "type": "address"
        },
        {
          "internalType": "address",
          "name": "buyer",
          "type": "address"
        },
        {
          "internalType": "string",
          "name": "analyseReference",
          "type": "string"
        },
        {
          "internalType": "string",
          "name": "date",
          "type": "string"
        },
        {
          "internalType": "string",
          "name": "value",
          "type": "string"
        },
        {
          "internalType": "string",
          "name": "description",
          "type": "string"
        },
        {
          "internalType": "uint256",
          "name": "price",
          "type": "uint256"
        }
      ],
      "payable": false,
      "stateMutability": "view",
      "type": "function"
    },
    {
      "constant": true,
      "inputs": [
        {
          "internalType": "uint256",
          "name": "",
          "type": "uint256"
        }
      ],
      "name": "publicAnalysisById",
      "outputs": [
        {
          "internalType": "uint256",
          "name": "id",
          "type": "uint256"
        },
        {
          "internalType": "address payable",
          "name": "seller",
          "type": "address"
        },
        {
          "internalType": "address",
          "name": "buyer",
          "type": "address"
        },
        {
          "internalType": "string",
          "name": "analyseReference",
          "type": "string"
        },
        {
          "internalType": "string",
          "name": "date",
          "type": "string"
        },
        {
          "internalType": "string",
          "name": "value",
          "type": "string"
        },
        {
          "internalType": "string",
          "name": "description",
          "type": "string"
        },
        {
          "internalType": "uint256",
          "name": "price",
          "type": "uint256"
        }
      ],
      "payable": false,
      "stateMutability": "view",
      "type": "function"
    },
    {
      "constant": true,
      "inputs": [
        {
          "internalType": "string",
          "name": "",
          "type": "string"
        }
      ],
      "name": "publicAnalysisByRef",
      "outputs": [
        {
          "internalType": "uint256",
          "name": "id",
          "type": "uint256"
        },
        {
          "internalType": "address payable",
          "name": "seller",
          "type": "address"
        },
        {
          "internalType": "address",
          "name": "buyer",
          "type": "address"
        },
        {
          "internalType": "string",
          "name": "analyseReference",
          "type": "string"
        },
        {
          "internalType": "string",
          "name": "date",
          "type": "string"
        },
        {
          "internalType": "string",
          "name": "value",
          "type": "string"
        },
        {
          "internalType": "string",
          "name": "description",
          "type": "string"
        },
        {
          "internalType": "uint256",
          "name": "price",
          "type": "uint256"
        }
      ],
      "payable": false,
      "stateMutability": "view",
      "type": "function"
    }
  ],
  "bytecode": "0x608060405234801561001057600080fd5b50615bde80620000216000396000f3fe6080604052600436106100f35760003560e01c80638203f5fe1161008a578063d65a38cc11610059578063d65a38cc14610339578063f19e134a1461037d578063f23e7bee146103a8578063fdb349fd146103e5576100f3565b80638203f5fe14610275578063a844fd811461028c578063c491385d146102d0578063c8ad9929146102fc576100f3565b80635b2a66df116100c65780635b2a66df146101b45780635e5a0e20146101d05780636d37a019146101ec57806372790a6c14610230576100f3565b806319953d7b146100f857806323c95bdb14610121578063546d9f7a1461015e57806359a90a2e14610189575b600080fd5b34801561010457600080fd5b5061011f600480360361011a9190810190614c8b565b610422565b005b34801561012d57600080fd5b5061014860048036036101439190810190614d74565b610ce0565b6040516101559190615635565b60405180910390f35b34801561016a57600080fd5b5061017361114f565b60405161018091906156b0565b60405180910390f35b34801561019557600080fd5b5061019e6111e4565b6040516101ab919061568e565b60405180910390f35b6101ce60048036036101c99190810190614d74565b611624565b005b6101ea60048036036101e59190810190614d74565b612057565b005b3480156101f857600080fd5b50610213600480360361020e9190810190614c09565b612567565b604051610227989796959493929190615816565b60405180910390f35b34801561023c57600080fd5b5061025760048036036102529190810190614bcd565b612865565b60405161026c999897969594939291906158b0565b60405180910390f35b34801561028157600080fd5b5061028a612b8d565b005b34801561029857600080fd5b506102b360048036036102ae9190810190614bcd565b612b8f565b6040516102c7989796959493929190615816565b60405180910390f35b3480156102dc57600080fd5b506102e5612e91565b6040516102f3929190615657565b60405180910390f35b34801561030857600080fd5b50610323600480360361031e9190810190614c4a565b6136b4565b60405161033091906157d2565b60405180910390f35b34801561034557600080fd5b50610360600480360361035b9190810190614d74565b613a35565b604051610374989796959493929190615816565b60405180910390f35b34801561038957600080fd5b50610392613d1d565b60405161039f91906156b0565b60405180910390f35b3480156103b457600080fd5b506103cf60048036036103ca9190810190614ba4565b613db2565b6040516103dc919061568e565b60405180910390f35b3480156103f157600080fd5b5061040c60048036036104079190810190614d74565b61435e565b60405161041991906157f4565b60405180910390f35b600073ffffffffffffffffffffffffffffffffffffffff168173ffffffffffffffffffffffffffffffffffffffff161461092357600960008154809291906001019190505550600560003373ffffffffffffffffffffffffffffffffffffffff1673ffffffffffffffffffffffffffffffffffffffff168152602001908152602001600020600954908060018154018082558091505090600182039060005260206000200160009091929091909150555060405180610120016040528060095481526020013373ffffffffffffffffffffffffffffffffffffffff168152602001600073ffffffffffffffffffffffffffffffffffffffff1681526020018781526020018581526020018681526020018481526020018381526020018273ffffffffffffffffffffffffffffffffffffffff168152506004600060095481526020019081526020016000206000820151816000015560208201518160010160006101000a81548173ffffffffffffffffffffffffffffffffffffffff021916908373ffffffffffffffffffffffffffffffffffffffff16021790555060408201518160020160006101000a81548173ffffffffffffffffffffffffffffffffffffffff021916908373ffffffffffffffffffffffffffffffffffffffff16021790555060608201518160030190805190602001906106219291906147a8565b50608082015181600401908051906020019061063e9291906147a8565b5060a082015181600501908051906020019061065b9291906147a8565b5060c08201518160060190805190602001906106789291906147a8565b5060e082015181600701556101008201518160080160006101000a81548173ffffffffffffffffffffffffffffffffffffffff021916908373ffffffffffffffffffffffffffffffffffffffff160217905550905050600760008273ffffffffffffffffffffffffffffffffffffffff1673ffffffffffffffffffffffffffffffffffffffff16815260200190815260200160002060405180610120016040528060095481526020013373ffffffffffffffffffffffffffffffffffffffff168152602001600073ffffffffffffffffffffffffffffffffffffffff1681526020018881526020018681526020018781526020018581526020018481526020018373ffffffffffffffffffffffffffffffffffffffff16815250908060018154018082558091505090600182039060005260206000209060090201600090919290919091506000820151816000015560208201518160010160006101000a81548173ffffffffffffffffffffffffffffffffffffffff021916908373ffffffffffffffffffffffffffffffffffffffff16021790555060408201518160020160006101000a81548173ffffffffffffffffffffffffffffffffffffffff021916908373ffffffffffffffffffffffffffffffffffffffff16021790555060608201518160030190805190602001906108719291906147a8565b50608082015181600401908051906020019061088e9291906147a8565b5060a08201518160050190805190602001906108ab9291906147a8565b5060c08201518160060190805190602001906108c89291906147a8565b5060e082015181600701556101008201518160080160006101000a81548173ffffffffffffffffffffffffffffffffffffffff021916908373ffffffffffffffffffffffffffffffffffffffff160217905550505050610cd8565b600860008154809291906001019190505550600360003373ffffffffffffffffffffffffffffffffffffffff1673ffffffffffffffffffffffffffffffffffffffff168152602001908152602001600020600854908060018154018082558091505090600182039060005260206000200160009091929091909150555060405180610100016040528060085481526020013373ffffffffffffffffffffffffffffffffffffffff168152602001600073ffffffffffffffffffffffffffffffffffffffff168152602001878152602001858152602001868152602001848152602001838152506001600060085481526020019081526020016000206000820151816000015560208201518160010160006101000a81548173ffffffffffffffffffffffffffffffffffffffff021916908373ffffffffffffffffffffffffffffffffffffffff16021790555060408201518160020160006101000a81548173ffffffffffffffffffffffffffffffffffffffff021916908373ffffffffffffffffffffffffffffffffffffffff1602179055506060820151816003019080519060200190610ad29291906147a8565b506080820151816004019080519060200190610aef9291906147a8565b5060a0820151816005019080519060200190610b0c9291906147a8565b5060c0820151816006019080519060200190610b299291906147a8565b5060e0820151816007015590505060405180610100016040528060085481526020013373ffffffffffffffffffffffffffffffffffffffff168152602001600073ffffffffffffffffffffffffffffffffffffffff16815260200187815260200185815260200186815260200184815260200183815250600087604051610bb0919061561e565b90815260200160405180910390206000820151816000015560208201518160010160006101000a81548173ffffffffffffffffffffffffffffffffffffffff021916908373ffffffffffffffffffffffffffffffffffffffff16021790555060408201518160020160006101000a81548173ffffffffffffffffffffffffffffffffffffffff021916908373ffffffffffffffffffffffffffffffffffffffff1602179055506060820151816003019080519060200190610c729291906147a8565b506080820151816004019080519060200190610c8f9291906147a8565b5060a0820151816005019080519060200190610cac9291906147a8565b5060c0820151816006019080519060200190610cc99291906147a8565b5060e082015181600701559050505b505050505050565b606060006008541415610d30576000604051908082528060200260200182016040528015610d2857816020015b610d15614828565b815260200190600190039081610d0d5790505b50905061114a565b6060600a604051908082528060200260200182016040528015610d6d57816020015b610d5a614828565b815260200190600190039081610d525790505b50905060008090506000600a80860260085403019050600080905060098210610d9b57600982039050610da0565b600190505b60008290505b818110611141576001600082815260200190815260200160002060405180610100016040529081600082015481526020016001820160009054906101000a900473ffffffffffffffffffffffffffffffffffffffff1673ffffffffffffffffffffffffffffffffffffffff1673ffffffffffffffffffffffffffffffffffffffff1681526020016002820160009054906101000a900473ffffffffffffffffffffffffffffffffffffffff1673ffffffffffffffffffffffffffffffffffffffff1673ffffffffffffffffffffffffffffffffffffffff168152602001600382018054600181600116156101000203166002900480601f016020809104026020016040519081016040528092919081815260200182805460018160011615610100020316600290048015610f1b5780601f10610ef057610100808354040283529160200191610f1b565b820191906000526020600020905b815481529060010190602001808311610efe57829003601f168201915b50505050508152602001600482018054600181600116156101000203166002900480601f016020809104026020016040519081016040528092919081815260200182805460018160011615610100020316600290048015610fbd5780601f10610f9257610100808354040283529160200191610fbd565b820191906000526020600020905b815481529060010190602001808311610fa057829003601f168201915b50505050508152602001600582018054600181600116156101000203166002900480601f01602080910402602001604051908101604052809291908181526020018280546001816001161561010002031660029004801561105f5780601f106110345761010080835404028352916020019161105f565b820191906000526020600020905b81548152906001019060200180831161104257829003601f168201915b50505050508152602001600682018054600181600116156101000203166002900480601f0160208091040260200160405190810160405280929190818152602001828054600181600116156101000203166002900480156111015780601f106110d657610100808354040283529160200191611101565b820191906000526020600020905b8154815290600101906020018083116110e457829003601f168201915b5050505050815260200160078201548152505085858151811061112057fe5b60200260200101819052508380600101945050808060019003915050610da6565b50839450505050505b919050565b6060600360003373ffffffffffffffffffffffffffffffffffffffff1673ffffffffffffffffffffffffffffffffffffffff1681526020019081526020016000208054806020026020016040519081016040528092919081815260200182805480156111da57602002820191906000526020600020905b8154815260200190600101908083116111c6575b5050505050905090565b606080600760003373ffffffffffffffffffffffffffffffffffffffff1673ffffffffffffffffffffffffffffffffffffffff168152602001908152602001600020805480602002602001604051908101604052809291908181526020016000905b82821015611617578382906000526020600020906009020160405180610120016040529081600082015481526020016001820160009054906101000a900473ffffffffffffffffffffffffffffffffffffffff1673ffffffffffffffffffffffffffffffffffffffff1673ffffffffffffffffffffffffffffffffffffffff1681526020016002820160009054906101000a900473ffffffffffffffffffffffffffffffffffffffff1673ffffffffffffffffffffffffffffffffffffffff1673ffffffffffffffffffffffffffffffffffffffff168152602001600382018054600181600116156101000203166002900480601f0160208091040260200160405190810160405280929190818152602001828054600181600116156101000203166002900480156113b95780601f1061138e576101008083540402835291602001916113b9565b820191906000526020600020905b81548152906001019060200180831161139c57829003601f168201915b50505050508152602001600482018054600181600116156101000203166002900480601f01602080910402602001604051908101604052809291908181526020018280546001816001161561010002031660029004801561145b5780601f106114305761010080835404028352916020019161145b565b820191906000526020600020905b81548152906001019060200180831161143e57829003601f168201915b50505050508152602001600582018054600181600116156101000203166002900480601f0160208091040260200160405190810160405280929190818152602001828054600181600116156101000203166002900480156114fd5780601f106114d2576101008083540402835291602001916114fd565b820191906000526020600020905b8154815290600101906020018083116114e057829003601f168201915b50505050508152602001600682018054600181600116156101000203166002900480601f01602080910402602001604051908101604052809291908181526020018280546001816001161561010002031660029004801561159f5780601f106115745761010080835404028352916020019161159f565b820191906000526020600020905b81548152906001019060200180831161158257829003601f168201915b50505050508152602001600782015481526020016008820160009054906101000a900473ffffffffffffffffffffffffffffffffffffffff1673ffffffffffffffffffffffffffffffffffffffff1673ffffffffffffffffffffffffffffffffffffffff168152505081526020019060010190611246565b5050505090508091505090565b61162c614899565b6004600083815260200190815260200160002060405180610120016040529081600082015481526020016001820160009054906101000a900473ffffffffffffffffffffffffffffffffffffffff1673ffffffffffffffffffffffffffffffffffffffff1673ffffffffffffffffffffffffffffffffffffffff1681526020016002820160009054906101000a900473ffffffffffffffffffffffffffffffffffffffff1673ffffffffffffffffffffffffffffffffffffffff1673ffffffffffffffffffffffffffffffffffffffff168152602001600382018054600181600116156101000203166002900480601f01602080910402602001604051908101604052809291908181526020018280546001816001161561010002031660029004801561179a5780601f1061176f5761010080835404028352916020019161179a565b820191906000526020600020905b81548152906001019060200180831161177d57829003601f168201915b50505050508152602001600482018054600181600116156101000203166002900480601f01602080910402602001604051908101604052809291908181526020018280546001816001161561010002031660029004801561183c5780601f106118115761010080835404028352916020019161183c565b820191906000526020600020905b81548152906001019060200180831161181f57829003601f168201915b50505050508152602001600582018054600181600116156101000203166002900480601f0160208091040260200160405190810160405280929190818152602001828054600181600116156101000203166002900480156118de5780601f106118b3576101008083540402835291602001916118de565b820191906000526020600020905b8154815290600101906020018083116118c157829003601f168201915b50505050508152602001600682018054600181600116156101000203166002900480601f0160208091040260200160405190810160405280929190818152602001828054600181600116156101000203166002900480156119805780601f1061195557610100808354040283529160200191611980565b820191906000526020600020905b81548152906001019060200180831161196357829003601f168201915b50505050508152602001600782015481526020016008820160009054906101000a900473ffffffffffffffffffffffffffffffffffffffff1673ffffffffffffffffffffffffffffffffffffffff1673ffffffffffffffffffffffffffffffffffffffff16815250509050600073ffffffffffffffffffffffffffffffffffffffff16816020015173ffffffffffffffffffffffffffffffffffffffff161415611a5f576040517f08c379a0000000000000000000000000000000000000000000000000000000008152600401611a5690615712565b60405180910390fd5b600073ffffffffffffffffffffffffffffffffffffffff16816040015173ffffffffffffffffffffffffffffffffffffffff1614611ad2576040517f08c379a0000000000000000000000000000000000000000000000000000000008152600401611ac990615752565b60405180910390fd5b3373ffffffffffffffffffffffffffffffffffffffff16816020015173ffffffffffffffffffffffffffffffffffffffff161415611b45576040517f08c379a0000000000000000000000000000000000000000000000000000000008152600401611b3c90615732565b60405180910390fd5b348160e0015114611b8b576040517f08c379a0000000000000000000000000000000000000000000000000000000008152600401611b8290615772565b60405180910390fd5b3373ffffffffffffffffffffffffffffffffffffffff1681610100015173ffffffffffffffffffffffffffffffffffffffff1614611bfe576040517f08c379a0000000000000000000000000000000000000000000000000000000008152600401611bf5906157b2565b60405180910390fd5b33816040019073ffffffffffffffffffffffffffffffffffffffff16908173ffffffffffffffffffffffffffffffffffffffff1681525050336004600084815260200190815260200160002060020160006101000a81548173ffffffffffffffffffffffffffffffffffffffff021916908373ffffffffffffffffffffffffffffffffffffffff16021790555060008090505b600760003373ffffffffffffffffffffffffffffffffffffffff1673ffffffffffffffffffffffffffffffffffffffff16815260200190815260200160002080549050811015611de65782600760003373ffffffffffffffffffffffffffffffffffffffff1673ffffffffffffffffffffffffffffffffffffffff1681526020019081526020016000208281548110611d2657fe5b9060005260206000209060090201600001541415611dd95733600760003373ffffffffffffffffffffffffffffffffffffffff1673ffffffffffffffffffffffffffffffffffffffff1681526020019081526020016000208281548110611d8957fe5b906000526020600020906009020160020160006101000a81548173ffffffffffffffffffffffffffffffffffffffff021916908373ffffffffffffffffffffffffffffffffffffffff1602179055505b8080600101915050611c91565b50336004600084815260200190815260200160002060020160006101000a81548173ffffffffffffffffffffffffffffffffffffffff021916908373ffffffffffffffffffffffffffffffffffffffff160217905550600660003373ffffffffffffffffffffffffffffffffffffffff1673ffffffffffffffffffffffffffffffffffffffff16815260200190815260200160002081908060018154018082558091505090600182039060005260206000209060090201600090919290919091506000820151816000015560208201518160010160006101000a81548173ffffffffffffffffffffffffffffffffffffffff021916908373ffffffffffffffffffffffffffffffffffffffff16021790555060408201518160020160006101000a81548173ffffffffffffffffffffffffffffffffffffffff021916908373ffffffffffffffffffffffffffffffffffffffff1602179055506060820151816003019080519060200190611f5b9291906147a8565b506080820151816004019080519060200190611f789291906147a8565b5060a0820151816005019080519060200190611f959291906147a8565b5060c0820151816006019080519060200190611fb29291906147a8565b5060e082015181600701556101008201518160080160006101000a81548173ffffffffffffffffffffffffffffffffffffffff021916908373ffffffffffffffffffffffffffffffffffffffff160217905550505050806020015173ffffffffffffffffffffffffffffffffffffffff166108fc349081150290604051600060405180830381858888f19350505050158015612052573d6000803e3d6000fd5b505050565b60006008541161209c576040517f08c379a0000000000000000000000000000000000000000000000000000000008152600401612093906156d2565b60405180910390fd5b6000811180156120ae57506008548111155b6120ed576040517f08c379a00000000000000000000000000000000000000000000000000000000081526004016120e490615792565b60405180910390fd5b6000600160008381526020019081526020016000209050600073ffffffffffffffffffffffffffffffffffffffff168160020160009054906101000a900473ffffffffffffffffffffffffffffffffffffffff1673ffffffffffffffffffffffffffffffffffffffff1614612197576040517f08c379a000000000000000000000000000000000000000000000000000000000815260040161218e90615752565b60405180910390fd5b3373ffffffffffffffffffffffffffffffffffffffff168160010160009054906101000a900473ffffffffffffffffffffffffffffffffffffffff1673ffffffffffffffffffffffffffffffffffffffff16141561222a576040517f08c379a000000000000000000000000000000000000000000000000000000000815260040161222190615732565b60405180910390fd5b34816007015414612270576040517f08c379a000000000000000000000000000000000000000000000000000000000815260040161226790615772565b60405180910390fd5b338160020160006101000a81548173ffffffffffffffffffffffffffffffffffffffff021916908373ffffffffffffffffffffffffffffffffffffffff160217905550336001600084815260200190815260200160002060020160006101000a81548173ffffffffffffffffffffffffffffffffffffffff021916908373ffffffffffffffffffffffffffffffffffffffff160217905550600260003373ffffffffffffffffffffffffffffffffffffffff1673ffffffffffffffffffffffffffffffffffffffff1681526020019081526020016000208190806001815401808255809150509060018203906000526020600020906008020160009091929091909150600082015481600001556001820160009054906101000a900473ffffffffffffffffffffffffffffffffffffffff168160010160006101000a81548173ffffffffffffffffffffffffffffffffffffffff021916908373ffffffffffffffffffffffffffffffffffffffff1602179055506002820160009054906101000a900473ffffffffffffffffffffffffffffffffffffffff168160020160006101000a81548173ffffffffffffffffffffffffffffffffffffffff021916908373ffffffffffffffffffffffffffffffffffffffff16021790555060038201816003019080546001816001161561010002031660029004612472929190614927565b506004820181600401908054600181600116156101000203166002900461249a929190614927565b50600582018160050190805460018160011615610100020316600290046124c2929190614927565b50600682018160060190805460018160011615610100020316600290046124ea929190614927565b50600782015481600701555050508060010160009054906101000a900473ffffffffffffffffffffffffffffffffffffffff1673ffffffffffffffffffffffffffffffffffffffff166108fc349081150290604051600060405180830381858888f19350505050158015612562573d6000803e3d6000fd5b505050565b6000818051602081018201805184825260208301602085012081835280955050505050506000915090508060000154908060010160009054906101000a900473ffffffffffffffffffffffffffffffffffffffff16908060020160009054906101000a900473ffffffffffffffffffffffffffffffffffffffff1690806003018054600181600116156101000203166002900480601f01602080910402602001604051908101604052809291908181526020018280546001816001161561010002031660029004801561267b5780601f106126505761010080835404028352916020019161267b565b820191906000526020600020905b81548152906001019060200180831161265e57829003601f168201915b505050505090806004018054600181600116156101000203166002900480601f0160208091040260200160405190810160405280929190818152602001828054600181600116156101000203166002900480156127195780601f106126ee57610100808354040283529160200191612719565b820191906000526020600020905b8154815290600101906020018083116126fc57829003601f168201915b505050505090806005018054600181600116156101000203166002900480601f0160208091040260200160405190810160405280929190818152602001828054600181600116156101000203166002900480156127b75780601f1061278c576101008083540402835291602001916127b7565b820191906000526020600020905b81548152906001019060200180831161279a57829003601f168201915b505050505090806006018054600181600116156101000203166002900480601f0160208091040260200160405190810160405280929190818152602001828054600181600116156101000203166002900480156128555780601f1061282a57610100808354040283529160200191612855565b820191906000526020600020905b81548152906001019060200180831161283857829003601f168201915b5050505050908060070154905088565b6006602052816000526040600020818154811061287e57fe5b9060005260206000209060090201600091509150508060000154908060010160009054906101000a900473ffffffffffffffffffffffffffffffffffffffff16908060020160009054906101000a900473ffffffffffffffffffffffffffffffffffffffff1690806003018054600181600116156101000203166002900480601f01602080910402602001604051908101604052809291908181526020018280546001816001161561010002031660029004801561297d5780601f106129525761010080835404028352916020019161297d565b820191906000526020600020905b81548152906001019060200180831161296057829003601f168201915b505050505090806004018054600181600116156101000203166002900480601f016020809104026020016040519081016040528092919081815260200182805460018160011615610100020316600290048015612a1b5780601f106129f057610100808354040283529160200191612a1b565b820191906000526020600020905b8154815290600101906020018083116129fe57829003601f168201915b505050505090806005018054600181600116156101000203166002900480601f016020809104026020016040519081016040528092919081815260200182805460018160011615610100020316600290048015612ab95780601f10612a8e57610100808354040283529160200191612ab9565b820191906000526020600020905b815481529060010190602001808311612a9c57829003601f168201915b505050505090806006018054600181600116156101000203166002900480601f016020809104026020016040519081016040528092919081815260200182805460018160011615610100020316600290048015612b575780601f10612b2c57610100808354040283529160200191612b57565b820191906000526020600020905b815481529060010190602001808311612b3a57829003601f168201915b5050505050908060070154908060080160009054906101000a900473ffffffffffffffffffffffffffffffffffffffff16905089565b565b60026020528160005260406000208181548110612ba857fe5b9060005260206000209060080201600091509150508060000154908060010160009054906101000a900473ffffffffffffffffffffffffffffffffffffffff16908060020160009054906101000a900473ffffffffffffffffffffffffffffffffffffffff1690806003018054600181600116156101000203166002900480601f016020809104026020016040519081016040528092919081815260200182805460018160011615610100020316600290048015612ca75780601f10612c7c57610100808354040283529160200191612ca7565b820191906000526020600020905b815481529060010190602001808311612c8a57829003601f168201915b505050505090806004018054600181600116156101000203166002900480601f016020809104026020016040519081016040528092919081815260200182805460018160011615610100020316600290048015612d455780601f10612d1a57610100808354040283529160200191612d45565b820191906000526020600020905b815481529060010190602001808311612d2857829003601f168201915b505050505090806005018054600181600116156101000203166002900480601f016020809104026020016040519081016040528092919081815260200182805460018160011615610100020316600290048015612de35780601f10612db857610100808354040283529160200191612de3565b820191906000526020600020905b815481529060010190602001808311612dc657829003601f168201915b505050505090806006018054600181600116156101000203166002900480601f016020809104026020016040519081016040528092919081815260200182805460018160011615610100020316600290048015612e815780601f10612e5657610100808354040283529160200191612e81565b820191906000526020600020905b815481529060010190602001808311612e6457829003601f168201915b5050505050908060070154905088565b606080600260003373ffffffffffffffffffffffffffffffffffffffff1673ffffffffffffffffffffffffffffffffffffffff168152602001908152602001600020600660003373ffffffffffffffffffffffffffffffffffffffff1673ffffffffffffffffffffffffffffffffffffffff16815260200190815260200160002081805480602002602001604051908101604052809291908181526020016000905b828210156132ae578382906000526020600020906008020160405180610100016040529081600082015481526020016001820160009054906101000a900473ffffffffffffffffffffffffffffffffffffffff1673ffffffffffffffffffffffffffffffffffffffff1673ffffffffffffffffffffffffffffffffffffffff1681526020016002820160009054906101000a900473ffffffffffffffffffffffffffffffffffffffff1673ffffffffffffffffffffffffffffffffffffffff1673ffffffffffffffffffffffffffffffffffffffff168152602001600382018054600181600116156101000203166002900480601f0160208091040260200160405190810160405280929190818152602001828054600181600116156101000203166002900480156130a65780601f1061307b576101008083540402835291602001916130a6565b820191906000526020600020905b81548152906001019060200180831161308957829003601f168201915b50505050508152602001600482018054600181600116156101000203166002900480601f0160208091040260200160405190810160405280929190818152602001828054600181600116156101000203166002900480156131485780601f1061311d57610100808354040283529160200191613148565b820191906000526020600020905b81548152906001019060200180831161312b57829003601f168201915b50505050508152602001600582018054600181600116156101000203166002900480601f0160208091040260200160405190810160405280929190818152602001828054600181600116156101000203166002900480156131ea5780601f106131bf576101008083540402835291602001916131ea565b820191906000526020600020905b8154815290600101906020018083116131cd57829003601f168201915b50505050508152602001600682018054600181600116156101000203166002900480601f01602080910402602001604051908101604052809291908181526020018280546001816001161561010002031660029004801561328c5780601f106132615761010080835404028352916020019161328c565b820191906000526020600020905b81548152906001019060200180831161326f57829003601f168201915b5050505050815260200160078201548152505081526020019060010190612f33565b50505050915080805480602002602001604051908101604052809291908181526020016000905b828210156136a6578382906000526020600020906009020160405180610120016040529081600082015481526020016001820160009054906101000a900473ffffffffffffffffffffffffffffffffffffffff1673ffffffffffffffffffffffffffffffffffffffff1673ffffffffffffffffffffffffffffffffffffffff1681526020016002820160009054906101000a900473ffffffffffffffffffffffffffffffffffffffff1673ffffffffffffffffffffffffffffffffffffffff1673ffffffffffffffffffffffffffffffffffffffff168152602001600382018054600181600116156101000203166002900480601f0160208091040260200160405190810160405280929190818152602001828054600181600116156101000203166002900480156134485780601f1061341d57610100808354040283529160200191613448565b820191906000526020600020905b81548152906001019060200180831161342b57829003601f168201915b50505050508152602001600482018054600181600116156101000203166002900480601f0160208091040260200160405190810160405280929190818152602001828054600181600116156101000203166002900480156134ea5780601f106134bf576101008083540402835291602001916134ea565b820191906000526020600020905b8154815290600101906020018083116134cd57829003601f168201915b50505050508152602001600582018054600181600116156101000203166002900480601f01602080910402602001604051908101604052809291908181526020018280546001816001161561010002031660029004801561358c5780601f106135615761010080835404028352916020019161358c565b820191906000526020600020905b81548152906001019060200180831161356f57829003601f168201915b50505050508152602001600682018054600181600116156101000203166002900480601f01602080910402602001604051908101604052809291908181526020018280546001816001161561010002031660029004801561362e5780601f106136035761010080835404028352916020019161362e565b820191906000526020600020905b81548152906001019060200180831161361157829003601f168201915b50505050508152602001600782015481526020016008820160009054906101000a900473ffffffffffffffffffffffffffffffffffffffff1673ffffffffffffffffffffffffffffffffffffffff1673ffffffffffffffffffffffffffffffffffffffff1681525050815260200190600101906132d5565b505050509050915091509091565b6136bc6149ae565b6000826040516136cc919061561e565b908152602001604051809103902060405180610100016040529081600082015481526020016001820160009054906101000a900473ffffffffffffffffffffffffffffffffffffffff1673ffffffffffffffffffffffffffffffffffffffff1673ffffffffffffffffffffffffffffffffffffffff1681526020016002820160009054906101000a900473ffffffffffffffffffffffffffffffffffffffff1673ffffffffffffffffffffffffffffffffffffffff1673ffffffffffffffffffffffffffffffffffffffff168152602001600382018054600181600116156101000203166002900480601f0160208091040260200160405190810160405280929190818152602001828054600181600116156101000203166002900480156138355780601f1061380a57610100808354040283529160200191613835565b820191906000526020600020905b81548152906001019060200180831161381857829003601f168201915b50505050508152602001600482018054600181600116156101000203166002900480601f0160208091040260200160405190810160405280929190818152602001828054600181600116156101000203166002900480156138d75780601f106138ac576101008083540402835291602001916138d7565b820191906000526020600020905b8154815290600101906020018083116138ba57829003601f168201915b50505050508152602001600582018054600181600116156101000203166002900480601f0160208091040260200160405190810160405280929190818152602001828054600181600116156101000203166002900480156139795780601f1061394e57610100808354040283529160200191613979565b820191906000526020600020905b81548152906001019060200180831161395c57829003601f168201915b50505050508152602001600682018054600181600116156101000203166002900480601f016020809104026020016040519081016040528092919081815260200182805460018160011615610100020316600290048015613a1b5780601f106139f057610100808354040283529160200191613a1b565b820191906000526020600020905b8154815290600101906020018083116139fe57829003601f168201915b505050505081526020016007820154815250509050919050565b60016020528060005260406000206000915090508060000154908060010160009054906101000a900473ffffffffffffffffffffffffffffffffffffffff16908060020160009054906101000a900473ffffffffffffffffffffffffffffffffffffffff1690806003018054600181600116156101000203166002900480601f016020809104026020016040519081016040528092919081815260200182805460018160011615610100020316600290048015613b335780601f10613b0857610100808354040283529160200191613b33565b820191906000526020600020905b815481529060010190602001808311613b1657829003601f168201915b505050505090806004018054600181600116156101000203166002900480601f016020809104026020016040519081016040528092919081815260200182805460018160011615610100020316600290048015613bd15780601f10613ba657610100808354040283529160200191613bd1565b820191906000526020600020905b815481529060010190602001808311613bb457829003601f168201915b505050505090806005018054600181600116156101000203166002900480601f016020809104026020016040519081016040528092919081815260200182805460018160011615610100020316600290048015613c6f5780601f10613c4457610100808354040283529160200191613c6f565b820191906000526020600020905b815481529060010190602001808311613c5257829003601f168201915b505050505090806006018054600181600116156101000203166002900480601f016020809104026020016040519081016040528092919081815260200182805460018160011615610100020316600290048015613d0d5780601f10613ce257610100808354040283529160200191613d0d565b820191906000526020600020905b815481529060010190602001808311613cf057829003601f168201915b5050505050908060070154905088565b6060600560003373ffffffffffffffffffffffffffffffffffffffff1673ffffffffffffffffffffffffffffffffffffffff168152602001908152602001600020805480602002602001604051908101604052809291908181526020018280548015613da857602002820191906000526020600020905b815481526020019060010190808311613d94575b5050505050905090565b606080600760008473ffffffffffffffffffffffffffffffffffffffff1673ffffffffffffffffffffffffffffffffffffffff168152602001908152602001600020805480602002602001604051908101604052809291908181526020016000905b828210156141e5578382906000526020600020906009020160405180610120016040529081600082015481526020016001820160009054906101000a900473ffffffffffffffffffffffffffffffffffffffff1673ffffffffffffffffffffffffffffffffffffffff1673ffffffffffffffffffffffffffffffffffffffff1681526020016002820160009054906101000a900473ffffffffffffffffffffffffffffffffffffffff1673ffffffffffffffffffffffffffffffffffffffff1673ffffffffffffffffffffffffffffffffffffffff168152602001600382018054600181600116156101000203166002900480601f016020809104026020016040519081016040528092919081815260200182805460018160011615610100020316600290048015613f875780601f10613f5c57610100808354040283529160200191613f87565b820191906000526020600020905b815481529060010190602001808311613f6a57829003601f168201915b50505050508152602001600482018054600181600116156101000203166002900480601f0160208091040260200160405190810160405280929190818152602001828054600181600116156101000203166002900480156140295780601f10613ffe57610100808354040283529160200191614029565b820191906000526020600020905b81548152906001019060200180831161400c57829003601f168201915b50505050508152602001600582018054600181600116156101000203166002900480601f0160208091040260200160405190810160405280929190818152602001828054600181600116156101000203166002900480156140cb5780601f106140a0576101008083540402835291602001916140cb565b820191906000526020600020905b8154815290600101906020018083116140ae57829003601f168201915b50505050508152602001600682018054600181600116156101000203166002900480601f01602080910402602001604051908101604052809291908181526020018280546001816001161561010002031660029004801561416d5780601f106141425761010080835404028352916020019161416d565b820191906000526020600020905b81548152906001019060200180831161415057829003601f168201915b50505050508152602001600782015481526020016008820160009054906101000a900473ffffffffffffffffffffffffffffffffffffffff1673ffffffffffffffffffffffffffffffffffffffff1673ffffffffffffffffffffffffffffffffffffffff168152505081526020019060010190613e14565b5050505090506060815160405190808252806020026020018201604052801561422857816020015b614215614a1f565b81526020019060019003908161420d5790505b509050600080905060008090505b83518110156142cb573373ffffffffffffffffffffffffffffffffffffffff1684828151811061426257fe5b60200260200101516020015173ffffffffffffffffffffffffffffffffffffffff1614156142be5783818151811061429657fe5b60200260200101518383815181106142aa57fe5b602002602001018190525081806001019250505b8080600101915050614236565b5060608160405190808252806020026020018201604052801561430857816020015b6142f5614a1f565b8152602001906001900390816142ed5790505b50905060008090505b828110156143515783818151811061432557fe5b602002602001015182828151811061433957fe5b60200260200101819052508080600101915050614311565b5080945050505050919050565b614366614899565b61436e614899565b6004600084815260200190815260200160002060405180610120016040529081600082015481526020016001820160009054906101000a900473ffffffffffffffffffffffffffffffffffffffff1673ffffffffffffffffffffffffffffffffffffffff1673ffffffffffffffffffffffffffffffffffffffff1681526020016002820160009054906101000a900473ffffffffffffffffffffffffffffffffffffffff1673ffffffffffffffffffffffffffffffffffffffff1673ffffffffffffffffffffffffffffffffffffffff168152602001600382018054600181600116156101000203166002900480601f0160208091040260200160405190810160405280929190818152602001828054600181600116156101000203166002900480156144dc5780601f106144b1576101008083540402835291602001916144dc565b820191906000526020600020905b8154815290600101906020018083116144bf57829003601f168201915b50505050508152602001600482018054600181600116156101000203166002900480601f01602080910402602001604051908101604052809291908181526020018280546001816001161561010002031660029004801561457e5780601f106145535761010080835404028352916020019161457e565b820191906000526020600020905b81548152906001019060200180831161456157829003601f168201915b50505050508152602001600582018054600181600116156101000203166002900480601f0160208091040260200160405190810160405280929190818152602001828054600181600116156101000203166002900480156146205780601f106145f557610100808354040283529160200191614620565b820191906000526020600020905b81548152906001019060200180831161460357829003601f168201915b50505050508152602001600682018054600181600116156101000203166002900480601f0160208091040260200160405190810160405280929190818152602001828054600181600116156101000203166002900480156146c25780601f10614697576101008083540402835291602001916146c2565b820191906000526020600020905b8154815290600101906020018083116146a557829003601f168201915b50505050508152602001600782015481526020016008820160009054906101000a900473ffffffffffffffffffffffffffffffffffffffff1673ffffffffffffffffffffffffffffffffffffffff1673ffffffffffffffffffffffffffffffffffffffff168152505090503373ffffffffffffffffffffffffffffffffffffffff16816020015173ffffffffffffffffffffffffffffffffffffffff161461479f576040517f08c379a0000000000000000000000000000000000000000000000000000000008152600401614796906156f2565b60405180910390fd5b80915050919050565b828054600181600116156101000203166002900490600052602060002090601f016020900481019282601f106147e957805160ff1916838001178555614817565b82800160010185558215614817579182015b828111156148165782518255916020019190600101906147fb565b5b5090506148249190614aad565b5090565b60405180610100016040528060008152602001600073ffffffffffffffffffffffffffffffffffffffff168152602001600073ffffffffffffffffffffffffffffffffffffffff16815260200160608152602001606081526020016060815260200160608152602001600081525090565b60405180610120016040528060008152602001600073ffffffffffffffffffffffffffffffffffffffff168152602001600073ffffffffffffffffffffffffffffffffffffffff1681526020016060815260200160608152602001606081526020016060815260200160008152602001600073ffffffffffffffffffffffffffffffffffffffff1681525090565b828054600181600116156101000203166002900490600052602060002090601f016020900481019282601f10614960578054855561499d565b8280016001018555821561499d57600052602060002091601f016020900482015b8281111561499c578254825591600101919060010190614981565b5b5090506149aa9190614aad565b5090565b60405180610100016040528060008152602001600073ffffffffffffffffffffffffffffffffffffffff168152602001600073ffffffffffffffffffffffffffffffffffffffff16815260200160608152602001606081526020016060815260200160608152602001600081525090565b60405180610120016040528060008152602001600073ffffffffffffffffffffffffffffffffffffffff168152602001600073ffffffffffffffffffffffffffffffffffffffff1681526020016060815260200160608152602001606081526020016060815260200160008152602001600073ffffffffffffffffffffffffffffffffffffffff1681525090565b614acf91905b80821115614acb576000816000905550600101614ab3565b5090565b90565b600081359050614ae181615b6d565b92915050565b600082601f830112614af857600080fd5b8135614b0b614b0682615986565b615959565b91508082526020830160208301858383011115614b2757600080fd5b614b32838284615b1a565b50505092915050565b600082601f830112614b4c57600080fd5b8135614b5f614b5a826159b2565b615959565b91508082526020830160208301858383011115614b7b57600080fd5b614b86838284615b1a565b50505092915050565b600081359050614b9e81615b84565b92915050565b600060208284031215614bb657600080fd5b6000614bc484828501614ad2565b91505092915050565b60008060408385031215614be057600080fd5b6000614bee85828601614ad2565b9250506020614bff85828601614b8f565b9150509250929050565b600060208284031215614c1b57600080fd5b600082013567ffffffffffffffff811115614c3557600080fd5b614c4184828501614ae7565b91505092915050565b600060208284031215614c5c57600080fd5b600082013567ffffffffffffffff811115614c7657600080fd5b614c8284828501614b3b565b91505092915050565b60008060008060008060c08789031215614ca457600080fd5b600087013567ffffffffffffffff811115614cbe57600080fd5b614cca89828a01614b3b565b965050602087013567ffffffffffffffff811115614ce757600080fd5b614cf389828a01614b3b565b955050604087013567ffffffffffffffff811115614d1057600080fd5b614d1c89828a01614b3b565b945050606087013567ffffffffffffffff811115614d3957600080fd5b614d4589828a01614b3b565b9350506080614d5689828a01614b8f565b92505060a0614d6789828a01614ad2565b9150509295509295509295565b600060208284031215614d8657600080fd5b6000614d9484828501614b8f565b91505092915050565b6000614da98383615387565b905092915050565b6000614dbd8383615526565b905092915050565b6000614dd18383615600565b60208301905092915050565b614de681615ade565b82525050565b614df581615ade565b82525050565b614e0481615acc565b82525050565b614e1381615acc565b82525050565b6000614e2482615a0e565b614e2e8185615a6c565b935083602082028501614e40856159de565b8060005b85811015614e7c5784840389528151614e5d8582614d9d565b9450614e6883615a45565b925060208a01995050600181019050614e44565b50829750879550505050505092915050565b6000614e9982615a19565b614ea38185615a7d565b935083602082028501614eb5856159ee565b8060005b85811015614ef15784840389528151614ed28582614db1565b9450614edd83615a52565b925060208a01995050600181019050614eb9565b50829750879550505050505092915050565b6000614f0e82615a24565b614f188185615a8e565b9350614f23836159fe565b8060005b83811015614f54578151614f3b8882614dc5565b9750614f4683615a5f565b925050600181019050614f27565b5085935050505092915050565b6000614f6c82615a3a565b614f768185615ac1565b9350614f86818560208601615b29565b80840191505092915050565b6000614f9d82615a2f565b614fa78185615a9f565b9350614fb7818560208601615b29565b614fc081615b5c565b840191505092915050565b6000614fd682615a2f565b614fe08185615ab0565b9350614ff0818560208601615b29565b614ff981615b5c565b840191505092915050565b6000615011602483615ab0565b91507f54686572652073686f756c64206265206174206c65617374206f6e6520616e6160008301527f6c797365000000000000000000000000000000000000000000000000000000006020830152604082019050919050565b6000615077603483615ab0565b91507f546869732069732061207072697661746520616e616c7973652c20616e64207960008301527f6f7520617265206e6f7420746865206f776e65720000000000000000000000006020830152604082019050919050565b60006150dd601283615ab0565b91507f416e616c797a65206e6f7420666f756e642100000000000000000000000000006000830152602082019050919050565b600061511d602183615ab0565b91507f53656c6c65722063616e6e6f742062757920686973206f776e20616e616c797360008301527f65000000000000000000000000000000000000000000000000000000000000006020830152604082019050919050565b6000615183601883615ab0565b91507f616e616c7973652077617320616c726561647920736f6c6400000000000000006000830152602082019050919050565b60006151c3602e83615ab0565b91507f56616c75652070726f766964656420646f6573206e6f74206d6174636820707260008301527f696365206f6620616e616c7973650000000000000000000000000000000000006020830152604082019050919050565b6000615229602383615ab0565b91507f616e616c7973652077697468207468697320696420646f6573206e6f7420657860008301527f69737400000000000000000000000000000000000000000000000000000000006020830152604082019050919050565b600061528f601183615ab0565b91507f596f7520617265206e6f74206f776e65720000000000000000000000000000006000830152602082019050919050565b6000610100830160008301516152db6000860182615600565b5060208301516152ee6020860182614ddd565b5060408301516153016040860182614dfb565b50606083015184820360608601526153198282614f92565b915050608083015184820360808601526153338282614f92565b91505060a083015184820360a086015261534d8282614f92565b91505060c083015184820360c08601526153678282614f92565b91505060e083015161537c60e0860182615600565b508091505092915050565b6000610100830160008301516153a06000860182615600565b5060208301516153b36020860182614ddd565b5060408301516153c66040860182614dfb565b50606083015184820360608601526153de8282614f92565b915050608083015184820360808601526153f88282614f92565b91505060a083015184820360a08601526154128282614f92565b91505060c083015184820360c086015261542c8282614f92565b91505060e083015161544160e0860182615600565b508091505092915050565b6000610120830160008301516154656000860182615600565b5060208301516154786020860182614ddd565b50604083015161548b6040860182614dfb565b50606083015184820360608601526154a38282614f92565b915050608083015184820360808601526154bd8282614f92565b91505060a083015184820360a08601526154d78282614f92565b91505060c083015184820360c08601526154f18282614f92565b91505060e083015161550660e0860182615600565b5061010083015161551b610100860182614dfb565b508091505092915050565b60006101208301600083015161553f6000860182615600565b5060208301516155526020860182614ddd565b5060408301516155656040860182614dfb565b506060830151848203606086015261557d8282614f92565b915050608083015184820360808601526155978282614f92565b91505060a083015184820360a08601526155b18282614f92565b91505060c083015184820360c08601526155cb8282614f92565b91505060e08301516155e060e0860182615600565b506101008301516155f5610100860182614dfb565b508091505092915050565b61560981615b10565b82525050565b61561881615b10565b82525050565b600061562a8284614f61565b915081905092915050565b6000602082019050818103600083015261564f8184614e19565b905092915050565b600060408201905081810360008301526156718185614e19565b905081810360208301526156858184614e8e565b90509392505050565b600060208201905081810360008301526156a88184614e8e565b905092915050565b600060208201905081810360008301526156ca8184614f03565b905092915050565b600060208201905081810360008301526156eb81615004565b9050919050565b6000602082019050818103600083015261570b8161506a565b9050919050565b6000602082019050818103600083015261572b816150d0565b9050919050565b6000602082019050818103600083015261574b81615110565b9050919050565b6000602082019050818103600083015261576b81615176565b9050919050565b6000602082019050818103600083015261578b816151b6565b9050919050565b600060208201905081810360008301526157ab8161521c565b9050919050565b600060208201905081810360008301526157cb81615282565b9050919050565b600060208201905081810360008301526157ec81846152c2565b905092915050565b6000602082019050818103600083015261580e818461544c565b905092915050565b60006101008201905061582c600083018b61560f565b615839602083018a614dec565b6158466040830189614e0a565b81810360608301526158588188614fcb565b9050818103608083015261586c8187614fcb565b905081810360a08301526158808186614fcb565b905081810360c08301526158948185614fcb565b90506158a360e083018461560f565b9998505050505050505050565b6000610120820190506158c6600083018c61560f565b6158d3602083018b614dec565b6158e0604083018a614e0a565b81810360608301526158f28189614fcb565b905081810360808301526159068188614fcb565b905081810360a083015261591a8187614fcb565b905081810360c083015261592e8186614fcb565b905061593d60e083018561560f565b61594b610100830184614e0a565b9a9950505050505050505050565b6000604051905081810181811067ffffffffffffffff8211171561597c57600080fd5b8060405250919050565b600067ffffffffffffffff82111561599d57600080fd5b601f19601f8301169050602081019050919050565b600067ffffffffffffffff8211156159c957600080fd5b601f19601f8301169050602081019050919050565b6000819050602082019050919050565b6000819050602082019050919050565b6000819050602082019050919050565b600081519050919050565b600081519050919050565b600081519050919050565b600081519050919050565b600081519050919050565b6000602082019050919050565b6000602082019050919050565b6000602082019050919050565b600082825260208201905092915050565b600082825260208201905092915050565b600082825260208201905092915050565b600082825260208201905092915050565b600082825260208201905092915050565b600081905092915050565b6000615ad782615af0565b9050919050565b6000615ae982615af0565b9050919050565b600073ffffffffffffffffffffffffffffffffffffffff82169050919050565b6000819050919050565b82818337600083830152505050565b60005b83811015615b47578082015181840152602081019050615b2c565b83811115615b56576000848401525b50505050565b6000601f19601f8301169050919050565b615b7681615acc565b8114615b8157600080fd5b50565b615b8d81615b10565b8114615b9857600080fd5b5056fea365627a7a72315820f0283ec7e5c8bdbaec3b18969b7602d2cff564ba1d039078b6b603b7267d14d76c6578706572696d656e74616cf564736f6c63430005110040",
  "compiler": {
    "name": "solc",
    "version": "0.5.17+commit.d19bba13.Emscripten.clang",
    "optimizer": {
      "enabled": false,
      "runs": 200
    },
    "evmVersion": "petersburg"
  }
}