{
  "fileName": "Traceable.sol",
  "contractName": "TraceableAnalysis",
  "source": "pragma experimental ABIEncoderV2;\npragma solidity >0.4.99 <0.6.0;\n\ncontract TraceableAnalysis {\n    struct analyse {\n        uint256 id;\n        string analyseReference;\n        string date;\n        string value;\n        string description;\n    }\n\n    struct analyseType {\n        string analyseName;\n        uint256 times;\n        uint256 analysisCounter;\n        uint256[] analysisIds;\n    }\n\n    struct cycle {\n        uint256 id;\n        address payable seller;\n        address owner;\n        uint256 price;\n        bool paid;\n        uint256[] analysisTypesIds;\n    }\n\n    mapping(address => cycle) cycles;\n    mapping(uint256 => analyse) analysis;\n\n    mapping(uint256 => analyseType) analysisTypes;\n\n    uint256 cyclesCounter;\n    uint256 analysisCounter;\n    uint256 analysisTypesCounter;\n\n    function addNewCycle(\n        address client,\n        uint256 price,\n        analyseType[] memory _analysisTypes\n    ) public {\n        cyclesCounter++;\n        analysisTypesCounter++;\n        uint256[] memory analysisTypesIds = new uint256[](\n            _analysisTypes.length\n        );\n        for (uint256 i = 0; i < _analysisTypes.length; i++) {\n            analysisTypes[analysisTypesCounter] = _analysisTypes[i];\n            analysisTypesIds[i] = analysisTypesCounter;\n        }\n        cycles[client] = cycle(\n            cyclesCounter,\n            msg.sender,\n            client,\n            price,\n            false,\n            analysisTypesIds\n        );\n    } // [[\"name 1\",\"3\",1,[1,\"2\",3]]]\n\n    function getCycle(address owner) public view returns (cycle memory result) {\n        return cycles[owner];\n    }\n}\n",
  "sourcePath": "contracts/Traceable.sol",
  "abi": [
    {
      "constant": false,
      "inputs": [
        {
          "internalType": "address",
          "name": "client",
          "type": "address"
        },
        {
          "internalType": "uint256",
          "name": "price",
          "type": "uint256"
        },
        {
          "components": [
            {
              "internalType": "string",
              "name": "analyseName",
              "type": "string"
            },
            {
              "internalType": "uint256",
              "name": "times",
              "type": "uint256"
            },
            {
              "internalType": "uint256",
              "name": "analysisCounter",
              "type": "uint256"
            },
            {
              "internalType": "uint256[]",
              "name": "analysisIds",
              "type": "uint256[]"
            }
          ],
          "internalType": "struct TraceableAnalysis.analyseType[]",
          "name": "_analysisTypes",
          "type": "tuple[]"
        }
      ],
      "name": "addNewCycle",
      "outputs": [],
      "payable": false,
      "stateMutability": "nonpayable",
      "type": "function"
    },
    {
      "constant": true,
      "inputs": [
        {
          "internalType": "address",
          "name": "owner",
          "type": "address"
        }
      ],
      "name": "getCycle",
      "outputs": [
        {
          "components": [
            {
              "internalType": "uint256",
              "name": "id",
              "type": "uint256"
            },
            {
              "internalType": "address payable",
              "name": "seller",
              "type": "address"
            },
            {
              "internalType": "address",
              "name": "owner",
              "type": "address"
            },
            {
              "internalType": "uint256",
              "name": "price",
              "type": "uint256"
            },
            {
              "internalType": "bool",
              "name": "paid",
              "type": "bool"
            },
            {
              "internalType": "uint256[]",
              "name": "analysisTypesIds",
              "type": "uint256[]"
            }
          ],
          "internalType": "struct TraceableAnalysis.cycle",
          "name": "result",
          "type": "tuple"
        }
      ],
      "payable": false,
      "stateMutability": "view",
      "type": "function"
    }
  ],
  "bytecode": "0x608060405234801561001057600080fd5b50610bb9806100206000396000f3fe608060405234801561001057600080fd5b50600436106100365760003560e01c8063a5131b4f1461003b578063f84bae781461006b575b600080fd5b61005560048036036100509190810190610810565b610087565b60405161006291906109db565b60405180910390f35b61008560048036036100809190810190610839565b610212565b005b61008f6104a1565b6000808373ffffffffffffffffffffffffffffffffffffffff1673ffffffffffffffffffffffffffffffffffffffff1681526020019081526020016000206040518060c0016040529081600082015481526020016001820160009054906101000a900473ffffffffffffffffffffffffffffffffffffffff1673ffffffffffffffffffffffffffffffffffffffff1673ffffffffffffffffffffffffffffffffffffffff1681526020016002820160009054906101000a900473ffffffffffffffffffffffffffffffffffffffff1673ffffffffffffffffffffffffffffffffffffffff1673ffffffffffffffffffffffffffffffffffffffff168152602001600382015481526020016004820160009054906101000a900460ff161515151581526020016005820180548060200260200160405190810160405280929190818152602001828054801561020257602002820191906000526020600020905b8154815260200190600101908083116101ee575b5050505050815250509050919050565b600360008154809291906001019190505550600560008154809291906001019190505550606081516040519080825280602002602001820160405280156102685781602001602082028038833980820191505090505b50905060008090505b825181101561031c5782818151811061028657fe5b602002602001015160026000600554815260200190815260200160002060008201518160000190805190602001906102bf929190610505565b50602082015181600101556040820151816002015560608201518160030190805190602001906102f0929190610585565b5090505060055482828151811061030357fe5b6020026020010181815250508080600101915050610271565b506040518060c0016040528060035481526020013373ffffffffffffffffffffffffffffffffffffffff1681526020018573ffffffffffffffffffffffffffffffffffffffff168152602001848152602001600015158152602001828152506000808673ffffffffffffffffffffffffffffffffffffffff1673ffffffffffffffffffffffffffffffffffffffff1681526020019081526020016000206000820151816000015560208201518160010160006101000a81548173ffffffffffffffffffffffffffffffffffffffff021916908373ffffffffffffffffffffffffffffffffffffffff16021790555060408201518160020160006101000a81548173ffffffffffffffffffffffffffffffffffffffff021916908373ffffffffffffffffffffffffffffffffffffffff1602179055506060820151816003015560808201518160040160006101000a81548160ff02191690831515021790555060a0820151816005019080519060200190610497929190610585565b5090505050505050565b6040518060c0016040528060008152602001600073ffffffffffffffffffffffffffffffffffffffff168152602001600073ffffffffffffffffffffffffffffffffffffffff16815260200160008152602001600015158152602001606081525090565b828054600181600116156101000203166002900490600052602060002090601f016020900481019282601f1061054657805160ff1916838001178555610574565b82800160010185558215610574579182015b82811115610573578251825591602001919060010190610558565b5b50905061058191906105d2565b5090565b8280548282559060005260206000209081019282156105c1579160200282015b828111156105c05782518255916020019190600101906105a5565b5b5090506105ce91906105d2565b5090565b6105f491905b808211156105f05760008160009055506001016105d8565b5090565b90565b60008135905061060681610b48565b92915050565b600082601f83011261061d57600080fd5b813561063061062b82610a2a565b6109fd565b9150818183526020840193506020810190508360005b83811015610676578135860161065c8882610757565b845260208401935060208301925050600181019050610646565b5050505092915050565b600082601f83011261069157600080fd5b81356106a461069f82610a52565b6109fd565b915081818352602084019350602081019050838560208402820111156106c957600080fd5b60005b838110156106f957816106df88826107fb565b8452602084019350602083019250506001810190506106cc565b5050505092915050565b600082601f83011261071457600080fd5b813561072761072282610a7a565b6109fd565b9150808252602083016020830185838301111561074357600080fd5b61074e838284610b39565b50505092915050565b60006080828403121561076957600080fd5b61077360806109fd565b9050600082013567ffffffffffffffff81111561078f57600080fd5b61079b84828501610703565b60008301525060206107af848285016107fb565b60208301525060406107c3848285016107fb565b604083015250606082013567ffffffffffffffff8111156107e357600080fd5b6107ef84828501610680565b60608301525092915050565b60008135905061080a81610b5f565b92915050565b60006020828403121561082257600080fd5b6000610830848285016105f7565b91505092915050565b60008060006060848603121561084e57600080fd5b600061085c868287016105f7565b935050602061086d868287016107fb565b925050604084013567ffffffffffffffff81111561088a57600080fd5b6108968682870161060c565b9150509250925092565b60006108ac83836109cc565b60208301905092915050565b6108c181610af1565b82525050565b6108d081610adf565b82525050565b60006108e182610ab6565b6108eb8185610ace565b93506108f683610aa6565b8060005b8381101561092757815161090e88826108a0565b975061091983610ac1565b9250506001810190506108fa565b5085935050505092915050565b61093d81610b03565b82525050565b600060c08301600083015161095b60008601826109cc565b50602083015161096e60208601826108b8565b50604083015161098160408601826108c7565b50606083015161099460608601826109cc565b5060808301516109a76080860182610934565b5060a083015184820360a08601526109bf82826108d6565b9150508091505092915050565b6109d581610b2f565b82525050565b600060208201905081810360008301526109f58184610943565b905092915050565b6000604051905081810181811067ffffffffffffffff82111715610a2057600080fd5b8060405250919050565b600067ffffffffffffffff821115610a4157600080fd5b602082029050602081019050919050565b600067ffffffffffffffff821115610a6957600080fd5b602082029050602081019050919050565b600067ffffffffffffffff821115610a9157600080fd5b601f19601f8301169050602081019050919050565b6000819050602082019050919050565b600081519050919050565b6000602082019050919050565b600082825260208201905092915050565b6000610aea82610b0f565b9050919050565b6000610afc82610b0f565b9050919050565b60008115159050919050565b600073ffffffffffffffffffffffffffffffffffffffff82169050919050565b6000819050919050565b82818337600083830152505050565b610b5181610adf565b8114610b5c57600080fd5b50565b610b6881610b2f565b8114610b7357600080fd5b5056fea365627a7a723158204323dec70428cd263b3f0f48f6a90a123a71ffe434a7171f640d17ea2da893396c6578706572696d656e74616cf564736f6c63430005110040",
  "compiler": {
    "name": "solc",
    "version": "0.5.17+commit.d19bba13.Emscripten.clang",
    "optimizer": {
      "enabled": false,
      "runs": 200
    },
    "evmVersion": "petersburg"
  }
}