{
  "fileName": "Traceable.sol",
  "contractName": "TraceableAnalysis",
  "source": "pragma experimental ABIEncoderV2;\npragma solidity >0.4.99 <0.6.0;\n\ncontract TraceableAnalysis {\n    struct analyse {\n        uint256 id;\n        string analyseReference;\n        string date;\n        string value;\n        string description;\n    }\n\n    struct analyseType {\n        string analyseName;\n        uint256 times;\n        uint256 analysisCounter;\n        uint256[] analysisIds;\n    }\n\n    struct cycle {\n        uint256 id;\n        address payable seller;\n        address owner;\n        uint256 price;\n        bool paid;\n        uint256[] analysisTypesIds;\n    }\n\n    mapping(address => cycle) cycles;\n    mapping(uint256 => analyse) analysis;\n\n    mapping(uint256 => analyseType) analysisTypes;\n\n    uint256 cyclesCounter;\n    uint256 analysisCounter;\n    uint256 analysisTypesCounter;\n\n    function addNewCycle(\n        // [[\"name 1\", 1, 0, [0]]]\n        address client,\n        uint256 price,\n        analyseType[] memory _analysisTypes\n    ) public {\n        cyclesCounter++;\n        analysisTypesCounter++;\n        uint256[] memory analysisTypesIds = new uint256[](\n            _analysisTypes.length\n        );\n        for (uint256 i = 0; i < _analysisTypes.length; i++) {\n            analysisTypes[analysisTypesCounter] = _analysisTypes[i];\n            analysisTypesIds[i] = analysisTypesCounter;\n        }\n        cycles[client] = cycle(\n            cyclesCounter,\n            msg.sender,\n            client,\n            price,\n            false,\n            analysisTypesIds\n        );\n    }\n\n    function getCycle(address owner) public view returns (cycle memory result) {\n        return cycles[owner];\n    }\n\n    function getAnalyseType(uint256 id)\n        public\n        view\n        returns (analyseType memory result)\n    {\n        return analysisTypes[id];\n    }\n}\n",
  "sourcePath": "contracts/Traceable.sol",
  "abi": [
    {
      "constant": false,
      "inputs": [
        {
          "internalType": "address",
          "name": "client",
          "type": "address"
        },
        {
          "internalType": "uint256",
          "name": "price",
          "type": "uint256"
        },
        {
          "components": [
            {
              "internalType": "string",
              "name": "analyseName",
              "type": "string"
            },
            {
              "internalType": "uint256",
              "name": "times",
              "type": "uint256"
            },
            {
              "internalType": "uint256",
              "name": "analysisCounter",
              "type": "uint256"
            },
            {
              "internalType": "uint256[]",
              "name": "analysisIds",
              "type": "uint256[]"
            }
          ],
          "internalType": "struct TraceableAnalysis.analyseType[]",
          "name": "_analysisTypes",
          "type": "tuple[]"
        }
      ],
      "name": "addNewCycle",
      "outputs": [],
      "payable": false,
      "stateMutability": "nonpayable",
      "type": "function"
    },
    {
      "constant": true,
      "inputs": [
        {
          "internalType": "uint256",
          "name": "id",
          "type": "uint256"
        }
      ],
      "name": "getAnalyseType",
      "outputs": [
        {
          "components": [
            {
              "internalType": "string",
              "name": "analyseName",
              "type": "string"
            },
            {
              "internalType": "uint256",
              "name": "times",
              "type": "uint256"
            },
            {
              "internalType": "uint256",
              "name": "analysisCounter",
              "type": "uint256"
            },
            {
              "internalType": "uint256[]",
              "name": "analysisIds",
              "type": "uint256[]"
            }
          ],
          "internalType": "struct TraceableAnalysis.analyseType",
          "name": "result",
          "type": "tuple"
        }
      ],
      "payable": false,
      "stateMutability": "view",
      "type": "function"
    },
    {
      "constant": true,
      "inputs": [
        {
          "internalType": "address",
          "name": "owner",
          "type": "address"
        }
      ],
      "name": "getCycle",
      "outputs": [
        {
          "components": [
            {
              "internalType": "uint256",
              "name": "id",
              "type": "uint256"
            },
            {
              "internalType": "address payable",
              "name": "seller",
              "type": "address"
            },
            {
              "internalType": "address",
              "name": "owner",
              "type": "address"
            },
            {
              "internalType": "uint256",
              "name": "price",
              "type": "uint256"
            },
            {
              "internalType": "bool",
              "name": "paid",
              "type": "bool"
            },
            {
              "internalType": "uint256[]",
              "name": "analysisTypesIds",
              "type": "uint256[]"
            }
          ],
          "internalType": "struct TraceableAnalysis.cycle",
          "name": "result",
          "type": "tuple"
        }
      ],
      "payable": false,
      "stateMutability": "view",
      "type": "function"
    }
  ],
  "bytecode": "0x608060405234801561001057600080fd5b50610ea5806100206000396000f3fe608060405234801561001057600080fd5b50600436106100415760003560e01c8063a5131b4f14610046578063a86ed5a214610076578063f84bae78146100a6575b600080fd5b610060600480360361005b91908101906109ae565b6100c2565b60405161006d9190610c67565b60405180910390f35b610090600480360361008b9190810190610a3e565b61024d565b60405161009d9190610c45565b60405180910390f35b6100c060048036036100bb91908101906109d7565b610388565b005b6100ca610617565b6000808373ffffffffffffffffffffffffffffffffffffffff1673ffffffffffffffffffffffffffffffffffffffff1681526020019081526020016000206040518060c0016040529081600082015481526020016001820160009054906101000a900473ffffffffffffffffffffffffffffffffffffffff1673ffffffffffffffffffffffffffffffffffffffff1673ffffffffffffffffffffffffffffffffffffffff1681526020016002820160009054906101000a900473ffffffffffffffffffffffffffffffffffffffff1673ffffffffffffffffffffffffffffffffffffffff1673ffffffffffffffffffffffffffffffffffffffff168152602001600382015481526020016004820160009054906101000a900460ff161515151581526020016005820180548060200260200160405190810160405280929190818152602001828054801561023d57602002820191906000526020600020905b815481526020019060010190808311610229575b5050505050815250509050919050565b61025561067b565b60026000838152602001908152602001600020604051806080016040529081600082018054600181600116156101000203166002900480601f01602080910402602001604051908101604052809291908181526020018280546001816001161561010002031660029004801561030c5780601f106102e15761010080835404028352916020019161030c565b820191906000526020600020905b8154815290600101906020018083116102ef57829003601f168201915b5050505050815260200160018201548152602001600282015481526020016003820180548060200260200160405190810160405280929190818152602001828054801561037857602002820191906000526020600020905b815481526020019060010190808311610364575b5050505050815250509050919050565b600360008154809291906001019190505550600560008154809291906001019190505550606081516040519080825280602002602001820160405280156103de5781602001602082028038833980820191505090505b50905060008090505b8251811015610492578281815181106103fc57fe5b602002602001015160026000600554815260200190815260200160002060008201518160000190805190602001906104359291906106a3565b5060208201518160010155604082015181600201556060820151816003019080519060200190610466929190610723565b5090505060055482828151811061047957fe5b60200260200101818152505080806001019150506103e7565b506040518060c0016040528060035481526020013373ffffffffffffffffffffffffffffffffffffffff1681526020018573ffffffffffffffffffffffffffffffffffffffff168152602001848152602001600015158152602001828152506000808673ffffffffffffffffffffffffffffffffffffffff1673ffffffffffffffffffffffffffffffffffffffff1681526020019081526020016000206000820151816000015560208201518160010160006101000a81548173ffffffffffffffffffffffffffffffffffffffff021916908373ffffffffffffffffffffffffffffffffffffffff16021790555060408201518160020160006101000a81548173ffffffffffffffffffffffffffffffffffffffff021916908373ffffffffffffffffffffffffffffffffffffffff1602179055506060820151816003015560808201518160040160006101000a81548160ff02191690831515021790555060a082015181600501908051906020019061060d929190610723565b5090505050505050565b6040518060c0016040528060008152602001600073ffffffffffffffffffffffffffffffffffffffff168152602001600073ffffffffffffffffffffffffffffffffffffffff16815260200160008152602001600015158152602001606081525090565b6040518060800160405280606081526020016000815260200160008152602001606081525090565b828054600181600116156101000203166002900490600052602060002090601f016020900481019282601f106106e457805160ff1916838001178555610712565b82800160010185558215610712579182015b828111156107115782518255916020019190600101906106f6565b5b50905061071f9190610770565b5090565b82805482825590600052602060002090810192821561075f579160200282015b8281111561075e578251825591602001919060010190610743565b5b50905061076c9190610770565b5090565b61079291905b8082111561078e576000816000905550600101610776565b5090565b90565b6000813590506107a481610e34565b92915050565b600082601f8301126107bb57600080fd5b81356107ce6107c982610cb6565b610c89565b9150818183526020840193506020810190508360005b8381101561081457813586016107fa88826108f5565b8452602084019350602083019250506001810190506107e4565b5050505092915050565b600082601f83011261082f57600080fd5b813561084261083d82610cde565b610c89565b9150818183526020840193506020810190508385602084028201111561086757600080fd5b60005b83811015610897578161087d8882610999565b84526020840193506020830192505060018101905061086a565b5050505092915050565b600082601f8301126108b257600080fd5b81356108c56108c082610d06565b610c89565b915080825260208301602083018583830111156108e157600080fd5b6108ec838284610de1565b50505092915050565b60006080828403121561090757600080fd5b6109116080610c89565b9050600082013567ffffffffffffffff81111561092d57600080fd5b610939848285016108a1565b600083015250602061094d84828501610999565b602083015250604061096184828501610999565b604083015250606082013567ffffffffffffffff81111561098157600080fd5b61098d8482850161081e565b60608301525092915050565b6000813590506109a881610e4b565b92915050565b6000602082840312156109c057600080fd5b60006109ce84828501610795565b91505092915050565b6000806000606084860312156109ec57600080fd5b60006109fa86828701610795565b9350506020610a0b86828701610999565b925050604084013567ffffffffffffffff811115610a2857600080fd5b610a34868287016107aa565b9150509250925092565b600060208284031215610a5057600080fd5b6000610a5e84828501610999565b91505092915050565b6000610a738383610c36565b60208301905092915050565b610a8881610d99565b82525050565b610a9781610d87565b82525050565b6000610aa882610d42565b610ab28185610d65565b9350610abd83610d32565b8060005b83811015610aee578151610ad58882610a67565b9750610ae083610d58565b925050600181019050610ac1565b5085935050505092915050565b610b0481610dab565b82525050565b6000610b1582610d4d565b610b1f8185610d76565b9350610b2f818560208601610df0565b610b3881610e23565b840191505092915050565b60006080830160008301518482036000860152610b608282610b0a565b9150506020830151610b756020860182610c36565b506040830151610b886040860182610c36565b5060608301518482036060860152610ba08282610a9d565b9150508091505092915050565b600060c083016000830151610bc56000860182610c36565b506020830151610bd86020860182610a7f565b506040830151610beb6040860182610a8e565b506060830151610bfe6060860182610c36565b506080830151610c116080860182610afb565b5060a083015184820360a0860152610c298282610a9d565b9150508091505092915050565b610c3f81610dd7565b82525050565b60006020820190508181036000830152610c5f8184610b43565b905092915050565b60006020820190508181036000830152610c818184610bad565b905092915050565b6000604051905081810181811067ffffffffffffffff82111715610cac57600080fd5b8060405250919050565b600067ffffffffffffffff821115610ccd57600080fd5b602082029050602081019050919050565b600067ffffffffffffffff821115610cf557600080fd5b602082029050602081019050919050565b600067ffffffffffffffff821115610d1d57600080fd5b601f19601f8301169050602081019050919050565b6000819050602082019050919050565b600081519050919050565b600081519050919050565b6000602082019050919050565b600082825260208201905092915050565b600082825260208201905092915050565b6000610d9282610db7565b9050919050565b6000610da482610db7565b9050919050565b60008115159050919050565b600073ffffffffffffffffffffffffffffffffffffffff82169050919050565b6000819050919050565b82818337600083830152505050565b60005b83811015610e0e578082015181840152602081019050610df3565b83811115610e1d576000848401525b50505050565b6000601f19601f8301169050919050565b610e3d81610d87565b8114610e4857600080fd5b50565b610e5481610dd7565b8114610e5f57600080fd5b5056fea365627a7a7231582028fc7e53665c6ac75a004cfab73c90613b5552224a33e4f7eeaf5c2e0e32dae96c6578706572696d656e74616cf564736f6c63430005110040",
  "compiler": {
    "name": "solc",
    "version": "0.5.17+commit.d19bba13.Emscripten.clang",
    "optimizer": {
      "enabled": false,
      "runs": 200
    },
    "evmVersion": "petersburg"
  }
}