{
  "fileName": "Tracepic.sol",
  "contractName": "Tracepic",
  "source": "pragma experimental ABIEncoderV2;\npragma solidity >0.4.99 <0.6.0;\n\n\ncontract Tracepic {\n    struct analyse {\n        uint256 id;\n        address payable seller;\n        address buyer;\n        string analyseReference;\n        string date;\n        string value;\n        string description;\n        uint256 price;\n    }\n\n    struct privateAnalyse {\n        uint256 id;\n        address payable seller;\n        address buyer;\n        string analyseReference;\n        string date;\n        string value;\n        string description;\n        uint256 price;\n        address owner;\n    }\n\n    mapping(uint256 => analyse) public publicAnalysis;\n    mapping(address => privateAnalyse) private privateAnalyses;\n    mapping(address => uint256[]) private privateAnalysesOwners;\n    mapping(address => uint256[]) private publicAnalysesOwners;\n\n    // State variables\n    uint256 publicAnalyseCounter;\n    uint256 privateAnalysesCounter;\n\n    // sell an analyse\n    // function postAnalyse(\n    //     string memory _analyseReference,\n    //     string memory _value,\n    //     string memory _date,\n    //     string memory _description,\n    //     uint256 _price,\n    //     address _owner\n    // ) public {\n    //     if (_owner != address(0)) {\n    //         privateAnalysesCounter++;\n    //         privateAnalysesOwners[msg.sender].push(privateAnalysesCounter);\n    //         privateAnalyses[_owner] = privateAnalyse(\n    //             privateAnalysesCounter,\n    //             msg.sender,\n    //             address(0),\n    //             _analyseReference,\n    //             _date,\n    //             _value,\n    //             _description,\n    //             _price,\n    //             _owner\n    //         );\n    //     } else {\n    //         publicAnalyseCounter++;\n    //         publicAnalysesOwners[msg.sender].push(publicAnalyseCounter);\n    //         publicAnalysis[publicAnalyseCounter] = analyse(\n    //             publicAnalyseCounter,\n    //             msg.sender,\n    //             address(0),\n    //             _analyseReference,\n    //             _date,\n    //             _value,\n    //             _description,\n    //             _price\n    //         );\n    //     }\n    // }\n\n    // buy an analyse\n    function buyAnalyse(uint256 _id) public payable {\n        // we check whether there is at least one analyse\n        require(\n            publicAnalyseCounter > 0,\n            \"There should be at least one analyse\"\n        );\n\n        // we check whether the analyse exists\n        require(\n            _id > 0 && _id <= publicAnalyseCounter,\n            \"analyse with this id does not exist\"\n        );\n\n        // we retrieve the analyse\n        analyse storage analyseToBuy = publicAnalysis[_id];\n\n        // we check whether the analyse has not already been sold\n        require(analyseToBuy.buyer == address(0), \"analyse was already sold\");\n\n        // we don't allow the seller to buy his/her own analyse\n        require(\n            analyseToBuy.seller != msg.sender,\n            \"Seller cannot buy his own analyse\"\n        );\n\n        // we check whether the value sent corresponds to the analyse price\n        require(\n            analyseToBuy.price == msg.value,\n            \"Value provided does not match price of analyse\"\n        );\n\n        // keep buyer's information\n        analyseToBuy.buyer = msg.sender;\n\n        // the buyer can buy the analyse\n        analyseToBuy.seller.transfer(msg.value);\n    }\n\n    // buy a private analyse\n    function buyPrivateAnalyse() public payable {\n        // we retrieve the analyse\n        privateAnalyse memory analyseToBuy = privateAnalyses[msg.sender];\n\n        // we check whether the analyse exists\n        require(analyseToBuy.seller != address(0), \"Analyze not found!\");\n\n        // we check whether the analyse has not already been sold\n        require(analyseToBuy.buyer == address(0), \"analyse was already sold\");\n\n        // we don't allow the seller to buy his/her own analyse\n        require(\n            analyseToBuy.seller != msg.sender,\n            \"Seller cannot buy his own analyse\"\n        );\n\n        // we check whether the value sent corresponds to the analyse price\n        require(\n            analyseToBuy.price == msg.value,\n            \"Value provided does not match price of analyse\"\n        );\n\n        // keep buyer's information\n        analyseToBuy.buyer = msg.sender;\n\n        // the buyer can buy the analyse\n        analyseToBuy.seller.transfer(msg.value);\n    }\n\n    // fetch the number of analyses in the contract\n    function getNumberOfAnalyses() public view returns (uint256) {\n        return publicAnalyseCounter;\n    }\n\n    function getAllAnalyses() public view returns (uint256[] memory) {\n        // we check whether there is at least one analyse\n        if (publicAnalyseCounter == 0) {\n            return new uint256[](0);\n        }\n        // prepare output arrays\n        uint256[] memory analyseIds = new uint256[](publicAnalyseCounter);\n        uint256 numberOfAnalyses = 0;\n        // iterate over analyses\n        for (uint256 i = 1; i <= publicAnalyseCounter; i++) {\n            analyseIds[numberOfAnalyses] = publicAnalysis[i].id;\n            numberOfAnalyses++;\n        }\n        return analyseIds;\n    }\n\n    // fetch and returns all analyse IDs available for sale\n    function getAnalysesForSale() public view returns (uint256[] memory) {\n        // we check whether there is at least one analyse\n        if (publicAnalyseCounter == 0) {\n            return new uint256[](0);\n        }\n        // prepare output arrays\n        uint256[] memory analyseIds = new uint256[](publicAnalyseCounter);\n        uint256 numberOfAnalysesForSale = 0;\n        // iterate over analyses\n        for (uint256 i = 1; i <= publicAnalyseCounter; i++) {\n            // keep only the ID for the analyse not already sold\n            if (publicAnalysis[i].buyer == address(0)) {\n                analyseIds[numberOfAnalysesForSale] = publicAnalysis[i].id;\n                numberOfAnalysesForSale++;\n            }\n        }\n        // copy the analyseIds array into the smaller forSale array\n        uint256[] memory forSale = new uint256[](numberOfAnalysesForSale);\n        for (uint256 j = 0; j < numberOfAnalysesForSale; j++) {\n            forSale[j] = analyseIds[j];\n        }\n        return forSale;\n    }\n\n    function getSelfPublicAnalyses() public view returns (uint256[] memory) {\n        return publicAnalysesOwners[msg.sender];\n    }\n\n    function getSelfPrivateAnalyses() public view returns (uint256[] memory) {\n        return privateAnalysesOwners[msg.sender];\n    }\n\n    function getAnalyseByReference(string memory _reference)\n        public\n        view\n        returns (uint256 id)\n    {\n        for (uint256 i = 1; i <= publicAnalyseCounter; i++) {\n            if (\n                keccak256(\n                    abi.encodePacked(publicAnalysis[i].analyseReference)\n                ) == keccak256(abi.encodePacked(_reference))\n            ) {\n                return publicAnalysis[i].id;\n            }\n        }\n    }\n\n    function getPrivateAnalyse(address _address)\n        public\n        view\n        returns (privateAnalyse memory _privateAnalyse)\n    {\n        privateAnalyse memory _analyse = privateAnalyses[_address];\n        //  bool condition = msg.sender == _analyse.owner || msg.sender == _analyse.seller;\n        //   require(condition, 'You cannot access this analyse');\n        return _analyse;\n    }\n}\n",
  "sourcePath": "contracts/Tracepic.sol",
  "abi": [
    {
      "constant": false,
      "inputs": [
        {
          "internalType": "uint256",
          "name": "_id",
          "type": "uint256"
        }
      ],
      "name": "buyAnalyse",
      "outputs": [],
      "payable": true,
      "stateMutability": "payable",
      "type": "function"
    },
    {
      "constant": false,
      "inputs": [],
      "name": "buyPrivateAnalyse",
      "outputs": [],
      "payable": true,
      "stateMutability": "payable",
      "type": "function"
    },
    {
      "constant": true,
      "inputs": [],
      "name": "getAllAnalyses",
      "outputs": [
        {
          "internalType": "uint256[]",
          "name": "",
          "type": "uint256[]"
        }
      ],
      "payable": false,
      "stateMutability": "view",
      "type": "function"
    },
    {
      "constant": true,
      "inputs": [
        {
          "internalType": "string",
          "name": "_reference",
          "type": "string"
        }
      ],
      "name": "getAnalyseByReference",
      "outputs": [
        {
          "internalType": "uint256",
          "name": "id",
          "type": "uint256"
        }
      ],
      "payable": false,
      "stateMutability": "view",
      "type": "function"
    },
    {
      "constant": true,
      "inputs": [],
      "name": "getAnalysesForSale",
      "outputs": [
        {
          "internalType": "uint256[]",
          "name": "",
          "type": "uint256[]"
        }
      ],
      "payable": false,
      "stateMutability": "view",
      "type": "function"
    },
    {
      "constant": true,
      "inputs": [],
      "name": "getNumberOfAnalyses",
      "outputs": [
        {
          "internalType": "uint256",
          "name": "",
          "type": "uint256"
        }
      ],
      "payable": false,
      "stateMutability": "view",
      "type": "function"
    },
    {
      "constant": true,
      "inputs": [
        {
          "internalType": "address",
          "name": "_address",
          "type": "address"
        }
      ],
      "name": "getPrivateAnalyse",
      "outputs": [
        {
          "components": [
            {
              "internalType": "uint256",
              "name": "id",
              "type": "uint256"
            },
            {
              "internalType": "address payable",
              "name": "seller",
              "type": "address"
            },
            {
              "internalType": "address",
              "name": "buyer",
              "type": "address"
            },
            {
              "internalType": "string",
              "name": "analyseReference",
              "type": "string"
            },
            {
              "internalType": "string",
              "name": "date",
              "type": "string"
            },
            {
              "internalType": "string",
              "name": "value",
              "type": "string"
            },
            {
              "internalType": "string",
              "name": "description",
              "type": "string"
            },
            {
              "internalType": "uint256",
              "name": "price",
              "type": "uint256"
            },
            {
              "internalType": "address",
              "name": "owner",
              "type": "address"
            }
          ],
          "internalType": "struct Tracepic.privateAnalyse",
          "name": "_privateAnalyse",
          "type": "tuple"
        }
      ],
      "payable": false,
      "stateMutability": "view",
      "type": "function"
    },
    {
      "constant": true,
      "inputs": [],
      "name": "getSelfPrivateAnalyses",
      "outputs": [
        {
          "internalType": "uint256[]",
          "name": "",
          "type": "uint256[]"
        }
      ],
      "payable": false,
      "stateMutability": "view",
      "type": "function"
    },
    {
      "constant": true,
      "inputs": [],
      "name": "getSelfPublicAnalyses",
      "outputs": [
        {
          "internalType": "uint256[]",
          "name": "",
          "type": "uint256[]"
        }
      ],
      "payable": false,
      "stateMutability": "view",
      "type": "function"
    },
    {
      "constant": true,
      "inputs": [
        {
          "internalType": "uint256",
          "name": "",
          "type": "uint256"
        }
      ],
      "name": "publicAnalysis",
      "outputs": [
        {
          "internalType": "uint256",
          "name": "id",
          "type": "uint256"
        },
        {
          "internalType": "address payable",
          "name": "seller",
          "type": "address"
        },
        {
          "internalType": "address",
          "name": "buyer",
          "type": "address"
        },
        {
          "internalType": "string",
          "name": "analyseReference",
          "type": "string"
        },
        {
          "internalType": "string",
          "name": "date",
          "type": "string"
        },
        {
          "internalType": "string",
          "name": "value",
          "type": "string"
        },
        {
          "internalType": "string",
          "name": "description",
          "type": "string"
        },
        {
          "internalType": "uint256",
          "name": "price",
          "type": "uint256"
        }
      ],
      "payable": false,
      "stateMutability": "view",
      "type": "function"
    }
  ],
  "bytecode": "0x608060405234801561001057600080fd5b50612116806100206000396000f3fe6080604052600436106100915760003560e01c80639c926f18116100595780639c926f1814610189578063c8ad9929146101b4578063eee967ee146101f1578063f528cdf41461021c578063fbf9960b1461024757610091565b806310367bb01461009657806336d40d44146100d35780633a3ce503146100fe5780635e5a0e201461012957806388dacc7f14610145575b600080fd5b3480156100a257600080fd5b506100bd60048036036100b891908101906117ad565b610251565b6040516100ca9190611e43565b60405180910390f35b3480156100df57600080fd5b506100e8610655565b6040516100f59190611d61565b60405180910390f35b34801561010a57600080fd5b506101136106ea565b6040516101209190611d61565b60405180910390f35b610143600480360361013e9190810190611817565b6107c7565b005b34801561015157600080fd5b5061016c60048036036101679190810190611817565b610a91565b604051610180989796959493929190611e80565b60405180910390f35b34801561019557600080fd5b5061019e610d79565b6040516101ab9190611e65565b60405180910390f35b3480156101c057600080fd5b506101db60048036036101d691908101906117d6565b610d83565b6040516101e89190611e65565b60405180910390f35b3480156101fd57600080fd5b50610206610e2e565b6040516102139190611d61565b60405180910390f35b34801561022857600080fd5b50610231610ff3565b60405161023e9190611d61565b60405180910390f35b61024f611088565b005b6102596116a1565b6102616116a1565b600160008473ffffffffffffffffffffffffffffffffffffffff1673ffffffffffffffffffffffffffffffffffffffff16815260200190815260200160002060405180610120016040529081600082015481526020016001820160009054906101000a900473ffffffffffffffffffffffffffffffffffffffff1673ffffffffffffffffffffffffffffffffffffffff1673ffffffffffffffffffffffffffffffffffffffff1681526020016002820160009054906101000a900473ffffffffffffffffffffffffffffffffffffffff1673ffffffffffffffffffffffffffffffffffffffff1673ffffffffffffffffffffffffffffffffffffffff168152602001600382018054600181600116156101000203166002900480601f0160208091040260200160405190810160405280929190818152602001828054600181600116156101000203166002900480156103fb5780601f106103d0576101008083540402835291602001916103fb565b820191906000526020600020905b8154815290600101906020018083116103de57829003601f168201915b50505050508152602001600482018054600181600116156101000203166002900480601f01602080910402602001604051908101604052809291908181526020018280546001816001161561010002031660029004801561049d5780601f106104725761010080835404028352916020019161049d565b820191906000526020600020905b81548152906001019060200180831161048057829003601f168201915b50505050508152602001600582018054600181600116156101000203166002900480601f01602080910402602001604051908101604052809291908181526020018280546001816001161561010002031660029004801561053f5780601f106105145761010080835404028352916020019161053f565b820191906000526020600020905b81548152906001019060200180831161052257829003601f168201915b50505050508152602001600682018054600181600116156101000203166002900480601f0160208091040260200160405190810160405280929190818152602001828054600181600116156101000203166002900480156105e15780601f106105b6576101008083540402835291602001916105e1565b820191906000526020600020905b8154815290600101906020018083116105c457829003601f168201915b50505050508152602001600782015481526020016008820160009054906101000a900473ffffffffffffffffffffffffffffffffffffffff1673ffffffffffffffffffffffffffffffffffffffff1673ffffffffffffffffffffffffffffffffffffffff1681525050905080915050919050565b6060600360003373ffffffffffffffffffffffffffffffffffffffff1673ffffffffffffffffffffffffffffffffffffffff1681526020019081526020016000208054806020026020016040519081016040528092919081815260200182805480156106e057602002820191906000526020600020905b8154815260200190600101908083116106cc575b5050505050905090565b60606000600454141561072f5760006040519080825280602002602001820160405280156107275781602001602082028038833980820191505090505b5090506107c4565b60606004546040519080825280602002602001820160405280156107625781602001602082028038833980820191505090505b50905060008090506000600190505b60045481116107bd576000808281526020019081526020016000206000015483838151811061079c57fe5b60200260200101818152505081806001019250508080600101915050610771565b5081925050505b90565b60006004541161080c576040517f08c379a000000000000000000000000000000000000000000000000000000000815260040161080390611d83565b60405180910390fd5b60008111801561081e57506004548111155b61085d576040517f08c379a000000000000000000000000000000000000000000000000000000000815260040161085490611e23565b60405180910390fd5b60008060008381526020019081526020016000209050600073ffffffffffffffffffffffffffffffffffffffff168160020160009054906101000a900473ffffffffffffffffffffffffffffffffffffffff1673ffffffffffffffffffffffffffffffffffffffff1614610906576040517f08c379a00000000000000000000000000000000000000000000000000000000081526004016108fd90611de3565b60405180910390fd5b3373ffffffffffffffffffffffffffffffffffffffff168160010160009054906101000a900473ffffffffffffffffffffffffffffffffffffffff1673ffffffffffffffffffffffffffffffffffffffff161415610999576040517f08c379a000000000000000000000000000000000000000000000000000000000815260040161099090611dc3565b60405180910390fd5b348160070154146109df576040517f08c379a00000000000000000000000000000000000000000000000000000000081526004016109d690611e03565b60405180910390fd5b338160020160006101000a81548173ffffffffffffffffffffffffffffffffffffffff021916908373ffffffffffffffffffffffffffffffffffffffff1602179055508060010160009054906101000a900473ffffffffffffffffffffffffffffffffffffffff1673ffffffffffffffffffffffffffffffffffffffff166108fc349081150290604051600060405180830381858888f19350505050158015610a8c573d6000803e3d6000fd5b505050565b60006020528060005260406000206000915090508060000154908060010160009054906101000a900473ffffffffffffffffffffffffffffffffffffffff16908060020160009054906101000a900473ffffffffffffffffffffffffffffffffffffffff1690806003018054600181600116156101000203166002900480601f016020809104026020016040519081016040528092919081815260200182805460018160011615610100020316600290048015610b8f5780601f10610b6457610100808354040283529160200191610b8f565b820191906000526020600020905b815481529060010190602001808311610b7257829003601f168201915b505050505090806004018054600181600116156101000203166002900480601f016020809104026020016040519081016040528092919081815260200182805460018160011615610100020316600290048015610c2d5780601f10610c0257610100808354040283529160200191610c2d565b820191906000526020600020905b815481529060010190602001808311610c1057829003601f168201915b505050505090806005018054600181600116156101000203166002900480601f016020809104026020016040519081016040528092919081815260200182805460018160011615610100020316600290048015610ccb5780601f10610ca057610100808354040283529160200191610ccb565b820191906000526020600020905b815481529060010190602001808311610cae57829003601f168201915b505050505090806006018054600181600116156101000203166002900480601f016020809104026020016040519081016040528092919081815260200182805460018160011615610100020316600290048015610d695780601f10610d3e57610100808354040283529160200191610d69565b820191906000526020600020905b815481529060010190602001808311610d4c57829003601f168201915b5050505050908060070154905088565b6000600454905090565b600080600190505b6004548111610e275782604051602001610da59190611d33565b60405160208183030381529060405280519060200120600080838152602001908152602001600020600301604051602001610de09190611d4a565b604051602081830303815290604052805190602001201415610e1a5760008082815260200190815260200160002060000154915050610e29565b8080600101915050610d8b565b505b919050565b606060006004541415610e73576000604051908082528060200260200182016040528015610e6b5781602001602082028038833980820191505090505b509050610ff0565b6060600454604051908082528060200260200182016040528015610ea65781602001602082028038833980820191505090505b50905060008090506000600190505b6004548111610f6c57600073ffffffffffffffffffffffffffffffffffffffff1660008083815260200190815260200160002060020160009054906101000a900473ffffffffffffffffffffffffffffffffffffffff1673ffffffffffffffffffffffffffffffffffffffff161415610f5f5760008082815260200190815260200160002060000154838381518110610f4a57fe5b60200260200101818152505081806001019250505b8080600101915050610eb5565b50606081604051908082528060200260200182016040528015610f9e5781602001602082028038833980820191505090505b50905060008090505b82811015610fe857838181518110610fbb57fe5b6020026020010151828281518110610fcf57fe5b6020026020010181815250508080600101915050610fa7565b508093505050505b90565b6060600260003373ffffffffffffffffffffffffffffffffffffffff1673ffffffffffffffffffffffffffffffffffffffff16815260200190815260200160002080548060200260200160405190810160405280929190818152602001828054801561107e57602002820191906000526020600020905b81548152602001906001019080831161106a575b5050505050905090565b6110906116a1565b600160003373ffffffffffffffffffffffffffffffffffffffff1673ffffffffffffffffffffffffffffffffffffffff16815260200190815260200160002060405180610120016040529081600082015481526020016001820160009054906101000a900473ffffffffffffffffffffffffffffffffffffffff1673ffffffffffffffffffffffffffffffffffffffff1673ffffffffffffffffffffffffffffffffffffffff1681526020016002820160009054906101000a900473ffffffffffffffffffffffffffffffffffffffff1673ffffffffffffffffffffffffffffffffffffffff1673ffffffffffffffffffffffffffffffffffffffff168152602001600382018054600181600116156101000203166002900480601f01602080910402602001604051908101604052809291908181526020018280546001816001161561010002031660029004801561122a5780601f106111ff5761010080835404028352916020019161122a565b820191906000526020600020905b81548152906001019060200180831161120d57829003601f168201915b50505050508152602001600482018054600181600116156101000203166002900480601f0160208091040260200160405190810160405280929190818152602001828054600181600116156101000203166002900480156112cc5780601f106112a1576101008083540402835291602001916112cc565b820191906000526020600020905b8154815290600101906020018083116112af57829003601f168201915b50505050508152602001600582018054600181600116156101000203166002900480601f01602080910402602001604051908101604052809291908181526020018280546001816001161561010002031660029004801561136e5780601f106113435761010080835404028352916020019161136e565b820191906000526020600020905b81548152906001019060200180831161135157829003601f168201915b50505050508152602001600682018054600181600116156101000203166002900480601f0160208091040260200160405190810160405280929190818152602001828054600181600116156101000203166002900480156114105780601f106113e557610100808354040283529160200191611410565b820191906000526020600020905b8154815290600101906020018083116113f357829003601f168201915b50505050508152602001600782015481526020016008820160009054906101000a900473ffffffffffffffffffffffffffffffffffffffff1673ffffffffffffffffffffffffffffffffffffffff1673ffffffffffffffffffffffffffffffffffffffff16815250509050600073ffffffffffffffffffffffffffffffffffffffff16816020015173ffffffffffffffffffffffffffffffffffffffff1614156114ef576040517f08c379a00000000000000000000000000000000000000000000000000000000081526004016114e690611da3565b60405180910390fd5b600073ffffffffffffffffffffffffffffffffffffffff16816040015173ffffffffffffffffffffffffffffffffffffffff1614611562576040517f08c379a000000000000000000000000000000000000000000000000000000000815260040161155990611de3565b60405180910390fd5b3373ffffffffffffffffffffffffffffffffffffffff16816020015173ffffffffffffffffffffffffffffffffffffffff1614156115d5576040517f08c379a00000000000000000000000000000000000000000000000000000000081526004016115cc90611dc3565b60405180910390fd5b348160e001511461161b576040517f08c379a000000000000000000000000000000000000000000000000000000000815260040161161290611e03565b60405180910390fd5b33816040019073ffffffffffffffffffffffffffffffffffffffff16908173ffffffffffffffffffffffffffffffffffffffff1681525050806020015173ffffffffffffffffffffffffffffffffffffffff166108fc349081150290604051600060405180830381858888f1935050505015801561169d573d6000803e3d6000fd5b5050565b60405180610120016040528060008152602001600073ffffffffffffffffffffffffffffffffffffffff168152602001600073ffffffffffffffffffffffffffffffffffffffff1681526020016060815260200160608152602001606081526020016060815260200160008152602001600073ffffffffffffffffffffffffffffffffffffffff1681525090565b60008135905061173e816120a5565b92915050565b600082601f83011261175557600080fd5b813561176861176382611f47565b611f1a565b9150808252602083016020830185838301111561178457600080fd5b61178f838284612052565b50505092915050565b6000813590506117a7816120bc565b92915050565b6000602082840312156117bf57600080fd5b60006117cd8482850161172f565b91505092915050565b6000602082840312156117e857600080fd5b600082013567ffffffffffffffff81111561180257600080fd5b61180e84828501611744565b91505092915050565b60006020828403121561182957600080fd5b600061183784828501611798565b91505092915050565b600061184c8383611d15565b60208301905092915050565b61186181612016565b82525050565b61187081612016565b82525050565b61187f81612004565b82525050565b61188e81612004565b82525050565b600061189f82611f98565b6118a98185611fc6565b93506118b483611f73565b8060005b838110156118e55781516118cc8882611840565b97506118d783611fb9565b9250506001810190506118b8565b5085935050505092915050565b60006118fd82611fae565b6119078185611ff9565b9350611917818560208601612061565b80840191505092915050565b600061192e82611fa3565b6119388185611fd7565b9350611948818560208601612061565b61195181612094565b840191505092915050565b600061196782611fa3565b6119718185611fe8565b9350611981818560208601612061565b61198a81612094565b840191505092915050565b6000815460018116600081146119b257600181146119d757611a1b565b607f60028304166119c38187611ff9565b955060ff1983168652808601935050611a1b565b600282046119e58187611ff9565b95506119f085611f83565b60005b82811015611a12578154818901526001820191506020810190506119f3565b82880195505050505b505092915050565b6000611a30602483611fe8565b91507f54686572652073686f756c64206265206174206c65617374206f6e6520616e6160008301527f6c797365000000000000000000000000000000000000000000000000000000006020830152604082019050919050565b6000611a96601283611fe8565b91507f416e616c797a65206e6f7420666f756e642100000000000000000000000000006000830152602082019050919050565b6000611ad6602183611fe8565b91507f53656c6c65722063616e6e6f742062757920686973206f776e20616e616c797360008301527f65000000000000000000000000000000000000000000000000000000000000006020830152604082019050919050565b6000611b3c601883611fe8565b91507f616e616c7973652077617320616c726561647920736f6c6400000000000000006000830152602082019050919050565b6000611b7c602e83611fe8565b91507f56616c75652070726f766964656420646f6573206e6f74206d6174636820707260008301527f696365206f6620616e616c7973650000000000000000000000000000000000006020830152604082019050919050565b6000611be2602383611fe8565b91507f616e616c7973652077697468207468697320696420646f6573206e6f7420657860008301527f69737400000000000000000000000000000000000000000000000000000000006020830152604082019050919050565b600061012083016000830151611c546000860182611d15565b506020830151611c676020860182611858565b506040830151611c7a6040860182611876565b5060608301518482036060860152611c928282611923565b91505060808301518482036080860152611cac8282611923565b91505060a083015184820360a0860152611cc68282611923565b91505060c083015184820360c0860152611ce08282611923565b91505060e0830151611cf560e0860182611d15565b50610100830151611d0a610100860182611876565b508091505092915050565b611d1e81612048565b82525050565b611d2d81612048565b82525050565b6000611d3f82846118f2565b915081905092915050565b6000611d568284611995565b915081905092915050565b60006020820190508181036000830152611d7b8184611894565b905092915050565b60006020820190508181036000830152611d9c81611a23565b9050919050565b60006020820190508181036000830152611dbc81611a89565b9050919050565b60006020820190508181036000830152611ddc81611ac9565b9050919050565b60006020820190508181036000830152611dfc81611b2f565b9050919050565b60006020820190508181036000830152611e1c81611b6f565b9050919050565b60006020820190508181036000830152611e3c81611bd5565b9050919050565b60006020820190508181036000830152611e5d8184611c3b565b905092915050565b6000602082019050611e7a6000830184611d24565b92915050565b600061010082019050611e96600083018b611d24565b611ea3602083018a611867565b611eb06040830189611885565b8181036060830152611ec2818861195c565b90508181036080830152611ed6818761195c565b905081810360a0830152611eea818661195c565b905081810360c0830152611efe818561195c565b9050611f0d60e0830184611d24565b9998505050505050505050565b6000604051905081810181811067ffffffffffffffff82111715611f3d57600080fd5b8060405250919050565b600067ffffffffffffffff821115611f5e57600080fd5b601f19601f8301169050602081019050919050565b6000819050602082019050919050565b60008190508160005260206000209050919050565b600081519050919050565b600081519050919050565b600081519050919050565b6000602082019050919050565b600082825260208201905092915050565b600082825260208201905092915050565b600082825260208201905092915050565b600081905092915050565b600061200f82612028565b9050919050565b600061202182612028565b9050919050565b600073ffffffffffffffffffffffffffffffffffffffff82169050919050565b6000819050919050565b82818337600083830152505050565b60005b8381101561207f578082015181840152602081019050612064565b8381111561208e576000848401525b50505050565b6000601f19601f8301169050919050565b6120ae81612004565b81146120b957600080fd5b50565b6120c581612048565b81146120d057600080fd5b5056fea365627a7a72315820f9c6976503cfd7439232be75dce672b7e816a0b9943c4366c2a29f5e6c30cf9e6c6578706572696d656e74616cf564736f6c63430005110040",
  "compiler": {
    "name": "solc",
    "version": "0.5.17+commit.d19bba13.Emscripten.clang",
    "optimizer": {
      "enabled": false,
      "runs": 200
    },
    "evmVersion": "petersburg"
  }
}