{
  "fileName": "Traceable.sol",
  "contractName": "TraceableAnalysis",
  "source": "pragma experimental ABIEncoderV2;\npragma solidity >0.4.99 <0.6.0;\n\ncontract TraceableAnalysis {\n    struct analyse {\n        uint256 id;\n        string analyseReference;\n        string date;\n        string value;\n        string description;\n    }\n\n    struct cycle {\n        uint256 id;\n        address payable seller;\n        address buyer;\n        uint256 price;\n        bool paid;\n        uint256 cycleTimes;\n        uint256 analysisIdsCounter;\n        uint256[] analysisIds;\n    }\n\n    mapping(address => cycle) cycles;\n    mapping(uint256 => analyse) analysis;\n\n    uint256 cyclesCounter;\n    uint256 analysisCounter;\n\n    function getCycle(address owner) public view returns (cycle memory result) {\n        return cycles[owner];\n    }\n\n    function addNewCycle(\n        address client,\n        uint256 cycleTimes,\n        uint256 price,\n        string memory _reference,\n        string memory date,\n        string memory value,\n        string memory description\n    ) public {\n        cyclesCounter++;\n        analysisCounter++;\n        analyse memory firstAnalyse = analyse(\n            analysisCounter,\n            _reference,\n            date,\n            value,\n            description\n        );\n        analysis[analysisCounter] = firstAnalyse;\n        uint256[] memory _analysis = new uint256[](cycleTimes);\n        _analysis[0] = analysisCounter;\n        cycles[client] = cycle(\n            cyclesCounter,\n            msg.sender,\n            client,\n            price,\n            false,\n            cycleTimes,\n            1,\n            _analysis\n        );\n    }\n\n    function addNewAnalyseToCycle(\n        address client,\n        string memory _reference,\n        string memory date,\n        string memory value,\n        string memory description\n    ) public returns (bool isComplete) {\n        cycle memory _cycle = cycles[client];\n        uint256[] memory _analysisIds = _cycle.analysisIds;\n        analysisCounter++;\n        analysis[analysisCounter] = analyse(\n            analysisCounter,\n            _reference,\n            date,\n            value,\n            description\n        );\n        _analysisIds[_cycle.analysisIdsCounter] = analysisCounter;\n        _cycle.analysisIdsCounter++;\n        cycles[client] = _cycle;\n        return (_cycle.analysisIdsCounter == _cycle.cycleTimes);\n    }\n\n    function buyCycle() public payable {\n        require(cyclesCounter > 0, \"There should be at least one analyse\");\n        cycle storage cycleToBuy = cycles[msg.sender];\n        require(cycleToBuy.paid == false, \"analyse was already sold\");\n        require(\n            cycleToBuy.price == msg.value,\n            \"Value provided does not match price of analyse\"\n        );\n        cycleToBuy.paid = true;\n        cycleToBuy.seller.transfer(msg.value);\n    }\n\n    function getAnalyse(uint256 analyseId)\n        public\n        view\n        returns (analyse memory)\n    {\n        return analysis[analyseId];\n    }\n}\n",
  "sourcePath": "contracts/Traceable.sol",
  "abi": [
    {
      "constant": false,
      "inputs": [
        {
          "internalType": "address",
          "name": "client",
          "type": "address"
        },
        {
          "internalType": "string",
          "name": "_reference",
          "type": "string"
        },
        {
          "internalType": "string",
          "name": "date",
          "type": "string"
        },
        {
          "internalType": "string",
          "name": "value",
          "type": "string"
        },
        {
          "internalType": "string",
          "name": "description",
          "type": "string"
        }
      ],
      "name": "addNewAnalyseToCycle",
      "outputs": [
        {
          "internalType": "bool",
          "name": "isComplete",
          "type": "bool"
        }
      ],
      "payable": false,
      "stateMutability": "nonpayable",
      "type": "function"
    },
    {
      "constant": false,
      "inputs": [
        {
          "internalType": "address",
          "name": "client",
          "type": "address"
        },
        {
          "internalType": "uint256",
          "name": "cycleTimes",
          "type": "uint256"
        },
        {
          "internalType": "uint256",
          "name": "price",
          "type": "uint256"
        },
        {
          "internalType": "string",
          "name": "_reference",
          "type": "string"
        },
        {
          "internalType": "string",
          "name": "date",
          "type": "string"
        },
        {
          "internalType": "string",
          "name": "value",
          "type": "string"
        },
        {
          "internalType": "string",
          "name": "description",
          "type": "string"
        }
      ],
      "name": "addNewCycle",
      "outputs": [],
      "payable": false,
      "stateMutability": "nonpayable",
      "type": "function"
    },
    {
      "constant": false,
      "inputs": [],
      "name": "buyCycle",
      "outputs": [],
      "payable": true,
      "stateMutability": "payable",
      "type": "function"
    },
    {
      "constant": true,
      "inputs": [
        {
          "internalType": "uint256",
          "name": "analyseId",
          "type": "uint256"
        }
      ],
      "name": "getAnalyse",
      "outputs": [
        {
          "components": [
            {
              "internalType": "uint256",
              "name": "id",
              "type": "uint256"
            },
            {
              "internalType": "string",
              "name": "analyseReference",
              "type": "string"
            },
            {
              "internalType": "string",
              "name": "date",
              "type": "string"
            },
            {
              "internalType": "string",
              "name": "value",
              "type": "string"
            },
            {
              "internalType": "string",
              "name": "description",
              "type": "string"
            }
          ],
          "internalType": "struct TraceableAnalysis.analyse",
          "name": "",
          "type": "tuple"
        }
      ],
      "payable": false,
      "stateMutability": "view",
      "type": "function"
    },
    {
      "constant": true,
      "inputs": [
        {
          "internalType": "address",
          "name": "owner",
          "type": "address"
        }
      ],
      "name": "getCycle",
      "outputs": [
        {
          "components": [
            {
              "internalType": "uint256",
              "name": "id",
              "type": "uint256"
            },
            {
              "internalType": "address payable",
              "name": "seller",
              "type": "address"
            },
            {
              "internalType": "address",
              "name": "buyer",
              "type": "address"
            },
            {
              "internalType": "uint256",
              "name": "price",
              "type": "uint256"
            },
            {
              "internalType": "bool",
              "name": "paid",
              "type": "bool"
            },
            {
              "internalType": "uint256",
              "name": "cycleTimes",
              "type": "uint256"
            },
            {
              "internalType": "uint256",
              "name": "analysisIdsCounter",
              "type": "uint256"
            },
            {
              "internalType": "uint256[]",
              "name": "analysisIds",
              "type": "uint256[]"
            }
          ],
          "internalType": "struct TraceableAnalysis.cycle",
          "name": "result",
          "type": "tuple"
        }
      ],
      "payable": false,
      "stateMutability": "view",
      "type": "function"
    }
  ],
  "bytecode": "0x608060405234801561001057600080fd5b5061183a806100206000396000f3fe60806040526004361061004a5760003560e01c8063319d4eca1461004f578063707d273d1461008c578063a5131b4f14610096578063b3dc7bc4146100d3578063c517ee06146100fc575b600080fd5b34801561005b57600080fd5b506100766004803603610071919081019061105f565b610139565b604051610083919061159e565b60405180910390f35b61009461052c565b005b3480156100a257600080fd5b506100bd60048036036100b89190810190611036565b6106dc565b6040516100ca919061163b565b60405180910390f35b3480156100df57600080fd5b506100fa60048036036100f59190810190611136565b61087c565b005b34801561010857600080fd5b50610123600480360361011e9190810190611234565b610b65565b6040516101309190611619565b60405180910390f35b6000610143610e24565b6000808873ffffffffffffffffffffffffffffffffffffffff1673ffffffffffffffffffffffffffffffffffffffff16815260200190815260200160002060405180610100016040529081600082015481526020016001820160009054906101000a900473ffffffffffffffffffffffffffffffffffffffff1673ffffffffffffffffffffffffffffffffffffffff1673ffffffffffffffffffffffffffffffffffffffff1681526020016002820160009054906101000a900473ffffffffffffffffffffffffffffffffffffffff1673ffffffffffffffffffffffffffffffffffffffff1673ffffffffffffffffffffffffffffffffffffffff168152602001600382015481526020016004820160009054906101000a900460ff161515151581526020016005820154815260200160068201548152602001600782018054806020026020016040519081016040528092919081815260200182805480156102cb57602002820191906000526020600020905b8154815260200190600101908083116102b7575b505050505081525050905060608160e0015190506003600081548092919060010191905055506040518060a00160405280600354815260200188815260200187815260200186815260200185815250600160006003548152602001908152602001600020600082015181600001556020820151816001019080519060200190610355929190610e97565b506040820151816002019080519060200190610372929190610e97565b50606082015181600301908051906020019061038f929190610e97565b5060808201518160040190805190602001906103ac929190610e97565b50905050600354818360c00151815181106103c357fe5b6020026020010181815250508160c001805180919060010181525050816000808a73ffffffffffffffffffffffffffffffffffffffff1673ffffffffffffffffffffffffffffffffffffffff1681526020019081526020016000206000820151816000015560208201518160010160006101000a81548173ffffffffffffffffffffffffffffffffffffffff021916908373ffffffffffffffffffffffffffffffffffffffff16021790555060408201518160020160006101000a81548173ffffffffffffffffffffffffffffffffffffffff021916908373ffffffffffffffffffffffffffffffffffffffff1602179055506060820151816003015560808201518160040160006101000a81548160ff02191690831515021790555060a0820151816005015560c0820151816006015560e0820151816007019080519060200190610510929190610f17565b509050508160a001518260c00151149250505095945050505050565b600060025411610571576040517f08c379a0000000000000000000000000000000000000000000000000000000008152600401610568906115b9565b60405180910390fd5b60008060003373ffffffffffffffffffffffffffffffffffffffff1673ffffffffffffffffffffffffffffffffffffffff1681526020019081526020016000209050600015158160040160009054906101000a900460ff1615151461060b576040517f08c379a0000000000000000000000000000000000000000000000000000000008152600401610602906115d9565b60405180910390fd5b34816003015414610651576040517f08c379a0000000000000000000000000000000000000000000000000000000008152600401610648906115f9565b60405180910390fd5b60018160040160006101000a81548160ff0219169083151502179055508060010160009054906101000a900473ffffffffffffffffffffffffffffffffffffffff1673ffffffffffffffffffffffffffffffffffffffff166108fc349081150290604051600060405180830381858888f193505050501580156106d8573d6000803e3d6000fd5b5050565b6106e4610e24565b6000808373ffffffffffffffffffffffffffffffffffffffff1673ffffffffffffffffffffffffffffffffffffffff16815260200190815260200160002060405180610100016040529081600082015481526020016001820160009054906101000a900473ffffffffffffffffffffffffffffffffffffffff1673ffffffffffffffffffffffffffffffffffffffff1673ffffffffffffffffffffffffffffffffffffffff1681526020016002820160009054906101000a900473ffffffffffffffffffffffffffffffffffffffff1673ffffffffffffffffffffffffffffffffffffffff1673ffffffffffffffffffffffffffffffffffffffff168152602001600382015481526020016004820160009054906101000a900460ff1615151515815260200160058201548152602001600682015481526020016007820180548060200260200160405190810160405280929190818152602001828054801561086c57602002820191906000526020600020905b815481526020019060010190808311610858575b5050505050815250509050919050565b6002600081548092919060010191905055506003600081548092919060010191905055506108a8610f64565b6040518060a0016040528060035481526020018681526020018581526020018481526020018381525090508060016000600354815260200190815260200160002060008201518160000155602082015181600101908051906020019061090f929190610e97565b50604082015181600201908051906020019061092c929190610e97565b506060820151816003019080519060200190610949929190610e97565b506080820151816004019080519060200190610966929190610e97565b5090505060608760405190808252806020026020018201604052801561099b5781602001602082028038833980820191505090505b509050600354816000815181106109ae57fe5b60200260200101818152505060405180610100016040528060025481526020013373ffffffffffffffffffffffffffffffffffffffff1681526020018a73ffffffffffffffffffffffffffffffffffffffff16815260200188815260200160001515815260200189815260200160018152602001828152506000808b73ffffffffffffffffffffffffffffffffffffffff1673ffffffffffffffffffffffffffffffffffffffff1681526020019081526020016000206000820151816000015560208201518160010160006101000a81548173ffffffffffffffffffffffffffffffffffffffff021916908373ffffffffffffffffffffffffffffffffffffffff16021790555060408201518160020160006101000a81548173ffffffffffffffffffffffffffffffffffffffff021916908373ffffffffffffffffffffffffffffffffffffffff1602179055506060820151816003015560808201518160040160006101000a81548160ff02191690831515021790555060a0820151816005015560c0820151816006015560e0820151816007019080519060200190610b56929190610f17565b50905050505050505050505050565b610b6d610f64565b600160008381526020019081526020016000206040518060a001604052908160008201548152602001600182018054600181600116156101000203166002900480601f016020809104026020016040519081016040528092919081815260200182805460018160011615610100020316600290048015610c2e5780601f10610c0357610100808354040283529160200191610c2e565b820191906000526020600020905b815481529060010190602001808311610c1157829003601f168201915b50505050508152602001600282018054600181600116156101000203166002900480601f016020809104026020016040519081016040528092919081815260200182805460018160011615610100020316600290048015610cd05780601f10610ca557610100808354040283529160200191610cd0565b820191906000526020600020905b815481529060010190602001808311610cb357829003601f168201915b50505050508152602001600382018054600181600116156101000203166002900480601f016020809104026020016040519081016040528092919081815260200182805460018160011615610100020316600290048015610d725780601f10610d4757610100808354040283529160200191610d72565b820191906000526020600020905b815481529060010190602001808311610d5557829003601f168201915b50505050508152602001600482018054600181600116156101000203166002900480601f016020809104026020016040519081016040528092919081815260200182805460018160011615610100020316600290048015610e145780601f10610de957610100808354040283529160200191610e14565b820191906000526020600020905b815481529060010190602001808311610df757829003601f168201915b5050505050815250509050919050565b60405180610100016040528060008152602001600073ffffffffffffffffffffffffffffffffffffffff168152602001600073ffffffffffffffffffffffffffffffffffffffff168152602001600081526020016000151581526020016000815260200160008152602001606081525090565b828054600181600116156101000203166002900490600052602060002090601f016020900481019282601f10610ed857805160ff1916838001178555610f06565b82800160010185558215610f06579182015b82811115610f05578251825591602001919060010190610eea565b5b509050610f139190610f93565b5090565b828054828255906000526020600020908101928215610f53579160200282015b82811115610f52578251825591602001919060010190610f37565b5b509050610f609190610f93565b5090565b6040518060a0016040528060008152602001606081526020016060815260200160608152602001606081525090565b610fb591905b80821115610fb1576000816000905550600101610f99565b5090565b90565b600081359050610fc7816117c9565b92915050565b600082601f830112610fde57600080fd5b8135610ff1610fec8261168a565b61165d565b9150808252602083016020830185838301111561100d57600080fd5b611018838284611776565b50505092915050565b600081359050611030816117e0565b92915050565b60006020828403121561104857600080fd5b600061105684828501610fb8565b91505092915050565b600080600080600060a0868803121561107757600080fd5b600061108588828901610fb8565b955050602086013567ffffffffffffffff8111156110a257600080fd5b6110ae88828901610fcd565b945050604086013567ffffffffffffffff8111156110cb57600080fd5b6110d788828901610fcd565b935050606086013567ffffffffffffffff8111156110f457600080fd5b61110088828901610fcd565b925050608086013567ffffffffffffffff81111561111d57600080fd5b61112988828901610fcd565b9150509295509295909350565b600080600080600080600060e0888a03121561115157600080fd5b600061115f8a828b01610fb8565b97505060206111708a828b01611021565b96505060406111818a828b01611021565b955050606088013567ffffffffffffffff81111561119e57600080fd5b6111aa8a828b01610fcd565b945050608088013567ffffffffffffffff8111156111c757600080fd5b6111d38a828b01610fcd565b93505060a088013567ffffffffffffffff8111156111f057600080fd5b6111fc8a828b01610fcd565b92505060c088013567ffffffffffffffff81111561121957600080fd5b6112258a828b01610fcd565b91505092959891949750929550565b60006020828403121561124657600080fd5b600061125484828501611021565b91505092915050565b6000611269838361158f565b60208301905092915050565b61127e8161172e565b82525050565b61128d8161171c565b82525050565b600061129e826116c6565b6112a881856116e9565b93506112b3836116b6565b8060005b838110156112e45781516112cb888261125d565b97506112d6836116dc565b9250506001810190506112b7565b5085935050505092915050565b6112fa81611740565b82525050565b61130981611740565b82525050565b600061131a826116d1565b61132481856116fa565b9350611334818560208601611785565b61133d816117b8565b840191505092915050565b600061135560248361170b565b91507f54686572652073686f756c64206265206174206c65617374206f6e6520616e6160008301527f6c797365000000000000000000000000000000000000000000000000000000006020830152604082019050919050565b60006113bb60188361170b565b91507f616e616c7973652077617320616c726561647920736f6c6400000000000000006000830152602082019050919050565b60006113fb602e8361170b565b91507f56616c75652070726f766964656420646f6573206e6f74206d6174636820707260008301527f696365206f6620616e616c7973650000000000000000000000000000000000006020830152604082019050919050565b600060a08301600083015161146c600086018261158f565b5060208301518482036020860152611484828261130f565b9150506040830151848203604086015261149e828261130f565b915050606083015184820360608601526114b8828261130f565b915050608083015184820360808601526114d2828261130f565b9150508091505092915050565b6000610100830160008301516114f8600086018261158f565b50602083015161150b6020860182611275565b50604083015161151e6040860182611284565b506060830151611531606086018261158f565b50608083015161154460808601826112f1565b5060a083015161155760a086018261158f565b5060c083015161156a60c086018261158f565b5060e083015184820360e08601526115828282611293565b9150508091505092915050565b6115988161176c565b82525050565b60006020820190506115b36000830184611300565b92915050565b600060208201905081810360008301526115d281611348565b9050919050565b600060208201905081810360008301526115f2816113ae565b9050919050565b60006020820190508181036000830152611612816113ee565b9050919050565b600060208201905081810360008301526116338184611454565b905092915050565b6000602082019050818103600083015261165581846114df565b905092915050565b6000604051905081810181811067ffffffffffffffff8211171561168057600080fd5b8060405250919050565b600067ffffffffffffffff8211156116a157600080fd5b601f19601f8301169050602081019050919050565b6000819050602082019050919050565b600081519050919050565b600081519050919050565b6000602082019050919050565b600082825260208201905092915050565b600082825260208201905092915050565b600082825260208201905092915050565b60006117278261174c565b9050919050565b60006117398261174c565b9050919050565b60008115159050919050565b600073ffffffffffffffffffffffffffffffffffffffff82169050919050565b6000819050919050565b82818337600083830152505050565b60005b838110156117a3578082015181840152602081019050611788565b838111156117b2576000848401525b50505050565b6000601f19601f8301169050919050565b6117d28161171c565b81146117dd57600080fd5b50565b6117e98161176c565b81146117f457600080fd5b5056fea365627a7a72315820508068c406d95935e2aee025501bd86260d2da202d0b1d21ce2579cb265058a16c6578706572696d656e74616cf564736f6c63430005110040",
  "compiler": {
    "name": "solc",
    "version": "0.5.17+commit.d19bba13.Emscripten.clang",
    "optimizer": {
      "enabled": false,
      "runs": 200
    },
    "evmVersion": "petersburg"
  }
}